
Project_Unreal_Engine_Gyro_Accel_DRV.elf:     file format elf32-littlearm

Sections:
Idx Name          Size      VMA       LMA       File off  Algn
  0 .isr_vector   00000188  08000000  08000000  00010000  2**0
                  CONTENTS, ALLOC, LOAD, READONLY, DATA
  1 .text         00005404  08000188  08000188  00010188  2**2
                  CONTENTS, ALLOC, LOAD, READONLY, CODE
  2 .rodata       00000048  0800558c  0800558c  0001558c  2**2
                  CONTENTS, ALLOC, LOAD, READONLY, DATA
  3 .ARM.extab    00000000  080055d4  080055d4  0002000c  2**0
                  CONTENTS
  4 .ARM          00000000  080055d4  080055d4  0002000c  2**0
                  CONTENTS
  5 .preinit_array 00000000  080055d4  080055d4  0002000c  2**0
                  CONTENTS, ALLOC, LOAD, DATA
  6 .init_array   00000004  080055d4  080055d4  000155d4  2**2
                  CONTENTS, ALLOC, LOAD, DATA
  7 .fini_array   00000004  080055d8  080055d8  000155d8  2**2
                  CONTENTS, ALLOC, LOAD, DATA
  8 .data         0000000c  20000000  080055dc  00020000  2**2
                  CONTENTS, ALLOC, LOAD, DATA
  9 .bss          00000160  2000000c  080055e8  0002000c  2**2
                  ALLOC
 10 ._user_heap_stack 00000604  2000016c  080055e8  0002016c  2**0
                  ALLOC
 11 .ARM.attributes 00000030  00000000  00000000  0002000c  2**0
                  CONTENTS, READONLY
 12 .debug_info   00013f85  00000000  00000000  0002003c  2**0
                  CONTENTS, READONLY, DEBUGGING
 13 .debug_abbrev 00002804  00000000  00000000  00033fc1  2**0
                  CONTENTS, READONLY, DEBUGGING
 14 .debug_aranges 00000c08  00000000  00000000  000367c8  2**3
                  CONTENTS, READONLY, DEBUGGING
 15 .debug_ranges 00000b00  00000000  00000000  000373d0  2**3
                  CONTENTS, READONLY, DEBUGGING
 16 .debug_macro  00020f80  00000000  00000000  00037ed0  2**0
                  CONTENTS, READONLY, DEBUGGING
 17 .debug_line   0000cd40  00000000  00000000  00058e50  2**0
                  CONTENTS, READONLY, DEBUGGING
 18 .debug_str    000ba3e1  00000000  00000000  00065b90  2**0
                  CONTENTS, READONLY, DEBUGGING
 19 .comment      0000007b  00000000  00000000  0011ff71  2**0
                  CONTENTS, READONLY
 20 .debug_frame  00002fdc  00000000  00000000  0011ffec  2**2
                  CONTENTS, READONLY, DEBUGGING

Disassembly of section .text:

08000188 <__do_global_dtors_aux>:
 8000188:	b510      	push	{r4, lr}
 800018a:	4c05      	ldr	r4, [pc, #20]	; (80001a0 <__do_global_dtors_aux+0x18>)
 800018c:	7823      	ldrb	r3, [r4, #0]
 800018e:	b933      	cbnz	r3, 800019e <__do_global_dtors_aux+0x16>
 8000190:	4b04      	ldr	r3, [pc, #16]	; (80001a4 <__do_global_dtors_aux+0x1c>)
 8000192:	b113      	cbz	r3, 800019a <__do_global_dtors_aux+0x12>
 8000194:	4804      	ldr	r0, [pc, #16]	; (80001a8 <__do_global_dtors_aux+0x20>)
 8000196:	f3af 8000 	nop.w
 800019a:	2301      	movs	r3, #1
 800019c:	7023      	strb	r3, [r4, #0]
 800019e:	bd10      	pop	{r4, pc}
 80001a0:	2000000c 	.word	0x2000000c
 80001a4:	00000000 	.word	0x00000000
 80001a8:	08005574 	.word	0x08005574

080001ac <frame_dummy>:
 80001ac:	b508      	push	{r3, lr}
 80001ae:	4b03      	ldr	r3, [pc, #12]	; (80001bc <frame_dummy+0x10>)
 80001b0:	b11b      	cbz	r3, 80001ba <frame_dummy+0xe>
 80001b2:	4903      	ldr	r1, [pc, #12]	; (80001c0 <frame_dummy+0x14>)
 80001b4:	4803      	ldr	r0, [pc, #12]	; (80001c4 <frame_dummy+0x18>)
 80001b6:	f3af 8000 	nop.w
 80001ba:	bd08      	pop	{r3, pc}
 80001bc:	00000000 	.word	0x00000000
 80001c0:	20000010 	.word	0x20000010
 80001c4:	08005574 	.word	0x08005574

080001c8 <__NVIC_EnableIRQ>:
  \details Enables a device specific interrupt in the NVIC interrupt controller.
  \param [in]      IRQn  Device specific interrupt number.
  \note    IRQn must not be negative.
 */
__STATIC_INLINE void __NVIC_EnableIRQ(IRQn_Type IRQn)
{
 80001c8:	b480      	push	{r7}
 80001ca:	b083      	sub	sp, #12
 80001cc:	af00      	add	r7, sp, #0
 80001ce:	4603      	mov	r3, r0
 80001d0:	71fb      	strb	r3, [r7, #7]
  if ((int32_t)(IRQn) >= 0)
 80001d2:	f997 3007 	ldrsb.w	r3, [r7, #7]
 80001d6:	2b00      	cmp	r3, #0
 80001d8:	db0b      	blt.n	80001f2 <__NVIC_EnableIRQ+0x2a>
  {
    NVIC->ISER[(((uint32_t)IRQn) >> 5UL)] = (uint32_t)(1UL << (((uint32_t)IRQn) & 0x1FUL));
 80001da:	79fb      	ldrb	r3, [r7, #7]
 80001dc:	f003 021f 	and.w	r2, r3, #31
 80001e0:	4907      	ldr	r1, [pc, #28]	; (8000200 <__NVIC_EnableIRQ+0x38>)
 80001e2:	f997 3007 	ldrsb.w	r3, [r7, #7]
 80001e6:	095b      	lsrs	r3, r3, #5
 80001e8:	2001      	movs	r0, #1
 80001ea:	fa00 f202 	lsl.w	r2, r0, r2
 80001ee:	f841 2023 	str.w	r2, [r1, r3, lsl #2]
  }
}
 80001f2:	bf00      	nop
 80001f4:	370c      	adds	r7, #12
 80001f6:	46bd      	mov	sp, r7
 80001f8:	f85d 7b04 	ldr.w	r7, [sp], #4
 80001fc:	4770      	bx	lr
 80001fe:	bf00      	nop
 8000200:	e000e100 	.word	0xe000e100

08000204 <TIM6_DAC1_IRQHandler>:
//static void Transmit_Data_Test(void);


/******************Hundler ReadInputs******************/
void TIM6_DAC_IRQHandler(void)
{
 8000204:	b580      	push	{r7, lr}
 8000206:	af00      	add	r7, sp, #0
	work_state_tim->SR &= ~TIM_SR_UIF;
 8000208:	4b0c      	ldr	r3, [pc, #48]	; (800023c <TIM6_DAC1_IRQHandler+0x38>)
 800020a:	691b      	ldr	r3, [r3, #16]
 800020c:	4a0b      	ldr	r2, [pc, #44]	; (800023c <TIM6_DAC1_IRQHandler+0x38>)
 800020e:	f023 0301 	bic.w	r3, r3, #1
 8000212:	6113      	str	r3, [r2, #16]
	if(_model_state.state_Ledx>250)
 8000214:	4b0a      	ldr	r3, [pc, #40]	; (8000240 <TIM6_DAC1_IRQHandler+0x3c>)
 8000216:	7d1b      	ldrb	r3, [r3, #20]
 8000218:	2bfa      	cmp	r3, #250	; 0xfa
 800021a:	d902      	bls.n	8000222 <TIM6_DAC1_IRQHandler+0x1e>
				_model_state.state_Ledx=1;
 800021c:	4b08      	ldr	r3, [pc, #32]	; (8000240 <TIM6_DAC1_IRQHandler+0x3c>)
 800021e:	2201      	movs	r2, #1
 8000220:	751a      	strb	r2, [r3, #20]
			Indication_work_state(_model_state.state_Ledx);
 8000222:	4b07      	ldr	r3, [pc, #28]	; (8000240 <TIM6_DAC1_IRQHandler+0x3c>)
 8000224:	7d1b      	ldrb	r3, [r3, #20]
 8000226:	4618      	mov	r0, r3
 8000228:	f000 f860 	bl	80002ec <Indication_work_state>
			_model_state.state_Ledx++;
 800022c:	4b04      	ldr	r3, [pc, #16]	; (8000240 <TIM6_DAC1_IRQHandler+0x3c>)
 800022e:	7d1b      	ldrb	r3, [r3, #20]
 8000230:	3301      	adds	r3, #1
 8000232:	b2da      	uxtb	r2, r3
 8000234:	4b02      	ldr	r3, [pc, #8]	; (8000240 <TIM6_DAC1_IRQHandler+0x3c>)
 8000236:	751a      	strb	r2, [r3, #20]

			//Transmit_Data_Test();
}
 8000238:	bf00      	nop
 800023a:	bd80      	pop	{r7, pc}
 800023c:	40001000 	.word	0x40001000
 8000240:	20000038 	.word	0x20000038

08000244 <TIM7_DAC2_IRQHandler>:

void TIM7_IRQHandler (void)
{
 8000244:	b480      	push	{r7}
 8000246:	af00      	add	r7, sp, #0
	State_Sync_Tim->SR &= ~TIM_SR_UIF;
 8000248:	4b06      	ldr	r3, [pc, #24]	; (8000264 <TIM7_DAC2_IRQHandler+0x20>)
 800024a:	691b      	ldr	r3, [r3, #16]
 800024c:	4a05      	ldr	r2, [pc, #20]	; (8000264 <TIM7_DAC2_IRQHandler+0x20>)
 800024e:	f023 0301 	bic.w	r3, r3, #1
 8000252:	6113      	str	r3, [r2, #16]
	_model_state.sync_trigger=1;
 8000254:	4b04      	ldr	r3, [pc, #16]	; (8000268 <TIM7_DAC2_IRQHandler+0x24>)
 8000256:	2201      	movs	r2, #1
 8000258:	74da      	strb	r2, [r3, #19]


}
 800025a:	bf00      	nop
 800025c:	46bd      	mov	sp, r7
 800025e:	f85d 7b04 	ldr.w	r7, [sp], #4
 8000262:	4770      	bx	lr
 8000264:	40001400 	.word	0x40001400
 8000268:	20000038 	.word	0x20000038

0800026c <Init_Model_Work>:
static void Read_LSM6DS0_Data(void);


/**************Init Logic Model**************/
static void Init_Model_Work(void)
{
 800026c:	b480      	push	{r7}
 800026e:	af00      	add	r7, sp, #0
	_model_state._ID=0x02;
 8000270:	4b05      	ldr	r3, [pc, #20]	; (8000288 <Init_Model_Work+0x1c>)
 8000272:	2202      	movs	r2, #2
 8000274:	801a      	strh	r2, [r3, #0]
	_model_state.sync_trigger=0;
 8000276:	4b04      	ldr	r3, [pc, #16]	; (8000288 <Init_Model_Work+0x1c>)
 8000278:	2200      	movs	r2, #0
 800027a:	74da      	strb	r2, [r3, #19]
}
 800027c:	bf00      	nop
 800027e:	46bd      	mov	sp, r7
 8000280:	f85d 7b04 	ldr.w	r7, [sp], #4
 8000284:	4770      	bx	lr
 8000286:	bf00      	nop
 8000288:	20000038 	.word	0x20000038

0800028c <GPIO_INit>:




static void GPIO_INit(void)
{
 800028c:	b580      	push	{r7, lr}
 800028e:	b086      	sub	sp, #24
 8000290:	af00      	add	r7, sp, #0
	GPIO_InitTypeDef GPIO_InitStruct = {0};
 8000292:	1d3b      	adds	r3, r7, #4
 8000294:	2200      	movs	r2, #0
 8000296:	601a      	str	r2, [r3, #0]
 8000298:	605a      	str	r2, [r3, #4]
 800029a:	609a      	str	r2, [r3, #8]
 800029c:	60da      	str	r2, [r3, #12]
 800029e:	611a      	str	r2, [r3, #16]
	__HAL_RCC_GPIOA_CLK_ENABLE();
 80002a0:	4b11      	ldr	r3, [pc, #68]	; (80002e8 <GPIO_INit+0x5c>)
 80002a2:	695b      	ldr	r3, [r3, #20]
 80002a4:	4a10      	ldr	r2, [pc, #64]	; (80002e8 <GPIO_INit+0x5c>)
 80002a6:	f443 3300 	orr.w	r3, r3, #131072	; 0x20000
 80002aa:	6153      	str	r3, [r2, #20]
 80002ac:	4b0e      	ldr	r3, [pc, #56]	; (80002e8 <GPIO_INit+0x5c>)
 80002ae:	695b      	ldr	r3, [r3, #20]
 80002b0:	f403 3300 	and.w	r3, r3, #131072	; 0x20000
 80002b4:	603b      	str	r3, [r7, #0]
 80002b6:	683b      	ldr	r3, [r7, #0]
	 /*Configure GPIO pin Output Level */
	HAL_GPIO_WritePin(GPIO_PORT_OUT1_LED, GPIO_LED, GPIO_PIN_RESET);
 80002b8:	2200      	movs	r2, #0
 80002ba:	2120      	movs	r1, #32
 80002bc:	f04f 4090 	mov.w	r0, #1207959552	; 0x48000000
 80002c0:	f001 fc14 	bl	8001aec <HAL_GPIO_WritePin>
	   /*Configure GPIO pins : PA5 */
	GPIO_InitStruct.Pin = GPIO_LED;
 80002c4:	2320      	movs	r3, #32
 80002c6:	607b      	str	r3, [r7, #4]
	GPIO_InitStruct.Mode = GPIO_MODE_OUTPUT_PP;
 80002c8:	2301      	movs	r3, #1
 80002ca:	60bb      	str	r3, [r7, #8]
	GPIO_InitStruct.Pull = GPIO_NOPULL;
 80002cc:	2300      	movs	r3, #0
 80002ce:	60fb      	str	r3, [r7, #12]
	GPIO_InitStruct.Speed = GPIO_SPEED_FREQ_LOW;
 80002d0:	2300      	movs	r3, #0
 80002d2:	613b      	str	r3, [r7, #16]
	HAL_GPIO_Init(GPIO_PORT_OUT1_LED, &GPIO_InitStruct);
 80002d4:	1d3b      	adds	r3, r7, #4
 80002d6:	4619      	mov	r1, r3
 80002d8:	f04f 4090 	mov.w	r0, #1207959552	; 0x48000000
 80002dc:	f001 fa94 	bl	8001808 <HAL_GPIO_Init>


}
 80002e0:	bf00      	nop
 80002e2:	3718      	adds	r7, #24
 80002e4:	46bd      	mov	sp, r7
 80002e6:	bd80      	pop	{r7, pc}
 80002e8:	40021000 	.word	0x40021000

080002ec <Indication_work_state>:


/*******************************Indication Work***************************/
static void Indication_work_state(uint8_t cnt_led)
{
 80002ec:	b580      	push	{r7, lr}
 80002ee:	b082      	sub	sp, #8
 80002f0:	af00      	add	r7, sp, #0
 80002f2:	4603      	mov	r3, r0
 80002f4:	71fb      	strb	r3, [r7, #7]
	(cnt_led%2)==0?(LED_ON):(LED_OFF);
 80002f6:	79fb      	ldrb	r3, [r7, #7]
 80002f8:	f003 0301 	and.w	r3, r3, #1
 80002fc:	b2db      	uxtb	r3, r3
 80002fe:	2b00      	cmp	r3, #0
 8000300:	d106      	bne.n	8000310 <Indication_work_state+0x24>
 8000302:	2201      	movs	r2, #1
 8000304:	2120      	movs	r1, #32
 8000306:	f04f 4090 	mov.w	r0, #1207959552	; 0x48000000
 800030a:	f001 fbef 	bl	8001aec <HAL_GPIO_WritePin>
}
 800030e:	e005      	b.n	800031c <Indication_work_state+0x30>
	(cnt_led%2)==0?(LED_ON):(LED_OFF);
 8000310:	2200      	movs	r2, #0
 8000312:	2120      	movs	r1, #32
 8000314:	f04f 4090 	mov.w	r0, #1207959552	; 0x48000000
 8000318:	f001 fbe8 	bl	8001aec <HAL_GPIO_WritePin>
}
 800031c:	bf00      	nop
 800031e:	3708      	adds	r7, #8
 8000320:	46bd      	mov	sp, r7
 8000322:	bd80      	pop	{r7, pc}

08000324 <Init_Timer_StateWork>:

/******************Init Timer for Read Inputws******************/
static void Init_Timer_StateWork(void)
{
 8000324:	b580      	push	{r7, lr}
 8000326:	af00      	add	r7, sp, #0
	RCC->APB1ENR|=RCC_APB1ENR_TIM6EN;
 8000328:	4b0e      	ldr	r3, [pc, #56]	; (8000364 <Init_Timer_StateWork+0x40>)
 800032a:	69db      	ldr	r3, [r3, #28]
 800032c:	4a0d      	ldr	r2, [pc, #52]	; (8000364 <Init_Timer_StateWork+0x40>)
 800032e:	f043 0310 	orr.w	r3, r3, #16
 8000332:	61d3      	str	r3, [r2, #28]
	work_state_tim->PSC=35999;
 8000334:	4b0c      	ldr	r3, [pc, #48]	; (8000368 <Init_Timer_StateWork+0x44>)
 8000336:	f648 429f 	movw	r2, #35999	; 0x8c9f
 800033a:	629a      	str	r2, [r3, #40]	; 0x28
	work_state_tim->ARR=150;
 800033c:	4b0a      	ldr	r3, [pc, #40]	; (8000368 <Init_Timer_StateWork+0x44>)
 800033e:	2296      	movs	r2, #150	; 0x96
 8000340:	62da      	str	r2, [r3, #44]	; 0x2c
	work_state_tim->DIER |= TIM_DIER_UIE;
 8000342:	4b09      	ldr	r3, [pc, #36]	; (8000368 <Init_Timer_StateWork+0x44>)
 8000344:	68db      	ldr	r3, [r3, #12]
 8000346:	4a08      	ldr	r2, [pc, #32]	; (8000368 <Init_Timer_StateWork+0x44>)
 8000348:	f043 0301 	orr.w	r3, r3, #1
 800034c:	60d3      	str	r3, [r2, #12]
	work_state_tim->CR1 |= TIM_CR1_CEN;
 800034e:	4b06      	ldr	r3, [pc, #24]	; (8000368 <Init_Timer_StateWork+0x44>)
 8000350:	681b      	ldr	r3, [r3, #0]
 8000352:	4a05      	ldr	r2, [pc, #20]	; (8000368 <Init_Timer_StateWork+0x44>)
 8000354:	f043 0301 	orr.w	r3, r3, #1
 8000358:	6013      	str	r3, [r2, #0]
	NVIC_EnableIRQ(TIM6_DAC_IRQn);
 800035a:	2036      	movs	r0, #54	; 0x36
 800035c:	f7ff ff34 	bl	80001c8 <__NVIC_EnableIRQ>
}
 8000360:	bf00      	nop
 8000362:	bd80      	pop	{r7, pc}
 8000364:	40021000 	.word	0x40021000
 8000368:	40001000 	.word	0x40001000

0800036c <Init_Sync_Tim>:

/*************Init Tim for Sync Work******************/
static void Init_Sync_Tim(void)
{
 800036c:	b580      	push	{r7, lr}
 800036e:	af00      	add	r7, sp, #0
	RCC->APB1ENR|=RCC_APB1ENR_TIM7EN;
 8000370:	4b0e      	ldr	r3, [pc, #56]	; (80003ac <Init_Sync_Tim+0x40>)
 8000372:	69db      	ldr	r3, [r3, #28]
 8000374:	4a0d      	ldr	r2, [pc, #52]	; (80003ac <Init_Sync_Tim+0x40>)
 8000376:	f043 0320 	orr.w	r3, r3, #32
 800037a:	61d3      	str	r3, [r2, #28]
	State_Sync_Tim->PSC=PRC_State_Sync_TIM;//36MHz/36->1MHz
 800037c:	4b0c      	ldr	r3, [pc, #48]	; (80003b0 <Init_Sync_Tim+0x44>)
 800037e:	2223      	movs	r2, #35	; 0x23
 8000380:	629a      	str	r2, [r3, #40]	; 0x28
	State_Sync_Tim->ARR=ARR_State_SYNC_TIM;//1/1Mhz->1us,for 4kHz near 250us->ARR=250
 8000382:	4b0b      	ldr	r3, [pc, #44]	; (80003b0 <Init_Sync_Tim+0x44>)
 8000384:	22fa      	movs	r2, #250	; 0xfa
 8000386:	62da      	str	r2, [r3, #44]	; 0x2c
	State_Sync_Tim->DIER |= TIM_DIER_UIE;
 8000388:	4b09      	ldr	r3, [pc, #36]	; (80003b0 <Init_Sync_Tim+0x44>)
 800038a:	68db      	ldr	r3, [r3, #12]
 800038c:	4a08      	ldr	r2, [pc, #32]	; (80003b0 <Init_Sync_Tim+0x44>)
 800038e:	f043 0301 	orr.w	r3, r3, #1
 8000392:	60d3      	str	r3, [r2, #12]
	State_Sync_Tim->CR1 |= TIM_CR1_CEN;
 8000394:	4b06      	ldr	r3, [pc, #24]	; (80003b0 <Init_Sync_Tim+0x44>)
 8000396:	681b      	ldr	r3, [r3, #0]
 8000398:	4a05      	ldr	r2, [pc, #20]	; (80003b0 <Init_Sync_Tim+0x44>)
 800039a:	f043 0301 	orr.w	r3, r3, #1
 800039e:	6013      	str	r3, [r2, #0]
	NVIC_EnableIRQ(TIM7_IRQn);
 80003a0:	2037      	movs	r0, #55	; 0x37
 80003a2:	f7ff ff11 	bl	80001c8 <__NVIC_EnableIRQ>
}
 80003a6:	bf00      	nop
 80003a8:	bd80      	pop	{r7, pc}
 80003aa:	bf00      	nop
 80003ac:	40021000 	.word	0x40021000
 80003b0:	40001400 	.word	0x40001400

080003b4 <Read_LSM6DS0_Data>:

/*************************Read LSM6DS0*****************/
static void Read_LSM6DS0_Data(void)
{
 80003b4:	b580      	push	{r7, lr}
 80003b6:	af00      	add	r7, sp, #0
	LSM6DS0_Gyro_GetXYZ(_model_state._lsm6DS0.Gyro);
 80003b8:	4803      	ldr	r0, [pc, #12]	; (80003c8 <Read_LSM6DS0_Data+0x14>)
 80003ba:	f000 fadf 	bl	800097c <LSM6DS0_Gyro_GetXYZ>
	LSM6DS0_Accel_GetXYZ(_model_state._lsm6DS0.Accel);
 80003be:	4803      	ldr	r0, [pc, #12]	; (80003cc <Read_LSM6DS0_Data+0x18>)
 80003c0:	f000 fb5e 	bl	8000a80 <LSM6DS0_Accel_GetXYZ>
}
 80003c4:	bf00      	nop
 80003c6:	bd80      	pop	{r7, pc}
 80003c8:	2000003d 	.word	0x2000003d
 80003cc:	20000043 	.word	0x20000043

080003d0 <Get_Status_Trigger>:
}
*/

/*******************Get Step Tim**********************/
 uint8_t Get_Status_Trigger(void)
{
 80003d0:	b480      	push	{r7}
 80003d2:	af00      	add	r7, sp, #0
	return _model_state.sync_trigger;
 80003d4:	4b03      	ldr	r3, [pc, #12]	; (80003e4 <Get_Status_Trigger+0x14>)
 80003d6:	7cdb      	ldrb	r3, [r3, #19]
}
 80003d8:	4618      	mov	r0, r3
 80003da:	46bd      	mov	sp, r7
 80003dc:	f85d 7b04 	ldr.w	r7, [sp], #4
 80003e0:	4770      	bx	lr
 80003e2:	bf00      	nop
 80003e4:	20000038 	.word	0x20000038

080003e8 <Reset_Trigger>:

/*****************Step In 0 Tim***************/
void Reset_Trigger(void)
{
 80003e8:	b480      	push	{r7}
 80003ea:	af00      	add	r7, sp, #0
	_model_state.sync_trigger=0;
 80003ec:	4b03      	ldr	r3, [pc, #12]	; (80003fc <Reset_Trigger+0x14>)
 80003ee:	2200      	movs	r2, #0
 80003f0:	74da      	strb	r2, [r3, #19]
}
 80003f2:	bf00      	nop
 80003f4:	46bd      	mov	sp, r7
 80003f6:	f85d 7b04 	ldr.w	r7, [sp], #4
 80003fa:	4770      	bx	lr
 80003fc:	20000038 	.word	0x20000038

08000400 <HID_Gyro_Init_Sync>:


/********************Init Model && HARDWARE************/
void HID_Gyro_Init_Sync(void)
{
 8000400:	b580      	push	{r7, lr}
 8000402:	af00      	add	r7, sp, #0

	GPIO_INit();
 8000404:	f7ff ff42 	bl	800028c <GPIO_INit>
	Init_HW_I2C_LSM6DS0();
 8000408:	f000 f8c6 	bl	8000598 <Init_HW_I2C_LSM6DS0>
	_model_state._lsm6DS0.ID=check_LSM6DS0_ID();
 800040c:	f000 faa6 	bl	800095c <check_LSM6DS0_ID>
 8000410:	4603      	mov	r3, r0
 8000412:	b29a      	uxth	r2, r3
 8000414:	4b0d      	ldr	r3, [pc, #52]	; (800044c <HID_Gyro_Init_Sync+0x4c>)
 8000416:	f8a3 2003 	strh.w	r2, [r3, #3]
		Init_LSM6DS0(CONFIG_ACC_GYRO_ENABLE,
 800041a:	2318      	movs	r3, #24
 800041c:	2208      	movs	r2, #8
 800041e:	21c0      	movs	r1, #192	; 0xc0
 8000420:	200c      	movs	r0, #12
 8000422:	f000 fbaf 	bl	8000b84 <Init_LSM6DS0>
				  			LSM6DS0_ACC_GYRO_ODR_G_952Hz,
				  			LSM6DS0_ACC_GYRO_FS_XL_16g,
				  			LSM6DS0_ACC_GYRO_FS_G_2000dps);

	Init_Model_Work();
 8000426:	f7ff ff21 	bl	800026c <Init_Model_Work>
	Set_ID_device(_model_state._ID);
 800042a:	4b08      	ldr	r3, [pc, #32]	; (800044c <HID_Gyro_Init_Sync+0x4c>)
 800042c:	881b      	ldrh	r3, [r3, #0]
 800042e:	4618      	mov	r0, r3
 8000430:	f000 fc12 	bl	8000c58 <Set_ID_device>
	UART_Init_HW(115200);
 8000434:	f44f 30e1 	mov.w	r0, #115200	; 0x1c200
 8000438:	f000 fc1e 	bl	8000c78 <UART_Init_HW>
	RS485_RessiveData_Starthelper();
 800043c:	f000 fbfe 	bl	8000c3c <RS485_RessiveData_Starthelper>
	Init_Timer_StateWork();
 8000440:	f7ff ff70 	bl	8000324 <Init_Timer_StateWork>
	Init_Sync_Tim();
 8000444:	f7ff ff92 	bl	800036c <Init_Sync_Tim>
}
 8000448:	bf00      	nop
 800044a:	bd80      	pop	{r7, pc}
 800044c:	20000038 	.word	0x20000038

08000450 <Data_Sync_HID_Gyro>:

/********************Read Data Sync************/
void Data_Sync_HID_Gyro(void)
{
 8000450:	b580      	push	{r7, lr}
 8000452:	af00      	add	r7, sp, #0
	//Read Data
	Read_LSM6DS0_Data();
 8000454:	f7ff ffae 	bl	80003b4 <Read_LSM6DS0_Data>

}
 8000458:	bf00      	nop
 800045a:	bd80      	pop	{r7, pc}

0800045c <RS485_Connect>:


/***************************Connection RS485********************/
static void RS485_Connect(uint8_t *dt)
{
 800045c:	b480      	push	{r7}
 800045e:	b083      	sub	sp, #12
 8000460:	af00      	add	r7, sp, #0
 8000462:	6078      	str	r0, [r7, #4]
	work_state_tim->CR1 &=~ TIM_CR1_CEN;
 8000464:	4b10      	ldr	r3, [pc, #64]	; (80004a8 <RS485_Connect+0x4c>)
 8000466:	681b      	ldr	r3, [r3, #0]
 8000468:	4a0f      	ldr	r2, [pc, #60]	; (80004a8 <RS485_Connect+0x4c>)
 800046a:	f023 0301 	bic.w	r3, r3, #1
 800046e:	6013      	str	r3, [r2, #0]
	work_state_tim->DIER &=~ TIM_DIER_UIE;
 8000470:	4b0d      	ldr	r3, [pc, #52]	; (80004a8 <RS485_Connect+0x4c>)
 8000472:	68db      	ldr	r3, [r3, #12]
 8000474:	4a0c      	ldr	r2, [pc, #48]	; (80004a8 <RS485_Connect+0x4c>)
 8000476:	f023 0301 	bic.w	r3, r3, #1
 800047a:	60d3      	str	r3, [r2, #12]
	work_state_tim->ARR=1000;
 800047c:	4b0a      	ldr	r3, [pc, #40]	; (80004a8 <RS485_Connect+0x4c>)
 800047e:	f44f 727a 	mov.w	r2, #1000	; 0x3e8
 8000482:	62da      	str	r2, [r3, #44]	; 0x2c
	work_state_tim->DIER |= TIM_DIER_UIE;
 8000484:	4b08      	ldr	r3, [pc, #32]	; (80004a8 <RS485_Connect+0x4c>)
 8000486:	68db      	ldr	r3, [r3, #12]
 8000488:	4a07      	ldr	r2, [pc, #28]	; (80004a8 <RS485_Connect+0x4c>)
 800048a:	f043 0301 	orr.w	r3, r3, #1
 800048e:	60d3      	str	r3, [r2, #12]
	work_state_tim->CR1 |= TIM_CR1_CEN;
 8000490:	4b05      	ldr	r3, [pc, #20]	; (80004a8 <RS485_Connect+0x4c>)
 8000492:	681b      	ldr	r3, [r3, #0]
 8000494:	4a04      	ldr	r2, [pc, #16]	; (80004a8 <RS485_Connect+0x4c>)
 8000496:	f043 0301 	orr.w	r3, r3, #1
 800049a:	6013      	str	r3, [r2, #0]
}
 800049c:	bf00      	nop
 800049e:	370c      	adds	r7, #12
 80004a0:	46bd      	mov	sp, r7
 80004a2:	f85d 7b04 	ldr.w	r7, [sp], #4
 80004a6:	4770      	bx	lr
 80004a8:	40001000 	.word	0x40001000

080004ac <RS485_Disconnect>:

/***************************Disconnect RS485********************/
static void RS485_Disconnect(uint8_t *dt)
{
 80004ac:	b480      	push	{r7}
 80004ae:	b083      	sub	sp, #12
 80004b0:	af00      	add	r7, sp, #0
 80004b2:	6078      	str	r0, [r7, #4]
	work_state_tim->CR1 &=~ TIM_CR1_CEN;
 80004b4:	4b10      	ldr	r3, [pc, #64]	; (80004f8 <RS485_Disconnect+0x4c>)
 80004b6:	681b      	ldr	r3, [r3, #0]
 80004b8:	4a0f      	ldr	r2, [pc, #60]	; (80004f8 <RS485_Disconnect+0x4c>)
 80004ba:	f023 0301 	bic.w	r3, r3, #1
 80004be:	6013      	str	r3, [r2, #0]
	work_state_tim->DIER &=~ TIM_DIER_UIE;
 80004c0:	4b0d      	ldr	r3, [pc, #52]	; (80004f8 <RS485_Disconnect+0x4c>)
 80004c2:	68db      	ldr	r3, [r3, #12]
 80004c4:	4a0c      	ldr	r2, [pc, #48]	; (80004f8 <RS485_Disconnect+0x4c>)
 80004c6:	f023 0301 	bic.w	r3, r3, #1
 80004ca:	60d3      	str	r3, [r2, #12]
	work_state_tim->ARR=150;
 80004cc:	4b0a      	ldr	r3, [pc, #40]	; (80004f8 <RS485_Disconnect+0x4c>)
 80004ce:	2296      	movs	r2, #150	; 0x96
 80004d0:	62da      	str	r2, [r3, #44]	; 0x2c
	work_state_tim->DIER |= TIM_DIER_UIE;
 80004d2:	4b09      	ldr	r3, [pc, #36]	; (80004f8 <RS485_Disconnect+0x4c>)
 80004d4:	68db      	ldr	r3, [r3, #12]
 80004d6:	4a08      	ldr	r2, [pc, #32]	; (80004f8 <RS485_Disconnect+0x4c>)
 80004d8:	f043 0301 	orr.w	r3, r3, #1
 80004dc:	60d3      	str	r3, [r2, #12]
	work_state_tim->CR1 |= TIM_CR1_CEN;
 80004de:	4b06      	ldr	r3, [pc, #24]	; (80004f8 <RS485_Disconnect+0x4c>)
 80004e0:	681b      	ldr	r3, [r3, #0]
 80004e2:	4a05      	ldr	r2, [pc, #20]	; (80004f8 <RS485_Disconnect+0x4c>)
 80004e4:	f043 0301 	orr.w	r3, r3, #1
 80004e8:	6013      	str	r3, [r2, #0]

}
 80004ea:	bf00      	nop
 80004ec:	370c      	adds	r7, #12
 80004ee:	46bd      	mov	sp, r7
 80004f0:	f85d 7b04 	ldr.w	r7, [sp], #4
 80004f4:	4770      	bx	lr
 80004f6:	bf00      	nop
 80004f8:	40001000 	.word	0x40001000

080004fc <Response_Payload_Model>:

/***************************Response Data********************/
static void Response_Payload_Model(uint8_t *dt)
{
 80004fc:	b590      	push	{r4, r7, lr}
 80004fe:	b087      	sub	sp, #28
 8000500:	af00      	add	r7, sp, #0
 8000502:	6078      	str	r0, [r7, #4]
	uint8_t data_payload[SIZE_PAYLOAD]={0};
 8000504:	f107 0308 	add.w	r3, r7, #8
 8000508:	2200      	movs	r2, #0
 800050a:	601a      	str	r2, [r3, #0]
 800050c:	605a      	str	r2, [r3, #4]
 800050e:	609a      	str	r2, [r3, #8]
 8000510:	60da      	str	r2, [r3, #12]
	memcpy(&data_payload,&_model_state._lsm6DS0,SIZE_PAYLOAD);
 8000512:	4b0a      	ldr	r3, [pc, #40]	; (800053c <Response_Payload_Model+0x40>)
 8000514:	f107 0408 	add.w	r4, r7, #8
 8000518:	3303      	adds	r3, #3
 800051a:	6818      	ldr	r0, [r3, #0]
 800051c:	6859      	ldr	r1, [r3, #4]
 800051e:	689a      	ldr	r2, [r3, #8]
 8000520:	68db      	ldr	r3, [r3, #12]
 8000522:	c40f      	stmia	r4!, {r0, r1, r2, r3}
	Transmit_Packet(RESPONSE_MCU_CMD,data_payload,sizeof(data_payload));
 8000524:	f107 0308 	add.w	r3, r7, #8
 8000528:	2210      	movs	r2, #16
 800052a:	4619      	mov	r1, r3
 800052c:	205d      	movs	r0, #93	; 0x5d
 800052e:	f000 fc2b 	bl	8000d88 <Transmit_Packet>

}
 8000532:	bf00      	nop
 8000534:	371c      	adds	r7, #28
 8000536:	46bd      	mov	sp, r7
 8000538:	bd90      	pop	{r4, r7, pc}
 800053a:	bf00      	nop
 800053c:	20000038 	.word	0x20000038

08000540 <RS485_IDLE>:


/***************************NULL Work********************/
static void RS485_IDLE(uint8_t *dt)
{
 8000540:	b480      	push	{r7}
 8000542:	b083      	sub	sp, #12
 8000544:	af00      	add	r7, sp, #0
 8000546:	6078      	str	r0, [r7, #4]

}
 8000548:	bf00      	nop
 800054a:	370c      	adds	r7, #12
 800054c:	46bd      	mov	sp, r7
 800054e:	f85d 7b04 	ldr.w	r7, [sp], #4
 8000552:	4770      	bx	lr

08000554 <RS485_Command_Update_Async>:



/********************Read RS485 Data*******************/
void RS485_Command_Update_Async(void)
{
 8000554:	b580      	push	{r7, lr}
 8000556:	b088      	sub	sp, #32
 8000558:	af00      	add	r7, sp, #0
	if (RS485_rxPkgAvailable() == 0)
 800055a:	f000 fce5 	bl	8000f28 <RS485_rxPkgAvailable>
 800055e:	4603      	mov	r3, r0
 8000560:	2b00      	cmp	r3, #0
 8000562:	d013      	beq.n	800058c <RS485_Command_Update_Async+0x38>
	        return;

	//hard fix of data align trouble
	uint32_t memory[6];
	Protocol_RS485Def *mess = (Protocol_RS485Def *)((uint8_t *)memory + 3);
 8000564:	1d3b      	adds	r3, r7, #4
 8000566:	3303      	adds	r3, #3
 8000568:	61fb      	str	r3, [r7, #28]
	Get_RS485RxMessage(mess);
 800056a:	69f8      	ldr	r0, [r7, #28]
 800056c:	f000 fcc2 	bl	8000ef4 <Get_RS485RxMessage>
	rs485_commands_array[mess->cmd](mess->dataPayload);
 8000570:	69fb      	ldr	r3, [r7, #28]
 8000572:	789b      	ldrb	r3, [r3, #2]
 8000574:	461a      	mov	r2, r3
 8000576:	4b07      	ldr	r3, [pc, #28]	; (8000594 <RS485_Command_Update_Async+0x40>)
 8000578:	f853 3022 	ldr.w	r3, [r3, r2, lsl #2]
 800057c:	69fa      	ldr	r2, [r7, #28]
 800057e:	3203      	adds	r2, #3
 8000580:	4610      	mov	r0, r2
 8000582:	4798      	blx	r3
	SetPkgAvailable(0);
 8000584:	2000      	movs	r0, #0
 8000586:	f000 fcdb 	bl	8000f40 <SetPkgAvailable>
 800058a:	e000      	b.n	800058e <RS485_Command_Update_Async+0x3a>
	        return;
 800058c:	bf00      	nop
}
 800058e:	3720      	adds	r7, #32
 8000590:	46bd      	mov	sp, r7
 8000592:	bd80      	pop	{r7, pc}
 8000594:	0800558c 	.word	0x0800558c

08000598 <Init_HW_I2C_LSM6DS0>:
static uint8_t LSM6DS0_IO_Read(uint16_t DeviceAddr, uint8_t RegisterAddr);


/*******************Init I2C*******************/
void Init_HW_I2C_LSM6DS0(void)
{
 8000598:	b580      	push	{r7, lr}
 800059a:	af00      	add	r7, sp, #0
	I2C_GPIO_Init();
 800059c:	f000 f804 	bl	80005a8 <I2C_GPIO_Init>
	Peripheral_I2C();
 80005a0:	f000 f83e 	bl	8000620 <Peripheral_I2C>
}
 80005a4:	bf00      	nop
 80005a6:	bd80      	pop	{r7, pc}

080005a8 <I2C_GPIO_Init>:

/*******************Init GPIO***********************/
static void I2C_GPIO_Init(void)
{
 80005a8:	b580      	push	{r7, lr}
 80005aa:	b088      	sub	sp, #32
 80005ac:	af00      	add	r7, sp, #0
	GPIO_InitTypeDef GPIO_InitStruct = {0};
 80005ae:	f107 030c 	add.w	r3, r7, #12
 80005b2:	2200      	movs	r2, #0
 80005b4:	601a      	str	r2, [r3, #0]
 80005b6:	605a      	str	r2, [r3, #4]
 80005b8:	609a      	str	r2, [r3, #8]
 80005ba:	60da      	str	r2, [r3, #12]
 80005bc:	611a      	str	r2, [r3, #16]
	I2C_GPIO_ENABLE;
 80005be:	4b16      	ldr	r3, [pc, #88]	; (8000618 <I2C_GPIO_Init+0x70>)
 80005c0:	695b      	ldr	r3, [r3, #20]
 80005c2:	4a15      	ldr	r2, [pc, #84]	; (8000618 <I2C_GPIO_Init+0x70>)
 80005c4:	f443 2380 	orr.w	r3, r3, #262144	; 0x40000
 80005c8:	6153      	str	r3, [r2, #20]
 80005ca:	4b13      	ldr	r3, [pc, #76]	; (8000618 <I2C_GPIO_Init+0x70>)
 80005cc:	695b      	ldr	r3, [r3, #20]
 80005ce:	f403 2380 	and.w	r3, r3, #262144	; 0x40000
 80005d2:	60bb      	str	r3, [r7, #8]
 80005d4:	68bb      	ldr	r3, [r7, #8]
	    /**I2C1 GPIO Configuration
	    PB8     ------> I2C1_SCL
	    PB9     ------> I2C1_SDA
	    */
	    GPIO_InitStruct.Pin = PIN_SDA|PIN_SCL;
 80005d6:	f44f 7340 	mov.w	r3, #768	; 0x300
 80005da:	60fb      	str	r3, [r7, #12]
	    GPIO_InitStruct.Mode = GPIO_MODE_AF_OD;
 80005dc:	2312      	movs	r3, #18
 80005de:	613b      	str	r3, [r7, #16]
	    GPIO_InitStruct.Pull = GPIO_PULLUP;
 80005e0:	2301      	movs	r3, #1
 80005e2:	617b      	str	r3, [r7, #20]
	    GPIO_InitStruct.Speed = GPIO_SPEED_FREQ_HIGH;
 80005e4:	2303      	movs	r3, #3
 80005e6:	61bb      	str	r3, [r7, #24]
	    GPIO_InitStruct.Alternate = GPIO_AF4_I2C1;
 80005e8:	2304      	movs	r3, #4
 80005ea:	61fb      	str	r3, [r7, #28]
	    HAL_GPIO_Init(PORT_I2C, &GPIO_InitStruct);
 80005ec:	f107 030c 	add.w	r3, r7, #12
 80005f0:	4619      	mov	r1, r3
 80005f2:	480a      	ldr	r0, [pc, #40]	; (800061c <I2C_GPIO_Init+0x74>)
 80005f4:	f001 f908 	bl	8001808 <HAL_GPIO_Init>

	    /* I2C1 clock enable */
	    I2C_ENABLE;
 80005f8:	4b07      	ldr	r3, [pc, #28]	; (8000618 <I2C_GPIO_Init+0x70>)
 80005fa:	69db      	ldr	r3, [r3, #28]
 80005fc:	4a06      	ldr	r2, [pc, #24]	; (8000618 <I2C_GPIO_Init+0x70>)
 80005fe:	f443 1300 	orr.w	r3, r3, #2097152	; 0x200000
 8000602:	61d3      	str	r3, [r2, #28]
 8000604:	4b04      	ldr	r3, [pc, #16]	; (8000618 <I2C_GPIO_Init+0x70>)
 8000606:	69db      	ldr	r3, [r3, #28]
 8000608:	f403 1300 	and.w	r3, r3, #2097152	; 0x200000
 800060c:	607b      	str	r3, [r7, #4]
 800060e:	687b      	ldr	r3, [r7, #4]



	  /* USER CODE END I2C1_MspInit 1 */

}
 8000610:	bf00      	nop
 8000612:	3720      	adds	r7, #32
 8000614:	46bd      	mov	sp, r7
 8000616:	bd80      	pop	{r7, pc}
 8000618:	40021000 	.word	0x40021000
 800061c:	48000400 	.word	0x48000400

08000620 <Peripheral_I2C>:

/*******************Init I2C HAL***********************/
static void Peripheral_I2C(void)
{
 8000620:	b580      	push	{r7, lr}
 8000622:	af00      	add	r7, sp, #0
	LSM6DS0_I2C_hundler.Instance = LSM6DS0_CMSIS_HEADER;
 8000624:	4b1e      	ldr	r3, [pc, #120]	; (80006a0 <Peripheral_I2C+0x80>)
 8000626:	4a1f      	ldr	r2, [pc, #124]	; (80006a4 <Peripheral_I2C+0x84>)
 8000628:	601a      	str	r2, [r3, #0]
	LSM6DS0_I2C_hundler.Init.Timing = 0x2000090E;
 800062a:	4b1d      	ldr	r3, [pc, #116]	; (80006a0 <Peripheral_I2C+0x80>)
 800062c:	4a1e      	ldr	r2, [pc, #120]	; (80006a8 <Peripheral_I2C+0x88>)
 800062e:	605a      	str	r2, [r3, #4]
	LSM6DS0_I2C_hundler.Init.OwnAddress1 = 0;
 8000630:	4b1b      	ldr	r3, [pc, #108]	; (80006a0 <Peripheral_I2C+0x80>)
 8000632:	2200      	movs	r2, #0
 8000634:	609a      	str	r2, [r3, #8]
	LSM6DS0_I2C_hundler.Init.AddressingMode = I2C_ADDRESSINGMODE_7BIT;
 8000636:	4b1a      	ldr	r3, [pc, #104]	; (80006a0 <Peripheral_I2C+0x80>)
 8000638:	2201      	movs	r2, #1
 800063a:	60da      	str	r2, [r3, #12]
	LSM6DS0_I2C_hundler.Init.DualAddressMode = I2C_DUALADDRESS_DISABLE;
 800063c:	4b18      	ldr	r3, [pc, #96]	; (80006a0 <Peripheral_I2C+0x80>)
 800063e:	2200      	movs	r2, #0
 8000640:	611a      	str	r2, [r3, #16]
	LSM6DS0_I2C_hundler.Init.OwnAddress2 = 0;
 8000642:	4b17      	ldr	r3, [pc, #92]	; (80006a0 <Peripheral_I2C+0x80>)
 8000644:	2200      	movs	r2, #0
 8000646:	615a      	str	r2, [r3, #20]
	LSM6DS0_I2C_hundler.Init.OwnAddress2Masks = I2C_OA2_NOMASK;
 8000648:	4b15      	ldr	r3, [pc, #84]	; (80006a0 <Peripheral_I2C+0x80>)
 800064a:	2200      	movs	r2, #0
 800064c:	619a      	str	r2, [r3, #24]
	LSM6DS0_I2C_hundler.Init.GeneralCallMode = I2C_GENERALCALL_DISABLE;
 800064e:	4b14      	ldr	r3, [pc, #80]	; (80006a0 <Peripheral_I2C+0x80>)
 8000650:	2200      	movs	r2, #0
 8000652:	61da      	str	r2, [r3, #28]
	LSM6DS0_I2C_hundler.Init.NoStretchMode = I2C_NOSTRETCH_DISABLE;
 8000654:	4b12      	ldr	r3, [pc, #72]	; (80006a0 <Peripheral_I2C+0x80>)
 8000656:	2200      	movs	r2, #0
 8000658:	621a      	str	r2, [r3, #32]
	  if (HAL_I2C_Init(&LSM6DS0_I2C_hundler) != HAL_OK)
 800065a:	4811      	ldr	r0, [pc, #68]	; (80006a0 <Peripheral_I2C+0x80>)
 800065c:	f001 fa5e 	bl	8001b1c <HAL_I2C_Init>
 8000660:	4603      	mov	r3, r0
 8000662:	2b00      	cmp	r3, #0
 8000664:	d001      	beq.n	800066a <Peripheral_I2C+0x4a>
	  {
	    Error_Handler();
 8000666:	f000 fdd6 	bl	8001216 <Error_Handler>
	  }
	  /** Configure Analogue filter
	  */
	  if (HAL_I2CEx_ConfigAnalogFilter(&LSM6DS0_I2C_hundler, I2C_ANALOGFILTER_ENABLE) != HAL_OK)
 800066a:	2100      	movs	r1, #0
 800066c:	480c      	ldr	r0, [pc, #48]	; (80006a0 <Peripheral_I2C+0x80>)
 800066e:	f002 fca3 	bl	8002fb8 <HAL_I2CEx_ConfigAnalogFilter>
	  {

	  }
	  /** Configure Digital filter
	  */
	  if (HAL_I2CEx_ConfigDigitalFilter(&LSM6DS0_I2C_hundler, 0) != HAL_OK)
 8000672:	2100      	movs	r1, #0
 8000674:	480a      	ldr	r0, [pc, #40]	; (80006a0 <Peripheral_I2C+0x80>)
 8000676:	f002 fcea 	bl	800304e <HAL_I2CEx_ConfigDigitalFilter>
	  {

	  }

	  /* I2C1 interrupt Init */
	  HAL_NVIC_SetPriority(INTERRUPT_EV, 0, 0);
 800067a:	2200      	movs	r2, #0
 800067c:	2100      	movs	r1, #0
 800067e:	201f      	movs	r0, #31
 8000680:	f001 f807 	bl	8001692 <HAL_NVIC_SetPriority>
	  HAL_NVIC_EnableIRQ(INTERRUPT_EV);
 8000684:	201f      	movs	r0, #31
 8000686:	f001 f820 	bl	80016ca <HAL_NVIC_EnableIRQ>
	  HAL_NVIC_SetPriority(INTERRUPT_ERR, 0, 0);
 800068a:	2200      	movs	r2, #0
 800068c:	2100      	movs	r1, #0
 800068e:	2020      	movs	r0, #32
 8000690:	f000 ffff 	bl	8001692 <HAL_NVIC_SetPriority>
	  HAL_NVIC_EnableIRQ(INTERRUPT_ERR);
 8000694:	2020      	movs	r0, #32
 8000696:	f001 f818 	bl	80016ca <HAL_NVIC_EnableIRQ>
	  	  /* USER CODE BEGIN I2C1_MspInit 1 */



}
 800069a:	bf00      	nop
 800069c:	bd80      	pop	{r7, pc}
 800069e:	bf00      	nop
 80006a0:	20000098 	.word	0x20000098
 80006a4:	40005400 	.word	0x40005400
 80006a8:	2000090e 	.word	0x2000090e

080006ac <LSM6DS0_IO_Write>:

/***************************Write I2C Data in LSM6DS0****************************************/
static void LSM6DS0_IO_Write(uint16_t DeviceAddr, uint8_t RegisterAddr, uint8_t Value)
{
 80006ac:	b580      	push	{r7, lr}
 80006ae:	b088      	sub	sp, #32
 80006b0:	af04      	add	r7, sp, #16
 80006b2:	4603      	mov	r3, r0
 80006b4:	80fb      	strh	r3, [r7, #6]
 80006b6:	460b      	mov	r3, r1
 80006b8:	717b      	strb	r3, [r7, #5]
 80006ba:	4613      	mov	r3, r2
 80006bc:	713b      	strb	r3, [r7, #4]
	HAL_StatusTypeDef status = HAL_OK;
 80006be:	2300      	movs	r3, #0
 80006c0:	73fb      	strb	r3, [r7, #15]
    status = HAL_I2C_Mem_Write(&LSM6DS0_I2C_hundler, DeviceAddr, (uint16_t)RegisterAddr, I2C_MEMADD_SIZE_8BIT, &Value, 1, 0x10000);
 80006c2:	797b      	ldrb	r3, [r7, #5]
 80006c4:	b29a      	uxth	r2, r3
 80006c6:	88f9      	ldrh	r1, [r7, #6]
 80006c8:	f44f 3380 	mov.w	r3, #65536	; 0x10000
 80006cc:	9302      	str	r3, [sp, #8]
 80006ce:	2301      	movs	r3, #1
 80006d0:	9301      	str	r3, [sp, #4]
 80006d2:	1d3b      	adds	r3, r7, #4
 80006d4:	9300      	str	r3, [sp, #0]
 80006d6:	2301      	movs	r3, #1
 80006d8:	4804      	ldr	r0, [pc, #16]	; (80006ec <LSM6DS0_IO_Write+0x40>)
 80006da:	f001 faaf 	bl	8001c3c <HAL_I2C_Mem_Write>
 80006de:	4603      	mov	r3, r0
 80006e0:	73fb      	strb	r3, [r7, #15]
    if(status != HAL_OK)
    	{
    		//Event Error
    	}
}
 80006e2:	bf00      	nop
 80006e4:	3710      	adds	r7, #16
 80006e6:	46bd      	mov	sp, r7
 80006e8:	bd80      	pop	{r7, pc}
 80006ea:	bf00      	nop
 80006ec:	20000098 	.word	0x20000098

080006f0 <LSM6DS0_IO_Read>:

/***************************Read I2C Data in LSM6DS0****************************************/
static uint8_t LSM6DS0_IO_Read(uint16_t DeviceAddr, uint8_t RegisterAddr)
{
 80006f0:	b580      	push	{r7, lr}
 80006f2:	b088      	sub	sp, #32
 80006f4:	af04      	add	r7, sp, #16
 80006f6:	4603      	mov	r3, r0
 80006f8:	460a      	mov	r2, r1
 80006fa:	80fb      	strh	r3, [r7, #6]
 80006fc:	4613      	mov	r3, r2
 80006fe:	717b      	strb	r3, [r7, #5]
	HAL_StatusTypeDef status = HAL_OK;
 8000700:	2300      	movs	r3, #0
 8000702:	73fb      	strb	r3, [r7, #15]
    uint8_t value = 0;
 8000704:	2300      	movs	r3, #0
 8000706:	73bb      	strb	r3, [r7, #14]
    status = HAL_I2C_Mem_Read(&LSM6DS0_I2C_hundler, DeviceAddr, RegisterAddr, I2C_MEMADD_SIZE_8BIT, &value, 1, 0x10000);
 8000708:	797b      	ldrb	r3, [r7, #5]
 800070a:	b29a      	uxth	r2, r3
 800070c:	88f9      	ldrh	r1, [r7, #6]
 800070e:	f44f 3380 	mov.w	r3, #65536	; 0x10000
 8000712:	9302      	str	r3, [sp, #8]
 8000714:	2301      	movs	r3, #1
 8000716:	9301      	str	r3, [sp, #4]
 8000718:	f107 030e 	add.w	r3, r7, #14
 800071c:	9300      	str	r3, [sp, #0]
 800071e:	2301      	movs	r3, #1
 8000720:	4804      	ldr	r0, [pc, #16]	; (8000734 <LSM6DS0_IO_Read+0x44>)
 8000722:	f001 fb9f 	bl	8001e64 <HAL_I2C_Mem_Read>
 8000726:	4603      	mov	r3, r0
 8000728:	73fb      	strb	r3, [r7, #15]
     if(status != HAL_OK)
     {
    	 //Event Error
     }
      return value;
 800072a:	7bbb      	ldrb	r3, [r7, #14]
}
 800072c:	4618      	mov	r0, r3
 800072e:	3710      	adds	r7, #16
 8000730:	46bd      	mov	sp, r7
 8000732:	bd80      	pop	{r7, pc}
 8000734:	20000098 	.word	0x20000098

08000738 <LSM6DS0_ACCEL_Init_HRW>:



/******************Init Register Accel LSM6DS0*************************/
void LSM6DS0_ACCEL_Init_HRW(uint8_t Freq,uint8_t Range)
{
 8000738:	b580      	push	{r7, lr}
 800073a:	b084      	sub	sp, #16
 800073c:	af00      	add	r7, sp, #0
 800073e:	4603      	mov	r3, r0
 8000740:	460a      	mov	r2, r1
 8000742:	71fb      	strb	r3, [r7, #7]
 8000744:	4613      	mov	r3, r2
 8000746:	71bb      	strb	r3, [r7, #6]
		uint8_t value=0;
 8000748:	2300      	movs	r3, #0
 800074a:	73fb      	strb	r3, [r7, #15]
		value = LSM6DS0_IO_Read(LSM6DS0_DEV_ID, LSM6DS0_ACC_GYRO_CTRL_REG8);
 800074c:	2122      	movs	r1, #34	; 0x22
 800074e:	20d6      	movs	r0, #214	; 0xd6
 8000750:	f7ff ffce 	bl	80006f0 <LSM6DS0_IO_Read>
 8000754:	4603      	mov	r3, r0
 8000756:	73fb      	strb	r3, [r7, #15]
		value &= ~LSM6DS0_ACC_GYRO_BDU_MASK;
 8000758:	7bfb      	ldrb	r3, [r7, #15]
 800075a:	f023 0340 	bic.w	r3, r3, #64	; 0x40
 800075e:	73fb      	strb	r3, [r7, #15]
		value |= LSM6DS0_ACC_GYRO_BDU_ENABLE;
 8000760:	7bfb      	ldrb	r3, [r7, #15]
 8000762:	f043 0340 	orr.w	r3, r3, #64	; 0x40
 8000766:	73fb      	strb	r3, [r7, #15]
		LSM6DS0_IO_Write(LSM6DS0_DEV_ID, LSM6DS0_ACC_GYRO_CTRL_REG8, value);
 8000768:	7bfb      	ldrb	r3, [r7, #15]
 800076a:	461a      	mov	r2, r3
 800076c:	2122      	movs	r1, #34	; 0x22
 800076e:	20d6      	movs	r0, #214	; 0xd6
 8000770:	f7ff ff9c 	bl	80006ac <LSM6DS0_IO_Write>

		value = LSM6DS0_IO_Read(LSM6DS0_DEV_ID, LSM6DS0_ACC_GYRO_CTRL_REG6_XL);
 8000774:	2120      	movs	r1, #32
 8000776:	20d6      	movs	r0, #214	; 0xd6
 8000778:	f7ff ffba 	bl	80006f0 <LSM6DS0_IO_Read>
 800077c:	4603      	mov	r3, r0
 800077e:	73fb      	strb	r3, [r7, #15]
		value &= ~LSM6DS0_ACC_GYRO_ODR_XL_MASK;
 8000780:	7bfb      	ldrb	r3, [r7, #15]
 8000782:	f003 031f 	and.w	r3, r3, #31
 8000786:	73fb      	strb	r3, [r7, #15]
		value |= LSM6DS0_ACC_GYRO_ODR_XL_POWER_DOWN;
		LSM6DS0_IO_Write(LSM6DS0_DEV_ID, LSM6DS0_ACC_GYRO_CTRL_REG6_XL, value);
 8000788:	7bfb      	ldrb	r3, [r7, #15]
 800078a:	461a      	mov	r2, r3
 800078c:	2120      	movs	r1, #32
 800078e:	20d6      	movs	r0, #214	; 0xd6
 8000790:	f7ff ff8c 	bl	80006ac <LSM6DS0_IO_Write>

		//Full scale selection
		value = LSM6DS0_IO_Read(LSM6DS0_DEV_ID, LSM6DS0_ACC_GYRO_CTRL_REG6_XL);
 8000794:	2120      	movs	r1, #32
 8000796:	20d6      	movs	r0, #214	; 0xd6
 8000798:	f7ff ffaa 	bl	80006f0 <LSM6DS0_IO_Read>
 800079c:	4603      	mov	r3, r0
 800079e:	73fb      	strb	r3, [r7, #15]
	    value &= ~LSM6DS0_ACC_GYRO_FS_XL_MASK;
 80007a0:	7bfb      	ldrb	r3, [r7, #15]
 80007a2:	f023 0318 	bic.w	r3, r3, #24
 80007a6:	73fb      	strb	r3, [r7, #15]
		value |= Range;
 80007a8:	7bfa      	ldrb	r2, [r7, #15]
 80007aa:	79bb      	ldrb	r3, [r7, #6]
 80007ac:	4313      	orrs	r3, r2
 80007ae:	73fb      	strb	r3, [r7, #15]
		LSM6DS0_IO_Write(LSM6DS0_DEV_ID, LSM6DS0_ACC_GYRO_CTRL_REG6_XL, value);
 80007b0:	7bfb      	ldrb	r3, [r7, #15]
 80007b2:	461a      	mov	r2, r3
 80007b4:	2120      	movs	r1, #32
 80007b6:	20d6      	movs	r0, #214	; 0xd6
 80007b8:	f7ff ff78 	bl	80006ac <LSM6DS0_IO_Write>

		value = LSM6DS0_IO_Read(LSM6DS0_DEV_ID, LSM6DS0_ACC_GYRO_CTRL_REG5_XL);
 80007bc:	211f      	movs	r1, #31
 80007be:	20d6      	movs	r0, #214	; 0xd6
 80007c0:	f7ff ff96 	bl	80006f0 <LSM6DS0_IO_Read>
 80007c4:	4603      	mov	r3, r0
 80007c6:	73fb      	strb	r3, [r7, #15]
		value &= ~(LSM6DS0_ACC_GYRO_XEN_XL_MASK |
 80007c8:	7bfb      	ldrb	r3, [r7, #15]
 80007ca:	f023 0338 	bic.w	r3, r3, #56	; 0x38
 80007ce:	73fb      	strb	r3, [r7, #15]
	               LSM6DS0_ACC_GYRO_YEN_XL_MASK |
	               LSM6DS0_ACC_GYRO_ZEN_XL_MASK);
		value |= (LSM6DS0_ACC_GYRO_XEN_XL_ENABLE |
 80007d0:	7bfb      	ldrb	r3, [r7, #15]
 80007d2:	f043 0338 	orr.w	r3, r3, #56	; 0x38
 80007d6:	73fb      	strb	r3, [r7, #15]
	              LSM6DS0_ACC_GYRO_YEN_XL_ENABLE |
	              LSM6DS0_ACC_GYRO_ZEN_XL_ENABLE);
		LSM6DS0_IO_Write(LSM6DS0_DEV_ID, LSM6DS0_ACC_GYRO_CTRL_REG5_XL, value);
 80007d8:	7bfb      	ldrb	r3, [r7, #15]
 80007da:	461a      	mov	r2, r3
 80007dc:	211f      	movs	r1, #31
 80007de:	20d6      	movs	r0, #214	; 0xd6
 80007e0:	f7ff ff64 	bl	80006ac <LSM6DS0_IO_Write>



		value = LSM6DS0_IO_Read(LSM6DS0_DEV_ID, LSM6DS0_ACC_GYRO_CTRL_REG6_XL);
 80007e4:	2120      	movs	r1, #32
 80007e6:	20d6      	movs	r0, #214	; 0xd6
 80007e8:	f7ff ff82 	bl	80006f0 <LSM6DS0_IO_Read>
 80007ec:	4603      	mov	r3, r0
 80007ee:	73fb      	strb	r3, [r7, #15]
		value &= ~LSM6DS0_ACC_GYRO_ODR_XL_MASK;
 80007f0:	7bfb      	ldrb	r3, [r7, #15]
 80007f2:	f003 031f 	and.w	r3, r3, #31
 80007f6:	73fb      	strb	r3, [r7, #15]
		value |= Freq;
 80007f8:	7bfa      	ldrb	r2, [r7, #15]
 80007fa:	79fb      	ldrb	r3, [r7, #7]
 80007fc:	4313      	orrs	r3, r2
 80007fe:	73fb      	strb	r3, [r7, #15]
		LSM6DS0_IO_Write(LSM6DS0_DEV_ID, LSM6DS0_ACC_GYRO_CTRL_REG6_XL, value);
 8000800:	7bfb      	ldrb	r3, [r7, #15]
 8000802:	461a      	mov	r2, r3
 8000804:	2120      	movs	r1, #32
 8000806:	20d6      	movs	r0, #214	; 0xd6
 8000808:	f7ff ff50 	bl	80006ac <LSM6DS0_IO_Write>
}
 800080c:	bf00      	nop
 800080e:	3710      	adds	r7, #16
 8000810:	46bd      	mov	sp, r7
 8000812:	bd80      	pop	{r7, pc}

08000814 <LSM6DS0_GYRO_Init_HRW>:



/******************Init Register Gyroscope LSM6DS0*************************/
void LSM6DS0_GYRO_Init_HRW(uint8_t Freq,uint8_t Range)
{
 8000814:	b580      	push	{r7, lr}
 8000816:	b084      	sub	sp, #16
 8000818:	af00      	add	r7, sp, #0
 800081a:	4603      	mov	r3, r0
 800081c:	460a      	mov	r2, r1
 800081e:	71fb      	strb	r3, [r7, #7]
 8000820:	4613      	mov	r3, r2
 8000822:	71bb      	strb	r3, [r7, #6]

	uint8_t value = 0;
 8000824:	2300      	movs	r3, #0
 8000826:	73bb      	strb	r3, [r7, #14]
    value = LSM6DS0_IO_Read(LSM6DS0_DEV_ID,LSM6DS0_ACC_GYRO_CTRL_REG1_G);
 8000828:	2110      	movs	r1, #16
 800082a:	20d6      	movs	r0, #214	; 0xd6
 800082c:	f7ff ff60 	bl	80006f0 <LSM6DS0_IO_Read>
 8000830:	4603      	mov	r3, r0
 8000832:	73bb      	strb	r3, [r7, #14]
    value&=~LSM6DS0_ACC_GYRO_ODR_G_MASK;
 8000834:	7bbb      	ldrb	r3, [r7, #14]
 8000836:	f003 031f 	and.w	r3, r3, #31
 800083a:	73bb      	strb	r3, [r7, #14]
    value|=LSM6DS0_ACC_GYRO_ODR_G_POWER_DOWN;
    LSM6DS0_IO_Write(LSM6DS0_DEV_ID,LSM6DS0_ACC_GYRO_CTRL_REG1_G,value);
 800083c:	7bbb      	ldrb	r3, [r7, #14]
 800083e:	461a      	mov	r2, r3
 8000840:	2110      	movs	r1, #16
 8000842:	20d6      	movs	r0, #214	; 0xd6
 8000844:	f7ff ff32 	bl	80006ac <LSM6DS0_IO_Write>
    value = LSM6DS0_IO_Read(LSM6DS0_DEV_ID,LSM6DS0_ACC_GYRO_CTRL_REG1_G);
 8000848:	2110      	movs	r1, #16
 800084a:	20d6      	movs	r0, #214	; 0xd6
 800084c:	f7ff ff50 	bl	80006f0 <LSM6DS0_IO_Read>
 8000850:	4603      	mov	r3, r0
 8000852:	73bb      	strb	r3, [r7, #14]
    value&=~LSM6DS0_ACC_GYRO_FS_G_MASK;
 8000854:	7bbb      	ldrb	r3, [r7, #14]
 8000856:	f023 0318 	bic.w	r3, r3, #24
 800085a:	73bb      	strb	r3, [r7, #14]
    value|=Range;
 800085c:	7bba      	ldrb	r2, [r7, #14]
 800085e:	79bb      	ldrb	r3, [r7, #6]
 8000860:	4313      	orrs	r3, r2
 8000862:	73bb      	strb	r3, [r7, #14]
    LSM6DS0_IO_Write(LSM6DS0_DEV_ID,LSM6DS0_ACC_GYRO_CTRL_REG1_G,value);
 8000864:	7bbb      	ldrb	r3, [r7, #14]
 8000866:	461a      	mov	r2, r3
 8000868:	2110      	movs	r1, #16
 800086a:	20d6      	movs	r0, #214	; 0xd6
 800086c:	f7ff ff1e 	bl	80006ac <LSM6DS0_IO_Write>
	    //Включим оси
   	value = LSM6DS0_IO_Read(LSM6DS0_DEV_ID,LSM6DS0_ACC_GYRO_CTRL_REG4);
 8000870:	211e      	movs	r1, #30
 8000872:	20d6      	movs	r0, #214	; 0xd6
 8000874:	f7ff ff3c 	bl	80006f0 <LSM6DS0_IO_Read>
 8000878:	4603      	mov	r3, r0
 800087a:	73bb      	strb	r3, [r7, #14]
   	value&=~(LSM6DS0_ACC_GYRO_XEN_G_ENABLE|\
 800087c:	7bbb      	ldrb	r3, [r7, #14]
 800087e:	f023 0338 	bic.w	r3, r3, #56	; 0x38
 8000882:	73bb      	strb	r3, [r7, #14]
 					 LSM6DS0_ACC_GYRO_YEN_G_ENABLE|\
   					 LSM6DS0_ACC_GYRO_ZEN_G_ENABLE);
   	value|=(LSM6DS0_ACC_GYRO_XEN_G_MASK|\
 8000884:	7bbb      	ldrb	r3, [r7, #14]
 8000886:	f043 0338 	orr.w	r3, r3, #56	; 0x38
 800088a:	73bb      	strb	r3, [r7, #14]
    					LSM6DS0_ACC_GYRO_YEN_G_MASK|\
    					LSM6DS0_ACC_GYRO_ZEN_G_MASK);
   	LSM6DS0_IO_Write(LSM6DS0_DEV_ID,LSM6DS0_ACC_GYRO_CTRL_REG4,value);
 800088c:	7bbb      	ldrb	r3, [r7, #14]
 800088e:	461a      	mov	r2, r3
 8000890:	211e      	movs	r1, #30
 8000892:	20d6      	movs	r0, #214	; 0xd6
 8000894:	f7ff ff0a 	bl	80006ac <LSM6DS0_IO_Write>
   //ON HPF и LPF2 (Filters)
    value = LSM6DS0_IO_Read(LSM6DS0_DEV_ID,LSM6DS0_ACC_GYRO_CTRL_REG2_G);
 8000898:	2111      	movs	r1, #17
 800089a:	20d6      	movs	r0, #214	; 0xd6
 800089c:	f7ff ff28 	bl	80006f0 <LSM6DS0_IO_Read>
 80008a0:	4603      	mov	r3, r0
 80008a2:	73bb      	strb	r3, [r7, #14]
    value&=~LSM6DS0_ACC_GYRO_OUT_SEL_MASK;
 80008a4:	7bbb      	ldrb	r3, [r7, #14]
 80008a6:	f023 0303 	bic.w	r3, r3, #3
 80008aa:	73bb      	strb	r3, [r7, #14]
    value|=LSM6DS0_ACC_GYRO_OUT_SEL_USE_HPF_AND_LPF2;
 80008ac:	7bbb      	ldrb	r3, [r7, #14]
 80008ae:	f043 0302 	orr.w	r3, r3, #2
 80008b2:	73bb      	strb	r3, [r7, #14]
    LSM6DS0_IO_Write(LSM6DS0_DEV_ID,LSM6DS0_ACC_GYRO_CTRL_REG2_G,value);
 80008b4:	7bbb      	ldrb	r3, [r7, #14]
 80008b6:	461a      	mov	r2, r3
 80008b8:	2111      	movs	r1, #17
 80008ba:	20d6      	movs	r0, #214	; 0xd6
 80008bc:	f7ff fef6 	bl	80006ac <LSM6DS0_IO_Write>
	    //capacity
    uint8_t capacity=0;
 80008c0:	2300      	movs	r3, #0
 80008c2:	73fb      	strb	r3, [r7, #15]
    if(Freq==LSM6DS0_ACC_GYRO_ODR_G_15Hz||Freq==LSM6DS0_ACC_GYRO_ODR_G_60Hz )
 80008c4:	79fb      	ldrb	r3, [r7, #7]
 80008c6:	2b20      	cmp	r3, #32
 80008c8:	d002      	beq.n	80008d0 <LSM6DS0_GYRO_Init_HRW+0xbc>
 80008ca:	79fb      	ldrb	r3, [r7, #7]
 80008cc:	2b40      	cmp	r3, #64	; 0x40
 80008ce:	d102      	bne.n	80008d6 <LSM6DS0_GYRO_Init_HRW+0xc2>
    {
   	capacity=LSM6DS0_ACC_GYRO_BW_G_LOW;
 80008d0:	2300      	movs	r3, #0
 80008d2:	73fb      	strb	r3, [r7, #15]
 80008d4:	e016      	b.n	8000904 <LSM6DS0_GYRO_Init_HRW+0xf0>
    }
    else if(Freq==LSM6DS0_ACC_GYRO_ODR_G_119Hz)
 80008d6:	79fb      	ldrb	r3, [r7, #7]
 80008d8:	2b60      	cmp	r3, #96	; 0x60
 80008da:	d102      	bne.n	80008e2 <LSM6DS0_GYRO_Init_HRW+0xce>
     {
    	capacity=LSM6DS0_ACC_GYRO_BW_G_NORMAL;
 80008dc:	2301      	movs	r3, #1
 80008de:	73fb      	strb	r3, [r7, #15]
 80008e0:	e010      	b.n	8000904 <LSM6DS0_GYRO_Init_HRW+0xf0>
     }
    else if(Freq==LSM6DS0_ACC_GYRO_ODR_G_238Hz)
 80008e2:	79fb      	ldrb	r3, [r7, #7]
 80008e4:	2b80      	cmp	r3, #128	; 0x80
 80008e6:	d102      	bne.n	80008ee <LSM6DS0_GYRO_Init_HRW+0xda>
     {
    	capacity=LSM6DS0_ACC_GYRO_BW_G_HIGH;
 80008e8:	2302      	movs	r3, #2
 80008ea:	73fb      	strb	r3, [r7, #15]
 80008ec:	e00a      	b.n	8000904 <LSM6DS0_GYRO_Init_HRW+0xf0>
     }
    else if(Freq==LSM6DS0_ACC_GYRO_ODR_G_476Hz)
 80008ee:	79fb      	ldrb	r3, [r7, #7]
 80008f0:	2ba0      	cmp	r3, #160	; 0xa0
 80008f2:	d102      	bne.n	80008fa <LSM6DS0_GYRO_Init_HRW+0xe6>
     {
   	capacity=LSM6DS0_ACC_GYRO_BW_G_ULTRA_HIGH;
 80008f4:	2303      	movs	r3, #3
 80008f6:	73fb      	strb	r3, [r7, #15]
 80008f8:	e004      	b.n	8000904 <LSM6DS0_GYRO_Init_HRW+0xf0>
      }
    else if(Freq==LSM6DS0_ACC_GYRO_ODR_G_952Hz)
 80008fa:	79fb      	ldrb	r3, [r7, #7]
 80008fc:	2bc0      	cmp	r3, #192	; 0xc0
 80008fe:	d101      	bne.n	8000904 <LSM6DS0_GYRO_Init_HRW+0xf0>
      {
    	capacity=LSM6DS0_ACC_GYRO_BW_G_ULTRA_HIGH;
 8000900:	2303      	movs	r3, #3
 8000902:	73fb      	strb	r3, [r7, #15]
      }
    value = LSM6DS0_IO_Read(LSM6DS0_DEV_ID,LSM6DS0_ACC_GYRO_CTRL_REG1_G);
 8000904:	2110      	movs	r1, #16
 8000906:	20d6      	movs	r0, #214	; 0xd6
 8000908:	f7ff fef2 	bl	80006f0 <LSM6DS0_IO_Read>
 800090c:	4603      	mov	r3, r0
 800090e:	73bb      	strb	r3, [r7, #14]
    value&=~LSM6DS0_ACC_GYRO_BW_G_MASK;
 8000910:	7bbb      	ldrb	r3, [r7, #14]
 8000912:	f023 0303 	bic.w	r3, r3, #3
 8000916:	73bb      	strb	r3, [r7, #14]
    value|=capacity;
 8000918:	7bba      	ldrb	r2, [r7, #14]
 800091a:	7bfb      	ldrb	r3, [r7, #15]
 800091c:	4313      	orrs	r3, r2
 800091e:	73bb      	strb	r3, [r7, #14]
    LSM6DS0_IO_Write(LSM6DS0_DEV_ID,LSM6DS0_ACC_GYRO_CTRL_REG1_G,value);
 8000920:	7bbb      	ldrb	r3, [r7, #14]
 8000922:	461a      	mov	r2, r3
 8000924:	2110      	movs	r1, #16
 8000926:	20d6      	movs	r0, #214	; 0xd6
 8000928:	f7ff fec0 	bl	80006ac <LSM6DS0_IO_Write>
	    //Freq
    value = LSM6DS0_IO_Read(LSM6DS0_DEV_ID,LSM6DS0_ACC_GYRO_CTRL_REG1_G);
 800092c:	2110      	movs	r1, #16
 800092e:	20d6      	movs	r0, #214	; 0xd6
 8000930:	f7ff fede 	bl	80006f0 <LSM6DS0_IO_Read>
 8000934:	4603      	mov	r3, r0
 8000936:	73bb      	strb	r3, [r7, #14]
    value&=~LSM6DS0_ACC_GYRO_ODR_G_MASK;
 8000938:	7bbb      	ldrb	r3, [r7, #14]
 800093a:	f003 031f 	and.w	r3, r3, #31
 800093e:	73bb      	strb	r3, [r7, #14]
    value|=Freq;
 8000940:	7bba      	ldrb	r2, [r7, #14]
 8000942:	79fb      	ldrb	r3, [r7, #7]
 8000944:	4313      	orrs	r3, r2
 8000946:	73bb      	strb	r3, [r7, #14]
    LSM6DS0_IO_Write(LSM6DS0_DEV_ID,LSM6DS0_ACC_GYRO_CTRL_REG1_G,value);
 8000948:	7bbb      	ldrb	r3, [r7, #14]
 800094a:	461a      	mov	r2, r3
 800094c:	2110      	movs	r1, #16
 800094e:	20d6      	movs	r0, #214	; 0xd6
 8000950:	f7ff feac 	bl	80006ac <LSM6DS0_IO_Write>

}
 8000954:	bf00      	nop
 8000956:	3710      	adds	r7, #16
 8000958:	46bd      	mov	sp, r7
 800095a:	bd80      	pop	{r7, pc}

0800095c <check_LSM6DS0_ID>:

/*************************Check ID Device*******************/
uint8_t check_LSM6DS0_ID(void)
{
 800095c:	b580      	push	{r7, lr}
 800095e:	b082      	sub	sp, #8
 8000960:	af00      	add	r7, sp, #0
	 uint8_t ctrl = 0x00;
 8000962:	2300      	movs	r3, #0
 8000964:	71fb      	strb	r3, [r7, #7]
	 ctrl=LSM6DS0_IO_Read(LSM6DS0_DEV_ID,LSM6DS0_WHO_I_AM);
 8000966:	210f      	movs	r1, #15
 8000968:	20d6      	movs	r0, #214	; 0xd6
 800096a:	f7ff fec1 	bl	80006f0 <LSM6DS0_IO_Read>
 800096e:	4603      	mov	r3, r0
 8000970:	71fb      	strb	r3, [r7, #7]
     return ctrl;
 8000972:	79fb      	ldrb	r3, [r7, #7]
}
 8000974:	4618      	mov	r0, r3
 8000976:	3708      	adds	r7, #8
 8000978:	46bd      	mov	sp, r7
 800097a:	bd80      	pop	{r7, pc}

0800097c <LSM6DS0_Gyro_GetXYZ>:



/*********************Get Gyro LSM6DS0******************************/
void LSM6DS0_Gyro_GetXYZ(int16_t *Data)
{
 800097c:	b580      	push	{r7, lr}
 800097e:	b084      	sub	sp, #16
 8000980:	af00      	add	r7, sp, #0
 8000982:	6078      	str	r0, [r7, #4]
	uint8_t buffer[6];
		uint8_t i=0;
 8000984:	2300      	movs	r3, #0
 8000986:	73fb      	strb	r3, [r7, #15]
		buffer[0]=LSM6DS0_IO_Read(LSM6DS0_DEV_ID,LSM6DS0_ACC_GYRO_OUT_X_L_G);
 8000988:	2118      	movs	r1, #24
 800098a:	20d6      	movs	r0, #214	; 0xd6
 800098c:	f7ff feb0 	bl	80006f0 <LSM6DS0_IO_Read>
 8000990:	4603      	mov	r3, r0
 8000992:	723b      	strb	r3, [r7, #8]
	    buffer[1]=LSM6DS0_IO_Read(LSM6DS0_DEV_ID,LSM6DS0_ACC_GYRO_OUT_X_H_G);
 8000994:	2119      	movs	r1, #25
 8000996:	20d6      	movs	r0, #214	; 0xd6
 8000998:	f7ff feaa 	bl	80006f0 <LSM6DS0_IO_Read>
 800099c:	4603      	mov	r3, r0
 800099e:	727b      	strb	r3, [r7, #9]
	    buffer[2]=LSM6DS0_IO_Read(LSM6DS0_DEV_ID,LSM6DS0_ACC_GYRO_OUT_Y_L_G);
 80009a0:	211a      	movs	r1, #26
 80009a2:	20d6      	movs	r0, #214	; 0xd6
 80009a4:	f7ff fea4 	bl	80006f0 <LSM6DS0_IO_Read>
 80009a8:	4603      	mov	r3, r0
 80009aa:	72bb      	strb	r3, [r7, #10]
	    buffer[3]=LSM6DS0_IO_Read(LSM6DS0_DEV_ID,LSM6DS0_ACC_GYRO_OUT_Y_H_G);
 80009ac:	211b      	movs	r1, #27
 80009ae:	20d6      	movs	r0, #214	; 0xd6
 80009b0:	f7ff fe9e 	bl	80006f0 <LSM6DS0_IO_Read>
 80009b4:	4603      	mov	r3, r0
 80009b6:	72fb      	strb	r3, [r7, #11]
	    buffer[4]=LSM6DS0_IO_Read(LSM6DS0_DEV_ID,LSM6DS0_ACC_GYRO_OUT_Z_L_G);
 80009b8:	211c      	movs	r1, #28
 80009ba:	20d6      	movs	r0, #214	; 0xd6
 80009bc:	f7ff fe98 	bl	80006f0 <LSM6DS0_IO_Read>
 80009c0:	4603      	mov	r3, r0
 80009c2:	733b      	strb	r3, [r7, #12]
	    buffer[5]=LSM6DS0_IO_Read(LSM6DS0_DEV_ID,LSM6DS0_ACC_GYRO_OUT_Z_H_G);
 80009c4:	211d      	movs	r1, #29
 80009c6:	20d6      	movs	r0, #214	; 0xd6
 80009c8:	f7ff fe92 	bl	80006f0 <LSM6DS0_IO_Read>
 80009cc:	4603      	mov	r3, r0
 80009ce:	737b      	strb	r3, [r7, #13]
	    for(i=0;i<3;i++)
 80009d0:	2300      	movs	r3, #0
 80009d2:	73fb      	strb	r3, [r7, #15]
 80009d4:	e01c      	b.n	8000a10 <LSM6DS0_Gyro_GetXYZ+0x94>
	    {
	      Data[i] = ((int16_t)((uint16_t)buffer[2*i+1]<<8)+buffer[2*i]);
 80009d6:	7bfb      	ldrb	r3, [r7, #15]
 80009d8:	005b      	lsls	r3, r3, #1
 80009da:	3301      	adds	r3, #1
 80009dc:	f107 0210 	add.w	r2, r7, #16
 80009e0:	4413      	add	r3, r2
 80009e2:	f813 3c08 	ldrb.w	r3, [r3, #-8]
 80009e6:	021b      	lsls	r3, r3, #8
 80009e8:	b29a      	uxth	r2, r3
 80009ea:	7bfb      	ldrb	r3, [r7, #15]
 80009ec:	005b      	lsls	r3, r3, #1
 80009ee:	f107 0110 	add.w	r1, r7, #16
 80009f2:	440b      	add	r3, r1
 80009f4:	f813 3c08 	ldrb.w	r3, [r3, #-8]
 80009f8:	b29b      	uxth	r3, r3
 80009fa:	4413      	add	r3, r2
 80009fc:	b299      	uxth	r1, r3
 80009fe:	7bfb      	ldrb	r3, [r7, #15]
 8000a00:	005b      	lsls	r3, r3, #1
 8000a02:	687a      	ldr	r2, [r7, #4]
 8000a04:	4413      	add	r3, r2
 8000a06:	b20a      	sxth	r2, r1
 8000a08:	801a      	strh	r2, [r3, #0]
	    for(i=0;i<3;i++)
 8000a0a:	7bfb      	ldrb	r3, [r7, #15]
 8000a0c:	3301      	adds	r3, #1
 8000a0e:	73fb      	strb	r3, [r7, #15]
 8000a10:	7bfb      	ldrb	r3, [r7, #15]
 8000a12:	2b02      	cmp	r3, #2
 8000a14:	d9df      	bls.n	80009d6 <LSM6DS0_Gyro_GetXYZ+0x5a>
	    }
	    Data[0]-=calb_gyroX;
 8000a16:	687b      	ldr	r3, [r7, #4]
 8000a18:	f9b3 3000 	ldrsh.w	r3, [r3]
 8000a1c:	b29a      	uxth	r2, r3
 8000a1e:	4b15      	ldr	r3, [pc, #84]	; (8000a74 <LSM6DS0_Gyro_GetXYZ+0xf8>)
 8000a20:	f9b3 3000 	ldrsh.w	r3, [r3]
 8000a24:	b29b      	uxth	r3, r3
 8000a26:	1ad3      	subs	r3, r2, r3
 8000a28:	b29b      	uxth	r3, r3
 8000a2a:	b21a      	sxth	r2, r3
 8000a2c:	687b      	ldr	r3, [r7, #4]
 8000a2e:	801a      	strh	r2, [r3, #0]
	    Data[1]-=calb_gyroY;
 8000a30:	687b      	ldr	r3, [r7, #4]
 8000a32:	3302      	adds	r3, #2
 8000a34:	f9b3 3000 	ldrsh.w	r3, [r3]
 8000a38:	b29a      	uxth	r2, r3
 8000a3a:	4b0f      	ldr	r3, [pc, #60]	; (8000a78 <LSM6DS0_Gyro_GetXYZ+0xfc>)
 8000a3c:	f9b3 3000 	ldrsh.w	r3, [r3]
 8000a40:	b29b      	uxth	r3, r3
 8000a42:	1ad3      	subs	r3, r2, r3
 8000a44:	b29a      	uxth	r2, r3
 8000a46:	687b      	ldr	r3, [r7, #4]
 8000a48:	3302      	adds	r3, #2
 8000a4a:	b212      	sxth	r2, r2
 8000a4c:	801a      	strh	r2, [r3, #0]
	    Data[2]-=calb_gyroZ;
 8000a4e:	687b      	ldr	r3, [r7, #4]
 8000a50:	3304      	adds	r3, #4
 8000a52:	f9b3 3000 	ldrsh.w	r3, [r3]
 8000a56:	b29a      	uxth	r2, r3
 8000a58:	4b08      	ldr	r3, [pc, #32]	; (8000a7c <LSM6DS0_Gyro_GetXYZ+0x100>)
 8000a5a:	f9b3 3000 	ldrsh.w	r3, [r3]
 8000a5e:	b29b      	uxth	r3, r3
 8000a60:	1ad3      	subs	r3, r2, r3
 8000a62:	b29a      	uxth	r2, r3
 8000a64:	687b      	ldr	r3, [r7, #4]
 8000a66:	3304      	adds	r3, #4
 8000a68:	b212      	sxth	r2, r2
 8000a6a:	801a      	strh	r2, [r3, #0]


}
 8000a6c:	bf00      	nop
 8000a6e:	3710      	adds	r7, #16
 8000a70:	46bd      	mov	sp, r7
 8000a72:	bd80      	pop	{r7, pc}
 8000a74:	20000028 	.word	0x20000028
 8000a78:	2000002a 	.word	0x2000002a
 8000a7c:	2000002c 	.word	0x2000002c

08000a80 <LSM6DS0_Accel_GetXYZ>:

/*********************Get Accel LSM6DS0******************************/
void LSM6DS0_Accel_GetXYZ(int16_t *Data)
{
 8000a80:	b580      	push	{r7, lr}
 8000a82:	b084      	sub	sp, #16
 8000a84:	af00      	add	r7, sp, #0
 8000a86:	6078      	str	r0, [r7, #4]
	uint8_t buffer[6];
	uint8_t i=0;
 8000a88:	2300      	movs	r3, #0
 8000a8a:	73fb      	strb	r3, [r7, #15]
	buffer[0] = LSM6DS0_IO_Read(LSM6DS0_DEV_ID,LSM6DS0_ACC_GYRO_OUT_X_L_XL);
 8000a8c:	2128      	movs	r1, #40	; 0x28
 8000a8e:	20d6      	movs	r0, #214	; 0xd6
 8000a90:	f7ff fe2e 	bl	80006f0 <LSM6DS0_IO_Read>
 8000a94:	4603      	mov	r3, r0
 8000a96:	723b      	strb	r3, [r7, #8]
	buffer[1] = LSM6DS0_IO_Read(LSM6DS0_DEV_ID,LSM6DS0_ACC_GYRO_OUT_X_H_XL);
 8000a98:	2129      	movs	r1, #41	; 0x29
 8000a9a:	20d6      	movs	r0, #214	; 0xd6
 8000a9c:	f7ff fe28 	bl	80006f0 <LSM6DS0_IO_Read>
 8000aa0:	4603      	mov	r3, r0
 8000aa2:	727b      	strb	r3, [r7, #9]
	buffer[2] = LSM6DS0_IO_Read(LSM6DS0_DEV_ID,LSM6DS0_ACC_GYRO_OUT_Y_L_XL);
 8000aa4:	212a      	movs	r1, #42	; 0x2a
 8000aa6:	20d6      	movs	r0, #214	; 0xd6
 8000aa8:	f7ff fe22 	bl	80006f0 <LSM6DS0_IO_Read>
 8000aac:	4603      	mov	r3, r0
 8000aae:	72bb      	strb	r3, [r7, #10]
	buffer[3] = LSM6DS0_IO_Read(LSM6DS0_DEV_ID,LSM6DS0_ACC_GYRO_OUT_Y_H_XL);
 8000ab0:	212b      	movs	r1, #43	; 0x2b
 8000ab2:	20d6      	movs	r0, #214	; 0xd6
 8000ab4:	f7ff fe1c 	bl	80006f0 <LSM6DS0_IO_Read>
 8000ab8:	4603      	mov	r3, r0
 8000aba:	72fb      	strb	r3, [r7, #11]
	buffer[4] = LSM6DS0_IO_Read(LSM6DS0_DEV_ID,LSM6DS0_ACC_GYRO_OUT_Z_L_XL);
 8000abc:	212c      	movs	r1, #44	; 0x2c
 8000abe:	20d6      	movs	r0, #214	; 0xd6
 8000ac0:	f7ff fe16 	bl	80006f0 <LSM6DS0_IO_Read>
 8000ac4:	4603      	mov	r3, r0
 8000ac6:	733b      	strb	r3, [r7, #12]
	buffer[5] = LSM6DS0_IO_Read(LSM6DS0_DEV_ID,LSM6DS0_ACC_GYRO_OUT_Z_H_XL);
 8000ac8:	212d      	movs	r1, #45	; 0x2d
 8000aca:	20d6      	movs	r0, #214	; 0xd6
 8000acc:	f7ff fe10 	bl	80006f0 <LSM6DS0_IO_Read>
 8000ad0:	4603      	mov	r3, r0
 8000ad2:	737b      	strb	r3, [r7, #13]
	for(i=0;i<3;i++)
 8000ad4:	2300      	movs	r3, #0
 8000ad6:	73fb      	strb	r3, [r7, #15]
 8000ad8:	e01c      	b.n	8000b14 <LSM6DS0_Accel_GetXYZ+0x94>
	{
	  Data[i] = ((int16_t)((uint16_t)buffer[2*i+1]<<8)+buffer[2*i]);
 8000ada:	7bfb      	ldrb	r3, [r7, #15]
 8000adc:	005b      	lsls	r3, r3, #1
 8000ade:	3301      	adds	r3, #1
 8000ae0:	f107 0210 	add.w	r2, r7, #16
 8000ae4:	4413      	add	r3, r2
 8000ae6:	f813 3c08 	ldrb.w	r3, [r3, #-8]
 8000aea:	021b      	lsls	r3, r3, #8
 8000aec:	b29a      	uxth	r2, r3
 8000aee:	7bfb      	ldrb	r3, [r7, #15]
 8000af0:	005b      	lsls	r3, r3, #1
 8000af2:	f107 0110 	add.w	r1, r7, #16
 8000af6:	440b      	add	r3, r1
 8000af8:	f813 3c08 	ldrb.w	r3, [r3, #-8]
 8000afc:	b29b      	uxth	r3, r3
 8000afe:	4413      	add	r3, r2
 8000b00:	b299      	uxth	r1, r3
 8000b02:	7bfb      	ldrb	r3, [r7, #15]
 8000b04:	005b      	lsls	r3, r3, #1
 8000b06:	687a      	ldr	r2, [r7, #4]
 8000b08:	4413      	add	r3, r2
 8000b0a:	b20a      	sxth	r2, r1
 8000b0c:	801a      	strh	r2, [r3, #0]
	for(i=0;i<3;i++)
 8000b0e:	7bfb      	ldrb	r3, [r7, #15]
 8000b10:	3301      	adds	r3, #1
 8000b12:	73fb      	strb	r3, [r7, #15]
 8000b14:	7bfb      	ldrb	r3, [r7, #15]
 8000b16:	2b02      	cmp	r3, #2
 8000b18:	d9df      	bls.n	8000ada <LSM6DS0_Accel_GetXYZ+0x5a>
	}

	Data[0]-=calb_accelX;
 8000b1a:	687b      	ldr	r3, [r7, #4]
 8000b1c:	f9b3 3000 	ldrsh.w	r3, [r3]
 8000b20:	b29a      	uxth	r2, r3
 8000b22:	4b15      	ldr	r3, [pc, #84]	; (8000b78 <LSM6DS0_Accel_GetXYZ+0xf8>)
 8000b24:	f9b3 3000 	ldrsh.w	r3, [r3]
 8000b28:	b29b      	uxth	r3, r3
 8000b2a:	1ad3      	subs	r3, r2, r3
 8000b2c:	b29b      	uxth	r3, r3
 8000b2e:	b21a      	sxth	r2, r3
 8000b30:	687b      	ldr	r3, [r7, #4]
 8000b32:	801a      	strh	r2, [r3, #0]
	Data[1]-=calb_accelY;
 8000b34:	687b      	ldr	r3, [r7, #4]
 8000b36:	3302      	adds	r3, #2
 8000b38:	f9b3 3000 	ldrsh.w	r3, [r3]
 8000b3c:	b29a      	uxth	r2, r3
 8000b3e:	4b0f      	ldr	r3, [pc, #60]	; (8000b7c <LSM6DS0_Accel_GetXYZ+0xfc>)
 8000b40:	f9b3 3000 	ldrsh.w	r3, [r3]
 8000b44:	b29b      	uxth	r3, r3
 8000b46:	1ad3      	subs	r3, r2, r3
 8000b48:	b29a      	uxth	r2, r3
 8000b4a:	687b      	ldr	r3, [r7, #4]
 8000b4c:	3302      	adds	r3, #2
 8000b4e:	b212      	sxth	r2, r2
 8000b50:	801a      	strh	r2, [r3, #0]
	Data[2]-=calb_accelZ;
 8000b52:	687b      	ldr	r3, [r7, #4]
 8000b54:	3304      	adds	r3, #4
 8000b56:	f9b3 3000 	ldrsh.w	r3, [r3]
 8000b5a:	b29a      	uxth	r2, r3
 8000b5c:	4b08      	ldr	r3, [pc, #32]	; (8000b80 <LSM6DS0_Accel_GetXYZ+0x100>)
 8000b5e:	f9b3 3000 	ldrsh.w	r3, [r3]
 8000b62:	b29b      	uxth	r3, r3
 8000b64:	1ad3      	subs	r3, r2, r3
 8000b66:	b29a      	uxth	r2, r3
 8000b68:	687b      	ldr	r3, [r7, #4]
 8000b6a:	3304      	adds	r3, #4
 8000b6c:	b212      	sxth	r2, r2
 8000b6e:	801a      	strh	r2, [r3, #0]

}
 8000b70:	bf00      	nop
 8000b72:	3710      	adds	r7, #16
 8000b74:	46bd      	mov	sp, r7
 8000b76:	bd80      	pop	{r7, pc}
 8000b78:	2000002e 	.word	0x2000002e
 8000b7c:	20000030 	.word	0x20000030
 8000b80:	20000032 	.word	0x20000032

08000b84 <Init_LSM6DS0>:



/***************************Init Gyroscope & Accel*************************/
void Init_LSM6DS0(uint8_t configAccelGyro,uint8_t Freq,uint8_t Range,uint8_t dps)
{
 8000b84:	b590      	push	{r4, r7, lr}
 8000b86:	b083      	sub	sp, #12
 8000b88:	af00      	add	r7, sp, #0
 8000b8a:	4604      	mov	r4, r0
 8000b8c:	4608      	mov	r0, r1
 8000b8e:	4611      	mov	r1, r2
 8000b90:	461a      	mov	r2, r3
 8000b92:	4623      	mov	r3, r4
 8000b94:	71fb      	strb	r3, [r7, #7]
 8000b96:	4603      	mov	r3, r0
 8000b98:	71bb      	strb	r3, [r7, #6]
 8000b9a:	460b      	mov	r3, r1
 8000b9c:	717b      	strb	r3, [r7, #5]
 8000b9e:	4613      	mov	r3, r2
 8000ba0:	713b      	strb	r3, [r7, #4]

	if(check_LSM6DS0_ID()==ID_DEV_LSM6DS0)
 8000ba2:	f7ff fedb 	bl	800095c <check_LSM6DS0_ID>
 8000ba6:	4603      	mov	r3, r0
 8000ba8:	2b68      	cmp	r3, #104	; 0x68
 8000baa:	d122      	bne.n	8000bf2 <Init_LSM6DS0+0x6e>
	{
		switch(configAccelGyro)
 8000bac:	79fb      	ldrb	r3, [r7, #7]
 8000bae:	2b0b      	cmp	r3, #11
 8000bb0:	d00b      	beq.n	8000bca <Init_LSM6DS0+0x46>
 8000bb2:	2b0c      	cmp	r3, #12
 8000bb4:	d010      	beq.n	8000bd8 <Init_LSM6DS0+0x54>
 8000bb6:	2b0a      	cmp	r3, #10
 8000bb8:	d000      	beq.n	8000bbc <Init_LSM6DS0+0x38>


					default:
					{

						break;
 8000bba:	e01b      	b.n	8000bf4 <Init_LSM6DS0+0x70>
						LSM6DS0_ACCEL_Init_HRW(Freq,Range);
 8000bbc:	797a      	ldrb	r2, [r7, #5]
 8000bbe:	79bb      	ldrb	r3, [r7, #6]
 8000bc0:	4611      	mov	r1, r2
 8000bc2:	4618      	mov	r0, r3
 8000bc4:	f7ff fdb8 	bl	8000738 <LSM6DS0_ACCEL_Init_HRW>
						break;
 8000bc8:	e014      	b.n	8000bf4 <Init_LSM6DS0+0x70>
						LSM6DS0_GYRO_Init_HRW(Freq,dps);
 8000bca:	793a      	ldrb	r2, [r7, #4]
 8000bcc:	79bb      	ldrb	r3, [r7, #6]
 8000bce:	4611      	mov	r1, r2
 8000bd0:	4618      	mov	r0, r3
 8000bd2:	f7ff fe1f 	bl	8000814 <LSM6DS0_GYRO_Init_HRW>
						break;
 8000bd6:	e00d      	b.n	8000bf4 <Init_LSM6DS0+0x70>
						LSM6DS0_ACCEL_Init_HRW(Freq,Range);
 8000bd8:	797a      	ldrb	r2, [r7, #5]
 8000bda:	79bb      	ldrb	r3, [r7, #6]
 8000bdc:	4611      	mov	r1, r2
 8000bde:	4618      	mov	r0, r3
 8000be0:	f7ff fdaa 	bl	8000738 <LSM6DS0_ACCEL_Init_HRW>
						LSM6DS0_GYRO_Init_HRW(Freq,dps);
 8000be4:	793a      	ldrb	r2, [r7, #4]
 8000be6:	79bb      	ldrb	r3, [r7, #6]
 8000be8:	4611      	mov	r1, r2
 8000bea:	4618      	mov	r0, r3
 8000bec:	f7ff fe12 	bl	8000814 <LSM6DS0_GYRO_Init_HRW>
						break;
 8000bf0:	e000      	b.n	8000bf4 <Init_LSM6DS0+0x70>
					}
				}
	}
 8000bf2:	bf00      	nop
}
 8000bf4:	bf00      	nop
 8000bf6:	370c      	adds	r7, #12
 8000bf8:	46bd      	mov	sp, r7
 8000bfa:	bd90      	pop	{r4, r7, pc}

08000bfc <HAL_UART_RxCpltCallback>:

Protocol_RS485Def _dataProtocol;

/****************Interrupt USART*********************/
void HAL_UART_RxCpltCallback(UART_HandleTypeDef *huart)
{
 8000bfc:	b580      	push	{r7, lr}
 8000bfe:	b082      	sub	sp, #8
 8000c00:	af00      	add	r7, sp, #0
 8000c02:	6078      	str	r0, [r7, #4]
	if(huart==&Serial_Obj)
 8000c04:	687b      	ldr	r3, [r7, #4]
 8000c06:	4a04      	ldr	r2, [pc, #16]	; (8000c18 <HAL_UART_RxCpltCallback+0x1c>)
 8000c08:	4293      	cmp	r3, r2
 8000c0a:	d101      	bne.n	8000c10 <HAL_UART_RxCpltCallback+0x14>
		{
			RS485_RessiveData_helper();
 8000c0c:	f000 f93a 	bl	8000e84 <RS485_RessiveData_helper>
		}
}
 8000c10:	bf00      	nop
 8000c12:	3708      	adds	r7, #8
 8000c14:	46bd      	mov	sp, r7
 8000c16:	bd80      	pop	{r7, pc}
 8000c18:	200000e4 	.word	0x200000e4

08000c1c <HAL_UART_ErrorCallback>:

void HAL_UART_ErrorCallback(UART_HandleTypeDef *huart)
{
 8000c1c:	b580      	push	{r7, lr}
 8000c1e:	b082      	sub	sp, #8
 8000c20:	af00      	add	r7, sp, #0
 8000c22:	6078      	str	r0, [r7, #4]
	if(huart==&Serial_Obj)
 8000c24:	687b      	ldr	r3, [r7, #4]
 8000c26:	4a04      	ldr	r2, [pc, #16]	; (8000c38 <HAL_UART_ErrorCallback+0x1c>)
 8000c28:	4293      	cmp	r3, r2
 8000c2a:	d101      	bne.n	8000c30 <HAL_UART_ErrorCallback+0x14>
			{
				RS485_RessiveData_helper();
 8000c2c:	f000 f92a 	bl	8000e84 <RS485_RessiveData_helper>
			}
}
 8000c30:	bf00      	nop
 8000c32:	3708      	adds	r7, #8
 8000c34:	46bd      	mov	sp, r7
 8000c36:	bd80      	pop	{r7, pc}
 8000c38:	200000e4 	.word	0x200000e4

08000c3c <RS485_RessiveData_Starthelper>:

/*******************helper Start Recieve Bytes***********************/
void RS485_RessiveData_Starthelper(void)
{
 8000c3c:	b580      	push	{r7, lr}
 8000c3e:	af00      	add	r7, sp, #0
	HAL_UART_Receive_IT(&Serial_Obj, (uint8_t*)RX_BUFF, SIZE_PACKET);
 8000c40:	2215      	movs	r2, #21
 8000c42:	4903      	ldr	r1, [pc, #12]	; (8000c50 <RS485_RessiveData_Starthelper+0x14>)
 8000c44:	4803      	ldr	r0, [pc, #12]	; (8000c54 <RS485_RessiveData_Starthelper+0x18>)
 8000c46:	f003 fda5 	bl	8004794 <HAL_UART_Receive_IT>
}
 8000c4a:	bf00      	nop
 8000c4c:	bd80      	pop	{r7, pc}
 8000c4e:	bf00      	nop
 8000c50:	20000050 	.word	0x20000050
 8000c54:	200000e4 	.word	0x200000e4

08000c58 <Set_ID_device>:


/*************************Set ID**************************/
void Set_ID_device(uint16_t _id)
{
 8000c58:	b480      	push	{r7}
 8000c5a:	b083      	sub	sp, #12
 8000c5c:	af00      	add	r7, sp, #0
 8000c5e:	4603      	mov	r3, r0
 8000c60:	80fb      	strh	r3, [r7, #6]
	_dataProtocol.Id=_id;
 8000c62:	4b04      	ldr	r3, [pc, #16]	; (8000c74 <Set_ID_device+0x1c>)
 8000c64:	88fa      	ldrh	r2, [r7, #6]
 8000c66:	801a      	strh	r2, [r3, #0]
}
 8000c68:	bf00      	nop
 8000c6a:	370c      	adds	r7, #12
 8000c6c:	46bd      	mov	sp, r7
 8000c6e:	f85d 7b04 	ldr.w	r7, [sp], #4
 8000c72:	4770      	bx	lr
 8000c74:	20000080 	.word	0x20000080

08000c78 <UART_Init_HW>:


/*******************Init Harsware*****************************/
void UART_Init_HW(uint32_t Baud)
{
 8000c78:	b580      	push	{r7, lr}
 8000c7a:	b08a      	sub	sp, #40	; 0x28
 8000c7c:	af00      	add	r7, sp, #0
 8000c7e:	6078      	str	r0, [r7, #4]
	GPIO_InitTypeDef GPIO_InitStruct = {0};
 8000c80:	f107 0314 	add.w	r3, r7, #20
 8000c84:	2200      	movs	r2, #0
 8000c86:	601a      	str	r2, [r3, #0]
 8000c88:	605a      	str	r2, [r3, #4]
 8000c8a:	609a      	str	r2, [r3, #8]
 8000c8c:	60da      	str	r2, [r3, #12]
 8000c8e:	611a      	str	r2, [r3, #16]
	 /* USART2 clock enable */
	CLOCK_EN_UART;
 8000c90:	4b3a      	ldr	r3, [pc, #232]	; (8000d7c <UART_Init_HW+0x104>)
 8000c92:	69db      	ldr	r3, [r3, #28]
 8000c94:	4a39      	ldr	r2, [pc, #228]	; (8000d7c <UART_Init_HW+0x104>)
 8000c96:	f443 3300 	orr.w	r3, r3, #131072	; 0x20000
 8000c9a:	61d3      	str	r3, [r2, #28]
 8000c9c:	4b37      	ldr	r3, [pc, #220]	; (8000d7c <UART_Init_HW+0x104>)
 8000c9e:	69db      	ldr	r3, [r3, #28]
 8000ca0:	f403 3300 	and.w	r3, r3, #131072	; 0x20000
 8000ca4:	613b      	str	r3, [r7, #16]
 8000ca6:	693b      	ldr	r3, [r7, #16]

	PIN_TX_RX_CLK;
 8000ca8:	4b34      	ldr	r3, [pc, #208]	; (8000d7c <UART_Init_HW+0x104>)
 8000caa:	695b      	ldr	r3, [r3, #20]
 8000cac:	4a33      	ldr	r2, [pc, #204]	; (8000d7c <UART_Init_HW+0x104>)
 8000cae:	f443 3300 	orr.w	r3, r3, #131072	; 0x20000
 8000cb2:	6153      	str	r3, [r2, #20]
 8000cb4:	4b31      	ldr	r3, [pc, #196]	; (8000d7c <UART_Init_HW+0x104>)
 8000cb6:	695b      	ldr	r3, [r3, #20]
 8000cb8:	f403 3300 	and.w	r3, r3, #131072	; 0x20000
 8000cbc:	60fb      	str	r3, [r7, #12]
 8000cbe:	68fb      	ldr	r3, [r7, #12]
	    /**USART2 GPIO Configuration
	        PA2     ------> USART2_TX
	        PA3     ------> USART2_RX
	    */
	 GPIO_InitStruct.Pin = GPIO_PIN_2|GPIO_PIN_3;
 8000cc0:	230c      	movs	r3, #12
 8000cc2:	617b      	str	r3, [r7, #20]
	 GPIO_InitStruct.Mode = GPIO_MODE_AF_PP;
 8000cc4:	2302      	movs	r3, #2
 8000cc6:	61bb      	str	r3, [r7, #24]
	 GPIO_InitStruct.Pull = GPIO_NOPULL;
 8000cc8:	2300      	movs	r3, #0
 8000cca:	61fb      	str	r3, [r7, #28]
	 GPIO_InitStruct.Speed = GPIO_SPEED_FREQ_HIGH;
 8000ccc:	2303      	movs	r3, #3
 8000cce:	623b      	str	r3, [r7, #32]
	 GPIO_InitStruct.Alternate = GPIO_AF7_USART2;
 8000cd0:	2307      	movs	r3, #7
 8000cd2:	627b      	str	r3, [r7, #36]	; 0x24
	 HAL_GPIO_Init(GPIOA, &GPIO_InitStruct);
 8000cd4:	f107 0314 	add.w	r3, r7, #20
 8000cd8:	4619      	mov	r1, r3
 8000cda:	f04f 4090 	mov.w	r0, #1207959552	; 0x48000000
 8000cde:	f000 fd93 	bl	8001808 <HAL_GPIO_Init>

	 RS485_PIN_EN_CLK;
 8000ce2:	4b26      	ldr	r3, [pc, #152]	; (8000d7c <UART_Init_HW+0x104>)
 8000ce4:	695b      	ldr	r3, [r3, #20]
 8000ce6:	4a25      	ldr	r2, [pc, #148]	; (8000d7c <UART_Init_HW+0x104>)
 8000ce8:	f443 3300 	orr.w	r3, r3, #131072	; 0x20000
 8000cec:	6153      	str	r3, [r2, #20]
 8000cee:	4b23      	ldr	r3, [pc, #140]	; (8000d7c <UART_Init_HW+0x104>)
 8000cf0:	695b      	ldr	r3, [r3, #20]
 8000cf2:	f403 3300 	and.w	r3, r3, #131072	; 0x20000
 8000cf6:	60bb      	str	r3, [r7, #8]
 8000cf8:	68bb      	ldr	r3, [r7, #8]
	/**RS485 ENABLE **/
	//PA1     ------> ENABLE
	 /*Configure GPIO pins : PA1  */
	 	GPIO_InitStruct.Pin = RS485_PIN_EN;
 8000cfa:	2302      	movs	r3, #2
 8000cfc:	617b      	str	r3, [r7, #20]
	 	GPIO_InitStruct.Mode = GPIO_MODE_OUTPUT_PP;
 8000cfe:	2301      	movs	r3, #1
 8000d00:	61bb      	str	r3, [r7, #24]
	 	GPIO_InitStruct.Pull = GPIO_NOPULL;
 8000d02:	2300      	movs	r3, #0
 8000d04:	61fb      	str	r3, [r7, #28]
	 	GPIO_InitStruct.Speed = GPIO_SPEED_FREQ_HIGH;
 8000d06:	2303      	movs	r3, #3
 8000d08:	623b      	str	r3, [r7, #32]
	 	HAL_GPIO_Init(RS485_PORT_EN, &GPIO_InitStruct);
 8000d0a:	f107 0314 	add.w	r3, r7, #20
 8000d0e:	4619      	mov	r1, r3
 8000d10:	f04f 4090 	mov.w	r0, #1207959552	; 0x48000000
 8000d14:	f000 fd78 	bl	8001808 <HAL_GPIO_Init>

	Serial_Obj.Instance = HW_HUNDLER_UART;
 8000d18:	4b19      	ldr	r3, [pc, #100]	; (8000d80 <UART_Init_HW+0x108>)
 8000d1a:	4a1a      	ldr	r2, [pc, #104]	; (8000d84 <UART_Init_HW+0x10c>)
 8000d1c:	601a      	str	r2, [r3, #0]
	Serial_Obj.Init.BaudRate = Baud;
 8000d1e:	4a18      	ldr	r2, [pc, #96]	; (8000d80 <UART_Init_HW+0x108>)
 8000d20:	687b      	ldr	r3, [r7, #4]
 8000d22:	6053      	str	r3, [r2, #4]
	Serial_Obj.Init.WordLength = UART_WORDLENGTH_8B;
 8000d24:	4b16      	ldr	r3, [pc, #88]	; (8000d80 <UART_Init_HW+0x108>)
 8000d26:	2200      	movs	r2, #0
 8000d28:	609a      	str	r2, [r3, #8]
	Serial_Obj.Init.StopBits = UART_STOPBITS_1;
 8000d2a:	4b15      	ldr	r3, [pc, #84]	; (8000d80 <UART_Init_HW+0x108>)
 8000d2c:	2200      	movs	r2, #0
 8000d2e:	60da      	str	r2, [r3, #12]
	Serial_Obj.Init.Parity = UART_PARITY_NONE;
 8000d30:	4b13      	ldr	r3, [pc, #76]	; (8000d80 <UART_Init_HW+0x108>)
 8000d32:	2200      	movs	r2, #0
 8000d34:	611a      	str	r2, [r3, #16]
	Serial_Obj.Init.Mode = UART_MODE_TX_RX;
 8000d36:	4b12      	ldr	r3, [pc, #72]	; (8000d80 <UART_Init_HW+0x108>)
 8000d38:	220c      	movs	r2, #12
 8000d3a:	615a      	str	r2, [r3, #20]
	Serial_Obj.Init.HwFlowCtl = UART_HWCONTROL_NONE;
 8000d3c:	4b10      	ldr	r3, [pc, #64]	; (8000d80 <UART_Init_HW+0x108>)
 8000d3e:	2200      	movs	r2, #0
 8000d40:	619a      	str	r2, [r3, #24]
	Serial_Obj.Init.OverSampling = UART_OVERSAMPLING_16;
 8000d42:	4b0f      	ldr	r3, [pc, #60]	; (8000d80 <UART_Init_HW+0x108>)
 8000d44:	2200      	movs	r2, #0
 8000d46:	61da      	str	r2, [r3, #28]
	Serial_Obj.Init.OneBitSampling = UART_ONE_BIT_SAMPLE_DISABLE;
 8000d48:	4b0d      	ldr	r3, [pc, #52]	; (8000d80 <UART_Init_HW+0x108>)
 8000d4a:	2200      	movs	r2, #0
 8000d4c:	621a      	str	r2, [r3, #32]
	Serial_Obj.AdvancedInit.AdvFeatureInit = UART_ADVFEATURE_NO_INIT;
 8000d4e:	4b0c      	ldr	r3, [pc, #48]	; (8000d80 <UART_Init_HW+0x108>)
 8000d50:	2200      	movs	r2, #0
 8000d52:	625a      	str	r2, [r3, #36]	; 0x24
	  if (HAL_UART_Init(&Serial_Obj) != HAL_OK)
 8000d54:	480a      	ldr	r0, [pc, #40]	; (8000d80 <UART_Init_HW+0x108>)
 8000d56:	f003 fc3b 	bl	80045d0 <HAL_UART_Init>
 8000d5a:	4603      	mov	r3, r0
 8000d5c:	2b00      	cmp	r3, #0
 8000d5e:	d001      	beq.n	8000d64 <UART_Init_HW+0xec>
	  {
	    Error_Handler();
 8000d60:	f000 fa59 	bl	8001216 <Error_Handler>
	  }

	  /* USART1 interrupt Init */
	      HAL_NVIC_SetPriority(USART2_IRQn, 0, 0);
 8000d64:	2200      	movs	r2, #0
 8000d66:	2100      	movs	r1, #0
 8000d68:	2026      	movs	r0, #38	; 0x26
 8000d6a:	f000 fc92 	bl	8001692 <HAL_NVIC_SetPriority>
	      HAL_NVIC_EnableIRQ(USART2_IRQn);
 8000d6e:	2026      	movs	r0, #38	; 0x26
 8000d70:	f000 fcab 	bl	80016ca <HAL_NVIC_EnableIRQ>
	    /* USER CODE BEGIN USART1_MspInit 1 */
}
 8000d74:	bf00      	nop
 8000d76:	3728      	adds	r7, #40	; 0x28
 8000d78:	46bd      	mov	sp, r7
 8000d7a:	bd80      	pop	{r7, pc}
 8000d7c:	40021000 	.word	0x40021000
 8000d80:	200000e4 	.word	0x200000e4
 8000d84:	40004400 	.word	0x40004400

08000d88 <Transmit_Packet>:


/******************Function Transmit Packet**************************/
void Transmit_Packet(CommandDef cmd,uint8_t *data,uint8_t length)
{
 8000d88:	b5b0      	push	{r4, r5, r7, lr}
 8000d8a:	b088      	sub	sp, #32
 8000d8c:	af00      	add	r7, sp, #0
 8000d8e:	4603      	mov	r3, r0
 8000d90:	6039      	str	r1, [r7, #0]
 8000d92:	71fb      	strb	r3, [r7, #7]
 8000d94:	4613      	mov	r3, r2
 8000d96:	71bb      	strb	r3, [r7, #6]
	Protocol_RS485Def _temp;
	RS485_TRANSMIT;
 8000d98:	2201      	movs	r2, #1
 8000d9a:	2102      	movs	r1, #2
 8000d9c:	f04f 4090 	mov.w	r0, #1207959552	; 0x48000000
 8000da0:	f000 fea4 	bl	8001aec <HAL_GPIO_WritePin>
	_temp.Id=_dataProtocol.Id;
 8000da4:	4b24      	ldr	r3, [pc, #144]	; (8000e38 <Transmit_Packet+0xb0>)
 8000da6:	881b      	ldrh	r3, [r3, #0]
 8000da8:	b29b      	uxth	r3, r3
 8000daa:	813b      	strh	r3, [r7, #8]
	_temp.cmd=(uint8_t)cmd;
 8000dac:	79fb      	ldrb	r3, [r7, #7]
 8000dae:	72bb      	strb	r3, [r7, #10]
	 if(length<=SIZE_PAYLOAD)
 8000db0:	79bb      	ldrb	r3, [r7, #6]
 8000db2:	2b10      	cmp	r3, #16
 8000db4:	d836      	bhi.n	8000e24 <Transmit_Packet+0x9c>
	 {

		 memcpy(&(_temp.dataPayload),(void *)data,length);
 8000db6:	79ba      	ldrb	r2, [r7, #6]
 8000db8:	f107 0308 	add.w	r3, r7, #8
 8000dbc:	3303      	adds	r3, #3
 8000dbe:	6839      	ldr	r1, [r7, #0]
 8000dc0:	4618      	mov	r0, r3
 8000dc2:	f004 fbc3 	bl	800554c <memcpy>
		 _dataProtocol.CRC_cnt=0x0000;
 8000dc6:	4b1c      	ldr	r3, [pc, #112]	; (8000e38 <Transmit_Packet+0xb0>)
 8000dc8:	2200      	movs	r2, #0
 8000dca:	74da      	strb	r2, [r3, #19]
 8000dcc:	2200      	movs	r2, #0
 8000dce:	751a      	strb	r2, [r3, #20]
		 memcpy((void*)TX_BUFF,&_temp,SIZE_PACKET);
 8000dd0:	4b1a      	ldr	r3, [pc, #104]	; (8000e3c <Transmit_Packet+0xb4>)
 8000dd2:	461d      	mov	r5, r3
 8000dd4:	f107 0408 	add.w	r4, r7, #8
 8000dd8:	cc0f      	ldmia	r4!, {r0, r1, r2, r3}
 8000dda:	6028      	str	r0, [r5, #0]
 8000ddc:	6069      	str	r1, [r5, #4]
 8000dde:	60aa      	str	r2, [r5, #8]
 8000de0:	60eb      	str	r3, [r5, #12]
 8000de2:	6820      	ldr	r0, [r4, #0]
 8000de4:	6128      	str	r0, [r5, #16]
 8000de6:	7923      	ldrb	r3, [r4, #4]
 8000de8:	752b      	strb	r3, [r5, #20]
		 uint16_t crc=Calculate_CRC16(TX_BUFF,SIZE_PACKET-2);
 8000dea:	2113      	movs	r1, #19
 8000dec:	4813      	ldr	r0, [pc, #76]	; (8000e3c <Transmit_Packet+0xb4>)
 8000dee:	f000 f8b7 	bl	8000f60 <Calculate_CRC16>
 8000df2:	4603      	mov	r3, r0
 8000df4:	83fb      	strh	r3, [r7, #30]
		 _temp.CRC_cnt=crc;
 8000df6:	8bfb      	ldrh	r3, [r7, #30]
 8000df8:	f8a7 301b 	strh.w	r3, [r7, #27]
		 memcpy((void*)TX_BUFF,&_temp,SIZE_PACKET);
 8000dfc:	4b0f      	ldr	r3, [pc, #60]	; (8000e3c <Transmit_Packet+0xb4>)
 8000dfe:	461d      	mov	r5, r3
 8000e00:	f107 0408 	add.w	r4, r7, #8
 8000e04:	cc0f      	ldmia	r4!, {r0, r1, r2, r3}
 8000e06:	6028      	str	r0, [r5, #0]
 8000e08:	6069      	str	r1, [r5, #4]
 8000e0a:	60aa      	str	r2, [r5, #8]
 8000e0c:	60eb      	str	r3, [r5, #12]
 8000e0e:	6820      	ldr	r0, [r4, #0]
 8000e10:	6128      	str	r0, [r5, #16]
 8000e12:	7923      	ldrb	r3, [r4, #4]
 8000e14:	752b      	strb	r3, [r5, #20]
		 HAL_UART_Transmit(&Serial_Obj, (uint8_t*)TX_BUFF, SIZE_PACKET, 0x100);
 8000e16:	f44f 7380 	mov.w	r3, #256	; 0x100
 8000e1a:	2215      	movs	r2, #21
 8000e1c:	4907      	ldr	r1, [pc, #28]	; (8000e3c <Transmit_Packet+0xb4>)
 8000e1e:	4808      	ldr	r0, [pc, #32]	; (8000e40 <Transmit_Packet+0xb8>)
 8000e20:	f003 fc24 	bl	800466c <HAL_UART_Transmit>
	 }
	 RS485_RECEIVE;
 8000e24:	2200      	movs	r2, #0
 8000e26:	2102      	movs	r1, #2
 8000e28:	f04f 4090 	mov.w	r0, #1207959552	; 0x48000000
 8000e2c:	f000 fe5e 	bl	8001aec <HAL_GPIO_WritePin>
}
 8000e30:	bf00      	nop
 8000e32:	3720      	adds	r7, #32
 8000e34:	46bd      	mov	sp, r7
 8000e36:	bdb0      	pop	{r4, r5, r7, pc}
 8000e38:	20000080 	.word	0x20000080
 8000e3c:	20000068 	.word	0x20000068
 8000e40:	200000e4 	.word	0x200000e4

08000e44 <RS485_checkId>:

/***************Check Id RS485 Device************************/
static uint16_t RS485_checkId(void)
{
 8000e44:	b480      	push	{r7}
 8000e46:	b083      	sub	sp, #12
 8000e48:	af00      	add	r7, sp, #0
	uint16_t temp_ID=(RX_BUFF[1]<<8)|(RX_BUFF[0]);
 8000e4a:	4b0c      	ldr	r3, [pc, #48]	; (8000e7c <RS485_checkId+0x38>)
 8000e4c:	785b      	ldrb	r3, [r3, #1]
 8000e4e:	021b      	lsls	r3, r3, #8
 8000e50:	b21a      	sxth	r2, r3
 8000e52:	4b0a      	ldr	r3, [pc, #40]	; (8000e7c <RS485_checkId+0x38>)
 8000e54:	781b      	ldrb	r3, [r3, #0]
 8000e56:	b21b      	sxth	r3, r3
 8000e58:	4313      	orrs	r3, r2
 8000e5a:	b21b      	sxth	r3, r3
 8000e5c:	80fb      	strh	r3, [r7, #6]
	if(temp_ID==_dataProtocol.Id)
 8000e5e:	4b08      	ldr	r3, [pc, #32]	; (8000e80 <RS485_checkId+0x3c>)
 8000e60:	881b      	ldrh	r3, [r3, #0]
 8000e62:	b29b      	uxth	r3, r3
 8000e64:	88fa      	ldrh	r2, [r7, #6]
 8000e66:	429a      	cmp	r2, r3
 8000e68:	d101      	bne.n	8000e6e <RS485_checkId+0x2a>
	{
		return 1;
 8000e6a:	2301      	movs	r3, #1
 8000e6c:	e000      	b.n	8000e70 <RS485_checkId+0x2c>
	}
	else
	{
		return 0;
 8000e6e:	2300      	movs	r3, #0
	}
}
 8000e70:	4618      	mov	r0, r3
 8000e72:	370c      	adds	r7, #12
 8000e74:	46bd      	mov	sp, r7
 8000e76:	f85d 7b04 	ldr.w	r7, [sp], #4
 8000e7a:	4770      	bx	lr
 8000e7c:	20000050 	.word	0x20000050
 8000e80:	20000080 	.word	0x20000080

08000e84 <RS485_RessiveData_helper>:



/*******************helper Save bytes in Buffer***********************/
static void RS485_RessiveData_helper(void)
{
 8000e84:	b5b0      	push	{r4, r5, r7, lr}
 8000e86:	af00      	add	r7, sp, #0
	HAL_UART_Receive_IT(&Serial_Obj, (uint8_t*)RX_BUFF, SIZE_PACKET);
 8000e88:	2215      	movs	r2, #21
 8000e8a:	4915      	ldr	r1, [pc, #84]	; (8000ee0 <RS485_RessiveData_helper+0x5c>)
 8000e8c:	4815      	ldr	r0, [pc, #84]	; (8000ee4 <RS485_RessiveData_helper+0x60>)
 8000e8e:	f003 fc81 	bl	8004794 <HAL_UART_Receive_IT>
	if(RX_BUFF[1]==(uint8_t)BOOT_CMD)
 8000e92:	4b13      	ldr	r3, [pc, #76]	; (8000ee0 <RS485_RessiveData_helper+0x5c>)
 8000e94:	785b      	ldrb	r3, [r3, #1]
 8000e96:	2b58      	cmp	r3, #88	; 0x58
 8000e98:	d102      	bne.n	8000ea0 <RS485_RessiveData_helper+0x1c>
	{
		IsMuted=1;
 8000e9a:	4b13      	ldr	r3, [pc, #76]	; (8000ee8 <RS485_RessiveData_helper+0x64>)
 8000e9c:	2201      	movs	r2, #1
 8000e9e:	701a      	strb	r2, [r3, #0]
	}
	if(RS485_checkId())
 8000ea0:	f7ff ffd0 	bl	8000e44 <RS485_checkId>
 8000ea4:	4603      	mov	r3, r0
 8000ea6:	2b00      	cmp	r3, #0
 8000ea8:	d017      	beq.n	8000eda <RS485_RessiveData_helper+0x56>
	{
		if(checkCRC16(RX_BUFF,SIZE_PACKET))//Not Work
 8000eaa:	2115      	movs	r1, #21
 8000eac:	480c      	ldr	r0, [pc, #48]	; (8000ee0 <RS485_RessiveData_helper+0x5c>)
 8000eae:	f000 f893 	bl	8000fd8 <checkCRC16>
 8000eb2:	4603      	mov	r3, r0
 8000eb4:	2b00      	cmp	r3, #0
 8000eb6:	d010      	beq.n	8000eda <RS485_RessiveData_helper+0x56>
		{
							//hundler logic
				memcpy(&_dataProtocol,(void*)RX_BUFF,sizeof(_dataProtocol));
 8000eb8:	4b0c      	ldr	r3, [pc, #48]	; (8000eec <RS485_RessiveData_helper+0x68>)
 8000eba:	4a09      	ldr	r2, [pc, #36]	; (8000ee0 <RS485_RessiveData_helper+0x5c>)
 8000ebc:	6811      	ldr	r1, [r2, #0]
 8000ebe:	6855      	ldr	r5, [r2, #4]
 8000ec0:	6894      	ldr	r4, [r2, #8]
 8000ec2:	68d0      	ldr	r0, [r2, #12]
 8000ec4:	6019      	str	r1, [r3, #0]
 8000ec6:	605d      	str	r5, [r3, #4]
 8000ec8:	609c      	str	r4, [r3, #8]
 8000eca:	60d8      	str	r0, [r3, #12]
 8000ecc:	6911      	ldr	r1, [r2, #16]
 8000ece:	6119      	str	r1, [r3, #16]
 8000ed0:	7d12      	ldrb	r2, [r2, #20]
 8000ed2:	751a      	strb	r2, [r3, #20]
				IsDataAvalible=1;
 8000ed4:	4b06      	ldr	r3, [pc, #24]	; (8000ef0 <RS485_RessiveData_helper+0x6c>)
 8000ed6:	2201      	movs	r2, #1
 8000ed8:	701a      	strb	r2, [r3, #0]
				//RS485_Command_Update((uint8_t)_dataProtocol.cmd,_dataProtocol.dataPayload);

		}
	}
}
 8000eda:	bf00      	nop
 8000edc:	bdb0      	pop	{r4, r5, r7, pc}
 8000ede:	bf00      	nop
 8000ee0:	20000050 	.word	0x20000050
 8000ee4:	200000e4 	.word	0x200000e4
 8000ee8:	20000034 	.word	0x20000034
 8000eec:	20000080 	.word	0x20000080
 8000ef0:	20000035 	.word	0x20000035

08000ef4 <Get_RS485RxMessage>:



/*******************Get Message**************************/
void Get_RS485RxMessage(Protocol_RS485Def* _rs485)
{
 8000ef4:	b4b0      	push	{r4, r5, r7}
 8000ef6:	b083      	sub	sp, #12
 8000ef8:	af00      	add	r7, sp, #0
 8000efa:	6078      	str	r0, [r7, #4]
	memcpy(_rs485,&_dataProtocol,sizeof(Protocol_RS485Def));
 8000efc:	687b      	ldr	r3, [r7, #4]
 8000efe:	4a09      	ldr	r2, [pc, #36]	; (8000f24 <Get_RS485RxMessage+0x30>)
 8000f00:	6811      	ldr	r1, [r2, #0]
 8000f02:	6855      	ldr	r5, [r2, #4]
 8000f04:	6894      	ldr	r4, [r2, #8]
 8000f06:	68d0      	ldr	r0, [r2, #12]
 8000f08:	6019      	str	r1, [r3, #0]
 8000f0a:	605d      	str	r5, [r3, #4]
 8000f0c:	609c      	str	r4, [r3, #8]
 8000f0e:	60d8      	str	r0, [r3, #12]
 8000f10:	6911      	ldr	r1, [r2, #16]
 8000f12:	6119      	str	r1, [r3, #16]
 8000f14:	7d12      	ldrb	r2, [r2, #20]
 8000f16:	751a      	strb	r2, [r3, #20]

}
 8000f18:	bf00      	nop
 8000f1a:	370c      	adds	r7, #12
 8000f1c:	46bd      	mov	sp, r7
 8000f1e:	bcb0      	pop	{r4, r5, r7}
 8000f20:	4770      	bx	lr
 8000f22:	bf00      	nop
 8000f24:	20000080 	.word	0x20000080

08000f28 <RS485_rxPkgAvailable>:

/*******************End Packet**************************/
uint8_t  RS485_rxPkgAvailable(void)
{
 8000f28:	b480      	push	{r7}
 8000f2a:	af00      	add	r7, sp, #0
	return IsDataAvalible;
 8000f2c:	4b03      	ldr	r3, [pc, #12]	; (8000f3c <RS485_rxPkgAvailable+0x14>)
 8000f2e:	781b      	ldrb	r3, [r3, #0]
}
 8000f30:	4618      	mov	r0, r3
 8000f32:	46bd      	mov	sp, r7
 8000f34:	f85d 7b04 	ldr.w	r7, [sp], #4
 8000f38:	4770      	bx	lr
 8000f3a:	bf00      	nop
 8000f3c:	20000035 	.word	0x20000035

08000f40 <SetPkgAvailable>:

/*******************Set Status Available**************************/
void SetPkgAvailable(uint8_t st)
{
 8000f40:	b480      	push	{r7}
 8000f42:	b083      	sub	sp, #12
 8000f44:	af00      	add	r7, sp, #0
 8000f46:	4603      	mov	r3, r0
 8000f48:	71fb      	strb	r3, [r7, #7]
	IsDataAvalible=st;
 8000f4a:	4a04      	ldr	r2, [pc, #16]	; (8000f5c <SetPkgAvailable+0x1c>)
 8000f4c:	79fb      	ldrb	r3, [r7, #7]
 8000f4e:	7013      	strb	r3, [r2, #0]
}
 8000f50:	bf00      	nop
 8000f52:	370c      	adds	r7, #12
 8000f54:	46bd      	mov	sp, r7
 8000f56:	f85d 7b04 	ldr.w	r7, [sp], #4
 8000f5a:	4770      	bx	lr
 8000f5c:	20000035 	.word	0x20000035

08000f60 <Calculate_CRC16>:


/**********************Calculate CRC16*****************************/
uint16_t Calculate_CRC16(uint8_t *data,uint8_t len)
{
 8000f60:	b480      	push	{r7}
 8000f62:	b085      	sub	sp, #20
 8000f64:	af00      	add	r7, sp, #0
 8000f66:	6078      	str	r0, [r7, #4]
 8000f68:	460b      	mov	r3, r1
 8000f6a:	70fb      	strb	r3, [r7, #3]
			uint16_t crc = 0xFFFF;
 8000f6c:	f64f 73ff 	movw	r3, #65535	; 0xffff
 8000f70:	81fb      	strh	r3, [r7, #14]
	       uint8_t i;

	       while (len--)
 8000f72:	e025      	b.n	8000fc0 <Calculate_CRC16+0x60>
	       {
	           crc ^= *data++ << 8;
 8000f74:	687b      	ldr	r3, [r7, #4]
 8000f76:	1c5a      	adds	r2, r3, #1
 8000f78:	607a      	str	r2, [r7, #4]
 8000f7a:	781b      	ldrb	r3, [r3, #0]
 8000f7c:	021b      	lsls	r3, r3, #8
 8000f7e:	b21a      	sxth	r2, r3
 8000f80:	f9b7 300e 	ldrsh.w	r3, [r7, #14]
 8000f84:	4053      	eors	r3, r2
 8000f86:	b21b      	sxth	r3, r3
 8000f88:	81fb      	strh	r3, [r7, #14]

	           for (i = 0; i < 8; i++)
 8000f8a:	2300      	movs	r3, #0
 8000f8c:	737b      	strb	r3, [r7, #13]
 8000f8e:	e014      	b.n	8000fba <Calculate_CRC16+0x5a>
	               crc = crc & 0x8000 ? (crc << 1) ^ 0x1021 : crc << 1;
 8000f90:	f9b7 300e 	ldrsh.w	r3, [r7, #14]
 8000f94:	2b00      	cmp	r3, #0
 8000f96:	da09      	bge.n	8000fac <Calculate_CRC16+0x4c>
 8000f98:	89fb      	ldrh	r3, [r7, #14]
 8000f9a:	005b      	lsls	r3, r3, #1
 8000f9c:	b21b      	sxth	r3, r3
 8000f9e:	f483 5381 	eor.w	r3, r3, #4128	; 0x1020
 8000fa2:	f083 0301 	eor.w	r3, r3, #1
 8000fa6:	b21b      	sxth	r3, r3
 8000fa8:	b29b      	uxth	r3, r3
 8000faa:	e002      	b.n	8000fb2 <Calculate_CRC16+0x52>
 8000fac:	89fb      	ldrh	r3, [r7, #14]
 8000fae:	005b      	lsls	r3, r3, #1
 8000fb0:	b29b      	uxth	r3, r3
 8000fb2:	81fb      	strh	r3, [r7, #14]
	           for (i = 0; i < 8; i++)
 8000fb4:	7b7b      	ldrb	r3, [r7, #13]
 8000fb6:	3301      	adds	r3, #1
 8000fb8:	737b      	strb	r3, [r7, #13]
 8000fba:	7b7b      	ldrb	r3, [r7, #13]
 8000fbc:	2b07      	cmp	r3, #7
 8000fbe:	d9e7      	bls.n	8000f90 <Calculate_CRC16+0x30>
	       while (len--)
 8000fc0:	78fb      	ldrb	r3, [r7, #3]
 8000fc2:	1e5a      	subs	r2, r3, #1
 8000fc4:	70fa      	strb	r2, [r7, #3]
 8000fc6:	2b00      	cmp	r3, #0
 8000fc8:	d1d4      	bne.n	8000f74 <Calculate_CRC16+0x14>
	       }
	       return crc;
 8000fca:	89fb      	ldrh	r3, [r7, #14]
}
 8000fcc:	4618      	mov	r0, r3
 8000fce:	3714      	adds	r7, #20
 8000fd0:	46bd      	mov	sp, r7
 8000fd2:	f85d 7b04 	ldr.w	r7, [sp], #4
 8000fd6:	4770      	bx	lr

08000fd8 <checkCRC16>:

/************************Function Check Summ Recieve Buffer***************/
uint8_t checkCRC16(uint8_t *data,uint8_t len)
{
 8000fd8:	b480      	push	{r7}
 8000fda:	b085      	sub	sp, #20
 8000fdc:	af00      	add	r7, sp, #0
 8000fde:	6078      	str	r0, [r7, #4]
 8000fe0:	460b      	mov	r3, r1
 8000fe2:	70fb      	strb	r3, [r7, #3]
	uint16_t crc = 0xFFFF;
 8000fe4:	f64f 73ff 	movw	r3, #65535	; 0xffff
 8000fe8:	81fb      	strh	r3, [r7, #14]
	     uint8_t i;
	     uint16_t des_buf=(data[len-1]<<8)|data[len-2];
 8000fea:	78fb      	ldrb	r3, [r7, #3]
 8000fec:	3b01      	subs	r3, #1
 8000fee:	687a      	ldr	r2, [r7, #4]
 8000ff0:	4413      	add	r3, r2
 8000ff2:	781b      	ldrb	r3, [r3, #0]
 8000ff4:	021b      	lsls	r3, r3, #8
 8000ff6:	b21a      	sxth	r2, r3
 8000ff8:	78fb      	ldrb	r3, [r7, #3]
 8000ffa:	3b02      	subs	r3, #2
 8000ffc:	6879      	ldr	r1, [r7, #4]
 8000ffe:	440b      	add	r3, r1
 8001000:	781b      	ldrb	r3, [r3, #0]
 8001002:	b21b      	sxth	r3, r3
 8001004:	4313      	orrs	r3, r2
 8001006:	b21b      	sxth	r3, r3
 8001008:	817b      	strh	r3, [r7, #10]
	     uint8_t len_dst=len-2;
 800100a:	78fb      	ldrb	r3, [r7, #3]
 800100c:	3b02      	subs	r3, #2
 800100e:	733b      	strb	r3, [r7, #12]
	     while (len_dst--)
 8001010:	e025      	b.n	800105e <checkCRC16+0x86>
	     {
	         crc ^= *data++ << 8;
 8001012:	687b      	ldr	r3, [r7, #4]
 8001014:	1c5a      	adds	r2, r3, #1
 8001016:	607a      	str	r2, [r7, #4]
 8001018:	781b      	ldrb	r3, [r3, #0]
 800101a:	021b      	lsls	r3, r3, #8
 800101c:	b21a      	sxth	r2, r3
 800101e:	f9b7 300e 	ldrsh.w	r3, [r7, #14]
 8001022:	4053      	eors	r3, r2
 8001024:	b21b      	sxth	r3, r3
 8001026:	81fb      	strh	r3, [r7, #14]

	         for (i = 0; i < 8; i++)
 8001028:	2300      	movs	r3, #0
 800102a:	737b      	strb	r3, [r7, #13]
 800102c:	e014      	b.n	8001058 <checkCRC16+0x80>
	             crc = crc & 0x8000 ? (crc << 1) ^ 0x1021 : crc << 1;
 800102e:	f9b7 300e 	ldrsh.w	r3, [r7, #14]
 8001032:	2b00      	cmp	r3, #0
 8001034:	da09      	bge.n	800104a <checkCRC16+0x72>
 8001036:	89fb      	ldrh	r3, [r7, #14]
 8001038:	005b      	lsls	r3, r3, #1
 800103a:	b21b      	sxth	r3, r3
 800103c:	f483 5381 	eor.w	r3, r3, #4128	; 0x1020
 8001040:	f083 0301 	eor.w	r3, r3, #1
 8001044:	b21b      	sxth	r3, r3
 8001046:	b29b      	uxth	r3, r3
 8001048:	e002      	b.n	8001050 <checkCRC16+0x78>
 800104a:	89fb      	ldrh	r3, [r7, #14]
 800104c:	005b      	lsls	r3, r3, #1
 800104e:	b29b      	uxth	r3, r3
 8001050:	81fb      	strh	r3, [r7, #14]
	         for (i = 0; i < 8; i++)
 8001052:	7b7b      	ldrb	r3, [r7, #13]
 8001054:	3301      	adds	r3, #1
 8001056:	737b      	strb	r3, [r7, #13]
 8001058:	7b7b      	ldrb	r3, [r7, #13]
 800105a:	2b07      	cmp	r3, #7
 800105c:	d9e7      	bls.n	800102e <checkCRC16+0x56>
	     while (len_dst--)
 800105e:	7b3b      	ldrb	r3, [r7, #12]
 8001060:	1e5a      	subs	r2, r3, #1
 8001062:	733a      	strb	r2, [r7, #12]
 8001064:	2b00      	cmp	r3, #0
 8001066:	d1d4      	bne.n	8001012 <checkCRC16+0x3a>
	     }
	     if(crc==des_buf)
 8001068:	89fa      	ldrh	r2, [r7, #14]
 800106a:	897b      	ldrh	r3, [r7, #10]
 800106c:	429a      	cmp	r2, r3
 800106e:	d101      	bne.n	8001074 <checkCRC16+0x9c>
	     {
	         return  true;
 8001070:	2301      	movs	r3, #1
 8001072:	e000      	b.n	8001076 <checkCRC16+0x9e>
	     }
	     else
	     {
	        return  false;
 8001074:	2300      	movs	r3, #0
	     }
}
 8001076:	4618      	mov	r0, r3
 8001078:	3714      	adds	r7, #20
 800107a:	46bd      	mov	sp, r7
 800107c:	f85d 7b04 	ldr.w	r7, [sp], #4
 8001080:	4770      	bx	lr
	...

08001084 <HAL_I2C_MspInit>:
  }

}

void HAL_I2C_MspInit(I2C_HandleTypeDef* i2cHandle)
{
 8001084:	b580      	push	{r7, lr}
 8001086:	b08a      	sub	sp, #40	; 0x28
 8001088:	af00      	add	r7, sp, #0
 800108a:	6078      	str	r0, [r7, #4]

  GPIO_InitTypeDef GPIO_InitStruct = {0};
 800108c:	f107 0314 	add.w	r3, r7, #20
 8001090:	2200      	movs	r2, #0
 8001092:	601a      	str	r2, [r3, #0]
 8001094:	605a      	str	r2, [r3, #4]
 8001096:	609a      	str	r2, [r3, #8]
 8001098:	60da      	str	r2, [r3, #12]
 800109a:	611a      	str	r2, [r3, #16]
  if(i2cHandle->Instance==I2C1)
 800109c:	687b      	ldr	r3, [r7, #4]
 800109e:	681b      	ldr	r3, [r3, #0]
 80010a0:	4a1f      	ldr	r2, [pc, #124]	; (8001120 <HAL_I2C_MspInit+0x9c>)
 80010a2:	4293      	cmp	r3, r2
 80010a4:	d138      	bne.n	8001118 <HAL_I2C_MspInit+0x94>
  {
  /* USER CODE BEGIN I2C1_MspInit 0 */

  /* USER CODE END I2C1_MspInit 0 */
  
    __HAL_RCC_GPIOB_CLK_ENABLE();
 80010a6:	4b1f      	ldr	r3, [pc, #124]	; (8001124 <HAL_I2C_MspInit+0xa0>)
 80010a8:	695b      	ldr	r3, [r3, #20]
 80010aa:	4a1e      	ldr	r2, [pc, #120]	; (8001124 <HAL_I2C_MspInit+0xa0>)
 80010ac:	f443 2380 	orr.w	r3, r3, #262144	; 0x40000
 80010b0:	6153      	str	r3, [r2, #20]
 80010b2:	4b1c      	ldr	r3, [pc, #112]	; (8001124 <HAL_I2C_MspInit+0xa0>)
 80010b4:	695b      	ldr	r3, [r3, #20]
 80010b6:	f403 2380 	and.w	r3, r3, #262144	; 0x40000
 80010ba:	613b      	str	r3, [r7, #16]
 80010bc:	693b      	ldr	r3, [r7, #16]
    /**I2C1 GPIO Configuration    
    PB8     ------> I2C1_SCL
    PB9     ------> I2C1_SDA 
    */
    GPIO_InitStruct.Pin = GPIO_PIN_8|GPIO_PIN_9;
 80010be:	f44f 7340 	mov.w	r3, #768	; 0x300
 80010c2:	617b      	str	r3, [r7, #20]
    GPIO_InitStruct.Mode = GPIO_MODE_AF_OD;
 80010c4:	2312      	movs	r3, #18
 80010c6:	61bb      	str	r3, [r7, #24]
    GPIO_InitStruct.Pull = GPIO_PULLUP;
 80010c8:	2301      	movs	r3, #1
 80010ca:	61fb      	str	r3, [r7, #28]
    GPIO_InitStruct.Speed = GPIO_SPEED_FREQ_HIGH;
 80010cc:	2303      	movs	r3, #3
 80010ce:	623b      	str	r3, [r7, #32]
    GPIO_InitStruct.Alternate = GPIO_AF4_I2C1;
 80010d0:	2304      	movs	r3, #4
 80010d2:	627b      	str	r3, [r7, #36]	; 0x24
    HAL_GPIO_Init(GPIOB, &GPIO_InitStruct);
 80010d4:	f107 0314 	add.w	r3, r7, #20
 80010d8:	4619      	mov	r1, r3
 80010da:	4813      	ldr	r0, [pc, #76]	; (8001128 <HAL_I2C_MspInit+0xa4>)
 80010dc:	f000 fb94 	bl	8001808 <HAL_GPIO_Init>

    /* I2C1 clock enable */
    __HAL_RCC_I2C1_CLK_ENABLE();
 80010e0:	4b10      	ldr	r3, [pc, #64]	; (8001124 <HAL_I2C_MspInit+0xa0>)
 80010e2:	69db      	ldr	r3, [r3, #28]
 80010e4:	4a0f      	ldr	r2, [pc, #60]	; (8001124 <HAL_I2C_MspInit+0xa0>)
 80010e6:	f443 1300 	orr.w	r3, r3, #2097152	; 0x200000
 80010ea:	61d3      	str	r3, [r2, #28]
 80010ec:	4b0d      	ldr	r3, [pc, #52]	; (8001124 <HAL_I2C_MspInit+0xa0>)
 80010ee:	69db      	ldr	r3, [r3, #28]
 80010f0:	f403 1300 	and.w	r3, r3, #2097152	; 0x200000
 80010f4:	60fb      	str	r3, [r7, #12]
 80010f6:	68fb      	ldr	r3, [r7, #12]

    /* I2C1 interrupt Init */
    HAL_NVIC_SetPriority(I2C1_EV_IRQn, 0, 0);
 80010f8:	2200      	movs	r2, #0
 80010fa:	2100      	movs	r1, #0
 80010fc:	201f      	movs	r0, #31
 80010fe:	f000 fac8 	bl	8001692 <HAL_NVIC_SetPriority>
    HAL_NVIC_EnableIRQ(I2C1_EV_IRQn);
 8001102:	201f      	movs	r0, #31
 8001104:	f000 fae1 	bl	80016ca <HAL_NVIC_EnableIRQ>
    HAL_NVIC_SetPriority(I2C1_ER_IRQn, 0, 0);
 8001108:	2200      	movs	r2, #0
 800110a:	2100      	movs	r1, #0
 800110c:	2020      	movs	r0, #32
 800110e:	f000 fac0 	bl	8001692 <HAL_NVIC_SetPriority>
    HAL_NVIC_EnableIRQ(I2C1_ER_IRQn);
 8001112:	2020      	movs	r0, #32
 8001114:	f000 fad9 	bl	80016ca <HAL_NVIC_EnableIRQ>
  /* USER CODE BEGIN I2C1_MspInit 1 */

  /* USER CODE END I2C1_MspInit 1 */
  }
}
 8001118:	bf00      	nop
 800111a:	3728      	adds	r7, #40	; 0x28
 800111c:	46bd      	mov	sp, r7
 800111e:	bd80      	pop	{r7, pc}
 8001120:	40005400 	.word	0x40005400
 8001124:	40021000 	.word	0x40021000
 8001128:	48000400 	.word	0x48000400

0800112c <main>:
/**
  * @brief  The application entry point.
  * @retval int
  */
int main(void)
{
 800112c:	b580      	push	{r7, lr}
 800112e:	af00      	add	r7, sp, #0
  /* USER CODE END 1 */

  /* MCU Configuration--------------------------------------------------------*/

  /* Reset of all peripherals, Initializes the Flash interface and the Systick. */
  HAL_Init();
 8001130:	f000 f96e 	bl	8001410 <HAL_Init>
  /* USER CODE BEGIN Init */

  /* USER CODE END Init */

  /* Configure the system clock */
  SystemClock_Config();
 8001134:	f000 f810 	bl	8001158 <SystemClock_Config>

  /* USER CODE END SysInit */

  /* Initialize all configured peripherals */
   /* USER CODE BEGIN 2 */
  HID_Gyro_Init_Sync();
 8001138:	f7ff f962 	bl	8000400 <HID_Gyro_Init_Sync>
  while (1)
  {
    /* USER CODE END WHILE */

    /* USER CODE BEGIN 3 */
	  RS485_Command_Update_Async();
 800113c:	f7ff fa0a 	bl	8000554 <RS485_Command_Update_Async>
	  if(Get_Status_Trigger()==0)
 8001140:	f7ff f946 	bl	80003d0 <Get_Status_Trigger>
 8001144:	4603      	mov	r3, r0
 8001146:	2b00      	cmp	r3, #0
 8001148:	d004      	beq.n	8001154 <main+0x28>
	 	  {
	 		  continue;
	 	  }
	 	  Reset_Trigger();
 800114a:	f7ff f94d 	bl	80003e8 <Reset_Trigger>
	 	 Data_Sync_HID_Gyro();
 800114e:	f7ff f97f 	bl	8000450 <Data_Sync_HID_Gyro>
 8001152:	e7f3      	b.n	800113c <main+0x10>
	 		  continue;
 8001154:	bf00      	nop
	  RS485_Command_Update_Async();
 8001156:	e7f1      	b.n	800113c <main+0x10>

08001158 <SystemClock_Config>:
/**
  * @brief System Clock Configuration
  * @retval None
  */
void SystemClock_Config(void)
{
 8001158:	b580      	push	{r7, lr}
 800115a:	b096      	sub	sp, #88	; 0x58
 800115c:	af00      	add	r7, sp, #0
  RCC_OscInitTypeDef RCC_OscInitStruct = {0};
 800115e:	f107 0330 	add.w	r3, r7, #48	; 0x30
 8001162:	2228      	movs	r2, #40	; 0x28
 8001164:	2100      	movs	r1, #0
 8001166:	4618      	mov	r0, r3
 8001168:	f004 f9fb 	bl	8005562 <memset>
  RCC_ClkInitTypeDef RCC_ClkInitStruct = {0};
 800116c:	f107 031c 	add.w	r3, r7, #28
 8001170:	2200      	movs	r2, #0
 8001172:	601a      	str	r2, [r3, #0]
 8001174:	605a      	str	r2, [r3, #4]
 8001176:	609a      	str	r2, [r3, #8]
 8001178:	60da      	str	r2, [r3, #12]
 800117a:	611a      	str	r2, [r3, #16]
  RCC_PeriphCLKInitTypeDef PeriphClkInit = {0};
 800117c:	463b      	mov	r3, r7
 800117e:	2200      	movs	r2, #0
 8001180:	601a      	str	r2, [r3, #0]
 8001182:	605a      	str	r2, [r3, #4]
 8001184:	609a      	str	r2, [r3, #8]
 8001186:	60da      	str	r2, [r3, #12]
 8001188:	611a      	str	r2, [r3, #16]
 800118a:	615a      	str	r2, [r3, #20]
 800118c:	619a      	str	r2, [r3, #24]

  /** Initializes the CPU, AHB and APB busses clocks 
  */
  RCC_OscInitStruct.OscillatorType = RCC_OSCILLATORTYPE_HSI|RCC_OSCILLATORTYPE_HSE;
 800118e:	2303      	movs	r3, #3
 8001190:	633b      	str	r3, [r7, #48]	; 0x30
  RCC_OscInitStruct.HSEState = RCC_HSE_ON;
 8001192:	f44f 3380 	mov.w	r3, #65536	; 0x10000
 8001196:	637b      	str	r3, [r7, #52]	; 0x34
  RCC_OscInitStruct.HSEPredivValue = RCC_HSE_PREDIV_DIV1;
 8001198:	2300      	movs	r3, #0
 800119a:	63bb      	str	r3, [r7, #56]	; 0x38
  RCC_OscInitStruct.HSIState = RCC_HSI_ON;
 800119c:	2301      	movs	r3, #1
 800119e:	643b      	str	r3, [r7, #64]	; 0x40
  RCC_OscInitStruct.HSICalibrationValue = RCC_HSICALIBRATION_DEFAULT;
 80011a0:	2310      	movs	r3, #16
 80011a2:	647b      	str	r3, [r7, #68]	; 0x44
  RCC_OscInitStruct.PLL.PLLState = RCC_PLL_ON;
 80011a4:	2302      	movs	r3, #2
 80011a6:	64fb      	str	r3, [r7, #76]	; 0x4c
  RCC_OscInitStruct.PLL.PLLSource = RCC_PLLSOURCE_HSE;
 80011a8:	f44f 3380 	mov.w	r3, #65536	; 0x10000
 80011ac:	653b      	str	r3, [r7, #80]	; 0x50
  RCC_OscInitStruct.PLL.PLLMUL = RCC_PLL_MUL9;
 80011ae:	f44f 13e0 	mov.w	r3, #1835008	; 0x1c0000
 80011b2:	657b      	str	r3, [r7, #84]	; 0x54
  if (HAL_RCC_OscConfig(&RCC_OscInitStruct) != HAL_OK)
 80011b4:	f107 0330 	add.w	r3, r7, #48	; 0x30
 80011b8:	4618      	mov	r0, r3
 80011ba:	f001 ff95 	bl	80030e8 <HAL_RCC_OscConfig>
 80011be:	4603      	mov	r3, r0
 80011c0:	2b00      	cmp	r3, #0
 80011c2:	d001      	beq.n	80011c8 <SystemClock_Config+0x70>
  {
    Error_Handler();
 80011c4:	f000 f827 	bl	8001216 <Error_Handler>
  }
  /** Initializes the CPU, AHB and APB busses clocks 
  */
  RCC_ClkInitStruct.ClockType = RCC_CLOCKTYPE_HCLK|RCC_CLOCKTYPE_SYSCLK
 80011c8:	230f      	movs	r3, #15
 80011ca:	61fb      	str	r3, [r7, #28]
                              |RCC_CLOCKTYPE_PCLK1|RCC_CLOCKTYPE_PCLK2;
  RCC_ClkInitStruct.SYSCLKSource = RCC_SYSCLKSOURCE_PLLCLK;
 80011cc:	2302      	movs	r3, #2
 80011ce:	623b      	str	r3, [r7, #32]
  RCC_ClkInitStruct.AHBCLKDivider = RCC_SYSCLK_DIV1;
 80011d0:	2300      	movs	r3, #0
 80011d2:	627b      	str	r3, [r7, #36]	; 0x24
  RCC_ClkInitStruct.APB1CLKDivider = RCC_HCLK_DIV2;
 80011d4:	f44f 6380 	mov.w	r3, #1024	; 0x400
 80011d8:	62bb      	str	r3, [r7, #40]	; 0x28
  RCC_ClkInitStruct.APB2CLKDivider = RCC_HCLK_DIV1;
 80011da:	2300      	movs	r3, #0
 80011dc:	62fb      	str	r3, [r7, #44]	; 0x2c

  if (HAL_RCC_ClockConfig(&RCC_ClkInitStruct, FLASH_LATENCY_2) != HAL_OK)
 80011de:	f107 031c 	add.w	r3, r7, #28
 80011e2:	2102      	movs	r1, #2
 80011e4:	4618      	mov	r0, r3
 80011e6:	f002 fe87 	bl	8003ef8 <HAL_RCC_ClockConfig>
 80011ea:	4603      	mov	r3, r0
 80011ec:	2b00      	cmp	r3, #0
 80011ee:	d001      	beq.n	80011f4 <SystemClock_Config+0x9c>
  {
    Error_Handler();
 80011f0:	f000 f811 	bl	8001216 <Error_Handler>
  }
  PeriphClkInit.PeriphClockSelection = RCC_PERIPHCLK_I2C1;
 80011f4:	2320      	movs	r3, #32
 80011f6:	603b      	str	r3, [r7, #0]
  PeriphClkInit.I2c1ClockSelection = RCC_I2C1CLKSOURCE_HSI;
 80011f8:	2300      	movs	r3, #0
 80011fa:	60fb      	str	r3, [r7, #12]
  if (HAL_RCCEx_PeriphCLKConfig(&PeriphClkInit) != HAL_OK)
 80011fc:	463b      	mov	r3, r7
 80011fe:	4618      	mov	r0, r3
 8001200:	f003 f8b0 	bl	8004364 <HAL_RCCEx_PeriphCLKConfig>
 8001204:	4603      	mov	r3, r0
 8001206:	2b00      	cmp	r3, #0
 8001208:	d001      	beq.n	800120e <SystemClock_Config+0xb6>
  {
    Error_Handler();
 800120a:	f000 f804 	bl	8001216 <Error_Handler>
  }
}
 800120e:	bf00      	nop
 8001210:	3758      	adds	r7, #88	; 0x58
 8001212:	46bd      	mov	sp, r7
 8001214:	bd80      	pop	{r7, pc}

08001216 <Error_Handler>:
/**
  * @brief  This function is executed in case of error occurrence.
  * @retval None
  */
void Error_Handler(void)
{
 8001216:	b480      	push	{r7}
 8001218:	af00      	add	r7, sp, #0
  /* USER CODE BEGIN Error_Handler_Debug */
  /* User can add his own implementation to report the HAL error return state */

  /* USER CODE END Error_Handler_Debug */
}
 800121a:	bf00      	nop
 800121c:	46bd      	mov	sp, r7
 800121e:	f85d 7b04 	ldr.w	r7, [sp], #4
 8001222:	4770      	bx	lr

08001224 <HAL_MspInit>:
/* USER CODE END 0 */
/**
  * Initializes the Global MSP.
  */
void HAL_MspInit(void)
{
 8001224:	b580      	push	{r7, lr}
 8001226:	b082      	sub	sp, #8
 8001228:	af00      	add	r7, sp, #0
  /* USER CODE BEGIN MspInit 0 */

  /* USER CODE END MspInit 0 */

  __HAL_RCC_SYSCFG_CLK_ENABLE();
 800122a:	4b0f      	ldr	r3, [pc, #60]	; (8001268 <HAL_MspInit+0x44>)
 800122c:	699b      	ldr	r3, [r3, #24]
 800122e:	4a0e      	ldr	r2, [pc, #56]	; (8001268 <HAL_MspInit+0x44>)
 8001230:	f043 0301 	orr.w	r3, r3, #1
 8001234:	6193      	str	r3, [r2, #24]
 8001236:	4b0c      	ldr	r3, [pc, #48]	; (8001268 <HAL_MspInit+0x44>)
 8001238:	699b      	ldr	r3, [r3, #24]
 800123a:	f003 0301 	and.w	r3, r3, #1
 800123e:	607b      	str	r3, [r7, #4]
 8001240:	687b      	ldr	r3, [r7, #4]
  __HAL_RCC_PWR_CLK_ENABLE();
 8001242:	4b09      	ldr	r3, [pc, #36]	; (8001268 <HAL_MspInit+0x44>)
 8001244:	69db      	ldr	r3, [r3, #28]
 8001246:	4a08      	ldr	r2, [pc, #32]	; (8001268 <HAL_MspInit+0x44>)
 8001248:	f043 5380 	orr.w	r3, r3, #268435456	; 0x10000000
 800124c:	61d3      	str	r3, [r2, #28]
 800124e:	4b06      	ldr	r3, [pc, #24]	; (8001268 <HAL_MspInit+0x44>)
 8001250:	69db      	ldr	r3, [r3, #28]
 8001252:	f003 5380 	and.w	r3, r3, #268435456	; 0x10000000
 8001256:	603b      	str	r3, [r7, #0]
 8001258:	683b      	ldr	r3, [r7, #0]

  HAL_NVIC_SetPriorityGrouping(NVIC_PRIORITYGROUP_0);
 800125a:	2007      	movs	r0, #7
 800125c:	f000 fa0e 	bl	800167c <HAL_NVIC_SetPriorityGrouping>
  /* System interrupt init*/

  /* USER CODE BEGIN MspInit 1 */

  /* USER CODE END MspInit 1 */
}
 8001260:	bf00      	nop
 8001262:	3708      	adds	r7, #8
 8001264:	46bd      	mov	sp, r7
 8001266:	bd80      	pop	{r7, pc}
 8001268:	40021000 	.word	0x40021000

0800126c <NMI_Handler>:
/******************************************************************************/
/**
  * @brief This function handles Non maskable interrupt.
  */
void NMI_Handler(void)
{
 800126c:	b480      	push	{r7}
 800126e:	af00      	add	r7, sp, #0

  /* USER CODE END NonMaskableInt_IRQn 0 */
  /* USER CODE BEGIN NonMaskableInt_IRQn 1 */

  /* USER CODE END NonMaskableInt_IRQn 1 */
}
 8001270:	bf00      	nop
 8001272:	46bd      	mov	sp, r7
 8001274:	f85d 7b04 	ldr.w	r7, [sp], #4
 8001278:	4770      	bx	lr

0800127a <HardFault_Handler>:

/**
  * @brief This function handles Hard fault interrupt.
  */
void HardFault_Handler(void)
{
 800127a:	b480      	push	{r7}
 800127c:	af00      	add	r7, sp, #0
  /* USER CODE BEGIN HardFault_IRQn 0 */

  /* USER CODE END HardFault_IRQn 0 */
  while (1)
 800127e:	e7fe      	b.n	800127e <HardFault_Handler+0x4>

08001280 <MemManage_Handler>:

/**
  * @brief This function handles Memory management fault.
  */
void MemManage_Handler(void)
{
 8001280:	b480      	push	{r7}
 8001282:	af00      	add	r7, sp, #0
  /* USER CODE BEGIN MemoryManagement_IRQn 0 */

  /* USER CODE END MemoryManagement_IRQn 0 */
  while (1)
 8001284:	e7fe      	b.n	8001284 <MemManage_Handler+0x4>

08001286 <BusFault_Handler>:

/**
  * @brief This function handles Pre-fetch fault, memory access fault.
  */
void BusFault_Handler(void)
{
 8001286:	b480      	push	{r7}
 8001288:	af00      	add	r7, sp, #0
  /* USER CODE BEGIN BusFault_IRQn 0 */

  /* USER CODE END BusFault_IRQn 0 */
  while (1)
 800128a:	e7fe      	b.n	800128a <BusFault_Handler+0x4>

0800128c <UsageFault_Handler>:

/**
  * @brief This function handles Undefined instruction or illegal state.
  */
void UsageFault_Handler(void)
{
 800128c:	b480      	push	{r7}
 800128e:	af00      	add	r7, sp, #0
  /* USER CODE BEGIN UsageFault_IRQn 0 */

  /* USER CODE END UsageFault_IRQn 0 */
  while (1)
 8001290:	e7fe      	b.n	8001290 <UsageFault_Handler+0x4>

08001292 <SVC_Handler>:

/**
  * @brief This function handles System service call via SWI instruction.
  */
void SVC_Handler(void)
{
 8001292:	b480      	push	{r7}
 8001294:	af00      	add	r7, sp, #0

  /* USER CODE END SVCall_IRQn 0 */
  /* USER CODE BEGIN SVCall_IRQn 1 */

  /* USER CODE END SVCall_IRQn 1 */
}
 8001296:	bf00      	nop
 8001298:	46bd      	mov	sp, r7
 800129a:	f85d 7b04 	ldr.w	r7, [sp], #4
 800129e:	4770      	bx	lr

080012a0 <DebugMon_Handler>:

/**
  * @brief This function handles Debug monitor.
  */
void DebugMon_Handler(void)
{
 80012a0:	b480      	push	{r7}
 80012a2:	af00      	add	r7, sp, #0

  /* USER CODE END DebugMonitor_IRQn 0 */
  /* USER CODE BEGIN DebugMonitor_IRQn 1 */

  /* USER CODE END DebugMonitor_IRQn 1 */
}
 80012a4:	bf00      	nop
 80012a6:	46bd      	mov	sp, r7
 80012a8:	f85d 7b04 	ldr.w	r7, [sp], #4
 80012ac:	4770      	bx	lr

080012ae <PendSV_Handler>:

/**
  * @brief This function handles Pendable request for system service.
  */
void PendSV_Handler(void)
{
 80012ae:	b480      	push	{r7}
 80012b0:	af00      	add	r7, sp, #0

  /* USER CODE END PendSV_IRQn 0 */
  /* USER CODE BEGIN PendSV_IRQn 1 */

  /* USER CODE END PendSV_IRQn 1 */
}
 80012b2:	bf00      	nop
 80012b4:	46bd      	mov	sp, r7
 80012b6:	f85d 7b04 	ldr.w	r7, [sp], #4
 80012ba:	4770      	bx	lr

080012bc <SysTick_Handler>:

/**
  * @brief This function handles System tick timer.
  */
void SysTick_Handler(void)
{
 80012bc:	b580      	push	{r7, lr}
 80012be:	af00      	add	r7, sp, #0
  /* USER CODE BEGIN SysTick_IRQn 0 */

  /* USER CODE END SysTick_IRQn 0 */
  HAL_IncTick();
 80012c0:	f000 f8ec 	bl	800149c <HAL_IncTick>
  /* USER CODE BEGIN SysTick_IRQn 1 */

  /* USER CODE END SysTick_IRQn 1 */
}
 80012c4:	bf00      	nop
 80012c6:	bd80      	pop	{r7, pc}

080012c8 <I2C1_EV_IRQHandler>:

/**
  * @brief This function handles I2C1 event global interrupt / I2C1 wake-up interrupt through EXT line 23.
  */
void I2C1_EV_IRQHandler(void)
{
 80012c8:	b580      	push	{r7, lr}
 80012ca:	af00      	add	r7, sp, #0
  /* USER CODE BEGIN I2C1_EV_IRQn 0 */

  /* USER CODE END I2C1_EV_IRQn 0 */
  HAL_I2C_EV_IRQHandler(&hi2c1);
 80012cc:	4802      	ldr	r0, [pc, #8]	; (80012d8 <I2C1_EV_IRQHandler+0x10>)
 80012ce:	f000 fee3 	bl	8002098 <HAL_I2C_EV_IRQHandler>
  /* USER CODE BEGIN I2C1_EV_IRQn 1 */

  /* USER CODE END I2C1_EV_IRQn 1 */
}
 80012d2:	bf00      	nop
 80012d4:	bd80      	pop	{r7, pc}
 80012d6:	bf00      	nop
 80012d8:	20000098 	.word	0x20000098

080012dc <I2C1_ER_IRQHandler>:

/**
  * @brief This function handles I2C1 error interrupt.
  */
void I2C1_ER_IRQHandler(void)
{
 80012dc:	b580      	push	{r7, lr}
 80012de:	af00      	add	r7, sp, #0
  /* USER CODE BEGIN I2C1_ER_IRQn 0 */

  /* USER CODE END I2C1_ER_IRQn 0 */
  HAL_I2C_ER_IRQHandler(&hi2c1);
 80012e0:	4802      	ldr	r0, [pc, #8]	; (80012ec <I2C1_ER_IRQHandler+0x10>)
 80012e2:	f000 fef3 	bl	80020cc <HAL_I2C_ER_IRQHandler>
  /* USER CODE BEGIN I2C1_ER_IRQn 1 */

  /* USER CODE END I2C1_ER_IRQn 1 */
}
 80012e6:	bf00      	nop
 80012e8:	bd80      	pop	{r7, pc}
 80012ea:	bf00      	nop
 80012ec:	20000098 	.word	0x20000098

080012f0 <USART2_IRQHandler>:

/**
  * @brief This function handles USART2 global interrupt / USART2 wake-up interrupt through EXT line 26.
  */
void USART2_IRQHandler(void)
{
 80012f0:	b580      	push	{r7, lr}
 80012f2:	af00      	add	r7, sp, #0
  /* USER CODE BEGIN USART2_IRQn 0 */

  /* USER CODE END USART2_IRQn 0 */
  HAL_UART_IRQHandler(&huart2);
 80012f4:	4802      	ldr	r0, [pc, #8]	; (8001300 <USART2_IRQHandler+0x10>)
 80012f6:	f003 fa8b 	bl	8004810 <HAL_UART_IRQHandler>
  /* USER CODE BEGIN USART2_IRQn 1 */

  /* USER CODE END USART2_IRQn 1 */
}
 80012fa:	bf00      	nop
 80012fc:	bd80      	pop	{r7, pc}
 80012fe:	bf00      	nop
 8001300:	200000e4 	.word	0x200000e4

08001304 <SystemInit>:
 8001304:	b480      	push	{r7}
 8001306:	af00      	add	r7, sp, #0
 8001308:	4b06      	ldr	r3, [pc, #24]	; (8001324 <SystemInit+0x20>)
 800130a:	f8d3 3088 	ldr.w	r3, [r3, #136]	; 0x88
 800130e:	4a05      	ldr	r2, [pc, #20]	; (8001324 <SystemInit+0x20>)
 8001310:	f443 0370 	orr.w	r3, r3, #15728640	; 0xf00000
 8001314:	f8c2 3088 	str.w	r3, [r2, #136]	; 0x88
 8001318:	bf00      	nop
 800131a:	46bd      	mov	sp, r7
 800131c:	f85d 7b04 	ldr.w	r7, [sp], #4
 8001320:	4770      	bx	lr
 8001322:	bf00      	nop
 8001324:	e000ed00 	.word	0xe000ed00

08001328 <HAL_UART_MspInit>:
  }

}

void HAL_UART_MspInit(UART_HandleTypeDef* uartHandle)
{
 8001328:	b580      	push	{r7, lr}
 800132a:	b08a      	sub	sp, #40	; 0x28
 800132c:	af00      	add	r7, sp, #0
 800132e:	6078      	str	r0, [r7, #4]

  GPIO_InitTypeDef GPIO_InitStruct = {0};
 8001330:	f107 0314 	add.w	r3, r7, #20
 8001334:	2200      	movs	r2, #0
 8001336:	601a      	str	r2, [r3, #0]
 8001338:	605a      	str	r2, [r3, #4]
 800133a:	609a      	str	r2, [r3, #8]
 800133c:	60da      	str	r2, [r3, #12]
 800133e:	611a      	str	r2, [r3, #16]
  if(uartHandle->Instance==USART2)
 8001340:	687b      	ldr	r3, [r7, #4]
 8001342:	681b      	ldr	r3, [r3, #0]
 8001344:	4a1b      	ldr	r2, [pc, #108]	; (80013b4 <HAL_UART_MspInit+0x8c>)
 8001346:	4293      	cmp	r3, r2
 8001348:	d130      	bne.n	80013ac <HAL_UART_MspInit+0x84>
  {
  /* USER CODE BEGIN USART2_MspInit 0 */

  /* USER CODE END USART2_MspInit 0 */
    /* USART2 clock enable */
    __HAL_RCC_USART2_CLK_ENABLE();
 800134a:	4b1b      	ldr	r3, [pc, #108]	; (80013b8 <HAL_UART_MspInit+0x90>)
 800134c:	69db      	ldr	r3, [r3, #28]
 800134e:	4a1a      	ldr	r2, [pc, #104]	; (80013b8 <HAL_UART_MspInit+0x90>)
 8001350:	f443 3300 	orr.w	r3, r3, #131072	; 0x20000
 8001354:	61d3      	str	r3, [r2, #28]
 8001356:	4b18      	ldr	r3, [pc, #96]	; (80013b8 <HAL_UART_MspInit+0x90>)
 8001358:	69db      	ldr	r3, [r3, #28]
 800135a:	f403 3300 	and.w	r3, r3, #131072	; 0x20000
 800135e:	613b      	str	r3, [r7, #16]
 8001360:	693b      	ldr	r3, [r7, #16]
  
    __HAL_RCC_GPIOA_CLK_ENABLE();
 8001362:	4b15      	ldr	r3, [pc, #84]	; (80013b8 <HAL_UART_MspInit+0x90>)
 8001364:	695b      	ldr	r3, [r3, #20]
 8001366:	4a14      	ldr	r2, [pc, #80]	; (80013b8 <HAL_UART_MspInit+0x90>)
 8001368:	f443 3300 	orr.w	r3, r3, #131072	; 0x20000
 800136c:	6153      	str	r3, [r2, #20]
 800136e:	4b12      	ldr	r3, [pc, #72]	; (80013b8 <HAL_UART_MspInit+0x90>)
 8001370:	695b      	ldr	r3, [r3, #20]
 8001372:	f403 3300 	and.w	r3, r3, #131072	; 0x20000
 8001376:	60fb      	str	r3, [r7, #12]
 8001378:	68fb      	ldr	r3, [r7, #12]
    /**USART2 GPIO Configuration    
    PA2     ------> USART2_TX
    PA3     ------> USART2_RX 
    */
    GPIO_InitStruct.Pin = GPIO_PIN_2|GPIO_PIN_3;
 800137a:	230c      	movs	r3, #12
 800137c:	617b      	str	r3, [r7, #20]
    GPIO_InitStruct.Mode = GPIO_MODE_AF_PP;
 800137e:	2302      	movs	r3, #2
 8001380:	61bb      	str	r3, [r7, #24]
    GPIO_InitStruct.Pull = GPIO_NOPULL;
 8001382:	2300      	movs	r3, #0
 8001384:	61fb      	str	r3, [r7, #28]
    GPIO_InitStruct.Speed = GPIO_SPEED_FREQ_HIGH;
 8001386:	2303      	movs	r3, #3
 8001388:	623b      	str	r3, [r7, #32]
    GPIO_InitStruct.Alternate = GPIO_AF7_USART2;
 800138a:	2307      	movs	r3, #7
 800138c:	627b      	str	r3, [r7, #36]	; 0x24
    HAL_GPIO_Init(GPIOA, &GPIO_InitStruct);
 800138e:	f107 0314 	add.w	r3, r7, #20
 8001392:	4619      	mov	r1, r3
 8001394:	f04f 4090 	mov.w	r0, #1207959552	; 0x48000000
 8001398:	f000 fa36 	bl	8001808 <HAL_GPIO_Init>

    /* USART2 interrupt Init */
    HAL_NVIC_SetPriority(USART2_IRQn, 0, 0);
 800139c:	2200      	movs	r2, #0
 800139e:	2100      	movs	r1, #0
 80013a0:	2026      	movs	r0, #38	; 0x26
 80013a2:	f000 f976 	bl	8001692 <HAL_NVIC_SetPriority>
    HAL_NVIC_EnableIRQ(USART2_IRQn);
 80013a6:	2026      	movs	r0, #38	; 0x26
 80013a8:	f000 f98f 	bl	80016ca <HAL_NVIC_EnableIRQ>
  /* USER CODE BEGIN USART2_MspInit 1 */

  /* USER CODE END USART2_MspInit 1 */
  }
}
 80013ac:	bf00      	nop
 80013ae:	3728      	adds	r7, #40	; 0x28
 80013b0:	46bd      	mov	sp, r7
 80013b2:	bd80      	pop	{r7, pc}
 80013b4:	40004400 	.word	0x40004400
 80013b8:	40021000 	.word	0x40021000

080013bc <Reset_Handler>:
 80013bc:	f8df d034 	ldr.w	sp, [pc, #52]	; 80013f4 <LoopForever+0x2>
 80013c0:	480d      	ldr	r0, [pc, #52]	; (80013f8 <LoopForever+0x6>)
 80013c2:	490e      	ldr	r1, [pc, #56]	; (80013fc <LoopForever+0xa>)
 80013c4:	4a0e      	ldr	r2, [pc, #56]	; (8001400 <LoopForever+0xe>)
 80013c6:	2300      	movs	r3, #0
 80013c8:	e002      	b.n	80013d0 <LoopCopyDataInit>

080013ca <CopyDataInit>:
 80013ca:	58d4      	ldr	r4, [r2, r3]
 80013cc:	50c4      	str	r4, [r0, r3]
 80013ce:	3304      	adds	r3, #4

080013d0 <LoopCopyDataInit>:
 80013d0:	18c4      	adds	r4, r0, r3
 80013d2:	428c      	cmp	r4, r1
 80013d4:	d3f9      	bcc.n	80013ca <CopyDataInit>
 80013d6:	4a0b      	ldr	r2, [pc, #44]	; (8001404 <LoopForever+0x12>)
 80013d8:	4c0b      	ldr	r4, [pc, #44]	; (8001408 <LoopForever+0x16>)
 80013da:	2300      	movs	r3, #0
 80013dc:	e001      	b.n	80013e2 <LoopFillZerobss>

080013de <FillZerobss>:
 80013de:	6013      	str	r3, [r2, #0]
 80013e0:	3204      	adds	r2, #4

080013e2 <LoopFillZerobss>:
 80013e2:	42a2      	cmp	r2, r4
 80013e4:	d3fb      	bcc.n	80013de <FillZerobss>
 80013e6:	f7ff ff8d 	bl	8001304 <SystemInit>
 80013ea:	f004 f88b 	bl	8005504 <__libc_init_array>
 80013ee:	f7ff fe9d 	bl	800112c <main>

080013f2 <LoopForever>:
 80013f2:	e7fe      	b.n	80013f2 <LoopForever>
 80013f4:	20003000 	.word	0x20003000
 80013f8:	20000000 	.word	0x20000000
 80013fc:	2000000c 	.word	0x2000000c
 8001400:	080055dc 	.word	0x080055dc
 8001404:	2000000c 	.word	0x2000000c
 8001408:	2000016c 	.word	0x2000016c

0800140c <ADC1_2_IRQHandler>:
 800140c:	e7fe      	b.n	800140c <ADC1_2_IRQHandler>
	...

08001410 <HAL_Init>:
 8001410:	b580      	push	{r7, lr}
 8001412:	af00      	add	r7, sp, #0
 8001414:	4b08      	ldr	r3, [pc, #32]	; (8001438 <HAL_Init+0x28>)
 8001416:	681b      	ldr	r3, [r3, #0]
 8001418:	4a07      	ldr	r2, [pc, #28]	; (8001438 <HAL_Init+0x28>)
 800141a:	f043 0310 	orr.w	r3, r3, #16
 800141e:	6013      	str	r3, [r2, #0]
 8001420:	2003      	movs	r0, #3
 8001422:	f000 f92b 	bl	800167c <HAL_NVIC_SetPriorityGrouping>
 8001426:	2000      	movs	r0, #0
 8001428:	f000 f808 	bl	800143c <HAL_InitTick>
 800142c:	f7ff fefa 	bl	8001224 <HAL_MspInit>
 8001430:	2300      	movs	r3, #0
 8001432:	4618      	mov	r0, r3
 8001434:	bd80      	pop	{r7, pc}
 8001436:	bf00      	nop
 8001438:	40022000 	.word	0x40022000

0800143c <HAL_InitTick>:
 800143c:	b580      	push	{r7, lr}
 800143e:	b082      	sub	sp, #8
 8001440:	af00      	add	r7, sp, #0
 8001442:	6078      	str	r0, [r7, #4]
 8001444:	4b12      	ldr	r3, [pc, #72]	; (8001490 <HAL_InitTick+0x54>)
 8001446:	681a      	ldr	r2, [r3, #0]
 8001448:	4b12      	ldr	r3, [pc, #72]	; (8001494 <HAL_InitTick+0x58>)
 800144a:	781b      	ldrb	r3, [r3, #0]
 800144c:	4619      	mov	r1, r3
 800144e:	f44f 737a 	mov.w	r3, #1000	; 0x3e8
 8001452:	fbb3 f3f1 	udiv	r3, r3, r1
 8001456:	fbb2 f3f3 	udiv	r3, r2, r3
 800145a:	4618      	mov	r0, r3
 800145c:	f000 f943 	bl	80016e6 <HAL_SYSTICK_Config>
 8001460:	4603      	mov	r3, r0
 8001462:	2b00      	cmp	r3, #0
 8001464:	d001      	beq.n	800146a <HAL_InitTick+0x2e>
 8001466:	2301      	movs	r3, #1
 8001468:	e00e      	b.n	8001488 <HAL_InitTick+0x4c>
 800146a:	687b      	ldr	r3, [r7, #4]
 800146c:	2b0f      	cmp	r3, #15
 800146e:	d80a      	bhi.n	8001486 <HAL_InitTick+0x4a>
 8001470:	2200      	movs	r2, #0
 8001472:	6879      	ldr	r1, [r7, #4]
 8001474:	f04f 30ff 	mov.w	r0, #4294967295
 8001478:	f000 f90b 	bl	8001692 <HAL_NVIC_SetPriority>
 800147c:	4a06      	ldr	r2, [pc, #24]	; (8001498 <HAL_InitTick+0x5c>)
 800147e:	687b      	ldr	r3, [r7, #4]
 8001480:	6013      	str	r3, [r2, #0]
 8001482:	2300      	movs	r3, #0
 8001484:	e000      	b.n	8001488 <HAL_InitTick+0x4c>
 8001486:	2301      	movs	r3, #1
 8001488:	4618      	mov	r0, r3
 800148a:	3708      	adds	r7, #8
 800148c:	46bd      	mov	sp, r7
 800148e:	bd80      	pop	{r7, pc}
 8001490:	20000000 	.word	0x20000000
 8001494:	20000008 	.word	0x20000008
 8001498:	20000004 	.word	0x20000004

0800149c <HAL_IncTick>:
 800149c:	b480      	push	{r7}
 800149e:	af00      	add	r7, sp, #0
 80014a0:	4b06      	ldr	r3, [pc, #24]	; (80014bc <HAL_IncTick+0x20>)
 80014a2:	781b      	ldrb	r3, [r3, #0]
 80014a4:	461a      	mov	r2, r3
 80014a6:	4b06      	ldr	r3, [pc, #24]	; (80014c0 <HAL_IncTick+0x24>)
 80014a8:	681b      	ldr	r3, [r3, #0]
 80014aa:	4413      	add	r3, r2
 80014ac:	4a04      	ldr	r2, [pc, #16]	; (80014c0 <HAL_IncTick+0x24>)
 80014ae:	6013      	str	r3, [r2, #0]
 80014b0:	bf00      	nop
 80014b2:	46bd      	mov	sp, r7
 80014b4:	f85d 7b04 	ldr.w	r7, [sp], #4
 80014b8:	4770      	bx	lr
 80014ba:	bf00      	nop
 80014bc:	20000008 	.word	0x20000008
 80014c0:	20000168 	.word	0x20000168

080014c4 <HAL_GetTick>:
 80014c4:	b480      	push	{r7}
 80014c6:	af00      	add	r7, sp, #0
 80014c8:	4b03      	ldr	r3, [pc, #12]	; (80014d8 <HAL_GetTick+0x14>)
 80014ca:	681b      	ldr	r3, [r3, #0]
 80014cc:	4618      	mov	r0, r3
 80014ce:	46bd      	mov	sp, r7
 80014d0:	f85d 7b04 	ldr.w	r7, [sp], #4
 80014d4:	4770      	bx	lr
 80014d6:	bf00      	nop
 80014d8:	20000168 	.word	0x20000168

080014dc <__NVIC_SetPriorityGrouping>:
 80014dc:	b480      	push	{r7}
 80014de:	b085      	sub	sp, #20
 80014e0:	af00      	add	r7, sp, #0
 80014e2:	6078      	str	r0, [r7, #4]
 80014e4:	687b      	ldr	r3, [r7, #4]
 80014e6:	f003 0307 	and.w	r3, r3, #7
 80014ea:	60fb      	str	r3, [r7, #12]
 80014ec:	4b0c      	ldr	r3, [pc, #48]	; (8001520 <__NVIC_SetPriorityGrouping+0x44>)
 80014ee:	68db      	ldr	r3, [r3, #12]
 80014f0:	60bb      	str	r3, [r7, #8]
 80014f2:	68ba      	ldr	r2, [r7, #8]
 80014f4:	f64f 03ff 	movw	r3, #63743	; 0xf8ff
 80014f8:	4013      	ands	r3, r2
 80014fa:	60bb      	str	r3, [r7, #8]
 80014fc:	68fb      	ldr	r3, [r7, #12]
 80014fe:	021a      	lsls	r2, r3, #8
 8001500:	68bb      	ldr	r3, [r7, #8]
 8001502:	4313      	orrs	r3, r2
 8001504:	f043 63bf 	orr.w	r3, r3, #100139008	; 0x5f80000
 8001508:	f443 3300 	orr.w	r3, r3, #131072	; 0x20000
 800150c:	60bb      	str	r3, [r7, #8]
 800150e:	4a04      	ldr	r2, [pc, #16]	; (8001520 <__NVIC_SetPriorityGrouping+0x44>)
 8001510:	68bb      	ldr	r3, [r7, #8]
 8001512:	60d3      	str	r3, [r2, #12]
 8001514:	bf00      	nop
 8001516:	3714      	adds	r7, #20
 8001518:	46bd      	mov	sp, r7
 800151a:	f85d 7b04 	ldr.w	r7, [sp], #4
 800151e:	4770      	bx	lr
 8001520:	e000ed00 	.word	0xe000ed00

08001524 <__NVIC_GetPriorityGrouping>:
 8001524:	b480      	push	{r7}
 8001526:	af00      	add	r7, sp, #0
 8001528:	4b04      	ldr	r3, [pc, #16]	; (800153c <__NVIC_GetPriorityGrouping+0x18>)
 800152a:	68db      	ldr	r3, [r3, #12]
 800152c:	0a1b      	lsrs	r3, r3, #8
 800152e:	f003 0307 	and.w	r3, r3, #7
 8001532:	4618      	mov	r0, r3
 8001534:	46bd      	mov	sp, r7
 8001536:	f85d 7b04 	ldr.w	r7, [sp], #4
 800153a:	4770      	bx	lr
 800153c:	e000ed00 	.word	0xe000ed00

08001540 <__NVIC_EnableIRQ>:
 8001540:	b480      	push	{r7}
 8001542:	b083      	sub	sp, #12
 8001544:	af00      	add	r7, sp, #0
 8001546:	4603      	mov	r3, r0
 8001548:	71fb      	strb	r3, [r7, #7]
 800154a:	f997 3007 	ldrsb.w	r3, [r7, #7]
 800154e:	2b00      	cmp	r3, #0
 8001550:	db0b      	blt.n	800156a <__NVIC_EnableIRQ+0x2a>
 8001552:	79fb      	ldrb	r3, [r7, #7]
 8001554:	f003 021f 	and.w	r2, r3, #31
 8001558:	4907      	ldr	r1, [pc, #28]	; (8001578 <__NVIC_EnableIRQ+0x38>)
 800155a:	f997 3007 	ldrsb.w	r3, [r7, #7]
 800155e:	095b      	lsrs	r3, r3, #5
 8001560:	2001      	movs	r0, #1
 8001562:	fa00 f202 	lsl.w	r2, r0, r2
 8001566:	f841 2023 	str.w	r2, [r1, r3, lsl #2]
 800156a:	bf00      	nop
 800156c:	370c      	adds	r7, #12
 800156e:	46bd      	mov	sp, r7
 8001570:	f85d 7b04 	ldr.w	r7, [sp], #4
 8001574:	4770      	bx	lr
 8001576:	bf00      	nop
 8001578:	e000e100 	.word	0xe000e100

0800157c <__NVIC_SetPriority>:
 800157c:	b480      	push	{r7}
 800157e:	b083      	sub	sp, #12
 8001580:	af00      	add	r7, sp, #0
 8001582:	4603      	mov	r3, r0
 8001584:	6039      	str	r1, [r7, #0]
 8001586:	71fb      	strb	r3, [r7, #7]
 8001588:	f997 3007 	ldrsb.w	r3, [r7, #7]
 800158c:	2b00      	cmp	r3, #0
 800158e:	db0a      	blt.n	80015a6 <__NVIC_SetPriority+0x2a>
 8001590:	683b      	ldr	r3, [r7, #0]
 8001592:	b2da      	uxtb	r2, r3
 8001594:	490c      	ldr	r1, [pc, #48]	; (80015c8 <__NVIC_SetPriority+0x4c>)
 8001596:	f997 3007 	ldrsb.w	r3, [r7, #7]
 800159a:	0112      	lsls	r2, r2, #4
 800159c:	b2d2      	uxtb	r2, r2
 800159e:	440b      	add	r3, r1
 80015a0:	f883 2300 	strb.w	r2, [r3, #768]	; 0x300
 80015a4:	e00a      	b.n	80015bc <__NVIC_SetPriority+0x40>
 80015a6:	683b      	ldr	r3, [r7, #0]
 80015a8:	b2da      	uxtb	r2, r3
 80015aa:	4908      	ldr	r1, [pc, #32]	; (80015cc <__NVIC_SetPriority+0x50>)
 80015ac:	79fb      	ldrb	r3, [r7, #7]
 80015ae:	f003 030f 	and.w	r3, r3, #15
 80015b2:	3b04      	subs	r3, #4
 80015b4:	0112      	lsls	r2, r2, #4
 80015b6:	b2d2      	uxtb	r2, r2
 80015b8:	440b      	add	r3, r1
 80015ba:	761a      	strb	r2, [r3, #24]
 80015bc:	bf00      	nop
 80015be:	370c      	adds	r7, #12
 80015c0:	46bd      	mov	sp, r7
 80015c2:	f85d 7b04 	ldr.w	r7, [sp], #4
 80015c6:	4770      	bx	lr
 80015c8:	e000e100 	.word	0xe000e100
 80015cc:	e000ed00 	.word	0xe000ed00

080015d0 <NVIC_EncodePriority>:
 80015d0:	b480      	push	{r7}
 80015d2:	b089      	sub	sp, #36	; 0x24
 80015d4:	af00      	add	r7, sp, #0
 80015d6:	60f8      	str	r0, [r7, #12]
 80015d8:	60b9      	str	r1, [r7, #8]
 80015da:	607a      	str	r2, [r7, #4]
 80015dc:	68fb      	ldr	r3, [r7, #12]
 80015de:	f003 0307 	and.w	r3, r3, #7
 80015e2:	61fb      	str	r3, [r7, #28]
 80015e4:	69fb      	ldr	r3, [r7, #28]
 80015e6:	f1c3 0307 	rsb	r3, r3, #7
 80015ea:	2b04      	cmp	r3, #4
 80015ec:	bf28      	it	cs
 80015ee:	2304      	movcs	r3, #4
 80015f0:	61bb      	str	r3, [r7, #24]
 80015f2:	69fb      	ldr	r3, [r7, #28]
 80015f4:	3304      	adds	r3, #4
 80015f6:	2b06      	cmp	r3, #6
 80015f8:	d902      	bls.n	8001600 <NVIC_EncodePriority+0x30>
 80015fa:	69fb      	ldr	r3, [r7, #28]
 80015fc:	3b03      	subs	r3, #3
 80015fe:	e000      	b.n	8001602 <NVIC_EncodePriority+0x32>
 8001600:	2300      	movs	r3, #0
 8001602:	617b      	str	r3, [r7, #20]
 8001604:	f04f 32ff 	mov.w	r2, #4294967295
 8001608:	69bb      	ldr	r3, [r7, #24]
 800160a:	fa02 f303 	lsl.w	r3, r2, r3
 800160e:	43da      	mvns	r2, r3
 8001610:	68bb      	ldr	r3, [r7, #8]
 8001612:	401a      	ands	r2, r3
 8001614:	697b      	ldr	r3, [r7, #20]
 8001616:	409a      	lsls	r2, r3
 8001618:	f04f 31ff 	mov.w	r1, #4294967295
 800161c:	697b      	ldr	r3, [r7, #20]
 800161e:	fa01 f303 	lsl.w	r3, r1, r3
 8001622:	43d9      	mvns	r1, r3
 8001624:	687b      	ldr	r3, [r7, #4]
 8001626:	400b      	ands	r3, r1
 8001628:	4313      	orrs	r3, r2
 800162a:	4618      	mov	r0, r3
 800162c:	3724      	adds	r7, #36	; 0x24
 800162e:	46bd      	mov	sp, r7
 8001630:	f85d 7b04 	ldr.w	r7, [sp], #4
 8001634:	4770      	bx	lr
	...

08001638 <SysTick_Config>:
 8001638:	b580      	push	{r7, lr}
 800163a:	b082      	sub	sp, #8
 800163c:	af00      	add	r7, sp, #0
 800163e:	6078      	str	r0, [r7, #4]
 8001640:	687b      	ldr	r3, [r7, #4]
 8001642:	3b01      	subs	r3, #1
 8001644:	f1b3 7f80 	cmp.w	r3, #16777216	; 0x1000000
 8001648:	d301      	bcc.n	800164e <SysTick_Config+0x16>
 800164a:	2301      	movs	r3, #1
 800164c:	e00f      	b.n	800166e <SysTick_Config+0x36>
 800164e:	4a0a      	ldr	r2, [pc, #40]	; (8001678 <SysTick_Config+0x40>)
 8001650:	687b      	ldr	r3, [r7, #4]
 8001652:	3b01      	subs	r3, #1
 8001654:	6053      	str	r3, [r2, #4]
 8001656:	210f      	movs	r1, #15
 8001658:	f04f 30ff 	mov.w	r0, #4294967295
 800165c:	f7ff ff8e 	bl	800157c <__NVIC_SetPriority>
 8001660:	4b05      	ldr	r3, [pc, #20]	; (8001678 <SysTick_Config+0x40>)
 8001662:	2200      	movs	r2, #0
 8001664:	609a      	str	r2, [r3, #8]
 8001666:	4b04      	ldr	r3, [pc, #16]	; (8001678 <SysTick_Config+0x40>)
 8001668:	2207      	movs	r2, #7
 800166a:	601a      	str	r2, [r3, #0]
 800166c:	2300      	movs	r3, #0
 800166e:	4618      	mov	r0, r3
 8001670:	3708      	adds	r7, #8
 8001672:	46bd      	mov	sp, r7
 8001674:	bd80      	pop	{r7, pc}
 8001676:	bf00      	nop
 8001678:	e000e010 	.word	0xe000e010

0800167c <HAL_NVIC_SetPriorityGrouping>:
 800167c:	b580      	push	{r7, lr}
 800167e:	b082      	sub	sp, #8
 8001680:	af00      	add	r7, sp, #0
 8001682:	6078      	str	r0, [r7, #4]
 8001684:	6878      	ldr	r0, [r7, #4]
 8001686:	f7ff ff29 	bl	80014dc <__NVIC_SetPriorityGrouping>
 800168a:	bf00      	nop
 800168c:	3708      	adds	r7, #8
 800168e:	46bd      	mov	sp, r7
 8001690:	bd80      	pop	{r7, pc}

08001692 <HAL_NVIC_SetPriority>:
 8001692:	b580      	push	{r7, lr}
 8001694:	b086      	sub	sp, #24
 8001696:	af00      	add	r7, sp, #0
 8001698:	4603      	mov	r3, r0
 800169a:	60b9      	str	r1, [r7, #8]
 800169c:	607a      	str	r2, [r7, #4]
 800169e:	73fb      	strb	r3, [r7, #15]
 80016a0:	2300      	movs	r3, #0
 80016a2:	617b      	str	r3, [r7, #20]
 80016a4:	f7ff ff3e 	bl	8001524 <__NVIC_GetPriorityGrouping>
 80016a8:	6178      	str	r0, [r7, #20]
 80016aa:	687a      	ldr	r2, [r7, #4]
 80016ac:	68b9      	ldr	r1, [r7, #8]
 80016ae:	6978      	ldr	r0, [r7, #20]
 80016b0:	f7ff ff8e 	bl	80015d0 <NVIC_EncodePriority>
 80016b4:	4602      	mov	r2, r0
 80016b6:	f997 300f 	ldrsb.w	r3, [r7, #15]
 80016ba:	4611      	mov	r1, r2
 80016bc:	4618      	mov	r0, r3
 80016be:	f7ff ff5d 	bl	800157c <__NVIC_SetPriority>
 80016c2:	bf00      	nop
 80016c4:	3718      	adds	r7, #24
 80016c6:	46bd      	mov	sp, r7
 80016c8:	bd80      	pop	{r7, pc}

080016ca <HAL_NVIC_EnableIRQ>:
 80016ca:	b580      	push	{r7, lr}
 80016cc:	b082      	sub	sp, #8
 80016ce:	af00      	add	r7, sp, #0
 80016d0:	4603      	mov	r3, r0
 80016d2:	71fb      	strb	r3, [r7, #7]
 80016d4:	f997 3007 	ldrsb.w	r3, [r7, #7]
 80016d8:	4618      	mov	r0, r3
 80016da:	f7ff ff31 	bl	8001540 <__NVIC_EnableIRQ>
 80016de:	bf00      	nop
 80016e0:	3708      	adds	r7, #8
 80016e2:	46bd      	mov	sp, r7
 80016e4:	bd80      	pop	{r7, pc}

080016e6 <HAL_SYSTICK_Config>:
 80016e6:	b580      	push	{r7, lr}
 80016e8:	b082      	sub	sp, #8
 80016ea:	af00      	add	r7, sp, #0
 80016ec:	6078      	str	r0, [r7, #4]
 80016ee:	6878      	ldr	r0, [r7, #4]
 80016f0:	f7ff ffa2 	bl	8001638 <SysTick_Config>
 80016f4:	4603      	mov	r3, r0
 80016f6:	4618      	mov	r0, r3
 80016f8:	3708      	adds	r7, #8
 80016fa:	46bd      	mov	sp, r7
 80016fc:	bd80      	pop	{r7, pc}

080016fe <HAL_DMA_Abort>:
 80016fe:	b480      	push	{r7}
 8001700:	b083      	sub	sp, #12
 8001702:	af00      	add	r7, sp, #0
 8001704:	6078      	str	r0, [r7, #4]
 8001706:	687b      	ldr	r3, [r7, #4]
 8001708:	f893 3021 	ldrb.w	r3, [r3, #33]	; 0x21
 800170c:	2b02      	cmp	r3, #2
 800170e:	d008      	beq.n	8001722 <HAL_DMA_Abort+0x24>
 8001710:	687b      	ldr	r3, [r7, #4]
 8001712:	2204      	movs	r2, #4
 8001714:	639a      	str	r2, [r3, #56]	; 0x38
 8001716:	687b      	ldr	r3, [r7, #4]
 8001718:	2200      	movs	r2, #0
 800171a:	f883 2020 	strb.w	r2, [r3, #32]
 800171e:	2301      	movs	r3, #1
 8001720:	e020      	b.n	8001764 <HAL_DMA_Abort+0x66>
 8001722:	687b      	ldr	r3, [r7, #4]
 8001724:	681b      	ldr	r3, [r3, #0]
 8001726:	681a      	ldr	r2, [r3, #0]
 8001728:	687b      	ldr	r3, [r7, #4]
 800172a:	681b      	ldr	r3, [r3, #0]
 800172c:	f022 020e 	bic.w	r2, r2, #14
 8001730:	601a      	str	r2, [r3, #0]
 8001732:	687b      	ldr	r3, [r7, #4]
 8001734:	681b      	ldr	r3, [r3, #0]
 8001736:	681a      	ldr	r2, [r3, #0]
 8001738:	687b      	ldr	r3, [r7, #4]
 800173a:	681b      	ldr	r3, [r3, #0]
 800173c:	f022 0201 	bic.w	r2, r2, #1
 8001740:	601a      	str	r2, [r3, #0]
 8001742:	687b      	ldr	r3, [r7, #4]
 8001744:	6c1a      	ldr	r2, [r3, #64]	; 0x40
 8001746:	687b      	ldr	r3, [r7, #4]
 8001748:	6bdb      	ldr	r3, [r3, #60]	; 0x3c
 800174a:	2101      	movs	r1, #1
 800174c:	fa01 f202 	lsl.w	r2, r1, r2
 8001750:	605a      	str	r2, [r3, #4]
 8001752:	687b      	ldr	r3, [r7, #4]
 8001754:	2201      	movs	r2, #1
 8001756:	f883 2021 	strb.w	r2, [r3, #33]	; 0x21
 800175a:	687b      	ldr	r3, [r7, #4]
 800175c:	2200      	movs	r2, #0
 800175e:	f883 2020 	strb.w	r2, [r3, #32]
 8001762:	2300      	movs	r3, #0
 8001764:	4618      	mov	r0, r3
 8001766:	370c      	adds	r7, #12
 8001768:	46bd      	mov	sp, r7
 800176a:	f85d 7b04 	ldr.w	r7, [sp], #4
 800176e:	4770      	bx	lr

08001770 <HAL_DMA_Abort_IT>:
 8001770:	b580      	push	{r7, lr}
 8001772:	b084      	sub	sp, #16
 8001774:	af00      	add	r7, sp, #0
 8001776:	6078      	str	r0, [r7, #4]
 8001778:	2300      	movs	r3, #0
 800177a:	73fb      	strb	r3, [r7, #15]
 800177c:	687b      	ldr	r3, [r7, #4]
 800177e:	f893 3021 	ldrb.w	r3, [r3, #33]	; 0x21
 8001782:	2b02      	cmp	r3, #2
 8001784:	d005      	beq.n	8001792 <HAL_DMA_Abort_IT+0x22>
 8001786:	687b      	ldr	r3, [r7, #4]
 8001788:	2204      	movs	r2, #4
 800178a:	639a      	str	r2, [r3, #56]	; 0x38
 800178c:	2301      	movs	r3, #1
 800178e:	73fb      	strb	r3, [r7, #15]
 8001790:	e027      	b.n	80017e2 <HAL_DMA_Abort_IT+0x72>
 8001792:	687b      	ldr	r3, [r7, #4]
 8001794:	681b      	ldr	r3, [r3, #0]
 8001796:	681a      	ldr	r2, [r3, #0]
 8001798:	687b      	ldr	r3, [r7, #4]
 800179a:	681b      	ldr	r3, [r3, #0]
 800179c:	f022 020e 	bic.w	r2, r2, #14
 80017a0:	601a      	str	r2, [r3, #0]
 80017a2:	687b      	ldr	r3, [r7, #4]
 80017a4:	681b      	ldr	r3, [r3, #0]
 80017a6:	681a      	ldr	r2, [r3, #0]
 80017a8:	687b      	ldr	r3, [r7, #4]
 80017aa:	681b      	ldr	r3, [r3, #0]
 80017ac:	f022 0201 	bic.w	r2, r2, #1
 80017b0:	601a      	str	r2, [r3, #0]
 80017b2:	687b      	ldr	r3, [r7, #4]
 80017b4:	6c1a      	ldr	r2, [r3, #64]	; 0x40
 80017b6:	687b      	ldr	r3, [r7, #4]
 80017b8:	6bdb      	ldr	r3, [r3, #60]	; 0x3c
 80017ba:	2101      	movs	r1, #1
 80017bc:	fa01 f202 	lsl.w	r2, r1, r2
 80017c0:	605a      	str	r2, [r3, #4]
 80017c2:	687b      	ldr	r3, [r7, #4]
 80017c4:	2201      	movs	r2, #1
 80017c6:	f883 2021 	strb.w	r2, [r3, #33]	; 0x21
 80017ca:	687b      	ldr	r3, [r7, #4]
 80017cc:	2200      	movs	r2, #0
 80017ce:	f883 2020 	strb.w	r2, [r3, #32]
 80017d2:	687b      	ldr	r3, [r7, #4]
 80017d4:	6b5b      	ldr	r3, [r3, #52]	; 0x34
 80017d6:	2b00      	cmp	r3, #0
 80017d8:	d003      	beq.n	80017e2 <HAL_DMA_Abort_IT+0x72>
 80017da:	687b      	ldr	r3, [r7, #4]
 80017dc:	6b5b      	ldr	r3, [r3, #52]	; 0x34
 80017de:	6878      	ldr	r0, [r7, #4]
 80017e0:	4798      	blx	r3
 80017e2:	7bfb      	ldrb	r3, [r7, #15]
 80017e4:	4618      	mov	r0, r3
 80017e6:	3710      	adds	r7, #16
 80017e8:	46bd      	mov	sp, r7
 80017ea:	bd80      	pop	{r7, pc}

080017ec <HAL_DMA_GetState>:
 80017ec:	b480      	push	{r7}
 80017ee:	b083      	sub	sp, #12
 80017f0:	af00      	add	r7, sp, #0
 80017f2:	6078      	str	r0, [r7, #4]
 80017f4:	687b      	ldr	r3, [r7, #4]
 80017f6:	f893 3021 	ldrb.w	r3, [r3, #33]	; 0x21
 80017fa:	4618      	mov	r0, r3
 80017fc:	370c      	adds	r7, #12
 80017fe:	46bd      	mov	sp, r7
 8001800:	f85d 7b04 	ldr.w	r7, [sp], #4
 8001804:	4770      	bx	lr
	...

08001808 <HAL_GPIO_Init>:
 8001808:	b480      	push	{r7}
 800180a:	b087      	sub	sp, #28
 800180c:	af00      	add	r7, sp, #0
 800180e:	6078      	str	r0, [r7, #4]
 8001810:	6039      	str	r1, [r7, #0]
 8001812:	2300      	movs	r3, #0
 8001814:	617b      	str	r3, [r7, #20]
 8001816:	e14e      	b.n	8001ab6 <HAL_GPIO_Init+0x2ae>
 8001818:	683b      	ldr	r3, [r7, #0]
 800181a:	681a      	ldr	r2, [r3, #0]
 800181c:	2101      	movs	r1, #1
 800181e:	697b      	ldr	r3, [r7, #20]
 8001820:	fa01 f303 	lsl.w	r3, r1, r3
 8001824:	4013      	ands	r3, r2
 8001826:	60fb      	str	r3, [r7, #12]
 8001828:	68fb      	ldr	r3, [r7, #12]
 800182a:	2b00      	cmp	r3, #0
 800182c:	f000 8140 	beq.w	8001ab0 <HAL_GPIO_Init+0x2a8>
 8001830:	683b      	ldr	r3, [r7, #0]
 8001832:	685b      	ldr	r3, [r3, #4]
 8001834:	2b01      	cmp	r3, #1
 8001836:	d00b      	beq.n	8001850 <HAL_GPIO_Init+0x48>
 8001838:	683b      	ldr	r3, [r7, #0]
 800183a:	685b      	ldr	r3, [r3, #4]
 800183c:	2b02      	cmp	r3, #2
 800183e:	d007      	beq.n	8001850 <HAL_GPIO_Init+0x48>
 8001840:	683b      	ldr	r3, [r7, #0]
 8001842:	685b      	ldr	r3, [r3, #4]
 8001844:	2b11      	cmp	r3, #17
 8001846:	d003      	beq.n	8001850 <HAL_GPIO_Init+0x48>
 8001848:	683b      	ldr	r3, [r7, #0]
 800184a:	685b      	ldr	r3, [r3, #4]
 800184c:	2b12      	cmp	r3, #18
 800184e:	d130      	bne.n	80018b2 <HAL_GPIO_Init+0xaa>
 8001850:	687b      	ldr	r3, [r7, #4]
 8001852:	689b      	ldr	r3, [r3, #8]
 8001854:	613b      	str	r3, [r7, #16]
 8001856:	697b      	ldr	r3, [r7, #20]
 8001858:	005b      	lsls	r3, r3, #1
 800185a:	2203      	movs	r2, #3
 800185c:	fa02 f303 	lsl.w	r3, r2, r3
 8001860:	43db      	mvns	r3, r3
 8001862:	693a      	ldr	r2, [r7, #16]
 8001864:	4013      	ands	r3, r2
 8001866:	613b      	str	r3, [r7, #16]
 8001868:	683b      	ldr	r3, [r7, #0]
 800186a:	68da      	ldr	r2, [r3, #12]
 800186c:	697b      	ldr	r3, [r7, #20]
 800186e:	005b      	lsls	r3, r3, #1
 8001870:	fa02 f303 	lsl.w	r3, r2, r3
 8001874:	693a      	ldr	r2, [r7, #16]
 8001876:	4313      	orrs	r3, r2
 8001878:	613b      	str	r3, [r7, #16]
 800187a:	687b      	ldr	r3, [r7, #4]
 800187c:	693a      	ldr	r2, [r7, #16]
 800187e:	609a      	str	r2, [r3, #8]
 8001880:	687b      	ldr	r3, [r7, #4]
 8001882:	685b      	ldr	r3, [r3, #4]
 8001884:	613b      	str	r3, [r7, #16]
 8001886:	2201      	movs	r2, #1
 8001888:	697b      	ldr	r3, [r7, #20]
 800188a:	fa02 f303 	lsl.w	r3, r2, r3
 800188e:	43db      	mvns	r3, r3
 8001890:	693a      	ldr	r2, [r7, #16]
 8001892:	4013      	ands	r3, r2
 8001894:	613b      	str	r3, [r7, #16]
 8001896:	683b      	ldr	r3, [r7, #0]
 8001898:	685b      	ldr	r3, [r3, #4]
 800189a:	091b      	lsrs	r3, r3, #4
 800189c:	f003 0201 	and.w	r2, r3, #1
 80018a0:	697b      	ldr	r3, [r7, #20]
 80018a2:	fa02 f303 	lsl.w	r3, r2, r3
 80018a6:	693a      	ldr	r2, [r7, #16]
 80018a8:	4313      	orrs	r3, r2
 80018aa:	613b      	str	r3, [r7, #16]
 80018ac:	687b      	ldr	r3, [r7, #4]
 80018ae:	693a      	ldr	r2, [r7, #16]
 80018b0:	605a      	str	r2, [r3, #4]
 80018b2:	687b      	ldr	r3, [r7, #4]
 80018b4:	68db      	ldr	r3, [r3, #12]
 80018b6:	613b      	str	r3, [r7, #16]
 80018b8:	697b      	ldr	r3, [r7, #20]
 80018ba:	005b      	lsls	r3, r3, #1
 80018bc:	2203      	movs	r2, #3
 80018be:	fa02 f303 	lsl.w	r3, r2, r3
 80018c2:	43db      	mvns	r3, r3
 80018c4:	693a      	ldr	r2, [r7, #16]
 80018c6:	4013      	ands	r3, r2
 80018c8:	613b      	str	r3, [r7, #16]
 80018ca:	683b      	ldr	r3, [r7, #0]
 80018cc:	689a      	ldr	r2, [r3, #8]
 80018ce:	697b      	ldr	r3, [r7, #20]
 80018d0:	005b      	lsls	r3, r3, #1
 80018d2:	fa02 f303 	lsl.w	r3, r2, r3
 80018d6:	693a      	ldr	r2, [r7, #16]
 80018d8:	4313      	orrs	r3, r2
 80018da:	613b      	str	r3, [r7, #16]
 80018dc:	687b      	ldr	r3, [r7, #4]
 80018de:	693a      	ldr	r2, [r7, #16]
 80018e0:	60da      	str	r2, [r3, #12]
 80018e2:	683b      	ldr	r3, [r7, #0]
 80018e4:	685b      	ldr	r3, [r3, #4]
 80018e6:	2b02      	cmp	r3, #2
 80018e8:	d003      	beq.n	80018f2 <HAL_GPIO_Init+0xea>
 80018ea:	683b      	ldr	r3, [r7, #0]
 80018ec:	685b      	ldr	r3, [r3, #4]
 80018ee:	2b12      	cmp	r3, #18
 80018f0:	d123      	bne.n	800193a <HAL_GPIO_Init+0x132>
 80018f2:	697b      	ldr	r3, [r7, #20]
 80018f4:	08da      	lsrs	r2, r3, #3
 80018f6:	687b      	ldr	r3, [r7, #4]
 80018f8:	3208      	adds	r2, #8
 80018fa:	f853 3022 	ldr.w	r3, [r3, r2, lsl #2]
 80018fe:	613b      	str	r3, [r7, #16]
 8001900:	697b      	ldr	r3, [r7, #20]
 8001902:	f003 0307 	and.w	r3, r3, #7
 8001906:	009b      	lsls	r3, r3, #2
 8001908:	220f      	movs	r2, #15
 800190a:	fa02 f303 	lsl.w	r3, r2, r3
 800190e:	43db      	mvns	r3, r3
 8001910:	693a      	ldr	r2, [r7, #16]
 8001912:	4013      	ands	r3, r2
 8001914:	613b      	str	r3, [r7, #16]
 8001916:	683b      	ldr	r3, [r7, #0]
 8001918:	691a      	ldr	r2, [r3, #16]
 800191a:	697b      	ldr	r3, [r7, #20]
 800191c:	f003 0307 	and.w	r3, r3, #7
 8001920:	009b      	lsls	r3, r3, #2
 8001922:	fa02 f303 	lsl.w	r3, r2, r3
 8001926:	693a      	ldr	r2, [r7, #16]
 8001928:	4313      	orrs	r3, r2
 800192a:	613b      	str	r3, [r7, #16]
 800192c:	697b      	ldr	r3, [r7, #20]
 800192e:	08da      	lsrs	r2, r3, #3
 8001930:	687b      	ldr	r3, [r7, #4]
 8001932:	3208      	adds	r2, #8
 8001934:	6939      	ldr	r1, [r7, #16]
 8001936:	f843 1022 	str.w	r1, [r3, r2, lsl #2]
 800193a:	687b      	ldr	r3, [r7, #4]
 800193c:	681b      	ldr	r3, [r3, #0]
 800193e:	613b      	str	r3, [r7, #16]
 8001940:	697b      	ldr	r3, [r7, #20]
 8001942:	005b      	lsls	r3, r3, #1
 8001944:	2203      	movs	r2, #3
 8001946:	fa02 f303 	lsl.w	r3, r2, r3
 800194a:	43db      	mvns	r3, r3
 800194c:	693a      	ldr	r2, [r7, #16]
 800194e:	4013      	ands	r3, r2
 8001950:	613b      	str	r3, [r7, #16]
 8001952:	683b      	ldr	r3, [r7, #0]
 8001954:	685b      	ldr	r3, [r3, #4]
 8001956:	f003 0203 	and.w	r2, r3, #3
 800195a:	697b      	ldr	r3, [r7, #20]
 800195c:	005b      	lsls	r3, r3, #1
 800195e:	fa02 f303 	lsl.w	r3, r2, r3
 8001962:	693a      	ldr	r2, [r7, #16]
 8001964:	4313      	orrs	r3, r2
 8001966:	613b      	str	r3, [r7, #16]
 8001968:	687b      	ldr	r3, [r7, #4]
 800196a:	693a      	ldr	r2, [r7, #16]
 800196c:	601a      	str	r2, [r3, #0]
 800196e:	683b      	ldr	r3, [r7, #0]
 8001970:	685b      	ldr	r3, [r3, #4]
 8001972:	f003 5380 	and.w	r3, r3, #268435456	; 0x10000000
 8001976:	2b00      	cmp	r3, #0
 8001978:	f000 809a 	beq.w	8001ab0 <HAL_GPIO_Init+0x2a8>
 800197c:	4b55      	ldr	r3, [pc, #340]	; (8001ad4 <HAL_GPIO_Init+0x2cc>)
 800197e:	699b      	ldr	r3, [r3, #24]
 8001980:	4a54      	ldr	r2, [pc, #336]	; (8001ad4 <HAL_GPIO_Init+0x2cc>)
 8001982:	f043 0301 	orr.w	r3, r3, #1
 8001986:	6193      	str	r3, [r2, #24]
 8001988:	4b52      	ldr	r3, [pc, #328]	; (8001ad4 <HAL_GPIO_Init+0x2cc>)
 800198a:	699b      	ldr	r3, [r3, #24]
 800198c:	f003 0301 	and.w	r3, r3, #1
 8001990:	60bb      	str	r3, [r7, #8]
 8001992:	68bb      	ldr	r3, [r7, #8]
 8001994:	4a50      	ldr	r2, [pc, #320]	; (8001ad8 <HAL_GPIO_Init+0x2d0>)
 8001996:	697b      	ldr	r3, [r7, #20]
 8001998:	089b      	lsrs	r3, r3, #2
 800199a:	3302      	adds	r3, #2
 800199c:	f852 3023 	ldr.w	r3, [r2, r3, lsl #2]
 80019a0:	613b      	str	r3, [r7, #16]
 80019a2:	697b      	ldr	r3, [r7, #20]
 80019a4:	f003 0303 	and.w	r3, r3, #3
 80019a8:	009b      	lsls	r3, r3, #2
 80019aa:	220f      	movs	r2, #15
 80019ac:	fa02 f303 	lsl.w	r3, r2, r3
 80019b0:	43db      	mvns	r3, r3
 80019b2:	693a      	ldr	r2, [r7, #16]
 80019b4:	4013      	ands	r3, r2
 80019b6:	613b      	str	r3, [r7, #16]
 80019b8:	687b      	ldr	r3, [r7, #4]
 80019ba:	f1b3 4f90 	cmp.w	r3, #1207959552	; 0x48000000
 80019be:	d013      	beq.n	80019e8 <HAL_GPIO_Init+0x1e0>
 80019c0:	687b      	ldr	r3, [r7, #4]
 80019c2:	4a46      	ldr	r2, [pc, #280]	; (8001adc <HAL_GPIO_Init+0x2d4>)
 80019c4:	4293      	cmp	r3, r2
 80019c6:	d00d      	beq.n	80019e4 <HAL_GPIO_Init+0x1dc>
 80019c8:	687b      	ldr	r3, [r7, #4]
 80019ca:	4a45      	ldr	r2, [pc, #276]	; (8001ae0 <HAL_GPIO_Init+0x2d8>)
 80019cc:	4293      	cmp	r3, r2
 80019ce:	d007      	beq.n	80019e0 <HAL_GPIO_Init+0x1d8>
 80019d0:	687b      	ldr	r3, [r7, #4]
 80019d2:	4a44      	ldr	r2, [pc, #272]	; (8001ae4 <HAL_GPIO_Init+0x2dc>)
 80019d4:	4293      	cmp	r3, r2
 80019d6:	d101      	bne.n	80019dc <HAL_GPIO_Init+0x1d4>
 80019d8:	2303      	movs	r3, #3
 80019da:	e006      	b.n	80019ea <HAL_GPIO_Init+0x1e2>
 80019dc:	2305      	movs	r3, #5
 80019de:	e004      	b.n	80019ea <HAL_GPIO_Init+0x1e2>
 80019e0:	2302      	movs	r3, #2
 80019e2:	e002      	b.n	80019ea <HAL_GPIO_Init+0x1e2>
 80019e4:	2301      	movs	r3, #1
 80019e6:	e000      	b.n	80019ea <HAL_GPIO_Init+0x1e2>
 80019e8:	2300      	movs	r3, #0
 80019ea:	697a      	ldr	r2, [r7, #20]
 80019ec:	f002 0203 	and.w	r2, r2, #3
 80019f0:	0092      	lsls	r2, r2, #2
 80019f2:	4093      	lsls	r3, r2
 80019f4:	693a      	ldr	r2, [r7, #16]
 80019f6:	4313      	orrs	r3, r2
 80019f8:	613b      	str	r3, [r7, #16]
 80019fa:	4937      	ldr	r1, [pc, #220]	; (8001ad8 <HAL_GPIO_Init+0x2d0>)
 80019fc:	697b      	ldr	r3, [r7, #20]
 80019fe:	089b      	lsrs	r3, r3, #2
 8001a00:	3302      	adds	r3, #2
 8001a02:	693a      	ldr	r2, [r7, #16]
 8001a04:	f841 2023 	str.w	r2, [r1, r3, lsl #2]
 8001a08:	4b37      	ldr	r3, [pc, #220]	; (8001ae8 <HAL_GPIO_Init+0x2e0>)
 8001a0a:	681b      	ldr	r3, [r3, #0]
 8001a0c:	613b      	str	r3, [r7, #16]
 8001a0e:	68fb      	ldr	r3, [r7, #12]
 8001a10:	43db      	mvns	r3, r3
 8001a12:	693a      	ldr	r2, [r7, #16]
 8001a14:	4013      	ands	r3, r2
 8001a16:	613b      	str	r3, [r7, #16]
 8001a18:	683b      	ldr	r3, [r7, #0]
 8001a1a:	685b      	ldr	r3, [r3, #4]
 8001a1c:	f403 3380 	and.w	r3, r3, #65536	; 0x10000
 8001a20:	2b00      	cmp	r3, #0
 8001a22:	d003      	beq.n	8001a2c <HAL_GPIO_Init+0x224>
 8001a24:	693a      	ldr	r2, [r7, #16]
 8001a26:	68fb      	ldr	r3, [r7, #12]
 8001a28:	4313      	orrs	r3, r2
 8001a2a:	613b      	str	r3, [r7, #16]
 8001a2c:	4a2e      	ldr	r2, [pc, #184]	; (8001ae8 <HAL_GPIO_Init+0x2e0>)
 8001a2e:	693b      	ldr	r3, [r7, #16]
 8001a30:	6013      	str	r3, [r2, #0]
 8001a32:	4b2d      	ldr	r3, [pc, #180]	; (8001ae8 <HAL_GPIO_Init+0x2e0>)
 8001a34:	685b      	ldr	r3, [r3, #4]
 8001a36:	613b      	str	r3, [r7, #16]
 8001a38:	68fb      	ldr	r3, [r7, #12]
 8001a3a:	43db      	mvns	r3, r3
 8001a3c:	693a      	ldr	r2, [r7, #16]
 8001a3e:	4013      	ands	r3, r2
 8001a40:	613b      	str	r3, [r7, #16]
 8001a42:	683b      	ldr	r3, [r7, #0]
 8001a44:	685b      	ldr	r3, [r3, #4]
 8001a46:	f403 3300 	and.w	r3, r3, #131072	; 0x20000
 8001a4a:	2b00      	cmp	r3, #0
 8001a4c:	d003      	beq.n	8001a56 <HAL_GPIO_Init+0x24e>
 8001a4e:	693a      	ldr	r2, [r7, #16]
 8001a50:	68fb      	ldr	r3, [r7, #12]
 8001a52:	4313      	orrs	r3, r2
 8001a54:	613b      	str	r3, [r7, #16]
 8001a56:	4a24      	ldr	r2, [pc, #144]	; (8001ae8 <HAL_GPIO_Init+0x2e0>)
 8001a58:	693b      	ldr	r3, [r7, #16]
 8001a5a:	6053      	str	r3, [r2, #4]
 8001a5c:	4b22      	ldr	r3, [pc, #136]	; (8001ae8 <HAL_GPIO_Init+0x2e0>)
 8001a5e:	689b      	ldr	r3, [r3, #8]
 8001a60:	613b      	str	r3, [r7, #16]
 8001a62:	68fb      	ldr	r3, [r7, #12]
 8001a64:	43db      	mvns	r3, r3
 8001a66:	693a      	ldr	r2, [r7, #16]
 8001a68:	4013      	ands	r3, r2
 8001a6a:	613b      	str	r3, [r7, #16]
 8001a6c:	683b      	ldr	r3, [r7, #0]
 8001a6e:	685b      	ldr	r3, [r3, #4]
 8001a70:	f403 1380 	and.w	r3, r3, #1048576	; 0x100000
 8001a74:	2b00      	cmp	r3, #0
 8001a76:	d003      	beq.n	8001a80 <HAL_GPIO_Init+0x278>
 8001a78:	693a      	ldr	r2, [r7, #16]
 8001a7a:	68fb      	ldr	r3, [r7, #12]
 8001a7c:	4313      	orrs	r3, r2
 8001a7e:	613b      	str	r3, [r7, #16]
 8001a80:	4a19      	ldr	r2, [pc, #100]	; (8001ae8 <HAL_GPIO_Init+0x2e0>)
 8001a82:	693b      	ldr	r3, [r7, #16]
 8001a84:	6093      	str	r3, [r2, #8]
 8001a86:	4b18      	ldr	r3, [pc, #96]	; (8001ae8 <HAL_GPIO_Init+0x2e0>)
 8001a88:	68db      	ldr	r3, [r3, #12]
 8001a8a:	613b      	str	r3, [r7, #16]
 8001a8c:	68fb      	ldr	r3, [r7, #12]
 8001a8e:	43db      	mvns	r3, r3
 8001a90:	693a      	ldr	r2, [r7, #16]
 8001a92:	4013      	ands	r3, r2
 8001a94:	613b      	str	r3, [r7, #16]
 8001a96:	683b      	ldr	r3, [r7, #0]
 8001a98:	685b      	ldr	r3, [r3, #4]
 8001a9a:	f403 1300 	and.w	r3, r3, #2097152	; 0x200000
 8001a9e:	2b00      	cmp	r3, #0
 8001aa0:	d003      	beq.n	8001aaa <HAL_GPIO_Init+0x2a2>
 8001aa2:	693a      	ldr	r2, [r7, #16]
 8001aa4:	68fb      	ldr	r3, [r7, #12]
 8001aa6:	4313      	orrs	r3, r2
 8001aa8:	613b      	str	r3, [r7, #16]
 8001aaa:	4a0f      	ldr	r2, [pc, #60]	; (8001ae8 <HAL_GPIO_Init+0x2e0>)
 8001aac:	693b      	ldr	r3, [r7, #16]
 8001aae:	60d3      	str	r3, [r2, #12]
 8001ab0:	697b      	ldr	r3, [r7, #20]
 8001ab2:	3301      	adds	r3, #1
 8001ab4:	617b      	str	r3, [r7, #20]
 8001ab6:	683b      	ldr	r3, [r7, #0]
 8001ab8:	681a      	ldr	r2, [r3, #0]
 8001aba:	697b      	ldr	r3, [r7, #20]
 8001abc:	fa22 f303 	lsr.w	r3, r2, r3
 8001ac0:	2b00      	cmp	r3, #0
 8001ac2:	f47f aea9 	bne.w	8001818 <HAL_GPIO_Init+0x10>
 8001ac6:	bf00      	nop
 8001ac8:	371c      	adds	r7, #28
 8001aca:	46bd      	mov	sp, r7
 8001acc:	f85d 7b04 	ldr.w	r7, [sp], #4
 8001ad0:	4770      	bx	lr
 8001ad2:	bf00      	nop
 8001ad4:	40021000 	.word	0x40021000
 8001ad8:	40010000 	.word	0x40010000
 8001adc:	48000400 	.word	0x48000400
 8001ae0:	48000800 	.word	0x48000800
 8001ae4:	48000c00 	.word	0x48000c00
 8001ae8:	40010400 	.word	0x40010400

08001aec <HAL_GPIO_WritePin>:
 8001aec:	b480      	push	{r7}
 8001aee:	b083      	sub	sp, #12
 8001af0:	af00      	add	r7, sp, #0
 8001af2:	6078      	str	r0, [r7, #4]
 8001af4:	460b      	mov	r3, r1
 8001af6:	807b      	strh	r3, [r7, #2]
 8001af8:	4613      	mov	r3, r2
 8001afa:	707b      	strb	r3, [r7, #1]
 8001afc:	787b      	ldrb	r3, [r7, #1]
 8001afe:	2b00      	cmp	r3, #0
 8001b00:	d003      	beq.n	8001b0a <HAL_GPIO_WritePin+0x1e>
 8001b02:	887a      	ldrh	r2, [r7, #2]
 8001b04:	687b      	ldr	r3, [r7, #4]
 8001b06:	619a      	str	r2, [r3, #24]
 8001b08:	e002      	b.n	8001b10 <HAL_GPIO_WritePin+0x24>
 8001b0a:	887a      	ldrh	r2, [r7, #2]
 8001b0c:	687b      	ldr	r3, [r7, #4]
 8001b0e:	629a      	str	r2, [r3, #40]	; 0x28
 8001b10:	bf00      	nop
 8001b12:	370c      	adds	r7, #12
 8001b14:	46bd      	mov	sp, r7
 8001b16:	f85d 7b04 	ldr.w	r7, [sp], #4
 8001b1a:	4770      	bx	lr

08001b1c <HAL_I2C_Init>:
 8001b1c:	b580      	push	{r7, lr}
 8001b1e:	b082      	sub	sp, #8
 8001b20:	af00      	add	r7, sp, #0
 8001b22:	6078      	str	r0, [r7, #4]
 8001b24:	687b      	ldr	r3, [r7, #4]
 8001b26:	2b00      	cmp	r3, #0
 8001b28:	d101      	bne.n	8001b2e <HAL_I2C_Init+0x12>
 8001b2a:	2301      	movs	r3, #1
 8001b2c:	e081      	b.n	8001c32 <HAL_I2C_Init+0x116>
 8001b2e:	687b      	ldr	r3, [r7, #4]
 8001b30:	f893 3041 	ldrb.w	r3, [r3, #65]	; 0x41
 8001b34:	b2db      	uxtb	r3, r3
 8001b36:	2b00      	cmp	r3, #0
 8001b38:	d106      	bne.n	8001b48 <HAL_I2C_Init+0x2c>
 8001b3a:	687b      	ldr	r3, [r7, #4]
 8001b3c:	2200      	movs	r2, #0
 8001b3e:	f883 2040 	strb.w	r2, [r3, #64]	; 0x40
 8001b42:	6878      	ldr	r0, [r7, #4]
 8001b44:	f7ff fa9e 	bl	8001084 <HAL_I2C_MspInit>
 8001b48:	687b      	ldr	r3, [r7, #4]
 8001b4a:	2224      	movs	r2, #36	; 0x24
 8001b4c:	f883 2041 	strb.w	r2, [r3, #65]	; 0x41
 8001b50:	687b      	ldr	r3, [r7, #4]
 8001b52:	681b      	ldr	r3, [r3, #0]
 8001b54:	681a      	ldr	r2, [r3, #0]
 8001b56:	687b      	ldr	r3, [r7, #4]
 8001b58:	681b      	ldr	r3, [r3, #0]
 8001b5a:	f022 0201 	bic.w	r2, r2, #1
 8001b5e:	601a      	str	r2, [r3, #0]
 8001b60:	687b      	ldr	r3, [r7, #4]
 8001b62:	685a      	ldr	r2, [r3, #4]
 8001b64:	687b      	ldr	r3, [r7, #4]
 8001b66:	681b      	ldr	r3, [r3, #0]
 8001b68:	f022 6270 	bic.w	r2, r2, #251658240	; 0xf000000
 8001b6c:	611a      	str	r2, [r3, #16]
 8001b6e:	687b      	ldr	r3, [r7, #4]
 8001b70:	681b      	ldr	r3, [r3, #0]
 8001b72:	689a      	ldr	r2, [r3, #8]
 8001b74:	687b      	ldr	r3, [r7, #4]
 8001b76:	681b      	ldr	r3, [r3, #0]
 8001b78:	f422 4200 	bic.w	r2, r2, #32768	; 0x8000
 8001b7c:	609a      	str	r2, [r3, #8]
 8001b7e:	687b      	ldr	r3, [r7, #4]
 8001b80:	68db      	ldr	r3, [r3, #12]
 8001b82:	2b01      	cmp	r3, #1
 8001b84:	d107      	bne.n	8001b96 <HAL_I2C_Init+0x7a>
 8001b86:	687b      	ldr	r3, [r7, #4]
 8001b88:	689a      	ldr	r2, [r3, #8]
 8001b8a:	687b      	ldr	r3, [r7, #4]
 8001b8c:	681b      	ldr	r3, [r3, #0]
 8001b8e:	f442 4200 	orr.w	r2, r2, #32768	; 0x8000
 8001b92:	609a      	str	r2, [r3, #8]
 8001b94:	e006      	b.n	8001ba4 <HAL_I2C_Init+0x88>
 8001b96:	687b      	ldr	r3, [r7, #4]
 8001b98:	689a      	ldr	r2, [r3, #8]
 8001b9a:	687b      	ldr	r3, [r7, #4]
 8001b9c:	681b      	ldr	r3, [r3, #0]
 8001b9e:	f442 4204 	orr.w	r2, r2, #33792	; 0x8400
 8001ba2:	609a      	str	r2, [r3, #8]
 8001ba4:	687b      	ldr	r3, [r7, #4]
 8001ba6:	68db      	ldr	r3, [r3, #12]
 8001ba8:	2b02      	cmp	r3, #2
 8001baa:	d104      	bne.n	8001bb6 <HAL_I2C_Init+0x9a>
 8001bac:	687b      	ldr	r3, [r7, #4]
 8001bae:	681b      	ldr	r3, [r3, #0]
 8001bb0:	f44f 6200 	mov.w	r2, #2048	; 0x800
 8001bb4:	605a      	str	r2, [r3, #4]
 8001bb6:	687b      	ldr	r3, [r7, #4]
 8001bb8:	681b      	ldr	r3, [r3, #0]
 8001bba:	685b      	ldr	r3, [r3, #4]
 8001bbc:	687a      	ldr	r2, [r7, #4]
 8001bbe:	6812      	ldr	r2, [r2, #0]
 8001bc0:	f043 7300 	orr.w	r3, r3, #33554432	; 0x2000000
 8001bc4:	f443 4300 	orr.w	r3, r3, #32768	; 0x8000
 8001bc8:	6053      	str	r3, [r2, #4]
 8001bca:	687b      	ldr	r3, [r7, #4]
 8001bcc:	681b      	ldr	r3, [r3, #0]
 8001bce:	68da      	ldr	r2, [r3, #12]
 8001bd0:	687b      	ldr	r3, [r7, #4]
 8001bd2:	681b      	ldr	r3, [r3, #0]
 8001bd4:	f422 4200 	bic.w	r2, r2, #32768	; 0x8000
 8001bd8:	60da      	str	r2, [r3, #12]
 8001bda:	687b      	ldr	r3, [r7, #4]
 8001bdc:	691a      	ldr	r2, [r3, #16]
 8001bde:	687b      	ldr	r3, [r7, #4]
 8001be0:	695b      	ldr	r3, [r3, #20]
 8001be2:	ea42 0103 	orr.w	r1, r2, r3
 8001be6:	687b      	ldr	r3, [r7, #4]
 8001be8:	699b      	ldr	r3, [r3, #24]
 8001bea:	021a      	lsls	r2, r3, #8
 8001bec:	687b      	ldr	r3, [r7, #4]
 8001bee:	681b      	ldr	r3, [r3, #0]
 8001bf0:	430a      	orrs	r2, r1
 8001bf2:	60da      	str	r2, [r3, #12]
 8001bf4:	687b      	ldr	r3, [r7, #4]
 8001bf6:	69d9      	ldr	r1, [r3, #28]
 8001bf8:	687b      	ldr	r3, [r7, #4]
 8001bfa:	6a1a      	ldr	r2, [r3, #32]
 8001bfc:	687b      	ldr	r3, [r7, #4]
 8001bfe:	681b      	ldr	r3, [r3, #0]
 8001c00:	430a      	orrs	r2, r1
 8001c02:	601a      	str	r2, [r3, #0]
 8001c04:	687b      	ldr	r3, [r7, #4]
 8001c06:	681b      	ldr	r3, [r3, #0]
 8001c08:	681a      	ldr	r2, [r3, #0]
 8001c0a:	687b      	ldr	r3, [r7, #4]
 8001c0c:	681b      	ldr	r3, [r3, #0]
 8001c0e:	f042 0201 	orr.w	r2, r2, #1
 8001c12:	601a      	str	r2, [r3, #0]
 8001c14:	687b      	ldr	r3, [r7, #4]
 8001c16:	2200      	movs	r2, #0
 8001c18:	645a      	str	r2, [r3, #68]	; 0x44
 8001c1a:	687b      	ldr	r3, [r7, #4]
 8001c1c:	2220      	movs	r2, #32
 8001c1e:	f883 2041 	strb.w	r2, [r3, #65]	; 0x41
 8001c22:	687b      	ldr	r3, [r7, #4]
 8001c24:	2200      	movs	r2, #0
 8001c26:	631a      	str	r2, [r3, #48]	; 0x30
 8001c28:	687b      	ldr	r3, [r7, #4]
 8001c2a:	2200      	movs	r2, #0
 8001c2c:	f883 2042 	strb.w	r2, [r3, #66]	; 0x42
 8001c30:	2300      	movs	r3, #0
 8001c32:	4618      	mov	r0, r3
 8001c34:	3708      	adds	r7, #8
 8001c36:	46bd      	mov	sp, r7
 8001c38:	bd80      	pop	{r7, pc}
	...

08001c3c <HAL_I2C_Mem_Write>:
 8001c3c:	b580      	push	{r7, lr}
 8001c3e:	b088      	sub	sp, #32
 8001c40:	af02      	add	r7, sp, #8
 8001c42:	60f8      	str	r0, [r7, #12]
 8001c44:	4608      	mov	r0, r1
 8001c46:	4611      	mov	r1, r2
 8001c48:	461a      	mov	r2, r3
 8001c4a:	4603      	mov	r3, r0
 8001c4c:	817b      	strh	r3, [r7, #10]
 8001c4e:	460b      	mov	r3, r1
 8001c50:	813b      	strh	r3, [r7, #8]
 8001c52:	4613      	mov	r3, r2
 8001c54:	80fb      	strh	r3, [r7, #6]
 8001c56:	68fb      	ldr	r3, [r7, #12]
 8001c58:	f893 3041 	ldrb.w	r3, [r3, #65]	; 0x41
 8001c5c:	b2db      	uxtb	r3, r3
 8001c5e:	2b20      	cmp	r3, #32
 8001c60:	f040 80f9 	bne.w	8001e56 <HAL_I2C_Mem_Write+0x21a>
 8001c64:	6a3b      	ldr	r3, [r7, #32]
 8001c66:	2b00      	cmp	r3, #0
 8001c68:	d002      	beq.n	8001c70 <HAL_I2C_Mem_Write+0x34>
 8001c6a:	8cbb      	ldrh	r3, [r7, #36]	; 0x24
 8001c6c:	2b00      	cmp	r3, #0
 8001c6e:	d105      	bne.n	8001c7c <HAL_I2C_Mem_Write+0x40>
 8001c70:	68fb      	ldr	r3, [r7, #12]
 8001c72:	f44f 7200 	mov.w	r2, #512	; 0x200
 8001c76:	645a      	str	r2, [r3, #68]	; 0x44
 8001c78:	2301      	movs	r3, #1
 8001c7a:	e0ed      	b.n	8001e58 <HAL_I2C_Mem_Write+0x21c>
 8001c7c:	68fb      	ldr	r3, [r7, #12]
 8001c7e:	f893 3040 	ldrb.w	r3, [r3, #64]	; 0x40
 8001c82:	2b01      	cmp	r3, #1
 8001c84:	d101      	bne.n	8001c8a <HAL_I2C_Mem_Write+0x4e>
 8001c86:	2302      	movs	r3, #2
 8001c88:	e0e6      	b.n	8001e58 <HAL_I2C_Mem_Write+0x21c>
 8001c8a:	68fb      	ldr	r3, [r7, #12]
 8001c8c:	2201      	movs	r2, #1
 8001c8e:	f883 2040 	strb.w	r2, [r3, #64]	; 0x40
 8001c92:	f7ff fc17 	bl	80014c4 <HAL_GetTick>
 8001c96:	6178      	str	r0, [r7, #20]
 8001c98:	697b      	ldr	r3, [r7, #20]
 8001c9a:	9300      	str	r3, [sp, #0]
 8001c9c:	2319      	movs	r3, #25
 8001c9e:	2201      	movs	r2, #1
 8001ca0:	f44f 4100 	mov.w	r1, #32768	; 0x8000
 8001ca4:	68f8      	ldr	r0, [r7, #12]
 8001ca6:	f000 ffd8 	bl	8002c5a <I2C_WaitOnFlagUntilTimeout>
 8001caa:	4603      	mov	r3, r0
 8001cac:	2b00      	cmp	r3, #0
 8001cae:	d001      	beq.n	8001cb4 <HAL_I2C_Mem_Write+0x78>
 8001cb0:	2301      	movs	r3, #1
 8001cb2:	e0d1      	b.n	8001e58 <HAL_I2C_Mem_Write+0x21c>
 8001cb4:	68fb      	ldr	r3, [r7, #12]
 8001cb6:	2221      	movs	r2, #33	; 0x21
 8001cb8:	f883 2041 	strb.w	r2, [r3, #65]	; 0x41
 8001cbc:	68fb      	ldr	r3, [r7, #12]
 8001cbe:	2240      	movs	r2, #64	; 0x40
 8001cc0:	f883 2042 	strb.w	r2, [r3, #66]	; 0x42
 8001cc4:	68fb      	ldr	r3, [r7, #12]
 8001cc6:	2200      	movs	r2, #0
 8001cc8:	645a      	str	r2, [r3, #68]	; 0x44
 8001cca:	68fb      	ldr	r3, [r7, #12]
 8001ccc:	6a3a      	ldr	r2, [r7, #32]
 8001cce:	625a      	str	r2, [r3, #36]	; 0x24
 8001cd0:	68fb      	ldr	r3, [r7, #12]
 8001cd2:	8cba      	ldrh	r2, [r7, #36]	; 0x24
 8001cd4:	855a      	strh	r2, [r3, #42]	; 0x2a
 8001cd6:	68fb      	ldr	r3, [r7, #12]
 8001cd8:	2200      	movs	r2, #0
 8001cda:	635a      	str	r2, [r3, #52]	; 0x34
 8001cdc:	88f8      	ldrh	r0, [r7, #6]
 8001cde:	893a      	ldrh	r2, [r7, #8]
 8001ce0:	8979      	ldrh	r1, [r7, #10]
 8001ce2:	697b      	ldr	r3, [r7, #20]
 8001ce4:	9301      	str	r3, [sp, #4]
 8001ce6:	6abb      	ldr	r3, [r7, #40]	; 0x28
 8001ce8:	9300      	str	r3, [sp, #0]
 8001cea:	4603      	mov	r3, r0
 8001cec:	68f8      	ldr	r0, [r7, #12]
 8001cee:	f000 fb91 	bl	8002414 <I2C_RequestMemoryWrite>
 8001cf2:	4603      	mov	r3, r0
 8001cf4:	2b00      	cmp	r3, #0
 8001cf6:	d005      	beq.n	8001d04 <HAL_I2C_Mem_Write+0xc8>
 8001cf8:	68fb      	ldr	r3, [r7, #12]
 8001cfa:	2200      	movs	r2, #0
 8001cfc:	f883 2040 	strb.w	r2, [r3, #64]	; 0x40
 8001d00:	2301      	movs	r3, #1
 8001d02:	e0a9      	b.n	8001e58 <HAL_I2C_Mem_Write+0x21c>
 8001d04:	68fb      	ldr	r3, [r7, #12]
 8001d06:	8d5b      	ldrh	r3, [r3, #42]	; 0x2a
 8001d08:	b29b      	uxth	r3, r3
 8001d0a:	2bff      	cmp	r3, #255	; 0xff
 8001d0c:	d90e      	bls.n	8001d2c <HAL_I2C_Mem_Write+0xf0>
 8001d0e:	68fb      	ldr	r3, [r7, #12]
 8001d10:	22ff      	movs	r2, #255	; 0xff
 8001d12:	851a      	strh	r2, [r3, #40]	; 0x28
 8001d14:	68fb      	ldr	r3, [r7, #12]
 8001d16:	8d1b      	ldrh	r3, [r3, #40]	; 0x28
 8001d18:	b2da      	uxtb	r2, r3
 8001d1a:	8979      	ldrh	r1, [r7, #10]
 8001d1c:	2300      	movs	r3, #0
 8001d1e:	9300      	str	r3, [sp, #0]
 8001d20:	f04f 7380 	mov.w	r3, #16777216	; 0x1000000
 8001d24:	68f8      	ldr	r0, [r7, #12]
 8001d26:	f001 f8bb 	bl	8002ea0 <I2C_TransferConfig>
 8001d2a:	e00f      	b.n	8001d4c <HAL_I2C_Mem_Write+0x110>
 8001d2c:	68fb      	ldr	r3, [r7, #12]
 8001d2e:	8d5b      	ldrh	r3, [r3, #42]	; 0x2a
 8001d30:	b29a      	uxth	r2, r3
 8001d32:	68fb      	ldr	r3, [r7, #12]
 8001d34:	851a      	strh	r2, [r3, #40]	; 0x28
 8001d36:	68fb      	ldr	r3, [r7, #12]
 8001d38:	8d1b      	ldrh	r3, [r3, #40]	; 0x28
 8001d3a:	b2da      	uxtb	r2, r3
 8001d3c:	8979      	ldrh	r1, [r7, #10]
 8001d3e:	2300      	movs	r3, #0
 8001d40:	9300      	str	r3, [sp, #0]
 8001d42:	f04f 7300 	mov.w	r3, #33554432	; 0x2000000
 8001d46:	68f8      	ldr	r0, [r7, #12]
 8001d48:	f001 f8aa 	bl	8002ea0 <I2C_TransferConfig>
 8001d4c:	697a      	ldr	r2, [r7, #20]
 8001d4e:	6ab9      	ldr	r1, [r7, #40]	; 0x28
 8001d50:	68f8      	ldr	r0, [r7, #12]
 8001d52:	f000 ffc2 	bl	8002cda <I2C_WaitOnTXISFlagUntilTimeout>
 8001d56:	4603      	mov	r3, r0
 8001d58:	2b00      	cmp	r3, #0
 8001d5a:	d001      	beq.n	8001d60 <HAL_I2C_Mem_Write+0x124>
 8001d5c:	2301      	movs	r3, #1
 8001d5e:	e07b      	b.n	8001e58 <HAL_I2C_Mem_Write+0x21c>
 8001d60:	68fb      	ldr	r3, [r7, #12]
 8001d62:	6a5b      	ldr	r3, [r3, #36]	; 0x24
 8001d64:	781a      	ldrb	r2, [r3, #0]
 8001d66:	68fb      	ldr	r3, [r7, #12]
 8001d68:	681b      	ldr	r3, [r3, #0]
 8001d6a:	629a      	str	r2, [r3, #40]	; 0x28
 8001d6c:	68fb      	ldr	r3, [r7, #12]
 8001d6e:	6a5b      	ldr	r3, [r3, #36]	; 0x24
 8001d70:	1c5a      	adds	r2, r3, #1
 8001d72:	68fb      	ldr	r3, [r7, #12]
 8001d74:	625a      	str	r2, [r3, #36]	; 0x24
 8001d76:	68fb      	ldr	r3, [r7, #12]
 8001d78:	8d5b      	ldrh	r3, [r3, #42]	; 0x2a
 8001d7a:	b29b      	uxth	r3, r3
 8001d7c:	3b01      	subs	r3, #1
 8001d7e:	b29a      	uxth	r2, r3
 8001d80:	68fb      	ldr	r3, [r7, #12]
 8001d82:	855a      	strh	r2, [r3, #42]	; 0x2a
 8001d84:	68fb      	ldr	r3, [r7, #12]
 8001d86:	8d1b      	ldrh	r3, [r3, #40]	; 0x28
 8001d88:	3b01      	subs	r3, #1
 8001d8a:	b29a      	uxth	r2, r3
 8001d8c:	68fb      	ldr	r3, [r7, #12]
 8001d8e:	851a      	strh	r2, [r3, #40]	; 0x28
 8001d90:	68fb      	ldr	r3, [r7, #12]
 8001d92:	8d5b      	ldrh	r3, [r3, #42]	; 0x2a
 8001d94:	b29b      	uxth	r3, r3
 8001d96:	2b00      	cmp	r3, #0
 8001d98:	d034      	beq.n	8001e04 <HAL_I2C_Mem_Write+0x1c8>
 8001d9a:	68fb      	ldr	r3, [r7, #12]
 8001d9c:	8d1b      	ldrh	r3, [r3, #40]	; 0x28
 8001d9e:	2b00      	cmp	r3, #0
 8001da0:	d130      	bne.n	8001e04 <HAL_I2C_Mem_Write+0x1c8>
 8001da2:	697b      	ldr	r3, [r7, #20]
 8001da4:	9300      	str	r3, [sp, #0]
 8001da6:	6abb      	ldr	r3, [r7, #40]	; 0x28
 8001da8:	2200      	movs	r2, #0
 8001daa:	2180      	movs	r1, #128	; 0x80
 8001dac:	68f8      	ldr	r0, [r7, #12]
 8001dae:	f000 ff54 	bl	8002c5a <I2C_WaitOnFlagUntilTimeout>
 8001db2:	4603      	mov	r3, r0
 8001db4:	2b00      	cmp	r3, #0
 8001db6:	d001      	beq.n	8001dbc <HAL_I2C_Mem_Write+0x180>
 8001db8:	2301      	movs	r3, #1
 8001dba:	e04d      	b.n	8001e58 <HAL_I2C_Mem_Write+0x21c>
 8001dbc:	68fb      	ldr	r3, [r7, #12]
 8001dbe:	8d5b      	ldrh	r3, [r3, #42]	; 0x2a
 8001dc0:	b29b      	uxth	r3, r3
 8001dc2:	2bff      	cmp	r3, #255	; 0xff
 8001dc4:	d90e      	bls.n	8001de4 <HAL_I2C_Mem_Write+0x1a8>
 8001dc6:	68fb      	ldr	r3, [r7, #12]
 8001dc8:	22ff      	movs	r2, #255	; 0xff
 8001dca:	851a      	strh	r2, [r3, #40]	; 0x28
 8001dcc:	68fb      	ldr	r3, [r7, #12]
 8001dce:	8d1b      	ldrh	r3, [r3, #40]	; 0x28
 8001dd0:	b2da      	uxtb	r2, r3
 8001dd2:	8979      	ldrh	r1, [r7, #10]
 8001dd4:	2300      	movs	r3, #0
 8001dd6:	9300      	str	r3, [sp, #0]
 8001dd8:	f04f 7380 	mov.w	r3, #16777216	; 0x1000000
 8001ddc:	68f8      	ldr	r0, [r7, #12]
 8001dde:	f001 f85f 	bl	8002ea0 <I2C_TransferConfig>
 8001de2:	e00f      	b.n	8001e04 <HAL_I2C_Mem_Write+0x1c8>
 8001de4:	68fb      	ldr	r3, [r7, #12]
 8001de6:	8d5b      	ldrh	r3, [r3, #42]	; 0x2a
 8001de8:	b29a      	uxth	r2, r3
 8001dea:	68fb      	ldr	r3, [r7, #12]
 8001dec:	851a      	strh	r2, [r3, #40]	; 0x28
 8001dee:	68fb      	ldr	r3, [r7, #12]
 8001df0:	8d1b      	ldrh	r3, [r3, #40]	; 0x28
 8001df2:	b2da      	uxtb	r2, r3
 8001df4:	8979      	ldrh	r1, [r7, #10]
 8001df6:	2300      	movs	r3, #0
 8001df8:	9300      	str	r3, [sp, #0]
 8001dfa:	f04f 7300 	mov.w	r3, #33554432	; 0x2000000
 8001dfe:	68f8      	ldr	r0, [r7, #12]
 8001e00:	f001 f84e 	bl	8002ea0 <I2C_TransferConfig>
 8001e04:	68fb      	ldr	r3, [r7, #12]
 8001e06:	8d5b      	ldrh	r3, [r3, #42]	; 0x2a
 8001e08:	b29b      	uxth	r3, r3
 8001e0a:	2b00      	cmp	r3, #0
 8001e0c:	d19e      	bne.n	8001d4c <HAL_I2C_Mem_Write+0x110>
 8001e0e:	697a      	ldr	r2, [r7, #20]
 8001e10:	6ab9      	ldr	r1, [r7, #40]	; 0x28
 8001e12:	68f8      	ldr	r0, [r7, #12]
 8001e14:	f000 ffa1 	bl	8002d5a <I2C_WaitOnSTOPFlagUntilTimeout>
 8001e18:	4603      	mov	r3, r0
 8001e1a:	2b00      	cmp	r3, #0
 8001e1c:	d001      	beq.n	8001e22 <HAL_I2C_Mem_Write+0x1e6>
 8001e1e:	2301      	movs	r3, #1
 8001e20:	e01a      	b.n	8001e58 <HAL_I2C_Mem_Write+0x21c>
 8001e22:	68fb      	ldr	r3, [r7, #12]
 8001e24:	681b      	ldr	r3, [r3, #0]
 8001e26:	2220      	movs	r2, #32
 8001e28:	61da      	str	r2, [r3, #28]
 8001e2a:	68fb      	ldr	r3, [r7, #12]
 8001e2c:	681b      	ldr	r3, [r3, #0]
 8001e2e:	6859      	ldr	r1, [r3, #4]
 8001e30:	68fb      	ldr	r3, [r7, #12]
 8001e32:	681a      	ldr	r2, [r3, #0]
 8001e34:	4b0a      	ldr	r3, [pc, #40]	; (8001e60 <HAL_I2C_Mem_Write+0x224>)
 8001e36:	400b      	ands	r3, r1
 8001e38:	6053      	str	r3, [r2, #4]
 8001e3a:	68fb      	ldr	r3, [r7, #12]
 8001e3c:	2220      	movs	r2, #32
 8001e3e:	f883 2041 	strb.w	r2, [r3, #65]	; 0x41
 8001e42:	68fb      	ldr	r3, [r7, #12]
 8001e44:	2200      	movs	r2, #0
 8001e46:	f883 2042 	strb.w	r2, [r3, #66]	; 0x42
 8001e4a:	68fb      	ldr	r3, [r7, #12]
 8001e4c:	2200      	movs	r2, #0
 8001e4e:	f883 2040 	strb.w	r2, [r3, #64]	; 0x40
 8001e52:	2300      	movs	r3, #0
 8001e54:	e000      	b.n	8001e58 <HAL_I2C_Mem_Write+0x21c>
 8001e56:	2302      	movs	r3, #2
 8001e58:	4618      	mov	r0, r3
 8001e5a:	3718      	adds	r7, #24
 8001e5c:	46bd      	mov	sp, r7
 8001e5e:	bd80      	pop	{r7, pc}
 8001e60:	fe00e800 	.word	0xfe00e800

08001e64 <HAL_I2C_Mem_Read>:
 8001e64:	b580      	push	{r7, lr}
 8001e66:	b088      	sub	sp, #32
 8001e68:	af02      	add	r7, sp, #8
 8001e6a:	60f8      	str	r0, [r7, #12]
 8001e6c:	4608      	mov	r0, r1
 8001e6e:	4611      	mov	r1, r2
 8001e70:	461a      	mov	r2, r3
 8001e72:	4603      	mov	r3, r0
 8001e74:	817b      	strh	r3, [r7, #10]
 8001e76:	460b      	mov	r3, r1
 8001e78:	813b      	strh	r3, [r7, #8]
 8001e7a:	4613      	mov	r3, r2
 8001e7c:	80fb      	strh	r3, [r7, #6]
 8001e7e:	68fb      	ldr	r3, [r7, #12]
 8001e80:	f893 3041 	ldrb.w	r3, [r3, #65]	; 0x41
 8001e84:	b2db      	uxtb	r3, r3
 8001e86:	2b20      	cmp	r3, #32
 8001e88:	f040 80fd 	bne.w	8002086 <HAL_I2C_Mem_Read+0x222>
 8001e8c:	6a3b      	ldr	r3, [r7, #32]
 8001e8e:	2b00      	cmp	r3, #0
 8001e90:	d002      	beq.n	8001e98 <HAL_I2C_Mem_Read+0x34>
 8001e92:	8cbb      	ldrh	r3, [r7, #36]	; 0x24
 8001e94:	2b00      	cmp	r3, #0
 8001e96:	d105      	bne.n	8001ea4 <HAL_I2C_Mem_Read+0x40>
 8001e98:	68fb      	ldr	r3, [r7, #12]
 8001e9a:	f44f 7200 	mov.w	r2, #512	; 0x200
 8001e9e:	645a      	str	r2, [r3, #68]	; 0x44
 8001ea0:	2301      	movs	r3, #1
 8001ea2:	e0f1      	b.n	8002088 <HAL_I2C_Mem_Read+0x224>
 8001ea4:	68fb      	ldr	r3, [r7, #12]
 8001ea6:	f893 3040 	ldrb.w	r3, [r3, #64]	; 0x40
 8001eaa:	2b01      	cmp	r3, #1
 8001eac:	d101      	bne.n	8001eb2 <HAL_I2C_Mem_Read+0x4e>
 8001eae:	2302      	movs	r3, #2
 8001eb0:	e0ea      	b.n	8002088 <HAL_I2C_Mem_Read+0x224>
 8001eb2:	68fb      	ldr	r3, [r7, #12]
 8001eb4:	2201      	movs	r2, #1
 8001eb6:	f883 2040 	strb.w	r2, [r3, #64]	; 0x40
 8001eba:	f7ff fb03 	bl	80014c4 <HAL_GetTick>
 8001ebe:	6178      	str	r0, [r7, #20]
 8001ec0:	697b      	ldr	r3, [r7, #20]
 8001ec2:	9300      	str	r3, [sp, #0]
 8001ec4:	2319      	movs	r3, #25
 8001ec6:	2201      	movs	r2, #1
 8001ec8:	f44f 4100 	mov.w	r1, #32768	; 0x8000
 8001ecc:	68f8      	ldr	r0, [r7, #12]
 8001ece:	f000 fec4 	bl	8002c5a <I2C_WaitOnFlagUntilTimeout>
 8001ed2:	4603      	mov	r3, r0
 8001ed4:	2b00      	cmp	r3, #0
 8001ed6:	d001      	beq.n	8001edc <HAL_I2C_Mem_Read+0x78>
 8001ed8:	2301      	movs	r3, #1
 8001eda:	e0d5      	b.n	8002088 <HAL_I2C_Mem_Read+0x224>
 8001edc:	68fb      	ldr	r3, [r7, #12]
 8001ede:	2222      	movs	r2, #34	; 0x22
 8001ee0:	f883 2041 	strb.w	r2, [r3, #65]	; 0x41
 8001ee4:	68fb      	ldr	r3, [r7, #12]
 8001ee6:	2240      	movs	r2, #64	; 0x40
 8001ee8:	f883 2042 	strb.w	r2, [r3, #66]	; 0x42
 8001eec:	68fb      	ldr	r3, [r7, #12]
 8001eee:	2200      	movs	r2, #0
 8001ef0:	645a      	str	r2, [r3, #68]	; 0x44
 8001ef2:	68fb      	ldr	r3, [r7, #12]
 8001ef4:	6a3a      	ldr	r2, [r7, #32]
 8001ef6:	625a      	str	r2, [r3, #36]	; 0x24
 8001ef8:	68fb      	ldr	r3, [r7, #12]
 8001efa:	8cba      	ldrh	r2, [r7, #36]	; 0x24
 8001efc:	855a      	strh	r2, [r3, #42]	; 0x2a
 8001efe:	68fb      	ldr	r3, [r7, #12]
 8001f00:	2200      	movs	r2, #0
 8001f02:	635a      	str	r2, [r3, #52]	; 0x34
 8001f04:	88f8      	ldrh	r0, [r7, #6]
 8001f06:	893a      	ldrh	r2, [r7, #8]
 8001f08:	8979      	ldrh	r1, [r7, #10]
 8001f0a:	697b      	ldr	r3, [r7, #20]
 8001f0c:	9301      	str	r3, [sp, #4]
 8001f0e:	6abb      	ldr	r3, [r7, #40]	; 0x28
 8001f10:	9300      	str	r3, [sp, #0]
 8001f12:	4603      	mov	r3, r0
 8001f14:	68f8      	ldr	r0, [r7, #12]
 8001f16:	f000 fad1 	bl	80024bc <I2C_RequestMemoryRead>
 8001f1a:	4603      	mov	r3, r0
 8001f1c:	2b00      	cmp	r3, #0
 8001f1e:	d005      	beq.n	8001f2c <HAL_I2C_Mem_Read+0xc8>
 8001f20:	68fb      	ldr	r3, [r7, #12]
 8001f22:	2200      	movs	r2, #0
 8001f24:	f883 2040 	strb.w	r2, [r3, #64]	; 0x40
 8001f28:	2301      	movs	r3, #1
 8001f2a:	e0ad      	b.n	8002088 <HAL_I2C_Mem_Read+0x224>
 8001f2c:	68fb      	ldr	r3, [r7, #12]
 8001f2e:	8d5b      	ldrh	r3, [r3, #42]	; 0x2a
 8001f30:	b29b      	uxth	r3, r3
 8001f32:	2bff      	cmp	r3, #255	; 0xff
 8001f34:	d90e      	bls.n	8001f54 <HAL_I2C_Mem_Read+0xf0>
 8001f36:	68fb      	ldr	r3, [r7, #12]
 8001f38:	22ff      	movs	r2, #255	; 0xff
 8001f3a:	851a      	strh	r2, [r3, #40]	; 0x28
 8001f3c:	68fb      	ldr	r3, [r7, #12]
 8001f3e:	8d1b      	ldrh	r3, [r3, #40]	; 0x28
 8001f40:	b2da      	uxtb	r2, r3
 8001f42:	8979      	ldrh	r1, [r7, #10]
 8001f44:	4b52      	ldr	r3, [pc, #328]	; (8002090 <HAL_I2C_Mem_Read+0x22c>)
 8001f46:	9300      	str	r3, [sp, #0]
 8001f48:	f04f 7380 	mov.w	r3, #16777216	; 0x1000000
 8001f4c:	68f8      	ldr	r0, [r7, #12]
 8001f4e:	f000 ffa7 	bl	8002ea0 <I2C_TransferConfig>
 8001f52:	e00f      	b.n	8001f74 <HAL_I2C_Mem_Read+0x110>
 8001f54:	68fb      	ldr	r3, [r7, #12]
 8001f56:	8d5b      	ldrh	r3, [r3, #42]	; 0x2a
 8001f58:	b29a      	uxth	r2, r3
 8001f5a:	68fb      	ldr	r3, [r7, #12]
 8001f5c:	851a      	strh	r2, [r3, #40]	; 0x28
 8001f5e:	68fb      	ldr	r3, [r7, #12]
 8001f60:	8d1b      	ldrh	r3, [r3, #40]	; 0x28
 8001f62:	b2da      	uxtb	r2, r3
 8001f64:	8979      	ldrh	r1, [r7, #10]
 8001f66:	4b4a      	ldr	r3, [pc, #296]	; (8002090 <HAL_I2C_Mem_Read+0x22c>)
 8001f68:	9300      	str	r3, [sp, #0]
 8001f6a:	f04f 7300 	mov.w	r3, #33554432	; 0x2000000
 8001f6e:	68f8      	ldr	r0, [r7, #12]
 8001f70:	f000 ff96 	bl	8002ea0 <I2C_TransferConfig>
 8001f74:	697b      	ldr	r3, [r7, #20]
 8001f76:	9300      	str	r3, [sp, #0]
 8001f78:	6abb      	ldr	r3, [r7, #40]	; 0x28
 8001f7a:	2200      	movs	r2, #0
 8001f7c:	2104      	movs	r1, #4
 8001f7e:	68f8      	ldr	r0, [r7, #12]
 8001f80:	f000 fe6b 	bl	8002c5a <I2C_WaitOnFlagUntilTimeout>
 8001f84:	4603      	mov	r3, r0
 8001f86:	2b00      	cmp	r3, #0
 8001f88:	d001      	beq.n	8001f8e <HAL_I2C_Mem_Read+0x12a>
 8001f8a:	2301      	movs	r3, #1
 8001f8c:	e07c      	b.n	8002088 <HAL_I2C_Mem_Read+0x224>
 8001f8e:	68fb      	ldr	r3, [r7, #12]
 8001f90:	681b      	ldr	r3, [r3, #0]
 8001f92:	6a5a      	ldr	r2, [r3, #36]	; 0x24
 8001f94:	68fb      	ldr	r3, [r7, #12]
 8001f96:	6a5b      	ldr	r3, [r3, #36]	; 0x24
 8001f98:	b2d2      	uxtb	r2, r2
 8001f9a:	701a      	strb	r2, [r3, #0]
 8001f9c:	68fb      	ldr	r3, [r7, #12]
 8001f9e:	6a5b      	ldr	r3, [r3, #36]	; 0x24
 8001fa0:	1c5a      	adds	r2, r3, #1
 8001fa2:	68fb      	ldr	r3, [r7, #12]
 8001fa4:	625a      	str	r2, [r3, #36]	; 0x24
 8001fa6:	68fb      	ldr	r3, [r7, #12]
 8001fa8:	8d1b      	ldrh	r3, [r3, #40]	; 0x28
 8001faa:	3b01      	subs	r3, #1
 8001fac:	b29a      	uxth	r2, r3
 8001fae:	68fb      	ldr	r3, [r7, #12]
 8001fb0:	851a      	strh	r2, [r3, #40]	; 0x28
 8001fb2:	68fb      	ldr	r3, [r7, #12]
 8001fb4:	8d5b      	ldrh	r3, [r3, #42]	; 0x2a
 8001fb6:	b29b      	uxth	r3, r3
 8001fb8:	3b01      	subs	r3, #1
 8001fba:	b29a      	uxth	r2, r3
 8001fbc:	68fb      	ldr	r3, [r7, #12]
 8001fbe:	855a      	strh	r2, [r3, #42]	; 0x2a
 8001fc0:	68fb      	ldr	r3, [r7, #12]
 8001fc2:	8d5b      	ldrh	r3, [r3, #42]	; 0x2a
 8001fc4:	b29b      	uxth	r3, r3
 8001fc6:	2b00      	cmp	r3, #0
 8001fc8:	d034      	beq.n	8002034 <HAL_I2C_Mem_Read+0x1d0>
 8001fca:	68fb      	ldr	r3, [r7, #12]
 8001fcc:	8d1b      	ldrh	r3, [r3, #40]	; 0x28
 8001fce:	2b00      	cmp	r3, #0
 8001fd0:	d130      	bne.n	8002034 <HAL_I2C_Mem_Read+0x1d0>
 8001fd2:	697b      	ldr	r3, [r7, #20]
 8001fd4:	9300      	str	r3, [sp, #0]
 8001fd6:	6abb      	ldr	r3, [r7, #40]	; 0x28
 8001fd8:	2200      	movs	r2, #0
 8001fda:	2180      	movs	r1, #128	; 0x80
 8001fdc:	68f8      	ldr	r0, [r7, #12]
 8001fde:	f000 fe3c 	bl	8002c5a <I2C_WaitOnFlagUntilTimeout>
 8001fe2:	4603      	mov	r3, r0
 8001fe4:	2b00      	cmp	r3, #0
 8001fe6:	d001      	beq.n	8001fec <HAL_I2C_Mem_Read+0x188>
 8001fe8:	2301      	movs	r3, #1
 8001fea:	e04d      	b.n	8002088 <HAL_I2C_Mem_Read+0x224>
 8001fec:	68fb      	ldr	r3, [r7, #12]
 8001fee:	8d5b      	ldrh	r3, [r3, #42]	; 0x2a
 8001ff0:	b29b      	uxth	r3, r3
 8001ff2:	2bff      	cmp	r3, #255	; 0xff
 8001ff4:	d90e      	bls.n	8002014 <HAL_I2C_Mem_Read+0x1b0>
 8001ff6:	68fb      	ldr	r3, [r7, #12]
 8001ff8:	22ff      	movs	r2, #255	; 0xff
 8001ffa:	851a      	strh	r2, [r3, #40]	; 0x28
 8001ffc:	68fb      	ldr	r3, [r7, #12]
 8001ffe:	8d1b      	ldrh	r3, [r3, #40]	; 0x28
 8002000:	b2da      	uxtb	r2, r3
 8002002:	8979      	ldrh	r1, [r7, #10]
 8002004:	2300      	movs	r3, #0
 8002006:	9300      	str	r3, [sp, #0]
 8002008:	f04f 7380 	mov.w	r3, #16777216	; 0x1000000
 800200c:	68f8      	ldr	r0, [r7, #12]
 800200e:	f000 ff47 	bl	8002ea0 <I2C_TransferConfig>
 8002012:	e00f      	b.n	8002034 <HAL_I2C_Mem_Read+0x1d0>
 8002014:	68fb      	ldr	r3, [r7, #12]
 8002016:	8d5b      	ldrh	r3, [r3, #42]	; 0x2a
 8002018:	b29a      	uxth	r2, r3
 800201a:	68fb      	ldr	r3, [r7, #12]
 800201c:	851a      	strh	r2, [r3, #40]	; 0x28
 800201e:	68fb      	ldr	r3, [r7, #12]
 8002020:	8d1b      	ldrh	r3, [r3, #40]	; 0x28
 8002022:	b2da      	uxtb	r2, r3
 8002024:	8979      	ldrh	r1, [r7, #10]
 8002026:	2300      	movs	r3, #0
 8002028:	9300      	str	r3, [sp, #0]
 800202a:	f04f 7300 	mov.w	r3, #33554432	; 0x2000000
 800202e:	68f8      	ldr	r0, [r7, #12]
 8002030:	f000 ff36 	bl	8002ea0 <I2C_TransferConfig>
 8002034:	68fb      	ldr	r3, [r7, #12]
 8002036:	8d5b      	ldrh	r3, [r3, #42]	; 0x2a
 8002038:	b29b      	uxth	r3, r3
 800203a:	2b00      	cmp	r3, #0
 800203c:	d19a      	bne.n	8001f74 <HAL_I2C_Mem_Read+0x110>
 800203e:	697a      	ldr	r2, [r7, #20]
 8002040:	6ab9      	ldr	r1, [r7, #40]	; 0x28
 8002042:	68f8      	ldr	r0, [r7, #12]
 8002044:	f000 fe89 	bl	8002d5a <I2C_WaitOnSTOPFlagUntilTimeout>
 8002048:	4603      	mov	r3, r0
 800204a:	2b00      	cmp	r3, #0
 800204c:	d001      	beq.n	8002052 <HAL_I2C_Mem_Read+0x1ee>
 800204e:	2301      	movs	r3, #1
 8002050:	e01a      	b.n	8002088 <HAL_I2C_Mem_Read+0x224>
 8002052:	68fb      	ldr	r3, [r7, #12]
 8002054:	681b      	ldr	r3, [r3, #0]
 8002056:	2220      	movs	r2, #32
 8002058:	61da      	str	r2, [r3, #28]
 800205a:	68fb      	ldr	r3, [r7, #12]
 800205c:	681b      	ldr	r3, [r3, #0]
 800205e:	6859      	ldr	r1, [r3, #4]
 8002060:	68fb      	ldr	r3, [r7, #12]
 8002062:	681a      	ldr	r2, [r3, #0]
 8002064:	4b0b      	ldr	r3, [pc, #44]	; (8002094 <HAL_I2C_Mem_Read+0x230>)
 8002066:	400b      	ands	r3, r1
 8002068:	6053      	str	r3, [r2, #4]
 800206a:	68fb      	ldr	r3, [r7, #12]
 800206c:	2220      	movs	r2, #32
 800206e:	f883 2041 	strb.w	r2, [r3, #65]	; 0x41
 8002072:	68fb      	ldr	r3, [r7, #12]
 8002074:	2200      	movs	r2, #0
 8002076:	f883 2042 	strb.w	r2, [r3, #66]	; 0x42
 800207a:	68fb      	ldr	r3, [r7, #12]
 800207c:	2200      	movs	r2, #0
 800207e:	f883 2040 	strb.w	r2, [r3, #64]	; 0x40
 8002082:	2300      	movs	r3, #0
 8002084:	e000      	b.n	8002088 <HAL_I2C_Mem_Read+0x224>
 8002086:	2302      	movs	r3, #2
 8002088:	4618      	mov	r0, r3
 800208a:	3718      	adds	r7, #24
 800208c:	46bd      	mov	sp, r7
 800208e:	bd80      	pop	{r7, pc}
 8002090:	80002400 	.word	0x80002400
 8002094:	fe00e800 	.word	0xfe00e800

08002098 <HAL_I2C_EV_IRQHandler>:
 8002098:	b580      	push	{r7, lr}
 800209a:	b084      	sub	sp, #16
 800209c:	af00      	add	r7, sp, #0
 800209e:	6078      	str	r0, [r7, #4]
 80020a0:	687b      	ldr	r3, [r7, #4]
 80020a2:	681b      	ldr	r3, [r3, #0]
 80020a4:	699b      	ldr	r3, [r3, #24]
 80020a6:	60fb      	str	r3, [r7, #12]
 80020a8:	687b      	ldr	r3, [r7, #4]
 80020aa:	681b      	ldr	r3, [r3, #0]
 80020ac:	681b      	ldr	r3, [r3, #0]
 80020ae:	60bb      	str	r3, [r7, #8]
 80020b0:	687b      	ldr	r3, [r7, #4]
 80020b2:	6b5b      	ldr	r3, [r3, #52]	; 0x34
 80020b4:	2b00      	cmp	r3, #0
 80020b6:	d005      	beq.n	80020c4 <HAL_I2C_EV_IRQHandler+0x2c>
 80020b8:	687b      	ldr	r3, [r7, #4]
 80020ba:	6b5b      	ldr	r3, [r3, #52]	; 0x34
 80020bc:	68ba      	ldr	r2, [r7, #8]
 80020be:	68f9      	ldr	r1, [r7, #12]
 80020c0:	6878      	ldr	r0, [r7, #4]
 80020c2:	4798      	blx	r3
 80020c4:	bf00      	nop
 80020c6:	3710      	adds	r7, #16
 80020c8:	46bd      	mov	sp, r7
 80020ca:	bd80      	pop	{r7, pc}

080020cc <HAL_I2C_ER_IRQHandler>:
 80020cc:	b580      	push	{r7, lr}
 80020ce:	b086      	sub	sp, #24
 80020d0:	af00      	add	r7, sp, #0
 80020d2:	6078      	str	r0, [r7, #4]
 80020d4:	687b      	ldr	r3, [r7, #4]
 80020d6:	681b      	ldr	r3, [r3, #0]
 80020d8:	699b      	ldr	r3, [r3, #24]
 80020da:	617b      	str	r3, [r7, #20]
 80020dc:	687b      	ldr	r3, [r7, #4]
 80020de:	681b      	ldr	r3, [r3, #0]
 80020e0:	681b      	ldr	r3, [r3, #0]
 80020e2:	613b      	str	r3, [r7, #16]
 80020e4:	697b      	ldr	r3, [r7, #20]
 80020e6:	0a1b      	lsrs	r3, r3, #8
 80020e8:	f003 0301 	and.w	r3, r3, #1
 80020ec:	2b00      	cmp	r3, #0
 80020ee:	d010      	beq.n	8002112 <HAL_I2C_ER_IRQHandler+0x46>
 80020f0:	693b      	ldr	r3, [r7, #16]
 80020f2:	09db      	lsrs	r3, r3, #7
 80020f4:	f003 0301 	and.w	r3, r3, #1
 80020f8:	2b00      	cmp	r3, #0
 80020fa:	d00a      	beq.n	8002112 <HAL_I2C_ER_IRQHandler+0x46>
 80020fc:	687b      	ldr	r3, [r7, #4]
 80020fe:	6c5b      	ldr	r3, [r3, #68]	; 0x44
 8002100:	f043 0201 	orr.w	r2, r3, #1
 8002104:	687b      	ldr	r3, [r7, #4]
 8002106:	645a      	str	r2, [r3, #68]	; 0x44
 8002108:	687b      	ldr	r3, [r7, #4]
 800210a:	681b      	ldr	r3, [r3, #0]
 800210c:	f44f 7280 	mov.w	r2, #256	; 0x100
 8002110:	61da      	str	r2, [r3, #28]
 8002112:	697b      	ldr	r3, [r7, #20]
 8002114:	0a9b      	lsrs	r3, r3, #10
 8002116:	f003 0301 	and.w	r3, r3, #1
 800211a:	2b00      	cmp	r3, #0
 800211c:	d010      	beq.n	8002140 <HAL_I2C_ER_IRQHandler+0x74>
 800211e:	693b      	ldr	r3, [r7, #16]
 8002120:	09db      	lsrs	r3, r3, #7
 8002122:	f003 0301 	and.w	r3, r3, #1
 8002126:	2b00      	cmp	r3, #0
 8002128:	d00a      	beq.n	8002140 <HAL_I2C_ER_IRQHandler+0x74>
 800212a:	687b      	ldr	r3, [r7, #4]
 800212c:	6c5b      	ldr	r3, [r3, #68]	; 0x44
 800212e:	f043 0208 	orr.w	r2, r3, #8
 8002132:	687b      	ldr	r3, [r7, #4]
 8002134:	645a      	str	r2, [r3, #68]	; 0x44
 8002136:	687b      	ldr	r3, [r7, #4]
 8002138:	681b      	ldr	r3, [r3, #0]
 800213a:	f44f 6280 	mov.w	r2, #1024	; 0x400
 800213e:	61da      	str	r2, [r3, #28]
 8002140:	697b      	ldr	r3, [r7, #20]
 8002142:	0a5b      	lsrs	r3, r3, #9
 8002144:	f003 0301 	and.w	r3, r3, #1
 8002148:	2b00      	cmp	r3, #0
 800214a:	d010      	beq.n	800216e <HAL_I2C_ER_IRQHandler+0xa2>
 800214c:	693b      	ldr	r3, [r7, #16]
 800214e:	09db      	lsrs	r3, r3, #7
 8002150:	f003 0301 	and.w	r3, r3, #1
 8002154:	2b00      	cmp	r3, #0
 8002156:	d00a      	beq.n	800216e <HAL_I2C_ER_IRQHandler+0xa2>
 8002158:	687b      	ldr	r3, [r7, #4]
 800215a:	6c5b      	ldr	r3, [r3, #68]	; 0x44
 800215c:	f043 0202 	orr.w	r2, r3, #2
 8002160:	687b      	ldr	r3, [r7, #4]
 8002162:	645a      	str	r2, [r3, #68]	; 0x44
 8002164:	687b      	ldr	r3, [r7, #4]
 8002166:	681b      	ldr	r3, [r3, #0]
 8002168:	f44f 7200 	mov.w	r2, #512	; 0x200
 800216c:	61da      	str	r2, [r3, #28]
 800216e:	687b      	ldr	r3, [r7, #4]
 8002170:	6c5b      	ldr	r3, [r3, #68]	; 0x44
 8002172:	60fb      	str	r3, [r7, #12]
 8002174:	68fb      	ldr	r3, [r7, #12]
 8002176:	f003 030b 	and.w	r3, r3, #11
 800217a:	2b00      	cmp	r3, #0
 800217c:	d003      	beq.n	8002186 <HAL_I2C_ER_IRQHandler+0xba>
 800217e:	68f9      	ldr	r1, [r7, #12]
 8002180:	6878      	ldr	r0, [r7, #4]
 8002182:	f000 fc31 	bl	80029e8 <I2C_ITError>
 8002186:	bf00      	nop
 8002188:	3718      	adds	r7, #24
 800218a:	46bd      	mov	sp, r7
 800218c:	bd80      	pop	{r7, pc}

0800218e <HAL_I2C_SlaveTxCpltCallback>:
 800218e:	b480      	push	{r7}
 8002190:	b083      	sub	sp, #12
 8002192:	af00      	add	r7, sp, #0
 8002194:	6078      	str	r0, [r7, #4]
 8002196:	bf00      	nop
 8002198:	370c      	adds	r7, #12
 800219a:	46bd      	mov	sp, r7
 800219c:	f85d 7b04 	ldr.w	r7, [sp], #4
 80021a0:	4770      	bx	lr

080021a2 <HAL_I2C_SlaveRxCpltCallback>:
 80021a2:	b480      	push	{r7}
 80021a4:	b083      	sub	sp, #12
 80021a6:	af00      	add	r7, sp, #0
 80021a8:	6078      	str	r0, [r7, #4]
 80021aa:	bf00      	nop
 80021ac:	370c      	adds	r7, #12
 80021ae:	46bd      	mov	sp, r7
 80021b0:	f85d 7b04 	ldr.w	r7, [sp], #4
 80021b4:	4770      	bx	lr

080021b6 <HAL_I2C_AddrCallback>:
 80021b6:	b480      	push	{r7}
 80021b8:	b083      	sub	sp, #12
 80021ba:	af00      	add	r7, sp, #0
 80021bc:	6078      	str	r0, [r7, #4]
 80021be:	460b      	mov	r3, r1
 80021c0:	70fb      	strb	r3, [r7, #3]
 80021c2:	4613      	mov	r3, r2
 80021c4:	803b      	strh	r3, [r7, #0]
 80021c6:	bf00      	nop
 80021c8:	370c      	adds	r7, #12
 80021ca:	46bd      	mov	sp, r7
 80021cc:	f85d 7b04 	ldr.w	r7, [sp], #4
 80021d0:	4770      	bx	lr

080021d2 <HAL_I2C_ListenCpltCallback>:
 80021d2:	b480      	push	{r7}
 80021d4:	b083      	sub	sp, #12
 80021d6:	af00      	add	r7, sp, #0
 80021d8:	6078      	str	r0, [r7, #4]
 80021da:	bf00      	nop
 80021dc:	370c      	adds	r7, #12
 80021de:	46bd      	mov	sp, r7
 80021e0:	f85d 7b04 	ldr.w	r7, [sp], #4
 80021e4:	4770      	bx	lr

080021e6 <HAL_I2C_ErrorCallback>:
 80021e6:	b480      	push	{r7}
 80021e8:	b083      	sub	sp, #12
 80021ea:	af00      	add	r7, sp, #0
 80021ec:	6078      	str	r0, [r7, #4]
 80021ee:	bf00      	nop
 80021f0:	370c      	adds	r7, #12
 80021f2:	46bd      	mov	sp, r7
 80021f4:	f85d 7b04 	ldr.w	r7, [sp], #4
 80021f8:	4770      	bx	lr

080021fa <HAL_I2C_AbortCpltCallback>:
 80021fa:	b480      	push	{r7}
 80021fc:	b083      	sub	sp, #12
 80021fe:	af00      	add	r7, sp, #0
 8002200:	6078      	str	r0, [r7, #4]
 8002202:	bf00      	nop
 8002204:	370c      	adds	r7, #12
 8002206:	46bd      	mov	sp, r7
 8002208:	f85d 7b04 	ldr.w	r7, [sp], #4
 800220c:	4770      	bx	lr

0800220e <I2C_Slave_ISR_IT>:
 800220e:	b580      	push	{r7, lr}
 8002210:	b086      	sub	sp, #24
 8002212:	af00      	add	r7, sp, #0
 8002214:	60f8      	str	r0, [r7, #12]
 8002216:	60b9      	str	r1, [r7, #8]
 8002218:	607a      	str	r2, [r7, #4]
 800221a:	68fb      	ldr	r3, [r7, #12]
 800221c:	6adb      	ldr	r3, [r3, #44]	; 0x2c
 800221e:	617b      	str	r3, [r7, #20]
 8002220:	68bb      	ldr	r3, [r7, #8]
 8002222:	613b      	str	r3, [r7, #16]
 8002224:	68fb      	ldr	r3, [r7, #12]
 8002226:	f893 3040 	ldrb.w	r3, [r3, #64]	; 0x40
 800222a:	2b01      	cmp	r3, #1
 800222c:	d101      	bne.n	8002232 <I2C_Slave_ISR_IT+0x24>
 800222e:	2302      	movs	r3, #2
 8002230:	e0ec      	b.n	800240c <I2C_Slave_ISR_IT+0x1fe>
 8002232:	68fb      	ldr	r3, [r7, #12]
 8002234:	2201      	movs	r2, #1
 8002236:	f883 2040 	strb.w	r2, [r3, #64]	; 0x40
 800223a:	693b      	ldr	r3, [r7, #16]
 800223c:	095b      	lsrs	r3, r3, #5
 800223e:	f003 0301 	and.w	r3, r3, #1
 8002242:	2b00      	cmp	r3, #0
 8002244:	d009      	beq.n	800225a <I2C_Slave_ISR_IT+0x4c>
 8002246:	687b      	ldr	r3, [r7, #4]
 8002248:	095b      	lsrs	r3, r3, #5
 800224a:	f003 0301 	and.w	r3, r3, #1
 800224e:	2b00      	cmp	r3, #0
 8002250:	d003      	beq.n	800225a <I2C_Slave_ISR_IT+0x4c>
 8002252:	6939      	ldr	r1, [r7, #16]
 8002254:	68f8      	ldr	r0, [r7, #12]
 8002256:	f000 fa67 	bl	8002728 <I2C_ITSlaveCplt>
 800225a:	693b      	ldr	r3, [r7, #16]
 800225c:	091b      	lsrs	r3, r3, #4
 800225e:	f003 0301 	and.w	r3, r3, #1
 8002262:	2b00      	cmp	r3, #0
 8002264:	d04d      	beq.n	8002302 <I2C_Slave_ISR_IT+0xf4>
 8002266:	687b      	ldr	r3, [r7, #4]
 8002268:	091b      	lsrs	r3, r3, #4
 800226a:	f003 0301 	and.w	r3, r3, #1
 800226e:	2b00      	cmp	r3, #0
 8002270:	d047      	beq.n	8002302 <I2C_Slave_ISR_IT+0xf4>
 8002272:	68fb      	ldr	r3, [r7, #12]
 8002274:	8d5b      	ldrh	r3, [r3, #42]	; 0x2a
 8002276:	b29b      	uxth	r3, r3
 8002278:	2b00      	cmp	r3, #0
 800227a:	d128      	bne.n	80022ce <I2C_Slave_ISR_IT+0xc0>
 800227c:	68fb      	ldr	r3, [r7, #12]
 800227e:	f893 3041 	ldrb.w	r3, [r3, #65]	; 0x41
 8002282:	b2db      	uxtb	r3, r3
 8002284:	2b28      	cmp	r3, #40	; 0x28
 8002286:	d108      	bne.n	800229a <I2C_Slave_ISR_IT+0x8c>
 8002288:	697b      	ldr	r3, [r7, #20]
 800228a:	f1b3 7f00 	cmp.w	r3, #33554432	; 0x2000000
 800228e:	d104      	bne.n	800229a <I2C_Slave_ISR_IT+0x8c>
 8002290:	6939      	ldr	r1, [r7, #16]
 8002292:	68f8      	ldr	r0, [r7, #12]
 8002294:	f000 fb52 	bl	800293c <I2C_ITListenCplt>
 8002298:	e032      	b.n	8002300 <I2C_Slave_ISR_IT+0xf2>
 800229a:	68fb      	ldr	r3, [r7, #12]
 800229c:	f893 3041 	ldrb.w	r3, [r3, #65]	; 0x41
 80022a0:	b2db      	uxtb	r3, r3
 80022a2:	2b29      	cmp	r3, #41	; 0x29
 80022a4:	d10e      	bne.n	80022c4 <I2C_Slave_ISR_IT+0xb6>
 80022a6:	697b      	ldr	r3, [r7, #20]
 80022a8:	f513 3f80 	cmn.w	r3, #65536	; 0x10000
 80022ac:	d00a      	beq.n	80022c4 <I2C_Slave_ISR_IT+0xb6>
 80022ae:	68fb      	ldr	r3, [r7, #12]
 80022b0:	681b      	ldr	r3, [r3, #0]
 80022b2:	2210      	movs	r2, #16
 80022b4:	61da      	str	r2, [r3, #28]
 80022b6:	68f8      	ldr	r0, [r7, #12]
 80022b8:	f000 fc8d 	bl	8002bd6 <I2C_Flush_TXDR>
 80022bc:	68f8      	ldr	r0, [r7, #12]
 80022be:	f000 f9d5 	bl	800266c <I2C_ITSlaveSeqCplt>
 80022c2:	e01d      	b.n	8002300 <I2C_Slave_ISR_IT+0xf2>
 80022c4:	68fb      	ldr	r3, [r7, #12]
 80022c6:	681b      	ldr	r3, [r3, #0]
 80022c8:	2210      	movs	r2, #16
 80022ca:	61da      	str	r2, [r3, #28]
 80022cc:	e096      	b.n	80023fc <I2C_Slave_ISR_IT+0x1ee>
 80022ce:	68fb      	ldr	r3, [r7, #12]
 80022d0:	681b      	ldr	r3, [r3, #0]
 80022d2:	2210      	movs	r2, #16
 80022d4:	61da      	str	r2, [r3, #28]
 80022d6:	68fb      	ldr	r3, [r7, #12]
 80022d8:	6c5b      	ldr	r3, [r3, #68]	; 0x44
 80022da:	f043 0204 	orr.w	r2, r3, #4
 80022de:	68fb      	ldr	r3, [r7, #12]
 80022e0:	645a      	str	r2, [r3, #68]	; 0x44
 80022e2:	697b      	ldr	r3, [r7, #20]
 80022e4:	2b00      	cmp	r3, #0
 80022e6:	d004      	beq.n	80022f2 <I2C_Slave_ISR_IT+0xe4>
 80022e8:	697b      	ldr	r3, [r7, #20]
 80022ea:	f1b3 7f80 	cmp.w	r3, #16777216	; 0x1000000
 80022ee:	f040 8085 	bne.w	80023fc <I2C_Slave_ISR_IT+0x1ee>
 80022f2:	68fb      	ldr	r3, [r7, #12]
 80022f4:	6c5b      	ldr	r3, [r3, #68]	; 0x44
 80022f6:	4619      	mov	r1, r3
 80022f8:	68f8      	ldr	r0, [r7, #12]
 80022fa:	f000 fb75 	bl	80029e8 <I2C_ITError>
 80022fe:	e07d      	b.n	80023fc <I2C_Slave_ISR_IT+0x1ee>
 8002300:	e07c      	b.n	80023fc <I2C_Slave_ISR_IT+0x1ee>
 8002302:	693b      	ldr	r3, [r7, #16]
 8002304:	089b      	lsrs	r3, r3, #2
 8002306:	f003 0301 	and.w	r3, r3, #1
 800230a:	2b00      	cmp	r3, #0
 800230c:	d030      	beq.n	8002370 <I2C_Slave_ISR_IT+0x162>
 800230e:	687b      	ldr	r3, [r7, #4]
 8002310:	089b      	lsrs	r3, r3, #2
 8002312:	f003 0301 	and.w	r3, r3, #1
 8002316:	2b00      	cmp	r3, #0
 8002318:	d02a      	beq.n	8002370 <I2C_Slave_ISR_IT+0x162>
 800231a:	68fb      	ldr	r3, [r7, #12]
 800231c:	8d5b      	ldrh	r3, [r3, #42]	; 0x2a
 800231e:	b29b      	uxth	r3, r3
 8002320:	2b00      	cmp	r3, #0
 8002322:	d018      	beq.n	8002356 <I2C_Slave_ISR_IT+0x148>
 8002324:	68fb      	ldr	r3, [r7, #12]
 8002326:	681b      	ldr	r3, [r3, #0]
 8002328:	6a5a      	ldr	r2, [r3, #36]	; 0x24
 800232a:	68fb      	ldr	r3, [r7, #12]
 800232c:	6a5b      	ldr	r3, [r3, #36]	; 0x24
 800232e:	b2d2      	uxtb	r2, r2
 8002330:	701a      	strb	r2, [r3, #0]
 8002332:	68fb      	ldr	r3, [r7, #12]
 8002334:	6a5b      	ldr	r3, [r3, #36]	; 0x24
 8002336:	1c5a      	adds	r2, r3, #1
 8002338:	68fb      	ldr	r3, [r7, #12]
 800233a:	625a      	str	r2, [r3, #36]	; 0x24
 800233c:	68fb      	ldr	r3, [r7, #12]
 800233e:	8d1b      	ldrh	r3, [r3, #40]	; 0x28
 8002340:	3b01      	subs	r3, #1
 8002342:	b29a      	uxth	r2, r3
 8002344:	68fb      	ldr	r3, [r7, #12]
 8002346:	851a      	strh	r2, [r3, #40]	; 0x28
 8002348:	68fb      	ldr	r3, [r7, #12]
 800234a:	8d5b      	ldrh	r3, [r3, #42]	; 0x2a
 800234c:	b29b      	uxth	r3, r3
 800234e:	3b01      	subs	r3, #1
 8002350:	b29a      	uxth	r2, r3
 8002352:	68fb      	ldr	r3, [r7, #12]
 8002354:	855a      	strh	r2, [r3, #42]	; 0x2a
 8002356:	68fb      	ldr	r3, [r7, #12]
 8002358:	8d5b      	ldrh	r3, [r3, #42]	; 0x2a
 800235a:	b29b      	uxth	r3, r3
 800235c:	2b00      	cmp	r3, #0
 800235e:	d14f      	bne.n	8002400 <I2C_Slave_ISR_IT+0x1f2>
 8002360:	697b      	ldr	r3, [r7, #20]
 8002362:	f513 3f80 	cmn.w	r3, #65536	; 0x10000
 8002366:	d04b      	beq.n	8002400 <I2C_Slave_ISR_IT+0x1f2>
 8002368:	68f8      	ldr	r0, [r7, #12]
 800236a:	f000 f97f 	bl	800266c <I2C_ITSlaveSeqCplt>
 800236e:	e047      	b.n	8002400 <I2C_Slave_ISR_IT+0x1f2>
 8002370:	693b      	ldr	r3, [r7, #16]
 8002372:	08db      	lsrs	r3, r3, #3
 8002374:	f003 0301 	and.w	r3, r3, #1
 8002378:	2b00      	cmp	r3, #0
 800237a:	d00a      	beq.n	8002392 <I2C_Slave_ISR_IT+0x184>
 800237c:	687b      	ldr	r3, [r7, #4]
 800237e:	08db      	lsrs	r3, r3, #3
 8002380:	f003 0301 	and.w	r3, r3, #1
 8002384:	2b00      	cmp	r3, #0
 8002386:	d004      	beq.n	8002392 <I2C_Slave_ISR_IT+0x184>
 8002388:	6939      	ldr	r1, [r7, #16]
 800238a:	68f8      	ldr	r0, [r7, #12]
 800238c:	f000 f8ea 	bl	8002564 <I2C_ITAddrCplt>
 8002390:	e037      	b.n	8002402 <I2C_Slave_ISR_IT+0x1f4>
 8002392:	693b      	ldr	r3, [r7, #16]
 8002394:	085b      	lsrs	r3, r3, #1
 8002396:	f003 0301 	and.w	r3, r3, #1
 800239a:	2b00      	cmp	r3, #0
 800239c:	d031      	beq.n	8002402 <I2C_Slave_ISR_IT+0x1f4>
 800239e:	687b      	ldr	r3, [r7, #4]
 80023a0:	085b      	lsrs	r3, r3, #1
 80023a2:	f003 0301 	and.w	r3, r3, #1
 80023a6:	2b00      	cmp	r3, #0
 80023a8:	d02b      	beq.n	8002402 <I2C_Slave_ISR_IT+0x1f4>
 80023aa:	68fb      	ldr	r3, [r7, #12]
 80023ac:	8d5b      	ldrh	r3, [r3, #42]	; 0x2a
 80023ae:	b29b      	uxth	r3, r3
 80023b0:	2b00      	cmp	r3, #0
 80023b2:	d018      	beq.n	80023e6 <I2C_Slave_ISR_IT+0x1d8>
 80023b4:	68fb      	ldr	r3, [r7, #12]
 80023b6:	6a5b      	ldr	r3, [r3, #36]	; 0x24
 80023b8:	781a      	ldrb	r2, [r3, #0]
 80023ba:	68fb      	ldr	r3, [r7, #12]
 80023bc:	681b      	ldr	r3, [r3, #0]
 80023be:	629a      	str	r2, [r3, #40]	; 0x28
 80023c0:	68fb      	ldr	r3, [r7, #12]
 80023c2:	6a5b      	ldr	r3, [r3, #36]	; 0x24
 80023c4:	1c5a      	adds	r2, r3, #1
 80023c6:	68fb      	ldr	r3, [r7, #12]
 80023c8:	625a      	str	r2, [r3, #36]	; 0x24
 80023ca:	68fb      	ldr	r3, [r7, #12]
 80023cc:	8d5b      	ldrh	r3, [r3, #42]	; 0x2a
 80023ce:	b29b      	uxth	r3, r3
 80023d0:	3b01      	subs	r3, #1
 80023d2:	b29a      	uxth	r2, r3
 80023d4:	68fb      	ldr	r3, [r7, #12]
 80023d6:	855a      	strh	r2, [r3, #42]	; 0x2a
 80023d8:	68fb      	ldr	r3, [r7, #12]
 80023da:	8d1b      	ldrh	r3, [r3, #40]	; 0x28
 80023dc:	3b01      	subs	r3, #1
 80023de:	b29a      	uxth	r2, r3
 80023e0:	68fb      	ldr	r3, [r7, #12]
 80023e2:	851a      	strh	r2, [r3, #40]	; 0x28
 80023e4:	e00d      	b.n	8002402 <I2C_Slave_ISR_IT+0x1f4>
 80023e6:	697b      	ldr	r3, [r7, #20]
 80023e8:	f1b3 7f80 	cmp.w	r3, #16777216	; 0x1000000
 80023ec:	d002      	beq.n	80023f4 <I2C_Slave_ISR_IT+0x1e6>
 80023ee:	697b      	ldr	r3, [r7, #20]
 80023f0:	2b00      	cmp	r3, #0
 80023f2:	d106      	bne.n	8002402 <I2C_Slave_ISR_IT+0x1f4>
 80023f4:	68f8      	ldr	r0, [r7, #12]
 80023f6:	f000 f939 	bl	800266c <I2C_ITSlaveSeqCplt>
 80023fa:	e002      	b.n	8002402 <I2C_Slave_ISR_IT+0x1f4>
 80023fc:	bf00      	nop
 80023fe:	e000      	b.n	8002402 <I2C_Slave_ISR_IT+0x1f4>
 8002400:	bf00      	nop
 8002402:	68fb      	ldr	r3, [r7, #12]
 8002404:	2200      	movs	r2, #0
 8002406:	f883 2040 	strb.w	r2, [r3, #64]	; 0x40
 800240a:	2300      	movs	r3, #0
 800240c:	4618      	mov	r0, r3
 800240e:	3718      	adds	r7, #24
 8002410:	46bd      	mov	sp, r7
 8002412:	bd80      	pop	{r7, pc}

08002414 <I2C_RequestMemoryWrite>:
 8002414:	b580      	push	{r7, lr}
 8002416:	b086      	sub	sp, #24
 8002418:	af02      	add	r7, sp, #8
 800241a:	60f8      	str	r0, [r7, #12]
 800241c:	4608      	mov	r0, r1
 800241e:	4611      	mov	r1, r2
 8002420:	461a      	mov	r2, r3
 8002422:	4603      	mov	r3, r0
 8002424:	817b      	strh	r3, [r7, #10]
 8002426:	460b      	mov	r3, r1
 8002428:	813b      	strh	r3, [r7, #8]
 800242a:	4613      	mov	r3, r2
 800242c:	80fb      	strh	r3, [r7, #6]
 800242e:	88fb      	ldrh	r3, [r7, #6]
 8002430:	b2da      	uxtb	r2, r3
 8002432:	8979      	ldrh	r1, [r7, #10]
 8002434:	4b20      	ldr	r3, [pc, #128]	; (80024b8 <I2C_RequestMemoryWrite+0xa4>)
 8002436:	9300      	str	r3, [sp, #0]
 8002438:	f04f 7380 	mov.w	r3, #16777216	; 0x1000000
 800243c:	68f8      	ldr	r0, [r7, #12]
 800243e:	f000 fd2f 	bl	8002ea0 <I2C_TransferConfig>
 8002442:	69fa      	ldr	r2, [r7, #28]
 8002444:	69b9      	ldr	r1, [r7, #24]
 8002446:	68f8      	ldr	r0, [r7, #12]
 8002448:	f000 fc47 	bl	8002cda <I2C_WaitOnTXISFlagUntilTimeout>
 800244c:	4603      	mov	r3, r0
 800244e:	2b00      	cmp	r3, #0
 8002450:	d001      	beq.n	8002456 <I2C_RequestMemoryWrite+0x42>
 8002452:	2301      	movs	r3, #1
 8002454:	e02c      	b.n	80024b0 <I2C_RequestMemoryWrite+0x9c>
 8002456:	88fb      	ldrh	r3, [r7, #6]
 8002458:	2b01      	cmp	r3, #1
 800245a:	d105      	bne.n	8002468 <I2C_RequestMemoryWrite+0x54>
 800245c:	893b      	ldrh	r3, [r7, #8]
 800245e:	b2da      	uxtb	r2, r3
 8002460:	68fb      	ldr	r3, [r7, #12]
 8002462:	681b      	ldr	r3, [r3, #0]
 8002464:	629a      	str	r2, [r3, #40]	; 0x28
 8002466:	e015      	b.n	8002494 <I2C_RequestMemoryWrite+0x80>
 8002468:	893b      	ldrh	r3, [r7, #8]
 800246a:	0a1b      	lsrs	r3, r3, #8
 800246c:	b29b      	uxth	r3, r3
 800246e:	b2da      	uxtb	r2, r3
 8002470:	68fb      	ldr	r3, [r7, #12]
 8002472:	681b      	ldr	r3, [r3, #0]
 8002474:	629a      	str	r2, [r3, #40]	; 0x28
 8002476:	69fa      	ldr	r2, [r7, #28]
 8002478:	69b9      	ldr	r1, [r7, #24]
 800247a:	68f8      	ldr	r0, [r7, #12]
 800247c:	f000 fc2d 	bl	8002cda <I2C_WaitOnTXISFlagUntilTimeout>
 8002480:	4603      	mov	r3, r0
 8002482:	2b00      	cmp	r3, #0
 8002484:	d001      	beq.n	800248a <I2C_RequestMemoryWrite+0x76>
 8002486:	2301      	movs	r3, #1
 8002488:	e012      	b.n	80024b0 <I2C_RequestMemoryWrite+0x9c>
 800248a:	893b      	ldrh	r3, [r7, #8]
 800248c:	b2da      	uxtb	r2, r3
 800248e:	68fb      	ldr	r3, [r7, #12]
 8002490:	681b      	ldr	r3, [r3, #0]
 8002492:	629a      	str	r2, [r3, #40]	; 0x28
 8002494:	69fb      	ldr	r3, [r7, #28]
 8002496:	9300      	str	r3, [sp, #0]
 8002498:	69bb      	ldr	r3, [r7, #24]
 800249a:	2200      	movs	r2, #0
 800249c:	2180      	movs	r1, #128	; 0x80
 800249e:	68f8      	ldr	r0, [r7, #12]
 80024a0:	f000 fbdb 	bl	8002c5a <I2C_WaitOnFlagUntilTimeout>
 80024a4:	4603      	mov	r3, r0
 80024a6:	2b00      	cmp	r3, #0
 80024a8:	d001      	beq.n	80024ae <I2C_RequestMemoryWrite+0x9a>
 80024aa:	2301      	movs	r3, #1
 80024ac:	e000      	b.n	80024b0 <I2C_RequestMemoryWrite+0x9c>
 80024ae:	2300      	movs	r3, #0
 80024b0:	4618      	mov	r0, r3
 80024b2:	3710      	adds	r7, #16
 80024b4:	46bd      	mov	sp, r7
 80024b6:	bd80      	pop	{r7, pc}
 80024b8:	80002000 	.word	0x80002000

080024bc <I2C_RequestMemoryRead>:
 80024bc:	b580      	push	{r7, lr}
 80024be:	b086      	sub	sp, #24
 80024c0:	af02      	add	r7, sp, #8
 80024c2:	60f8      	str	r0, [r7, #12]
 80024c4:	4608      	mov	r0, r1
 80024c6:	4611      	mov	r1, r2
 80024c8:	461a      	mov	r2, r3
 80024ca:	4603      	mov	r3, r0
 80024cc:	817b      	strh	r3, [r7, #10]
 80024ce:	460b      	mov	r3, r1
 80024d0:	813b      	strh	r3, [r7, #8]
 80024d2:	4613      	mov	r3, r2
 80024d4:	80fb      	strh	r3, [r7, #6]
 80024d6:	88fb      	ldrh	r3, [r7, #6]
 80024d8:	b2da      	uxtb	r2, r3
 80024da:	8979      	ldrh	r1, [r7, #10]
 80024dc:	4b20      	ldr	r3, [pc, #128]	; (8002560 <I2C_RequestMemoryRead+0xa4>)
 80024de:	9300      	str	r3, [sp, #0]
 80024e0:	2300      	movs	r3, #0
 80024e2:	68f8      	ldr	r0, [r7, #12]
 80024e4:	f000 fcdc 	bl	8002ea0 <I2C_TransferConfig>
 80024e8:	69fa      	ldr	r2, [r7, #28]
 80024ea:	69b9      	ldr	r1, [r7, #24]
 80024ec:	68f8      	ldr	r0, [r7, #12]
 80024ee:	f000 fbf4 	bl	8002cda <I2C_WaitOnTXISFlagUntilTimeout>
 80024f2:	4603      	mov	r3, r0
 80024f4:	2b00      	cmp	r3, #0
 80024f6:	d001      	beq.n	80024fc <I2C_RequestMemoryRead+0x40>
 80024f8:	2301      	movs	r3, #1
 80024fa:	e02c      	b.n	8002556 <I2C_RequestMemoryRead+0x9a>
 80024fc:	88fb      	ldrh	r3, [r7, #6]
 80024fe:	2b01      	cmp	r3, #1
 8002500:	d105      	bne.n	800250e <I2C_RequestMemoryRead+0x52>
 8002502:	893b      	ldrh	r3, [r7, #8]
 8002504:	b2da      	uxtb	r2, r3
 8002506:	68fb      	ldr	r3, [r7, #12]
 8002508:	681b      	ldr	r3, [r3, #0]
 800250a:	629a      	str	r2, [r3, #40]	; 0x28
 800250c:	e015      	b.n	800253a <I2C_RequestMemoryRead+0x7e>
 800250e:	893b      	ldrh	r3, [r7, #8]
 8002510:	0a1b      	lsrs	r3, r3, #8
 8002512:	b29b      	uxth	r3, r3
 8002514:	b2da      	uxtb	r2, r3
 8002516:	68fb      	ldr	r3, [r7, #12]
 8002518:	681b      	ldr	r3, [r3, #0]
 800251a:	629a      	str	r2, [r3, #40]	; 0x28
 800251c:	69fa      	ldr	r2, [r7, #28]
 800251e:	69b9      	ldr	r1, [r7, #24]
 8002520:	68f8      	ldr	r0, [r7, #12]
 8002522:	f000 fbda 	bl	8002cda <I2C_WaitOnTXISFlagUntilTimeout>
 8002526:	4603      	mov	r3, r0
 8002528:	2b00      	cmp	r3, #0
 800252a:	d001      	beq.n	8002530 <I2C_RequestMemoryRead+0x74>
 800252c:	2301      	movs	r3, #1
 800252e:	e012      	b.n	8002556 <I2C_RequestMemoryRead+0x9a>
 8002530:	893b      	ldrh	r3, [r7, #8]
 8002532:	b2da      	uxtb	r2, r3
 8002534:	68fb      	ldr	r3, [r7, #12]
 8002536:	681b      	ldr	r3, [r3, #0]
 8002538:	629a      	str	r2, [r3, #40]	; 0x28
 800253a:	69fb      	ldr	r3, [r7, #28]
 800253c:	9300      	str	r3, [sp, #0]
 800253e:	69bb      	ldr	r3, [r7, #24]
 8002540:	2200      	movs	r2, #0
 8002542:	2140      	movs	r1, #64	; 0x40
 8002544:	68f8      	ldr	r0, [r7, #12]
 8002546:	f000 fb88 	bl	8002c5a <I2C_WaitOnFlagUntilTimeout>
 800254a:	4603      	mov	r3, r0
 800254c:	2b00      	cmp	r3, #0
 800254e:	d001      	beq.n	8002554 <I2C_RequestMemoryRead+0x98>
 8002550:	2301      	movs	r3, #1
 8002552:	e000      	b.n	8002556 <I2C_RequestMemoryRead+0x9a>
 8002554:	2300      	movs	r3, #0
 8002556:	4618      	mov	r0, r3
 8002558:	3710      	adds	r7, #16
 800255a:	46bd      	mov	sp, r7
 800255c:	bd80      	pop	{r7, pc}
 800255e:	bf00      	nop
 8002560:	80002000 	.word	0x80002000

08002564 <I2C_ITAddrCplt>:
 8002564:	b580      	push	{r7, lr}
 8002566:	b084      	sub	sp, #16
 8002568:	af00      	add	r7, sp, #0
 800256a:	6078      	str	r0, [r7, #4]
 800256c:	6039      	str	r1, [r7, #0]
 800256e:	687b      	ldr	r3, [r7, #4]
 8002570:	f893 3041 	ldrb.w	r3, [r3, #65]	; 0x41
 8002574:	b2db      	uxtb	r3, r3
 8002576:	f003 0328 	and.w	r3, r3, #40	; 0x28
 800257a:	2b28      	cmp	r3, #40	; 0x28
 800257c:	d16a      	bne.n	8002654 <I2C_ITAddrCplt+0xf0>
 800257e:	687b      	ldr	r3, [r7, #4]
 8002580:	681b      	ldr	r3, [r3, #0]
 8002582:	699b      	ldr	r3, [r3, #24]
 8002584:	0c1b      	lsrs	r3, r3, #16
 8002586:	b2db      	uxtb	r3, r3
 8002588:	f003 0301 	and.w	r3, r3, #1
 800258c:	73fb      	strb	r3, [r7, #15]
 800258e:	687b      	ldr	r3, [r7, #4]
 8002590:	681b      	ldr	r3, [r3, #0]
 8002592:	699b      	ldr	r3, [r3, #24]
 8002594:	0c1b      	lsrs	r3, r3, #16
 8002596:	b29b      	uxth	r3, r3
 8002598:	f003 03fe 	and.w	r3, r3, #254	; 0xfe
 800259c:	81bb      	strh	r3, [r7, #12]
 800259e:	687b      	ldr	r3, [r7, #4]
 80025a0:	681b      	ldr	r3, [r3, #0]
 80025a2:	689b      	ldr	r3, [r3, #8]
 80025a4:	b29b      	uxth	r3, r3
 80025a6:	f3c3 0309 	ubfx	r3, r3, #0, #10
 80025aa:	817b      	strh	r3, [r7, #10]
 80025ac:	687b      	ldr	r3, [r7, #4]
 80025ae:	681b      	ldr	r3, [r3, #0]
 80025b0:	68db      	ldr	r3, [r3, #12]
 80025b2:	b29b      	uxth	r3, r3
 80025b4:	f003 03fe 	and.w	r3, r3, #254	; 0xfe
 80025b8:	813b      	strh	r3, [r7, #8]
 80025ba:	687b      	ldr	r3, [r7, #4]
 80025bc:	68db      	ldr	r3, [r3, #12]
 80025be:	2b02      	cmp	r3, #2
 80025c0:	d138      	bne.n	8002634 <I2C_ITAddrCplt+0xd0>
 80025c2:	897b      	ldrh	r3, [r7, #10]
 80025c4:	09db      	lsrs	r3, r3, #7
 80025c6:	b29a      	uxth	r2, r3
 80025c8:	89bb      	ldrh	r3, [r7, #12]
 80025ca:	4053      	eors	r3, r2
 80025cc:	b29b      	uxth	r3, r3
 80025ce:	f003 0306 	and.w	r3, r3, #6
 80025d2:	2b00      	cmp	r3, #0
 80025d4:	d11c      	bne.n	8002610 <I2C_ITAddrCplt+0xac>
 80025d6:	897b      	ldrh	r3, [r7, #10]
 80025d8:	81bb      	strh	r3, [r7, #12]
 80025da:	687b      	ldr	r3, [r7, #4]
 80025dc:	6c9b      	ldr	r3, [r3, #72]	; 0x48
 80025de:	1c5a      	adds	r2, r3, #1
 80025e0:	687b      	ldr	r3, [r7, #4]
 80025e2:	649a      	str	r2, [r3, #72]	; 0x48
 80025e4:	687b      	ldr	r3, [r7, #4]
 80025e6:	6c9b      	ldr	r3, [r3, #72]	; 0x48
 80025e8:	2b02      	cmp	r3, #2
 80025ea:	d13b      	bne.n	8002664 <I2C_ITAddrCplt+0x100>
 80025ec:	687b      	ldr	r3, [r7, #4]
 80025ee:	2200      	movs	r2, #0
 80025f0:	649a      	str	r2, [r3, #72]	; 0x48
 80025f2:	687b      	ldr	r3, [r7, #4]
 80025f4:	681b      	ldr	r3, [r3, #0]
 80025f6:	2208      	movs	r2, #8
 80025f8:	61da      	str	r2, [r3, #28]
 80025fa:	687b      	ldr	r3, [r7, #4]
 80025fc:	2200      	movs	r2, #0
 80025fe:	f883 2040 	strb.w	r2, [r3, #64]	; 0x40
 8002602:	89ba      	ldrh	r2, [r7, #12]
 8002604:	7bfb      	ldrb	r3, [r7, #15]
 8002606:	4619      	mov	r1, r3
 8002608:	6878      	ldr	r0, [r7, #4]
 800260a:	f7ff fdd4 	bl	80021b6 <HAL_I2C_AddrCallback>
 800260e:	e029      	b.n	8002664 <I2C_ITAddrCplt+0x100>
 8002610:	893b      	ldrh	r3, [r7, #8]
 8002612:	81bb      	strh	r3, [r7, #12]
 8002614:	f44f 4100 	mov.w	r1, #32768	; 0x8000
 8002618:	6878      	ldr	r0, [r7, #4]
 800261a:	f000 fc6f 	bl	8002efc <I2C_Disable_IRQ>
 800261e:	687b      	ldr	r3, [r7, #4]
 8002620:	2200      	movs	r2, #0
 8002622:	f883 2040 	strb.w	r2, [r3, #64]	; 0x40
 8002626:	89ba      	ldrh	r2, [r7, #12]
 8002628:	7bfb      	ldrb	r3, [r7, #15]
 800262a:	4619      	mov	r1, r3
 800262c:	6878      	ldr	r0, [r7, #4]
 800262e:	f7ff fdc2 	bl	80021b6 <HAL_I2C_AddrCallback>
 8002632:	e017      	b.n	8002664 <I2C_ITAddrCplt+0x100>
 8002634:	f44f 4100 	mov.w	r1, #32768	; 0x8000
 8002638:	6878      	ldr	r0, [r7, #4]
 800263a:	f000 fc5f 	bl	8002efc <I2C_Disable_IRQ>
 800263e:	687b      	ldr	r3, [r7, #4]
 8002640:	2200      	movs	r2, #0
 8002642:	f883 2040 	strb.w	r2, [r3, #64]	; 0x40
 8002646:	89ba      	ldrh	r2, [r7, #12]
 8002648:	7bfb      	ldrb	r3, [r7, #15]
 800264a:	4619      	mov	r1, r3
 800264c:	6878      	ldr	r0, [r7, #4]
 800264e:	f7ff fdb2 	bl	80021b6 <HAL_I2C_AddrCallback>
 8002652:	e007      	b.n	8002664 <I2C_ITAddrCplt+0x100>
 8002654:	687b      	ldr	r3, [r7, #4]
 8002656:	681b      	ldr	r3, [r3, #0]
 8002658:	2208      	movs	r2, #8
 800265a:	61da      	str	r2, [r3, #28]
 800265c:	687b      	ldr	r3, [r7, #4]
 800265e:	2200      	movs	r2, #0
 8002660:	f883 2040 	strb.w	r2, [r3, #64]	; 0x40
 8002664:	bf00      	nop
 8002666:	3710      	adds	r7, #16
 8002668:	46bd      	mov	sp, r7
 800266a:	bd80      	pop	{r7, pc}

0800266c <I2C_ITSlaveSeqCplt>:
 800266c:	b580      	push	{r7, lr}
 800266e:	b084      	sub	sp, #16
 8002670:	af00      	add	r7, sp, #0
 8002672:	6078      	str	r0, [r7, #4]
 8002674:	687b      	ldr	r3, [r7, #4]
 8002676:	681b      	ldr	r3, [r3, #0]
 8002678:	681b      	ldr	r3, [r3, #0]
 800267a:	60fb      	str	r3, [r7, #12]
 800267c:	687b      	ldr	r3, [r7, #4]
 800267e:	2200      	movs	r2, #0
 8002680:	f883 2042 	strb.w	r2, [r3, #66]	; 0x42
 8002684:	68fb      	ldr	r3, [r7, #12]
 8002686:	0b9b      	lsrs	r3, r3, #14
 8002688:	f003 0301 	and.w	r3, r3, #1
 800268c:	2b00      	cmp	r3, #0
 800268e:	d008      	beq.n	80026a2 <I2C_ITSlaveSeqCplt+0x36>
