
Project_NRF24L01.elf:     file format elf32-littlearm

Sections:
Idx Name          Size      VMA       LMA       File off  Algn
  0 .isr_vector   0000013c  08000000  08000000  00010000  2**0
                  CONTENTS, ALLOC, LOAD, READONLY, DATA
  1 .text         000054a8  0800013c  0800013c  0001013c  2**2
                  CONTENTS, ALLOC, LOAD, READONLY, CODE
  2 .rodata       000006d0  080055e4  080055e4  000155e4  2**2
                  CONTENTS, ALLOC, LOAD, READONLY, DATA
  3 .ARM.extab    00000000  08005cb4  08005cb4  00020078  2**0
                  CONTENTS
  4 .ARM          00000008  08005cb4  08005cb4  00015cb4  2**2
                  CONTENTS, ALLOC, LOAD, READONLY, DATA
  5 .preinit_array 00000000  08005cbc  08005cbc  00020078  2**0
                  CONTENTS, ALLOC, LOAD, DATA
  6 .init_array   00000004  08005cbc  08005cbc  00015cbc  2**2
                  CONTENTS, ALLOC, LOAD, DATA
  7 .fini_array   00000004  08005cc0  08005cc0  00015cc0  2**2
                  CONTENTS, ALLOC, LOAD, DATA
  8 .data         00000078  20000000  08005cc4  00020000  2**3
                  CONTENTS, ALLOC, LOAD, DATA
  9 .bss          000000f4  20000078  08005d3c  00020078  2**2
                  ALLOC
 10 ._user_heap_stack 00000604  2000016c  08005d3c  0002016c  2**0
                  ALLOC
 11 .ARM.attributes 00000029  00000000  00000000  00020078  2**0
                  CONTENTS, READONLY
 12 .debug_info   00010cb5  00000000  00000000  000200a1  2**0
                  CONTENTS, READONLY, DEBUGGING, OCTETS
 13 .debug_abbrev 0000257b  00000000  00000000  00030d56  2**0
                  CONTENTS, READONLY, DEBUGGING, OCTETS
 14 .debug_aranges 00000b30  00000000  00000000  000332d8  2**3
                  CONTENTS, READONLY, DEBUGGING, OCTETS
 15 .debug_ranges 00000a58  00000000  00000000  00033e08  2**3
                  CONTENTS, READONLY, DEBUGGING, OCTETS
 16 .debug_macro  00016fb9  00000000  00000000  00034860  2**0
                  CONTENTS, READONLY, DEBUGGING, OCTETS
 17 .debug_line   0000c729  00000000  00000000  0004b819  2**0
                  CONTENTS, READONLY, DEBUGGING, OCTETS
 18 .debug_str    000823fa  00000000  00000000  00057f42  2**0
                  CONTENTS, READONLY, DEBUGGING, OCTETS
 19 .comment      00000053  00000000  00000000  000da33c  2**0
                  CONTENTS, READONLY
 20 .debug_frame  00003788  00000000  00000000  000da390  2**2
                  CONTENTS, READONLY, DEBUGGING, OCTETS

Disassembly of section .text:

0800013c <__do_global_dtors_aux>:
 800013c:	b510      	push	{r4, lr}
 800013e:	4c05      	ldr	r4, [pc, #20]	; (8000154 <__do_global_dtors_aux+0x18>)
 8000140:	7823      	ldrb	r3, [r4, #0]
 8000142:	b933      	cbnz	r3, 8000152 <__do_global_dtors_aux+0x16>
 8000144:	4b04      	ldr	r3, [pc, #16]	; (8000158 <__do_global_dtors_aux+0x1c>)
 8000146:	b113      	cbz	r3, 800014e <__do_global_dtors_aux+0x12>
 8000148:	4804      	ldr	r0, [pc, #16]	; (800015c <__do_global_dtors_aux+0x20>)
 800014a:	f3af 8000 	nop.w
 800014e:	2301      	movs	r3, #1
 8000150:	7023      	strb	r3, [r4, #0]
 8000152:	bd10      	pop	{r4, pc}
 8000154:	20000078 	.word	0x20000078
 8000158:	00000000 	.word	0x00000000
 800015c:	080055cc 	.word	0x080055cc

08000160 <frame_dummy>:
 8000160:	b508      	push	{r3, lr}
 8000162:	4b03      	ldr	r3, [pc, #12]	; (8000170 <frame_dummy+0x10>)
 8000164:	b11b      	cbz	r3, 800016e <frame_dummy+0xe>
 8000166:	4903      	ldr	r1, [pc, #12]	; (8000174 <frame_dummy+0x14>)
 8000168:	4803      	ldr	r0, [pc, #12]	; (8000178 <frame_dummy+0x18>)
 800016a:	f3af 8000 	nop.w
 800016e:	bd08      	pop	{r3, pc}
 8000170:	00000000 	.word	0x00000000
 8000174:	2000007c 	.word	0x2000007c
 8000178:	080055cc 	.word	0x080055cc

0800017c <strlen>:
 800017c:	4603      	mov	r3, r0
 800017e:	f813 2b01 	ldrb.w	r2, [r3], #1
 8000182:	2a00      	cmp	r2, #0
 8000184:	d1fb      	bne.n	800017e <strlen+0x2>
 8000186:	1a18      	subs	r0, r3, r0
 8000188:	3801      	subs	r0, #1
 800018a:	4770      	bx	lr

0800018c <__aeabi_uldivmod>:
 800018c:	b953      	cbnz	r3, 80001a4 <__aeabi_uldivmod+0x18>
 800018e:	b94a      	cbnz	r2, 80001a4 <__aeabi_uldivmod+0x18>
 8000190:	2900      	cmp	r1, #0
 8000192:	bf08      	it	eq
 8000194:	2800      	cmpeq	r0, #0
 8000196:	bf1c      	itt	ne
 8000198:	f04f 31ff 	movne.w	r1, #4294967295
 800019c:	f04f 30ff 	movne.w	r0, #4294967295
 80001a0:	f000 b96e 	b.w	8000480 <__aeabi_idiv0>
 80001a4:	f1ad 0c08 	sub.w	ip, sp, #8
 80001a8:	e96d ce04 	strd	ip, lr, [sp, #-16]!
 80001ac:	f000 f806 	bl	80001bc <__udivmoddi4>
 80001b0:	f8dd e004 	ldr.w	lr, [sp, #4]
 80001b4:	e9dd 2302 	ldrd	r2, r3, [sp, #8]
 80001b8:	b004      	add	sp, #16
 80001ba:	4770      	bx	lr

080001bc <__udivmoddi4>:
 80001bc:	e92d 47f0 	stmdb	sp!, {r4, r5, r6, r7, r8, r9, sl, lr}
 80001c0:	9e08      	ldr	r6, [sp, #32]
 80001c2:	460d      	mov	r5, r1
 80001c4:	4604      	mov	r4, r0
 80001c6:	468e      	mov	lr, r1
 80001c8:	2b00      	cmp	r3, #0
 80001ca:	f040 8083 	bne.w	80002d4 <__udivmoddi4+0x118>
 80001ce:	428a      	cmp	r2, r1
 80001d0:	4617      	mov	r7, r2
 80001d2:	d947      	bls.n	8000264 <__udivmoddi4+0xa8>
 80001d4:	fab2 f382 	clz	r3, r2
 80001d8:	b14b      	cbz	r3, 80001ee <__udivmoddi4+0x32>
 80001da:	f1c3 0120 	rsb	r1, r3, #32
 80001de:	fa05 fe03 	lsl.w	lr, r5, r3
 80001e2:	fa20 f101 	lsr.w	r1, r0, r1
 80001e6:	409f      	lsls	r7, r3
 80001e8:	ea41 0e0e 	orr.w	lr, r1, lr
 80001ec:	409c      	lsls	r4, r3
 80001ee:	ea4f 4817 	mov.w	r8, r7, lsr #16
 80001f2:	fbbe fcf8 	udiv	ip, lr, r8
 80001f6:	fa1f f987 	uxth.w	r9, r7
 80001fa:	fb08 e21c 	mls	r2, r8, ip, lr
 80001fe:	fb0c f009 	mul.w	r0, ip, r9
 8000202:	0c21      	lsrs	r1, r4, #16
 8000204:	ea41 4202 	orr.w	r2, r1, r2, lsl #16
 8000208:	4290      	cmp	r0, r2
 800020a:	d90a      	bls.n	8000222 <__udivmoddi4+0x66>
 800020c:	18ba      	adds	r2, r7, r2
 800020e:	f10c 31ff 	add.w	r1, ip, #4294967295
 8000212:	f080 8118 	bcs.w	8000446 <__udivmoddi4+0x28a>
 8000216:	4290      	cmp	r0, r2
 8000218:	f240 8115 	bls.w	8000446 <__udivmoddi4+0x28a>
 800021c:	f1ac 0c02 	sub.w	ip, ip, #2
 8000220:	443a      	add	r2, r7
 8000222:	1a12      	subs	r2, r2, r0
 8000224:	fbb2 f0f8 	udiv	r0, r2, r8
 8000228:	fb08 2210 	mls	r2, r8, r0, r2
 800022c:	fb00 f109 	mul.w	r1, r0, r9
 8000230:	b2a4      	uxth	r4, r4
 8000232:	ea44 4402 	orr.w	r4, r4, r2, lsl #16
 8000236:	42a1      	cmp	r1, r4
 8000238:	d909      	bls.n	800024e <__udivmoddi4+0x92>
 800023a:	193c      	adds	r4, r7, r4
 800023c:	f100 32ff 	add.w	r2, r0, #4294967295
 8000240:	f080 8103 	bcs.w	800044a <__udivmoddi4+0x28e>
 8000244:	42a1      	cmp	r1, r4
 8000246:	f240 8100 	bls.w	800044a <__udivmoddi4+0x28e>
 800024a:	3802      	subs	r0, #2
 800024c:	443c      	add	r4, r7
 800024e:	1a64      	subs	r4, r4, r1
 8000250:	2100      	movs	r1, #0
 8000252:	ea40 400c 	orr.w	r0, r0, ip, lsl #16
 8000256:	b11e      	cbz	r6, 8000260 <__udivmoddi4+0xa4>
 8000258:	2200      	movs	r2, #0
 800025a:	40dc      	lsrs	r4, r3
 800025c:	e9c6 4200 	strd	r4, r2, [r6]
 8000260:	e8bd 87f0 	ldmia.w	sp!, {r4, r5, r6, r7, r8, r9, sl, pc}
 8000264:	b902      	cbnz	r2, 8000268 <__udivmoddi4+0xac>
 8000266:	deff      	udf	#255	; 0xff
 8000268:	fab2 f382 	clz	r3, r2
 800026c:	2b00      	cmp	r3, #0
 800026e:	d14f      	bne.n	8000310 <__udivmoddi4+0x154>
 8000270:	1a8d      	subs	r5, r1, r2
 8000272:	2101      	movs	r1, #1
 8000274:	ea4f 4e12 	mov.w	lr, r2, lsr #16
 8000278:	fa1f f882 	uxth.w	r8, r2
 800027c:	fbb5 fcfe 	udiv	ip, r5, lr
 8000280:	fb0e 551c 	mls	r5, lr, ip, r5
 8000284:	fb08 f00c 	mul.w	r0, r8, ip
 8000288:	0c22      	lsrs	r2, r4, #16
 800028a:	ea42 4505 	orr.w	r5, r2, r5, lsl #16
 800028e:	42a8      	cmp	r0, r5
 8000290:	d907      	bls.n	80002a2 <__udivmoddi4+0xe6>
 8000292:	197d      	adds	r5, r7, r5
 8000294:	f10c 32ff 	add.w	r2, ip, #4294967295
 8000298:	d202      	bcs.n	80002a0 <__udivmoddi4+0xe4>
 800029a:	42a8      	cmp	r0, r5
 800029c:	f200 80e9 	bhi.w	8000472 <__udivmoddi4+0x2b6>
 80002a0:	4694      	mov	ip, r2
 80002a2:	1a2d      	subs	r5, r5, r0
 80002a4:	fbb5 f0fe 	udiv	r0, r5, lr
 80002a8:	fb0e 5510 	mls	r5, lr, r0, r5
 80002ac:	fb08 f800 	mul.w	r8, r8, r0
 80002b0:	b2a4      	uxth	r4, r4
 80002b2:	ea44 4405 	orr.w	r4, r4, r5, lsl #16
 80002b6:	45a0      	cmp	r8, r4
 80002b8:	d907      	bls.n	80002ca <__udivmoddi4+0x10e>
 80002ba:	193c      	adds	r4, r7, r4
 80002bc:	f100 32ff 	add.w	r2, r0, #4294967295
 80002c0:	d202      	bcs.n	80002c8 <__udivmoddi4+0x10c>
 80002c2:	45a0      	cmp	r8, r4
 80002c4:	f200 80d9 	bhi.w	800047a <__udivmoddi4+0x2be>
 80002c8:	4610      	mov	r0, r2
 80002ca:	eba4 0408 	sub.w	r4, r4, r8
 80002ce:	ea40 400c 	orr.w	r0, r0, ip, lsl #16
 80002d2:	e7c0      	b.n	8000256 <__udivmoddi4+0x9a>
 80002d4:	428b      	cmp	r3, r1
 80002d6:	d908      	bls.n	80002ea <__udivmoddi4+0x12e>
 80002d8:	2e00      	cmp	r6, #0
 80002da:	f000 80b1 	beq.w	8000440 <__udivmoddi4+0x284>
 80002de:	2100      	movs	r1, #0
 80002e0:	e9c6 0500 	strd	r0, r5, [r6]
 80002e4:	4608      	mov	r0, r1
 80002e6:	e8bd 87f0 	ldmia.w	sp!, {r4, r5, r6, r7, r8, r9, sl, pc}
 80002ea:	fab3 f183 	clz	r1, r3
 80002ee:	2900      	cmp	r1, #0
 80002f0:	d14b      	bne.n	800038a <__udivmoddi4+0x1ce>
 80002f2:	42ab      	cmp	r3, r5
 80002f4:	d302      	bcc.n	80002fc <__udivmoddi4+0x140>
 80002f6:	4282      	cmp	r2, r0
 80002f8:	f200 80b9 	bhi.w	800046e <__udivmoddi4+0x2b2>
 80002fc:	1a84      	subs	r4, r0, r2
 80002fe:	eb65 0303 	sbc.w	r3, r5, r3
 8000302:	2001      	movs	r0, #1
 8000304:	469e      	mov	lr, r3
 8000306:	2e00      	cmp	r6, #0
 8000308:	d0aa      	beq.n	8000260 <__udivmoddi4+0xa4>
 800030a:	e9c6 4e00 	strd	r4, lr, [r6]
 800030e:	e7a7      	b.n	8000260 <__udivmoddi4+0xa4>
 8000310:	409f      	lsls	r7, r3
 8000312:	f1c3 0220 	rsb	r2, r3, #32
 8000316:	40d1      	lsrs	r1, r2
 8000318:	ea4f 4e17 	mov.w	lr, r7, lsr #16
 800031c:	fbb1 f0fe 	udiv	r0, r1, lr
 8000320:	fa1f f887 	uxth.w	r8, r7
 8000324:	fb0e 1110 	mls	r1, lr, r0, r1
 8000328:	fa24 f202 	lsr.w	r2, r4, r2
 800032c:	409d      	lsls	r5, r3
 800032e:	fb00 fc08 	mul.w	ip, r0, r8
 8000332:	432a      	orrs	r2, r5
 8000334:	0c15      	lsrs	r5, r2, #16
 8000336:	ea45 4501 	orr.w	r5, r5, r1, lsl #16
 800033a:	45ac      	cmp	ip, r5
 800033c:	fa04 f403 	lsl.w	r4, r4, r3
 8000340:	d909      	bls.n	8000356 <__udivmoddi4+0x19a>
 8000342:	197d      	adds	r5, r7, r5
 8000344:	f100 31ff 	add.w	r1, r0, #4294967295
 8000348:	f080 808f 	bcs.w	800046a <__udivmoddi4+0x2ae>
 800034c:	45ac      	cmp	ip, r5
 800034e:	f240 808c 	bls.w	800046a <__udivmoddi4+0x2ae>
 8000352:	3802      	subs	r0, #2
 8000354:	443d      	add	r5, r7
 8000356:	eba5 050c 	sub.w	r5, r5, ip
 800035a:	fbb5 f1fe 	udiv	r1, r5, lr
 800035e:	fb0e 5c11 	mls	ip, lr, r1, r5
 8000362:	fb01 f908 	mul.w	r9, r1, r8
 8000366:	b295      	uxth	r5, r2
 8000368:	ea45 450c 	orr.w	r5, r5, ip, lsl #16
 800036c:	45a9      	cmp	r9, r5
 800036e:	d907      	bls.n	8000380 <__udivmoddi4+0x1c4>
 8000370:	197d      	adds	r5, r7, r5
 8000372:	f101 32ff 	add.w	r2, r1, #4294967295
 8000376:	d274      	bcs.n	8000462 <__udivmoddi4+0x2a6>
 8000378:	45a9      	cmp	r9, r5
 800037a:	d972      	bls.n	8000462 <__udivmoddi4+0x2a6>
 800037c:	3902      	subs	r1, #2
 800037e:	443d      	add	r5, r7
 8000380:	eba5 0509 	sub.w	r5, r5, r9
 8000384:	ea41 4100 	orr.w	r1, r1, r0, lsl #16
 8000388:	e778      	b.n	800027c <__udivmoddi4+0xc0>
 800038a:	f1c1 0720 	rsb	r7, r1, #32
 800038e:	408b      	lsls	r3, r1
 8000390:	fa22 fc07 	lsr.w	ip, r2, r7
 8000394:	ea4c 0c03 	orr.w	ip, ip, r3
 8000398:	fa25 f407 	lsr.w	r4, r5, r7
 800039c:	ea4f 4e1c 	mov.w	lr, ip, lsr #16
 80003a0:	fbb4 f9fe 	udiv	r9, r4, lr
 80003a4:	fa1f f88c 	uxth.w	r8, ip
 80003a8:	fb0e 4419 	mls	r4, lr, r9, r4
 80003ac:	fa20 f307 	lsr.w	r3, r0, r7
 80003b0:	fb09 fa08 	mul.w	sl, r9, r8
 80003b4:	408d      	lsls	r5, r1
 80003b6:	431d      	orrs	r5, r3
 80003b8:	0c2b      	lsrs	r3, r5, #16
 80003ba:	ea43 4404 	orr.w	r4, r3, r4, lsl #16
 80003be:	45a2      	cmp	sl, r4
 80003c0:	fa02 f201 	lsl.w	r2, r2, r1
 80003c4:	fa00 f301 	lsl.w	r3, r0, r1
 80003c8:	d909      	bls.n	80003de <__udivmoddi4+0x222>
 80003ca:	eb1c 0404 	adds.w	r4, ip, r4
 80003ce:	f109 30ff 	add.w	r0, r9, #4294967295
 80003d2:	d248      	bcs.n	8000466 <__udivmoddi4+0x2aa>
 80003d4:	45a2      	cmp	sl, r4
 80003d6:	d946      	bls.n	8000466 <__udivmoddi4+0x2aa>
 80003d8:	f1a9 0902 	sub.w	r9, r9, #2
 80003dc:	4464      	add	r4, ip
 80003de:	eba4 040a 	sub.w	r4, r4, sl
 80003e2:	fbb4 f0fe 	udiv	r0, r4, lr
 80003e6:	fb0e 4410 	mls	r4, lr, r0, r4
 80003ea:	fb00 fa08 	mul.w	sl, r0, r8
 80003ee:	b2ad      	uxth	r5, r5
 80003f0:	ea45 4404 	orr.w	r4, r5, r4, lsl #16
 80003f4:	45a2      	cmp	sl, r4
 80003f6:	d908      	bls.n	800040a <__udivmoddi4+0x24e>
 80003f8:	eb1c 0404 	adds.w	r4, ip, r4
 80003fc:	f100 35ff 	add.w	r5, r0, #4294967295
 8000400:	d22d      	bcs.n	800045e <__udivmoddi4+0x2a2>
 8000402:	45a2      	cmp	sl, r4
 8000404:	d92b      	bls.n	800045e <__udivmoddi4+0x2a2>
 8000406:	3802      	subs	r0, #2
 8000408:	4464      	add	r4, ip
 800040a:	ea40 4009 	orr.w	r0, r0, r9, lsl #16
 800040e:	fba0 8902 	umull	r8, r9, r0, r2
 8000412:	eba4 040a 	sub.w	r4, r4, sl
 8000416:	454c      	cmp	r4, r9
 8000418:	46c6      	mov	lr, r8
 800041a:	464d      	mov	r5, r9
 800041c:	d319      	bcc.n	8000452 <__udivmoddi4+0x296>
 800041e:	d016      	beq.n	800044e <__udivmoddi4+0x292>
 8000420:	b15e      	cbz	r6, 800043a <__udivmoddi4+0x27e>
 8000422:	ebb3 020e 	subs.w	r2, r3, lr
 8000426:	eb64 0405 	sbc.w	r4, r4, r5
 800042a:	fa04 f707 	lsl.w	r7, r4, r7
 800042e:	fa22 f301 	lsr.w	r3, r2, r1
 8000432:	431f      	orrs	r7, r3
 8000434:	40cc      	lsrs	r4, r1
 8000436:	e9c6 7400 	strd	r7, r4, [r6]
 800043a:	2100      	movs	r1, #0
 800043c:	e8bd 87f0 	ldmia.w	sp!, {r4, r5, r6, r7, r8, r9, sl, pc}
 8000440:	4631      	mov	r1, r6
 8000442:	4630      	mov	r0, r6
 8000444:	e70c      	b.n	8000260 <__udivmoddi4+0xa4>
 8000446:	468c      	mov	ip, r1
 8000448:	e6eb      	b.n	8000222 <__udivmoddi4+0x66>
 800044a:	4610      	mov	r0, r2
 800044c:	e6ff      	b.n	800024e <__udivmoddi4+0x92>
 800044e:	4543      	cmp	r3, r8
 8000450:	d2e6      	bcs.n	8000420 <__udivmoddi4+0x264>
 8000452:	ebb8 0e02 	subs.w	lr, r8, r2
 8000456:	eb69 050c 	sbc.w	r5, r9, ip
 800045a:	3801      	subs	r0, #1
 800045c:	e7e0      	b.n	8000420 <__udivmoddi4+0x264>
 800045e:	4628      	mov	r0, r5
 8000460:	e7d3      	b.n	800040a <__udivmoddi4+0x24e>
 8000462:	4611      	mov	r1, r2
 8000464:	e78c      	b.n	8000380 <__udivmoddi4+0x1c4>
 8000466:	4681      	mov	r9, r0
 8000468:	e7b9      	b.n	80003de <__udivmoddi4+0x222>
 800046a:	4608      	mov	r0, r1
 800046c:	e773      	b.n	8000356 <__udivmoddi4+0x19a>
 800046e:	4608      	mov	r0, r1
 8000470:	e749      	b.n	8000306 <__udivmoddi4+0x14a>
 8000472:	f1ac 0c02 	sub.w	ip, ip, #2
 8000476:	443d      	add	r5, r7
 8000478:	e713      	b.n	80002a2 <__udivmoddi4+0xe6>
 800047a:	3802      	subs	r0, #2
 800047c:	443c      	add	r4, r7
 800047e:	e724      	b.n	80002ca <__udivmoddi4+0x10e>

08000480 <__aeabi_idiv0>:
 8000480:	4770      	bx	lr
 8000482:	bf00      	nop

08000484 <__NVIC_EnableIRQ>:
  \details Enables a device specific interrupt in the NVIC interrupt controller.
  \param [in]      IRQn  Device specific interrupt number.
  \note    IRQn must not be negative.
 */
__STATIC_INLINE void __NVIC_EnableIRQ(IRQn_Type IRQn)
{
 8000484:	b480      	push	{r7}
 8000486:	b083      	sub	sp, #12
 8000488:	af00      	add	r7, sp, #0
 800048a:	4603      	mov	r3, r0
 800048c:	71fb      	strb	r3, [r7, #7]
  if ((int32_t)(IRQn) >= 0)
 800048e:	f997 3007 	ldrsb.w	r3, [r7, #7]
 8000492:	2b00      	cmp	r3, #0
 8000494:	db0b      	blt.n	80004ae <__NVIC_EnableIRQ+0x2a>
  {
    NVIC->ISER[(((uint32_t)IRQn) >> 5UL)] = (uint32_t)(1UL << (((uint32_t)IRQn) & 0x1FUL));
 8000496:	79fb      	ldrb	r3, [r7, #7]
 8000498:	f003 021f 	and.w	r2, r3, #31
 800049c:	4906      	ldr	r1, [pc, #24]	; (80004b8 <__NVIC_EnableIRQ+0x34>)
 800049e:	f997 3007 	ldrsb.w	r3, [r7, #7]
 80004a2:	095b      	lsrs	r3, r3, #5
 80004a4:	2001      	movs	r0, #1
 80004a6:	fa00 f202 	lsl.w	r2, r0, r2
 80004aa:	f841 2023 	str.w	r2, [r1, r3, lsl #2]
  }
}
 80004ae:	bf00      	nop
 80004b0:	370c      	adds	r7, #12
 80004b2:	46bd      	mov	sp, r7
 80004b4:	bc80      	pop	{r7}
 80004b6:	4770      	bx	lr
 80004b8:	e000e100 	.word	0xe000e100

080004bc <TIM6_IRQHandler>:
uint64_t TxpipeAddrs = 0x11223344AA;



void TIM6_IRQHandler(void)
{
 80004bc:	b480      	push	{r7}
 80004be:	af00      	add	r7, sp, #0
	work_state_tim->SR &= ~TIM_SR_UIF;
 80004c0:	4b0b      	ldr	r3, [pc, #44]	; (80004f0 <TIM6_IRQHandler+0x34>)
 80004c2:	691b      	ldr	r3, [r3, #16]
 80004c4:	4a0a      	ldr	r2, [pc, #40]	; (80004f0 <TIM6_IRQHandler+0x34>)
 80004c6:	f023 0301 	bic.w	r3, r3, #1
 80004ca:	6113      	str	r3, [r2, #16]
	if(_model_state.state_Ledx>250)
 80004cc:	4b09      	ldr	r3, [pc, #36]	; (80004f4 <TIM6_IRQHandler+0x38>)
 80004ce:	78db      	ldrb	r3, [r3, #3]
 80004d0:	2bfa      	cmp	r3, #250	; 0xfa
 80004d2:	d902      	bls.n	80004da <TIM6_IRQHandler+0x1e>
				_model_state.state_Ledx=1;
 80004d4:	4b07      	ldr	r3, [pc, #28]	; (80004f4 <TIM6_IRQHandler+0x38>)
 80004d6:	2201      	movs	r2, #1
 80004d8:	70da      	strb	r2, [r3, #3]

			_model_state.state_Ledx++;
 80004da:	4b06      	ldr	r3, [pc, #24]	; (80004f4 <TIM6_IRQHandler+0x38>)
 80004dc:	78db      	ldrb	r3, [r3, #3]
 80004de:	3301      	adds	r3, #1
 80004e0:	b2da      	uxtb	r2, r3
 80004e2:	4b04      	ldr	r3, [pc, #16]	; (80004f4 <TIM6_IRQHandler+0x38>)
 80004e4:	70da      	strb	r2, [r3, #3]

}
 80004e6:	bf00      	nop
 80004e8:	46bd      	mov	sp, r7
 80004ea:	bc80      	pop	{r7}
 80004ec:	4770      	bx	lr
 80004ee:	bf00      	nop
 80004f0:	40001000 	.word	0x40001000
 80004f4:	200000a8 	.word	0x200000a8

080004f8 <TIM7_IRQHandler>:


void TIM7_IRQHandler (void)
{
 80004f8:	b480      	push	{r7}
 80004fa:	af00      	add	r7, sp, #0
	State_Sync_Tim->SR &= ~TIM_SR_UIF;
 80004fc:	4b06      	ldr	r3, [pc, #24]	; (8000518 <TIM7_IRQHandler+0x20>)
 80004fe:	691b      	ldr	r3, [r3, #16]
 8000500:	4a05      	ldr	r2, [pc, #20]	; (8000518 <TIM7_IRQHandler+0x20>)
 8000502:	f023 0301 	bic.w	r3, r3, #1
 8000506:	6113      	str	r3, [r2, #16]
	_model_state.sync_trigger=1;
 8000508:	4b04      	ldr	r3, [pc, #16]	; (800051c <TIM7_IRQHandler+0x24>)
 800050a:	2201      	movs	r2, #1
 800050c:	709a      	strb	r2, [r3, #2]

}
 800050e:	bf00      	nop
 8000510:	46bd      	mov	sp, r7
 8000512:	bc80      	pop	{r7}
 8000514:	4770      	bx	lr
 8000516:	bf00      	nop
 8000518:	40001400 	.word	0x40001400
 800051c:	200000a8 	.word	0x200000a8

08000520 <Init_Model_Work>:


/**************Init Logic Model**************/
static void Init_Model_Work(void)
{
 8000520:	b480      	push	{r7}
 8000522:	af00      	add	r7, sp, #0
	_model_state._ID=Dev;
 8000524:	2209      	movs	r2, #9
 8000526:	4b17      	ldr	r3, [pc, #92]	; (8000584 <Init_Model_Work+0x64>)
 8000528:	801a      	strh	r2, [r3, #0]
	_model_state.sync_trigger=0;
 800052a:	4b16      	ldr	r3, [pc, #88]	; (8000584 <Init_Model_Work+0x64>)
 800052c:	2200      	movs	r2, #0
 800052e:	709a      	strb	r2, [r3, #2]
	_model_state.state_count_btn=0;
 8000530:	4b14      	ldr	r3, [pc, #80]	; (8000584 <Init_Model_Work+0x64>)
 8000532:	2200      	movs	r2, #0
 8000534:	605a      	str	r2, [r3, #4]
	_model_state._dataMain.ID_Dev=0x08;
 8000536:	4b13      	ldr	r3, [pc, #76]	; (8000584 <Init_Model_Work+0x64>)
 8000538:	2208      	movs	r2, #8
 800053a:	721a      	strb	r2, [r3, #8]
	_model_state._dataMain.ADC_Value[0]=2048;
 800053c:	4b11      	ldr	r3, [pc, #68]	; (8000584 <Init_Model_Work+0x64>)
 800053e:	2200      	movs	r2, #0
 8000540:	725a      	strb	r2, [r3, #9]
 8000542:	2200      	movs	r2, #0
 8000544:	f042 0208 	orr.w	r2, r2, #8
 8000548:	729a      	strb	r2, [r3, #10]
	_model_state._dataMain.ADC_Value[1]=4095;
 800054a:	4b0e      	ldr	r3, [pc, #56]	; (8000584 <Init_Model_Work+0x64>)
 800054c:	f04f 32ff 	mov.w	r2, #4294967295
 8000550:	72da      	strb	r2, [r3, #11]
 8000552:	2200      	movs	r2, #0
 8000554:	f042 020f 	orr.w	r2, r2, #15
 8000558:	731a      	strb	r2, [r3, #12]
	_model_state._dataMain.ADC_Value[2]=990;
 800055a:	4b0a      	ldr	r3, [pc, #40]	; (8000584 <Init_Model_Work+0x64>)
 800055c:	2200      	movs	r2, #0
 800055e:	f062 0221 	orn	r2, r2, #33	; 0x21
 8000562:	735a      	strb	r2, [r3, #13]
 8000564:	2200      	movs	r2, #0
 8000566:	f042 0203 	orr.w	r2, r2, #3
 800056a:	739a      	strb	r2, [r3, #14]
	_model_state._dataMain.ADC_Value[3]=1024;
 800056c:	4b05      	ldr	r3, [pc, #20]	; (8000584 <Init_Model_Work+0x64>)
 800056e:	2200      	movs	r2, #0
 8000570:	73da      	strb	r2, [r3, #15]
 8000572:	2200      	movs	r2, #0
 8000574:	f042 0204 	orr.w	r2, r2, #4
 8000578:	741a      	strb	r2, [r3, #16]


}
 800057a:	bf00      	nop
 800057c:	46bd      	mov	sp, r7
 800057e:	bc80      	pop	{r7}
 8000580:	4770      	bx	lr
 8000582:	bf00      	nop
 8000584:	200000a8 	.word	0x200000a8

08000588 <GPIO_INit>:

static void GPIO_INit(void)
{
 8000588:	b580      	push	{r7, lr}
 800058a:	b088      	sub	sp, #32
 800058c:	af00      	add	r7, sp, #0
	GPIO_InitTypeDef GPIO_InitStruct = {0};
 800058e:	f107 030c 	add.w	r3, r7, #12
 8000592:	2200      	movs	r2, #0
 8000594:	601a      	str	r2, [r3, #0]
 8000596:	605a      	str	r2, [r3, #4]
 8000598:	609a      	str	r2, [r3, #8]
 800059a:	60da      	str	r2, [r3, #12]
 800059c:	611a      	str	r2, [r3, #16]
	LED_CLOCK_GPIO_LED1;
 800059e:	4b23      	ldr	r3, [pc, #140]	; (800062c <GPIO_INit+0xa4>)
 80005a0:	69db      	ldr	r3, [r3, #28]
 80005a2:	4a22      	ldr	r2, [pc, #136]	; (800062c <GPIO_INit+0xa4>)
 80005a4:	f043 0304 	orr.w	r3, r3, #4
 80005a8:	61d3      	str	r3, [r2, #28]
 80005aa:	4b20      	ldr	r3, [pc, #128]	; (800062c <GPIO_INit+0xa4>)
 80005ac:	69db      	ldr	r3, [r3, #28]
 80005ae:	f003 0304 	and.w	r3, r3, #4
 80005b2:	60bb      	str	r3, [r7, #8]
 80005b4:	68bb      	ldr	r3, [r7, #8]
	LED_CLOCK_GPIO_LED2;
 80005b6:	4b1d      	ldr	r3, [pc, #116]	; (800062c <GPIO_INit+0xa4>)
 80005b8:	69db      	ldr	r3, [r3, #28]
 80005ba:	4a1c      	ldr	r2, [pc, #112]	; (800062c <GPIO_INit+0xa4>)
 80005bc:	f043 0304 	orr.w	r3, r3, #4
 80005c0:	61d3      	str	r3, [r2, #28]
 80005c2:	4b1a      	ldr	r3, [pc, #104]	; (800062c <GPIO_INit+0xa4>)
 80005c4:	69db      	ldr	r3, [r3, #28]
 80005c6:	f003 0304 	and.w	r3, r3, #4
 80005ca:	607b      	str	r3, [r7, #4]
 80005cc:	687b      	ldr	r3, [r7, #4]
		 /*Configure GPIO pin Output Level */
		HAL_GPIO_WritePin(LED1_GPIO_Port, LED1_Pin, GPIO_PIN_RESET);
 80005ce:	2200      	movs	r2, #0
 80005d0:	f44f 7100 	mov.w	r1, #512	; 0x200
 80005d4:	4816      	ldr	r0, [pc, #88]	; (8000630 <GPIO_INit+0xa8>)
 80005d6:	f002 f857 	bl	8002688 <HAL_GPIO_WritePin>

		   /*Configure GPIO pins : PC9 */
		GPIO_InitStruct.Pin = LED1_Pin;
 80005da:	f44f 7300 	mov.w	r3, #512	; 0x200
 80005de:	60fb      	str	r3, [r7, #12]
		GPIO_InitStruct.Mode = GPIO_MODE_OUTPUT_PP;
 80005e0:	2301      	movs	r3, #1
 80005e2:	613b      	str	r3, [r7, #16]
		GPIO_InitStruct.Pull = GPIO_NOPULL;
 80005e4:	2300      	movs	r3, #0
 80005e6:	617b      	str	r3, [r7, #20]
		GPIO_InitStruct.Speed = GPIO_SPEED_FREQ_LOW;
 80005e8:	2300      	movs	r3, #0
 80005ea:	61bb      	str	r3, [r7, #24]
		HAL_GPIO_Init(LED1_GPIO_Port, &GPIO_InitStruct);
 80005ec:	f107 030c 	add.w	r3, r7, #12
 80005f0:	4619      	mov	r1, r3
 80005f2:	480f      	ldr	r0, [pc, #60]	; (8000630 <GPIO_INit+0xa8>)
 80005f4:	f001 fed0 	bl	8002398 <HAL_GPIO_Init>


		HAL_GPIO_WritePin(LED2_GPIO_Port, LED2_Pin, GPIO_PIN_RESET);
 80005f8:	2200      	movs	r2, #0
 80005fa:	f44f 7180 	mov.w	r1, #256	; 0x100
 80005fe:	480c      	ldr	r0, [pc, #48]	; (8000630 <GPIO_INit+0xa8>)
 8000600:	f002 f842 	bl	8002688 <HAL_GPIO_WritePin>
		 /*Configure GPIO pins : PC8 */
		GPIO_InitStruct.Pin = LED2_Pin;
 8000604:	f44f 7380 	mov.w	r3, #256	; 0x100
 8000608:	60fb      	str	r3, [r7, #12]
		GPIO_InitStruct.Mode = GPIO_MODE_OUTPUT_PP;
 800060a:	2301      	movs	r3, #1
 800060c:	613b      	str	r3, [r7, #16]
		GPIO_InitStruct.Pull = GPIO_NOPULL;
 800060e:	2300      	movs	r3, #0
 8000610:	617b      	str	r3, [r7, #20]
		GPIO_InitStruct.Speed = GPIO_SPEED_FREQ_LOW;
 8000612:	2300      	movs	r3, #0
 8000614:	61bb      	str	r3, [r7, #24]
		HAL_GPIO_Init(LED2_GPIO_Port, &GPIO_InitStruct);
 8000616:	f107 030c 	add.w	r3, r7, #12
 800061a:	4619      	mov	r1, r3
 800061c:	4804      	ldr	r0, [pc, #16]	; (8000630 <GPIO_INit+0xa8>)
 800061e:	f001 febb 	bl	8002398 <HAL_GPIO_Init>

}
 8000622:	bf00      	nop
 8000624:	3720      	adds	r7, #32
 8000626:	46bd      	mov	sp, r7
 8000628:	bd80      	pop	{r7, pc}
 800062a:	bf00      	nop
 800062c:	40023800 	.word	0x40023800
 8000630:	40020800 	.word	0x40020800

08000634 <Init_Timer_StateWork>:


/******************Init Timer for Indicate******************/
static void Init_Timer_StateWork(void)
{
 8000634:	b580      	push	{r7, lr}
 8000636:	af00      	add	r7, sp, #0
	RCC->APB1ENR|=RCC_APB1ENR_TIM6EN;
 8000638:	4b0e      	ldr	r3, [pc, #56]	; (8000674 <Init_Timer_StateWork+0x40>)
 800063a:	6a5b      	ldr	r3, [r3, #36]	; 0x24
 800063c:	4a0d      	ldr	r2, [pc, #52]	; (8000674 <Init_Timer_StateWork+0x40>)
 800063e:	f043 0310 	orr.w	r3, r3, #16
 8000642:	6253      	str	r3, [r2, #36]	; 0x24
	work_state_tim->PSC=PSR_TIM_Indicate;
 8000644:	4b0c      	ldr	r3, [pc, #48]	; (8000678 <Init_Timer_StateWork+0x44>)
 8000646:	f647 42ff 	movw	r2, #31999	; 0x7cff
 800064a:	629a      	str	r2, [r3, #40]	; 0x28
	work_state_tim->ARR=ARR_TIM_Indicate;
 800064c:	4b0a      	ldr	r3, [pc, #40]	; (8000678 <Init_Timer_StateWork+0x44>)
 800064e:	22c8      	movs	r2, #200	; 0xc8
 8000650:	62da      	str	r2, [r3, #44]	; 0x2c
	work_state_tim->DIER |= TIM_DIER_UIE;
 8000652:	4b09      	ldr	r3, [pc, #36]	; (8000678 <Init_Timer_StateWork+0x44>)
 8000654:	68db      	ldr	r3, [r3, #12]
 8000656:	4a08      	ldr	r2, [pc, #32]	; (8000678 <Init_Timer_StateWork+0x44>)
 8000658:	f043 0301 	orr.w	r3, r3, #1
 800065c:	60d3      	str	r3, [r2, #12]
	work_state_tim->CR1 |= TIM_CR1_CEN;
 800065e:	4b06      	ldr	r3, [pc, #24]	; (8000678 <Init_Timer_StateWork+0x44>)
 8000660:	681b      	ldr	r3, [r3, #0]
 8000662:	4a05      	ldr	r2, [pc, #20]	; (8000678 <Init_Timer_StateWork+0x44>)
 8000664:	f043 0301 	orr.w	r3, r3, #1
 8000668:	6013      	str	r3, [r2, #0]
	NVIC_EnableIRQ(TIM6_IRQn);
 800066a:	202b      	movs	r0, #43	; 0x2b
 800066c:	f7ff ff0a 	bl	8000484 <__NVIC_EnableIRQ>
}
 8000670:	bf00      	nop
 8000672:	bd80      	pop	{r7, pc}
 8000674:	40023800 	.word	0x40023800
 8000678:	40001000 	.word	0x40001000

0800067c <Init_Sync_Tim>:


/*************Init Tim for Sync Work******************/
static void Init_Sync_Tim(void)
{
 800067c:	b580      	push	{r7, lr}
 800067e:	af00      	add	r7, sp, #0
	RCC->APB1ENR|=RCC_APB1ENR_TIM7EN;
 8000680:	4b0e      	ldr	r3, [pc, #56]	; (80006bc <Init_Sync_Tim+0x40>)
 8000682:	6a5b      	ldr	r3, [r3, #36]	; 0x24
 8000684:	4a0d      	ldr	r2, [pc, #52]	; (80006bc <Init_Sync_Tim+0x40>)
 8000686:	f043 0320 	orr.w	r3, r3, #32
 800068a:	6253      	str	r3, [r2, #36]	; 0x24
	State_Sync_Tim->PSC=PRC_State_Sync_TIM;//36MHz/36->1MHz
 800068c:	4b0c      	ldr	r3, [pc, #48]	; (80006c0 <Init_Sync_Tim+0x44>)
 800068e:	221f      	movs	r2, #31
 8000690:	629a      	str	r2, [r3, #40]	; 0x28
	State_Sync_Tim->ARR=ARR_State_SYNC_TIM;//1/1Mhz->1us,for 4kHz near 250us->ARR=250
 8000692:	4b0b      	ldr	r3, [pc, #44]	; (80006c0 <Init_Sync_Tim+0x44>)
 8000694:	22fa      	movs	r2, #250	; 0xfa
 8000696:	62da      	str	r2, [r3, #44]	; 0x2c
	State_Sync_Tim->DIER |= TIM_DIER_UIE;
 8000698:	4b09      	ldr	r3, [pc, #36]	; (80006c0 <Init_Sync_Tim+0x44>)
 800069a:	68db      	ldr	r3, [r3, #12]
 800069c:	4a08      	ldr	r2, [pc, #32]	; (80006c0 <Init_Sync_Tim+0x44>)
 800069e:	f043 0301 	orr.w	r3, r3, #1
 80006a2:	60d3      	str	r3, [r2, #12]
	State_Sync_Tim->CR1 |= TIM_CR1_CEN;
 80006a4:	4b06      	ldr	r3, [pc, #24]	; (80006c0 <Init_Sync_Tim+0x44>)
 80006a6:	681b      	ldr	r3, [r3, #0]
 80006a8:	4a05      	ldr	r2, [pc, #20]	; (80006c0 <Init_Sync_Tim+0x44>)
 80006aa:	f043 0301 	orr.w	r3, r3, #1
 80006ae:	6013      	str	r3, [r2, #0]
	NVIC_EnableIRQ(TIM7_IRQn);
 80006b0:	202c      	movs	r0, #44	; 0x2c
 80006b2:	f7ff fee7 	bl	8000484 <__NVIC_EnableIRQ>
}
 80006b6:	bf00      	nop
 80006b8:	bd80      	pop	{r7, pc}
 80006ba:	bf00      	nop
 80006bc:	40023800 	.word	0x40023800
 80006c0:	40001400 	.word	0x40001400

080006c4 <Data_Get_Sync>:


/********************Read Data Sync************/
void Data_Get_Sync(void)
{
 80006c4:	b580      	push	{r7, lr}
 80006c6:	b084      	sub	sp, #16
 80006c8:	af00      	add	r7, sp, #0
	for(int i=0;i<4;i++)
 80006ca:	2300      	movs	r3, #0
 80006cc:	60fb      	str	r3, [r7, #12]
 80006ce:	e019      	b.n	8000704 <Data_Get_Sync+0x40>
	{
		_model_state._dataMain.ADC_Value[i]=rand()%10000;
 80006d0:	f003 fd9e 	bl	8004210 <rand>
 80006d4:	4603      	mov	r3, r0
 80006d6:	4a26      	ldr	r2, [pc, #152]	; (8000770 <Data_Get_Sync+0xac>)
 80006d8:	fb82 1203 	smull	r1, r2, r2, r3
 80006dc:	1311      	asrs	r1, r2, #12
 80006de:	17da      	asrs	r2, r3, #31
 80006e0:	1a8a      	subs	r2, r1, r2
 80006e2:	f242 7110 	movw	r1, #10000	; 0x2710
 80006e6:	fb01 f202 	mul.w	r2, r1, r2
 80006ea:	1a9a      	subs	r2, r3, r2
 80006ec:	b291      	uxth	r1, r2
 80006ee:	4a21      	ldr	r2, [pc, #132]	; (8000774 <Data_Get_Sync+0xb0>)
 80006f0:	68fb      	ldr	r3, [r7, #12]
 80006f2:	3304      	adds	r3, #4
 80006f4:	005b      	lsls	r3, r3, #1
 80006f6:	4413      	add	r3, r2
 80006f8:	460a      	mov	r2, r1
 80006fa:	f8a3 2001 	strh.w	r2, [r3, #1]
	for(int i=0;i<4;i++)
 80006fe:	68fb      	ldr	r3, [r7, #12]
 8000700:	3301      	adds	r3, #1
 8000702:	60fb      	str	r3, [r7, #12]
 8000704:	68fb      	ldr	r3, [r7, #12]
 8000706:	2b03      	cmp	r3, #3
 8000708:	dde2      	ble.n	80006d0 <Data_Get_Sync+0xc>
	}
	_model_state._dataMain.Res=rand()%255;
 800070a:	f003 fd81 	bl	8004210 <rand>
 800070e:	4602      	mov	r2, r0
 8000710:	4b19      	ldr	r3, [pc, #100]	; (8000778 <Data_Get_Sync+0xb4>)
 8000712:	fb83 1302 	smull	r1, r3, r3, r2
 8000716:	4413      	add	r3, r2
 8000718:	11d9      	asrs	r1, r3, #7
 800071a:	17d3      	asrs	r3, r2, #31
 800071c:	1ac9      	subs	r1, r1, r3
 800071e:	460b      	mov	r3, r1
 8000720:	021b      	lsls	r3, r3, #8
 8000722:	1a5b      	subs	r3, r3, r1
 8000724:	1ad1      	subs	r1, r2, r3
 8000726:	b2ca      	uxtb	r2, r1
 8000728:	4b12      	ldr	r3, [pc, #72]	; (8000774 <Data_Get_Sync+0xb0>)
 800072a:	745a      	strb	r2, [r3, #17]
	uint8_t DataBuffer[sizeof(_model_state._dataMain)]={0};
 800072c:	2300      	movs	r3, #0
 800072e:	603b      	str	r3, [r7, #0]
 8000730:	1d3b      	adds	r3, r7, #4
 8000732:	2200      	movs	r2, #0
 8000734:	601a      	str	r2, [r3, #0]
 8000736:	809a      	strh	r2, [r3, #4]
	uint8_t SizeBuf=sizeof(_model_state._dataMain);
 8000738:	230a      	movs	r3, #10
 800073a:	72fb      	strb	r3, [r7, #11]
	memcpy(DataBuffer,&_model_state._dataMain,sizeof(_model_state._dataMain));
 800073c:	4a0d      	ldr	r2, [pc, #52]	; (8000774 <Data_Get_Sync+0xb0>)
 800073e:	463b      	mov	r3, r7
 8000740:	3208      	adds	r2, #8
 8000742:	ca07      	ldmia	r2, {r0, r1, r2}
 8000744:	c303      	stmia	r3!, {r0, r1}
 8000746:	801a      	strh	r2, [r3, #0]
	if(NRF24_write(DataBuffer, SizeBuf))
 8000748:	7afa      	ldrb	r2, [r7, #11]
 800074a:	463b      	mov	r3, r7
 800074c:	4611      	mov	r1, r2
 800074e:	4618      	mov	r0, r3
 8000750:	f000 fb8c 	bl	8000e6c <NRF24_write>
 8000754:	4603      	mov	r3, r0
 8000756:	2b00      	cmp	r3, #0
 8000758:	d005      	beq.n	8000766 <Data_Get_Sync+0xa2>
	{
		//NRF24_read(AckPayload, 32);
		HAL_UART_Transmit(&huart1, (uint8_t *)"Transmitted Successfully\r\n", strlen("Transmitted Successfully\r\n"), 10);
 800075a:	230a      	movs	r3, #10
 800075c:	221a      	movs	r2, #26
 800075e:	4907      	ldr	r1, [pc, #28]	; (800077c <Data_Get_Sync+0xb8>)
 8000760:	4807      	ldr	r0, [pc, #28]	; (8000780 <Data_Get_Sync+0xbc>)
 8000762:	f003 fb62 	bl	8003e2a <HAL_UART_Transmit>
					//HAL_UART_Transmit(&huart2, (uint8_t *)myDataack, strlen(myDataack), 10);
	}



}
 8000766:	bf00      	nop
 8000768:	3710      	adds	r7, #16
 800076a:	46bd      	mov	sp, r7
 800076c:	bd80      	pop	{r7, pc}
 800076e:	bf00      	nop
 8000770:	68db8bad 	.word	0x68db8bad
 8000774:	200000a8 	.word	0x200000a8
 8000778:	80808081 	.word	0x80808081
 800077c:	080055e4 	.word	0x080055e4
 8000780:	20000114 	.word	0x20000114

08000784 <Init_Logic>:


/*******************Main Init ************************/
void Init_Logic(void)
{
 8000784:	b580      	push	{r7, lr}
 8000786:	af00      	add	r7, sp, #0
	GPIO_INit();
 8000788:	f7ff fefe 	bl	8000588 <GPIO_INit>
	Init_Timer_StateWork();
 800078c:	f7ff ff52 	bl	8000634 <Init_Timer_StateWork>
	NRF24_begin();
 8000790:	f000 faa5 	bl	8000cde <NRF24_begin>
	nrf24_DebugUART_Init();
 8000794:	f001 fa50 	bl	8001c38 <nrf24_DebugUART_Init>
	printRadioSettings();
 8000798:	f000 fe26 	bl	80013e8 <printRadioSettings>
	//**** TRANSMIT - ACK ****//
	NRF24_stopListening();
 800079c:	f000 fb5a 	bl	8000e54 <NRF24_stopListening>
	NRF24_openWritingPipe(TxpipeAddrs);
 80007a0:	4b0c      	ldr	r3, [pc, #48]	; (80007d4 <Init_Logic+0x50>)
 80007a2:	e9d3 2300 	ldrd	r2, r3, [r3]
 80007a6:	4610      	mov	r0, r2
 80007a8:	4619      	mov	r1, r3
 80007aa:	f000 fbb3 	bl	8000f14 <NRF24_openWritingPipe>
	NRF24_setAutoAck(true);
 80007ae:	2001      	movs	r0, #1
 80007b0:	f000 fc9a 	bl	80010e8 <NRF24_setAutoAck>
	NRF24_setChannel(52);
 80007b4:	2034      	movs	r0, #52	; 0x34
 80007b6:	f000 fbec 	bl	8000f92 <NRF24_setChannel>
	NRF24_setPayloadSize(32);
 80007ba:	2020      	movs	r0, #32
 80007bc:	f000 fbfe 	bl	8000fbc <NRF24_setPayloadSize>

	NRF24_enableDynamicPayloads();
 80007c0:	f000 fc48 	bl	8001054 <NRF24_enableDynamicPayloads>
	NRF24_enableAckPayload();
 80007c4:	f000 fc18 	bl	8000ff8 <NRF24_enableAckPayload>



	Init_Sync_Tim();
 80007c8:	f7ff ff58 	bl	800067c <Init_Sync_Tim>
	Init_Model_Work();
 80007cc:	f7ff fea8 	bl	8000520 <Init_Model_Work>

}
 80007d0:	bf00      	nop
 80007d2:	bd80      	pop	{r7, pc}
 80007d4:	20000000 	.word	0x20000000

080007d8 <Get_Status_Trigger>:


uint8_t Get_Status_Trigger(void)
{
 80007d8:	b480      	push	{r7}
 80007da:	af00      	add	r7, sp, #0
	return _model_state.sync_trigger;
 80007dc:	4b02      	ldr	r3, [pc, #8]	; (80007e8 <Get_Status_Trigger+0x10>)
 80007de:	789b      	ldrb	r3, [r3, #2]
}
 80007e0:	4618      	mov	r0, r3
 80007e2:	46bd      	mov	sp, r7
 80007e4:	bc80      	pop	{r7}
 80007e6:	4770      	bx	lr
 80007e8:	200000a8 	.word	0x200000a8

080007ec <Reset_Trigger>:

/*****************Step In 0 Tim***************/
void Reset_Trigger(void)
{
 80007ec:	b480      	push	{r7}
 80007ee:	af00      	add	r7, sp, #0
	_model_state.sync_trigger=0;
 80007f0:	4b03      	ldr	r3, [pc, #12]	; (8000800 <Reset_Trigger+0x14>)
 80007f2:	2200      	movs	r2, #0
 80007f4:	709a      	strb	r2, [r3, #2]
}
 80007f6:	bf00      	nop
 80007f8:	46bd      	mov	sp, r7
 80007fa:	bc80      	pop	{r7}
 80007fc:	4770      	bx	lr
 80007fe:	bf00      	nop
 8000800:	200000a8 	.word	0x200000a8

08000804 <Indicate_Led_MCU>:


/******************Indicate work MCU*****************/
void Indicate_Led_MCU(void)
{
 8000804:	b580      	push	{r7, lr}
 8000806:	af00      	add	r7, sp, #0
	if(_model_state.state_Ledx%2==0)
 8000808:	4b10      	ldr	r3, [pc, #64]	; (800084c <Indicate_Led_MCU+0x48>)
 800080a:	78db      	ldrb	r3, [r3, #3]
 800080c:	f003 0301 	and.w	r3, r3, #1
 8000810:	b2db      	uxtb	r3, r3
 8000812:	2b00      	cmp	r3, #0
 8000814:	d10c      	bne.n	8000830 <Indicate_Led_MCU+0x2c>
		{
			LED1_ON();
 8000816:	2201      	movs	r2, #1
 8000818:	f44f 7100 	mov.w	r1, #512	; 0x200
 800081c:	480c      	ldr	r0, [pc, #48]	; (8000850 <Indicate_Led_MCU+0x4c>)
 800081e:	f001 ff33 	bl	8002688 <HAL_GPIO_WritePin>
			LED2_OFF();
 8000822:	2200      	movs	r2, #0
 8000824:	f44f 7180 	mov.w	r1, #256	; 0x100
 8000828:	4809      	ldr	r0, [pc, #36]	; (8000850 <Indicate_Led_MCU+0x4c>)
 800082a:	f001 ff2d 	bl	8002688 <HAL_GPIO_WritePin>
		{
			LED1_OFF();
			LED2_ON();

		}
}
 800082e:	e00b      	b.n	8000848 <Indicate_Led_MCU+0x44>
			LED1_OFF();
 8000830:	2200      	movs	r2, #0
 8000832:	f44f 7100 	mov.w	r1, #512	; 0x200
 8000836:	4806      	ldr	r0, [pc, #24]	; (8000850 <Indicate_Led_MCU+0x4c>)
 8000838:	f001 ff26 	bl	8002688 <HAL_GPIO_WritePin>
			LED2_ON();
 800083c:	2201      	movs	r2, #1
 800083e:	f44f 7180 	mov.w	r1, #256	; 0x100
 8000842:	4803      	ldr	r0, [pc, #12]	; (8000850 <Indicate_Led_MCU+0x4c>)
 8000844:	f001 ff20 	bl	8002688 <HAL_GPIO_WritePin>
}
 8000848:	bf00      	nop
 800084a:	bd80      	pop	{r7, pc}
 800084c:	200000a8 	.word	0x200000a8
 8000850:	40020800 	.word	0x40020800

08000854 <NRF24_Hardware_Init>:
static void NRF24_UART_Init(void);


/***********************Init SPI && GPIO*******************/
static void NRF24_Hardware_Init(void)
{
 8000854:	b580      	push	{r7, lr}
 8000856:	b08a      	sub	sp, #40	; 0x28
 8000858:	af00      	add	r7, sp, #0
	GPIO_InitTypeDef GPIO_InitStruct = {0};
 800085a:	f107 0314 	add.w	r3, r7, #20
 800085e:	2200      	movs	r2, #0
 8000860:	601a      	str	r2, [r3, #0]
 8000862:	605a      	str	r2, [r3, #4]
 8000864:	609a      	str	r2, [r3, #8]
 8000866:	60da      	str	r2, [r3, #12]
 8000868:	611a      	str	r2, [r3, #16]
	NRF24_CLOCK_GPIO;
 800086a:	4b52      	ldr	r3, [pc, #328]	; (80009b4 <NRF24_Hardware_Init+0x160>)
 800086c:	69db      	ldr	r3, [r3, #28]
 800086e:	4a51      	ldr	r2, [pc, #324]	; (80009b4 <NRF24_Hardware_Init+0x160>)
 8000870:	f043 0301 	orr.w	r3, r3, #1
 8000874:	61d3      	str	r3, [r2, #28]
 8000876:	4b4f      	ldr	r3, [pc, #316]	; (80009b4 <NRF24_Hardware_Init+0x160>)
 8000878:	69db      	ldr	r3, [r3, #28]
 800087a:	f003 0301 	and.w	r3, r3, #1
 800087e:	613b      	str	r3, [r7, #16]
 8000880:	693b      	ldr	r3, [r7, #16]
	NRF24_CLOCK_SPI;
 8000882:	4b4c      	ldr	r3, [pc, #304]	; (80009b4 <NRF24_Hardware_Init+0x160>)
 8000884:	6a1b      	ldr	r3, [r3, #32]
 8000886:	4a4b      	ldr	r2, [pc, #300]	; (80009b4 <NRF24_Hardware_Init+0x160>)
 8000888:	f443 5380 	orr.w	r3, r3, #4096	; 0x1000
 800088c:	6213      	str	r3, [r2, #32]
 800088e:	4b49      	ldr	r3, [pc, #292]	; (80009b4 <NRF24_Hardware_Init+0x160>)
 8000890:	6a1b      	ldr	r3, [r3, #32]
 8000892:	f403 5380 	and.w	r3, r3, #4096	; 0x1000
 8000896:	60fb      	str	r3, [r7, #12]
 8000898:	68fb      	ldr	r3, [r7, #12]
	/**SPI1 GPIO Configuration
	    PA5     ------> SPI1_SCK
	    PA6     ------> SPI1_MISO
	    PA7     ------> SPI1_MOSI
	    */
	GPIO_InitStruct.Pin = nrf24_PIN_SPI_SCK|nrf24_PIN_SPI_MISO|nrf24_PIN_SPI_MOSI;
 800089a:	23e0      	movs	r3, #224	; 0xe0
 800089c:	617b      	str	r3, [r7, #20]
	GPIO_InitStruct.Mode = GPIO_MODE_AF_PP;
 800089e:	2302      	movs	r3, #2
 80008a0:	61bb      	str	r3, [r7, #24]
	GPIO_InitStruct.Pull = GPIO_NOPULL;
 80008a2:	2300      	movs	r3, #0
 80008a4:	61fb      	str	r3, [r7, #28]
	GPIO_InitStruct.Speed = GPIO_SPEED_FREQ_VERY_HIGH;
 80008a6:	2303      	movs	r3, #3
 80008a8:	623b      	str	r3, [r7, #32]
	GPIO_InitStruct.Alternate = SPI_ALTERNATIVE;
 80008aa:	2305      	movs	r3, #5
 80008ac:	627b      	str	r3, [r7, #36]	; 0x24
	HAL_GPIO_Init(nrf24_PORT_SPI, &GPIO_InitStruct);
 80008ae:	f107 0314 	add.w	r3, r7, #20
 80008b2:	4619      	mov	r1, r3
 80008b4:	4840      	ldr	r0, [pc, #256]	; (80009b8 <NRF24_Hardware_Init+0x164>)
 80008b6:	f001 fd6f 	bl	8002398 <HAL_GPIO_Init>




	nrf24_hspi.Instance = SPI_HUNDLER_REG;
 80008ba:	4b40      	ldr	r3, [pc, #256]	; (80009bc <NRF24_Hardware_Init+0x168>)
 80008bc:	4a40      	ldr	r2, [pc, #256]	; (80009c0 <NRF24_Hardware_Init+0x16c>)
 80008be:	601a      	str	r2, [r3, #0]
	nrf24_hspi.Init.Mode = SPI_MODE_MASTER;
 80008c0:	4b3e      	ldr	r3, [pc, #248]	; (80009bc <NRF24_Hardware_Init+0x168>)
 80008c2:	f44f 7282 	mov.w	r2, #260	; 0x104
 80008c6:	605a      	str	r2, [r3, #4]
	nrf24_hspi.Init.Direction = SPI_DIRECTION_2LINES;
 80008c8:	4b3c      	ldr	r3, [pc, #240]	; (80009bc <NRF24_Hardware_Init+0x168>)
 80008ca:	2200      	movs	r2, #0
 80008cc:	609a      	str	r2, [r3, #8]
	nrf24_hspi.Init.DataSize = SPI_DATASIZE_8BIT;
 80008ce:	4b3b      	ldr	r3, [pc, #236]	; (80009bc <NRF24_Hardware_Init+0x168>)
 80008d0:	2200      	movs	r2, #0
 80008d2:	60da      	str	r2, [r3, #12]
	nrf24_hspi.Init.CLKPolarity = SPI_POLARITY_LOW;
 80008d4:	4b39      	ldr	r3, [pc, #228]	; (80009bc <NRF24_Hardware_Init+0x168>)
 80008d6:	2200      	movs	r2, #0
 80008d8:	611a      	str	r2, [r3, #16]
	nrf24_hspi.Init.CLKPhase = SPI_PHASE_1EDGE;
 80008da:	4b38      	ldr	r3, [pc, #224]	; (80009bc <NRF24_Hardware_Init+0x168>)
 80008dc:	2200      	movs	r2, #0
 80008de:	615a      	str	r2, [r3, #20]
	nrf24_hspi.Init.NSS = SPI_NSS_SOFT;
 80008e0:	4b36      	ldr	r3, [pc, #216]	; (80009bc <NRF24_Hardware_Init+0x168>)
 80008e2:	f44f 7200 	mov.w	r2, #512	; 0x200
 80008e6:	619a      	str	r2, [r3, #24]
	nrf24_hspi.Init.BaudRatePrescaler = SPI_BAUDRATEPRESCALER_2;
 80008e8:	4b34      	ldr	r3, [pc, #208]	; (80009bc <NRF24_Hardware_Init+0x168>)
 80008ea:	2200      	movs	r2, #0
 80008ec:	61da      	str	r2, [r3, #28]
	nrf24_hspi.Init.FirstBit = SPI_FIRSTBIT_MSB;
 80008ee:	4b33      	ldr	r3, [pc, #204]	; (80009bc <NRF24_Hardware_Init+0x168>)
 80008f0:	2200      	movs	r2, #0
 80008f2:	621a      	str	r2, [r3, #32]
	nrf24_hspi.Init.TIMode = SPI_TIMODE_DISABLE;
 80008f4:	4b31      	ldr	r3, [pc, #196]	; (80009bc <NRF24_Hardware_Init+0x168>)
 80008f6:	2200      	movs	r2, #0
 80008f8:	625a      	str	r2, [r3, #36]	; 0x24
	nrf24_hspi.Init.CRCCalculation = SPI_CRCCALCULATION_DISABLE;
 80008fa:	4b30      	ldr	r3, [pc, #192]	; (80009bc <NRF24_Hardware_Init+0x168>)
 80008fc:	2200      	movs	r2, #0
 80008fe:	629a      	str	r2, [r3, #40]	; 0x28
	nrf24_hspi.Init.CRCPolynomial = 10;
 8000900:	4b2e      	ldr	r3, [pc, #184]	; (80009bc <NRF24_Hardware_Init+0x168>)
 8000902:	220a      	movs	r2, #10
 8000904:	62da      	str	r2, [r3, #44]	; 0x2c
	  if (HAL_SPI_Init(&nrf24_hspi) != HAL_OK)
 8000906:	482d      	ldr	r0, [pc, #180]	; (80009bc <NRF24_Hardware_Init+0x168>)
 8000908:	f002 fc9a 	bl	8003240 <HAL_SPI_Init>
 800090c:	4603      	mov	r3, r0
 800090e:	2b00      	cmp	r3, #0
 8000910:	d001      	beq.n	8000916 <NRF24_Hardware_Init+0xc2>
	  {
	    Error_Handler();
 8000912:	f001 f9fb 	bl	8001d0c <Error_Handler>
	  }


	  /* GPIO Ports Clock Enable */
	  	  NRF24_CLOCK_CE;
 8000916:	4b27      	ldr	r3, [pc, #156]	; (80009b4 <NRF24_Hardware_Init+0x160>)
 8000918:	69db      	ldr	r3, [r3, #28]
 800091a:	4a26      	ldr	r2, [pc, #152]	; (80009b4 <NRF24_Hardware_Init+0x160>)
 800091c:	f043 0304 	orr.w	r3, r3, #4
 8000920:	61d3      	str	r3, [r2, #28]
 8000922:	4b24      	ldr	r3, [pc, #144]	; (80009b4 <NRF24_Hardware_Init+0x160>)
 8000924:	69db      	ldr	r3, [r3, #28]
 8000926:	f003 0304 	and.w	r3, r3, #4
 800092a:	60bb      	str	r3, [r7, #8]
 800092c:	68bb      	ldr	r3, [r7, #8]
	  	  NRF24_CLOCK_CSN;
 800092e:	4b21      	ldr	r3, [pc, #132]	; (80009b4 <NRF24_Hardware_Init+0x160>)
 8000930:	69db      	ldr	r3, [r3, #28]
 8000932:	4a20      	ldr	r2, [pc, #128]	; (80009b4 <NRF24_Hardware_Init+0x160>)
 8000934:	f043 0301 	orr.w	r3, r3, #1
 8000938:	61d3      	str	r3, [r2, #28]
 800093a:	4b1e      	ldr	r3, [pc, #120]	; (80009b4 <NRF24_Hardware_Init+0x160>)
 800093c:	69db      	ldr	r3, [r3, #28]
 800093e:	f003 0301 	and.w	r3, r3, #1
 8000942:	607b      	str	r3, [r7, #4]
 8000944:	687b      	ldr	r3, [r7, #4]

	    /*Configure GPIO pin Output Level */
	    HAL_GPIO_WritePin(nrf24_PORT_CSN, nrf24_PIN_CSN, GPIO_PIN_RESET);
 8000946:	2200      	movs	r2, #0
 8000948:	2110      	movs	r1, #16
 800094a:	481b      	ldr	r0, [pc, #108]	; (80009b8 <NRF24_Hardware_Init+0x164>)
 800094c:	f001 fe9c 	bl	8002688 <HAL_GPIO_WritePin>

	    /*Configure GPIO pin Output Level */
	    HAL_GPIO_WritePin(nrf24_PORT_CE, nrf24_PIN_CE, GPIO_PIN_RESET);
 8000950:	2200      	movs	r2, #0
 8000952:	2110      	movs	r1, #16
 8000954:	481b      	ldr	r0, [pc, #108]	; (80009c4 <NRF24_Hardware_Init+0x170>)
 8000956:	f001 fe97 	bl	8002688 <HAL_GPIO_WritePin>

	    /*Configure GPIO pin : PtPin */
	    GPIO_InitStruct.Pin = nrf24_PIN_CSN;
 800095a:	2310      	movs	r3, #16
 800095c:	617b      	str	r3, [r7, #20]
	    GPIO_InitStruct.Mode = GPIO_MODE_OUTPUT_PP;
 800095e:	2301      	movs	r3, #1
 8000960:	61bb      	str	r3, [r7, #24]
	    GPIO_InitStruct.Pull = GPIO_NOPULL;
 8000962:	2300      	movs	r3, #0
 8000964:	61fb      	str	r3, [r7, #28]
	    GPIO_InitStruct.Speed = GPIO_SPEED_FREQ_LOW;
 8000966:	2300      	movs	r3, #0
 8000968:	623b      	str	r3, [r7, #32]
	    HAL_GPIO_Init(nrf24_PORT_CSN, &GPIO_InitStruct);
 800096a:	f107 0314 	add.w	r3, r7, #20
 800096e:	4619      	mov	r1, r3
 8000970:	4811      	ldr	r0, [pc, #68]	; (80009b8 <NRF24_Hardware_Init+0x164>)
 8000972:	f001 fd11 	bl	8002398 <HAL_GPIO_Init>

	    /*Configure GPIO pin : PtPin */
	    GPIO_InitStruct.Pin = nrf24_PIN_CE;
 8000976:	2310      	movs	r3, #16
 8000978:	617b      	str	r3, [r7, #20]
	    GPIO_InitStruct.Mode = GPIO_MODE_OUTPUT_PP;
 800097a:	2301      	movs	r3, #1
 800097c:	61bb      	str	r3, [r7, #24]
	    GPIO_InitStruct.Pull = GPIO_NOPULL;
 800097e:	2300      	movs	r3, #0
 8000980:	61fb      	str	r3, [r7, #28]
	    GPIO_InitStruct.Speed = GPIO_SPEED_FREQ_LOW;
 8000982:	2300      	movs	r3, #0
 8000984:	623b      	str	r3, [r7, #32]
	    HAL_GPIO_Init(nrf24_PORT_CE, &GPIO_InitStruct);
 8000986:	f107 0314 	add.w	r3, r7, #20
 800098a:	4619      	mov	r1, r3
 800098c:	480d      	ldr	r0, [pc, #52]	; (80009c4 <NRF24_Hardware_Init+0x170>)
 800098e:	f001 fd03 	bl	8002398 <HAL_GPIO_Init>

	    /*Configure GPIO pin : PtPin */
	    GPIO_InitStruct.Pin = nrf24_PIN_IRQ;
 8000992:	2320      	movs	r3, #32
 8000994:	617b      	str	r3, [r7, #20]
	    GPIO_InitStruct.Mode = GPIO_MODE_INPUT;
 8000996:	2300      	movs	r3, #0
 8000998:	61bb      	str	r3, [r7, #24]
	    GPIO_InitStruct.Pull = GPIO_NOPULL;
 800099a:	2300      	movs	r3, #0
 800099c:	61fb      	str	r3, [r7, #28]
	    HAL_GPIO_Init(nrf24_PORT_IRQ, &GPIO_InitStruct);
 800099e:	f107 0314 	add.w	r3, r7, #20
 80009a2:	4619      	mov	r1, r3
 80009a4:	4807      	ldr	r0, [pc, #28]	; (80009c4 <NRF24_Hardware_Init+0x170>)
 80009a6:	f001 fcf7 	bl	8002398 <HAL_GPIO_Init>





}
 80009aa:	bf00      	nop
 80009ac:	3728      	adds	r7, #40	; 0x28
 80009ae:	46bd      	mov	sp, r7
 80009b0:	bd80      	pop	{r7, pc}
 80009b2:	bf00      	nop
 80009b4:	40023800 	.word	0x40023800
 80009b8:	40020000 	.word	0x40020000
 80009bc:	200000bc 	.word	0x200000bc
 80009c0:	40013000 	.word	0x40013000
 80009c4:	40020800 	.word	0x40020800

080009c8 <NRF24_UART_Init>:

/***********************Init UART && GPIO*******************/
static void NRF24_UART_Init(void)
{
 80009c8:	b580      	push	{r7, lr}
 80009ca:	b088      	sub	sp, #32
 80009cc:	af00      	add	r7, sp, #0

	GPIO_InitTypeDef GPIO_InitStruct = {0};
 80009ce:	f107 030c 	add.w	r3, r7, #12
 80009d2:	2200      	movs	r2, #0
 80009d4:	601a      	str	r2, [r3, #0]
 80009d6:	605a      	str	r2, [r3, #4]
 80009d8:	609a      	str	r2, [r3, #8]
 80009da:	60da      	str	r2, [r3, #12]
 80009dc:	611a      	str	r2, [r3, #16]

	  /* USER CODE BEGIN USART1_MspInit 0 */

	  /* USER CODE END USART1_MspInit 0 */
	    /* USART1 clock enable */
		NRF24_DEBUG_UART_CLOCK;
 80009de:	4b27      	ldr	r3, [pc, #156]	; (8000a7c <NRF24_UART_Init+0xb4>)
 80009e0:	6a1b      	ldr	r3, [r3, #32]
 80009e2:	4a26      	ldr	r2, [pc, #152]	; (8000a7c <NRF24_UART_Init+0xb4>)
 80009e4:	f443 4380 	orr.w	r3, r3, #16384	; 0x4000
 80009e8:	6213      	str	r3, [r2, #32]
 80009ea:	4b24      	ldr	r3, [pc, #144]	; (8000a7c <NRF24_UART_Init+0xb4>)
 80009ec:	6a1b      	ldr	r3, [r3, #32]
 80009ee:	f403 4380 	and.w	r3, r3, #16384	; 0x4000
 80009f2:	60bb      	str	r3, [r7, #8]
 80009f4:	68bb      	ldr	r3, [r7, #8]

		NRF24_DEBUG_UART_GPIO_CLOCK;
 80009f6:	4b21      	ldr	r3, [pc, #132]	; (8000a7c <NRF24_UART_Init+0xb4>)
 80009f8:	69db      	ldr	r3, [r3, #28]
 80009fa:	4a20      	ldr	r2, [pc, #128]	; (8000a7c <NRF24_UART_Init+0xb4>)
 80009fc:	f043 0301 	orr.w	r3, r3, #1
 8000a00:	61d3      	str	r3, [r2, #28]
 8000a02:	4b1e      	ldr	r3, [pc, #120]	; (8000a7c <NRF24_UART_Init+0xb4>)
 8000a04:	69db      	ldr	r3, [r3, #28]
 8000a06:	f003 0301 	and.w	r3, r3, #1
 8000a0a:	607b      	str	r3, [r7, #4]
 8000a0c:	687b      	ldr	r3, [r7, #4]
	    /**USART1 GPIO Configuration
	    PA9     ------> USART1_TX
	    PA10     ------> USART1_RX
	    */
	    GPIO_InitStruct.Pin = nrf24_PIN_TXD|nrf24_PIN_RXD;
 8000a0e:	f44f 63c0 	mov.w	r3, #1536	; 0x600
 8000a12:	60fb      	str	r3, [r7, #12]
	    GPIO_InitStruct.Mode = GPIO_MODE_AF_PP;
 8000a14:	2302      	movs	r3, #2
 8000a16:	613b      	str	r3, [r7, #16]
	    GPIO_InitStruct.Pull = GPIO_NOPULL;
 8000a18:	2300      	movs	r3, #0
 8000a1a:	617b      	str	r3, [r7, #20]
	    GPIO_InitStruct.Speed = GPIO_SPEED_FREQ_VERY_HIGH;
 8000a1c:	2303      	movs	r3, #3
 8000a1e:	61bb      	str	r3, [r7, #24]
	    GPIO_InitStruct.Alternate = UART_DEBUG_ALTERNATIVE;
 8000a20:	2307      	movs	r3, #7
 8000a22:	61fb      	str	r3, [r7, #28]
	    HAL_GPIO_Init(PORT_UART_DEBUG, &GPIO_InitStruct);
 8000a24:	f107 030c 	add.w	r3, r7, #12
 8000a28:	4619      	mov	r1, r3
 8000a2a:	4815      	ldr	r0, [pc, #84]	; (8000a80 <NRF24_UART_Init+0xb8>)
 8000a2c:	f001 fcb4 	bl	8002398 <HAL_GPIO_Init>

	  /* USER CODE END USART1_MspInit 1 */



	huart1.Instance = USART1;
 8000a30:	4b14      	ldr	r3, [pc, #80]	; (8000a84 <NRF24_UART_Init+0xbc>)
 8000a32:	4a15      	ldr	r2, [pc, #84]	; (8000a88 <NRF24_UART_Init+0xc0>)
 8000a34:	601a      	str	r2, [r3, #0]
	huart1.Init.BaudRate = 115200;
 8000a36:	4b13      	ldr	r3, [pc, #76]	; (8000a84 <NRF24_UART_Init+0xbc>)
 8000a38:	f44f 32e1 	mov.w	r2, #115200	; 0x1c200
 8000a3c:	605a      	str	r2, [r3, #4]
	huart1.Init.WordLength = UART_WORDLENGTH_8B;
 8000a3e:	4b11      	ldr	r3, [pc, #68]	; (8000a84 <NRF24_UART_Init+0xbc>)
 8000a40:	2200      	movs	r2, #0
 8000a42:	609a      	str	r2, [r3, #8]
	huart1.Init.StopBits = UART_STOPBITS_1;
 8000a44:	4b0f      	ldr	r3, [pc, #60]	; (8000a84 <NRF24_UART_Init+0xbc>)
 8000a46:	2200      	movs	r2, #0
 8000a48:	60da      	str	r2, [r3, #12]
	huart1.Init.Parity = UART_PARITY_NONE;
 8000a4a:	4b0e      	ldr	r3, [pc, #56]	; (8000a84 <NRF24_UART_Init+0xbc>)
 8000a4c:	2200      	movs	r2, #0
 8000a4e:	611a      	str	r2, [r3, #16]
	huart1.Init.Mode = UART_MODE_TX_RX;
 8000a50:	4b0c      	ldr	r3, [pc, #48]	; (8000a84 <NRF24_UART_Init+0xbc>)
 8000a52:	220c      	movs	r2, #12
 8000a54:	615a      	str	r2, [r3, #20]
	huart1.Init.HwFlowCtl = UART_HWCONTROL_NONE;
 8000a56:	4b0b      	ldr	r3, [pc, #44]	; (8000a84 <NRF24_UART_Init+0xbc>)
 8000a58:	2200      	movs	r2, #0
 8000a5a:	619a      	str	r2, [r3, #24]
	huart1.Init.OverSampling = UART_OVERSAMPLING_16;
 8000a5c:	4b09      	ldr	r3, [pc, #36]	; (8000a84 <NRF24_UART_Init+0xbc>)
 8000a5e:	2200      	movs	r2, #0
 8000a60:	61da      	str	r2, [r3, #28]
	if (HAL_UART_Init(&huart1) != HAL_OK)
 8000a62:	4808      	ldr	r0, [pc, #32]	; (8000a84 <NRF24_UART_Init+0xbc>)
 8000a64:	f003 f994 	bl	8003d90 <HAL_UART_Init>
 8000a68:	4603      	mov	r3, r0
 8000a6a:	2b00      	cmp	r3, #0
 8000a6c:	d001      	beq.n	8000a72 <NRF24_UART_Init+0xaa>
	{
	   Error_Handler();
 8000a6e:	f001 f94d 	bl	8001d0c <Error_Handler>
	}



}
 8000a72:	bf00      	nop
 8000a74:	3720      	adds	r7, #32
 8000a76:	46bd      	mov	sp, r7
 8000a78:	bd80      	pop	{r7, pc}
 8000a7a:	bf00      	nop
 8000a7c:	40023800 	.word	0x40023800
 8000a80:	40020000 	.word	0x40020000
 8000a84:	20000114 	.word	0x20000114
 8000a88:	40013800 	.word	0x40013800

08000a8c <NRF24_DelayMicroSeconds>:
//**** Functions prototypes ****//
//Microsecond delay function
void NRF24_DelayMicroSeconds(uint32_t uSec)
{
 8000a8c:	b480      	push	{r7}
 8000a8e:	b085      	sub	sp, #20
 8000a90:	af00      	add	r7, sp, #0
 8000a92:	6078      	str	r0, [r7, #4]
	uint32_t uSecVar = uSec;
 8000a94:	687b      	ldr	r3, [r7, #4]
 8000a96:	60fb      	str	r3, [r7, #12]
	uSecVar = uSecVar* ((SystemCoreClock/1000000)/3);
 8000a98:	4b0a      	ldr	r3, [pc, #40]	; (8000ac4 <NRF24_DelayMicroSeconds+0x38>)
 8000a9a:	681b      	ldr	r3, [r3, #0]
 8000a9c:	4a0a      	ldr	r2, [pc, #40]	; (8000ac8 <NRF24_DelayMicroSeconds+0x3c>)
 8000a9e:	fba2 2303 	umull	r2, r3, r2, r3
 8000aa2:	0c9a      	lsrs	r2, r3, #18
 8000aa4:	68fb      	ldr	r3, [r7, #12]
 8000aa6:	fb02 f303 	mul.w	r3, r2, r3
 8000aaa:	60fb      	str	r3, [r7, #12]
	while(uSecVar--);
 8000aac:	bf00      	nop
 8000aae:	68fb      	ldr	r3, [r7, #12]
 8000ab0:	1e5a      	subs	r2, r3, #1
 8000ab2:	60fa      	str	r2, [r7, #12]
 8000ab4:	2b00      	cmp	r3, #0
 8000ab6:	d1fa      	bne.n	8000aae <NRF24_DelayMicroSeconds+0x22>
}
 8000ab8:	bf00      	nop
 8000aba:	bf00      	nop
 8000abc:	3714      	adds	r7, #20
 8000abe:	46bd      	mov	sp, r7
 8000ac0:	bc80      	pop	{r7}
 8000ac2:	4770      	bx	lr
 8000ac4:	20000008 	.word	0x20000008
 8000ac8:	165e9f81 	.word	0x165e9f81

08000acc <NRF24_csn>:


//1. Chip Select function
void NRF24_csn(int state)
{
 8000acc:	b580      	push	{r7, lr}
 8000ace:	b082      	sub	sp, #8
 8000ad0:	af00      	add	r7, sp, #0
 8000ad2:	6078      	str	r0, [r7, #4]
	if(state) HAL_GPIO_WritePin(nrf24_PORT_CSN, nrf24_PIN_CSN, GPIO_PIN_SET);
 8000ad4:	687b      	ldr	r3, [r7, #4]
 8000ad6:	2b00      	cmp	r3, #0
 8000ad8:	d005      	beq.n	8000ae6 <NRF24_csn+0x1a>
 8000ada:	2201      	movs	r2, #1
 8000adc:	2110      	movs	r1, #16
 8000ade:	4806      	ldr	r0, [pc, #24]	; (8000af8 <NRF24_csn+0x2c>)
 8000ae0:	f001 fdd2 	bl	8002688 <HAL_GPIO_WritePin>
	else HAL_GPIO_WritePin(nrf24_PORT_CSN, nrf24_PIN_CSN, GPIO_PIN_RESET);
}
 8000ae4:	e004      	b.n	8000af0 <NRF24_csn+0x24>
	else HAL_GPIO_WritePin(nrf24_PORT_CSN, nrf24_PIN_CSN, GPIO_PIN_RESET);
 8000ae6:	2200      	movs	r2, #0
 8000ae8:	2110      	movs	r1, #16
 8000aea:	4803      	ldr	r0, [pc, #12]	; (8000af8 <NRF24_csn+0x2c>)
 8000aec:	f001 fdcc 	bl	8002688 <HAL_GPIO_WritePin>
}
 8000af0:	bf00      	nop
 8000af2:	3708      	adds	r7, #8
 8000af4:	46bd      	mov	sp, r7
 8000af6:	bd80      	pop	{r7, pc}
 8000af8:	40020000 	.word	0x40020000

08000afc <NRF24_ce>:
//2. Chip Enable
void NRF24_ce(int state)
{
 8000afc:	b580      	push	{r7, lr}
 8000afe:	b082      	sub	sp, #8
 8000b00:	af00      	add	r7, sp, #0
 8000b02:	6078      	str	r0, [r7, #4]
	if(state) HAL_GPIO_WritePin(nrf24_PORT_CE, nrf24_PIN_CE, GPIO_PIN_SET);
 8000b04:	687b      	ldr	r3, [r7, #4]
 8000b06:	2b00      	cmp	r3, #0
 8000b08:	d005      	beq.n	8000b16 <NRF24_ce+0x1a>
 8000b0a:	2201      	movs	r2, #1
 8000b0c:	2110      	movs	r1, #16
 8000b0e:	4806      	ldr	r0, [pc, #24]	; (8000b28 <NRF24_ce+0x2c>)
 8000b10:	f001 fdba 	bl	8002688 <HAL_GPIO_WritePin>
	else HAL_GPIO_WritePin(nrf24_PORT_CE, nrf24_PIN_CE, GPIO_PIN_RESET);
}
 8000b14:	e004      	b.n	8000b20 <NRF24_ce+0x24>
	else HAL_GPIO_WritePin(nrf24_PORT_CE, nrf24_PIN_CE, GPIO_PIN_RESET);
 8000b16:	2200      	movs	r2, #0
 8000b18:	2110      	movs	r1, #16
 8000b1a:	4803      	ldr	r0, [pc, #12]	; (8000b28 <NRF24_ce+0x2c>)
 8000b1c:	f001 fdb4 	bl	8002688 <HAL_GPIO_WritePin>
}
 8000b20:	bf00      	nop
 8000b22:	3708      	adds	r7, #8
 8000b24:	46bd      	mov	sp, r7
 8000b26:	bd80      	pop	{r7, pc}
 8000b28:	40020800 	.word	0x40020800

08000b2c <NRF24_read_register>:


//3. Read single byte from a register
uint8_t NRF24_read_register(uint8_t reg)
{
 8000b2c:	b580      	push	{r7, lr}
 8000b2e:	b084      	sub	sp, #16
 8000b30:	af00      	add	r7, sp, #0
 8000b32:	4603      	mov	r3, r0
 8000b34:	71fb      	strb	r3, [r7, #7]
	uint8_t spiBuf[3];
	uint8_t retData;
	//Put CSN low
	NRF24_csn(0);
 8000b36:	2000      	movs	r0, #0
 8000b38:	f7ff ffc8 	bl	8000acc <NRF24_csn>
	//Transmit register address
	spiBuf[0] = reg&0x1F;
 8000b3c:	79fb      	ldrb	r3, [r7, #7]
 8000b3e:	f003 031f 	and.w	r3, r3, #31
 8000b42:	b2db      	uxtb	r3, r3
 8000b44:	733b      	strb	r3, [r7, #12]
	HAL_SPI_Transmit(&nrf24_hspi, spiBuf, 1, 100);
 8000b46:	f107 010c 	add.w	r1, r7, #12
 8000b4a:	2364      	movs	r3, #100	; 0x64
 8000b4c:	2201      	movs	r2, #1
 8000b4e:	480a      	ldr	r0, [pc, #40]	; (8000b78 <NRF24_read_register+0x4c>)
 8000b50:	f002 fbff 	bl	8003352 <HAL_SPI_Transmit>
	//Receive data
	HAL_SPI_Receive(&nrf24_hspi, &spiBuf[1], 1, 100);
 8000b54:	f107 030c 	add.w	r3, r7, #12
 8000b58:	1c59      	adds	r1, r3, #1
 8000b5a:	2364      	movs	r3, #100	; 0x64
 8000b5c:	2201      	movs	r2, #1
 8000b5e:	4806      	ldr	r0, [pc, #24]	; (8000b78 <NRF24_read_register+0x4c>)
 8000b60:	f002 fd33 	bl	80035ca <HAL_SPI_Receive>
	retData = spiBuf[1];
 8000b64:	7b7b      	ldrb	r3, [r7, #13]
 8000b66:	73fb      	strb	r3, [r7, #15]
	//Bring CSN high
	NRF24_csn(1);
 8000b68:	2001      	movs	r0, #1
 8000b6a:	f7ff ffaf 	bl	8000acc <NRF24_csn>
	return retData;
 8000b6e:	7bfb      	ldrb	r3, [r7, #15]
}
 8000b70:	4618      	mov	r0, r3
 8000b72:	3710      	adds	r7, #16
 8000b74:	46bd      	mov	sp, r7
 8000b76:	bd80      	pop	{r7, pc}
 8000b78:	200000bc 	.word	0x200000bc

08000b7c <NRF24_read_registerN>:


//4. Read multiple bytes register
void NRF24_read_registerN(uint8_t reg, uint8_t *buf, uint8_t len)
{
 8000b7c:	b580      	push	{r7, lr}
 8000b7e:	b084      	sub	sp, #16
 8000b80:	af00      	add	r7, sp, #0
 8000b82:	4603      	mov	r3, r0
 8000b84:	6039      	str	r1, [r7, #0]
 8000b86:	71fb      	strb	r3, [r7, #7]
 8000b88:	4613      	mov	r3, r2
 8000b8a:	71bb      	strb	r3, [r7, #6]
	uint8_t spiBuf[3];
	//Put CSN low
	NRF24_csn(0);
 8000b8c:	2000      	movs	r0, #0
 8000b8e:	f7ff ff9d 	bl	8000acc <NRF24_csn>
	//Transmit register address
	spiBuf[0] = reg&0x1F;
 8000b92:	79fb      	ldrb	r3, [r7, #7]
 8000b94:	f003 031f 	and.w	r3, r3, #31
 8000b98:	b2db      	uxtb	r3, r3
 8000b9a:	733b      	strb	r3, [r7, #12]
	//spiStatus = NRF24_SPI_Write(spiBuf, 1);
	HAL_SPI_Transmit(&nrf24_hspi, spiBuf, 1, 100);
 8000b9c:	f107 010c 	add.w	r1, r7, #12
 8000ba0:	2364      	movs	r3, #100	; 0x64
 8000ba2:	2201      	movs	r2, #1
 8000ba4:	4808      	ldr	r0, [pc, #32]	; (8000bc8 <NRF24_read_registerN+0x4c>)
 8000ba6:	f002 fbd4 	bl	8003352 <HAL_SPI_Transmit>
	//Receive data
	HAL_SPI_Receive(&nrf24_hspi, buf, len, 100);
 8000baa:	79bb      	ldrb	r3, [r7, #6]
 8000bac:	b29a      	uxth	r2, r3
 8000bae:	2364      	movs	r3, #100	; 0x64
 8000bb0:	6839      	ldr	r1, [r7, #0]
 8000bb2:	4805      	ldr	r0, [pc, #20]	; (8000bc8 <NRF24_read_registerN+0x4c>)
 8000bb4:	f002 fd09 	bl	80035ca <HAL_SPI_Receive>
	//Bring CSN high
	NRF24_csn(1);
 8000bb8:	2001      	movs	r0, #1
 8000bba:	f7ff ff87 	bl	8000acc <NRF24_csn>
}
 8000bbe:	bf00      	nop
 8000bc0:	3710      	adds	r7, #16
 8000bc2:	46bd      	mov	sp, r7
 8000bc4:	bd80      	pop	{r7, pc}
 8000bc6:	bf00      	nop
 8000bc8:	200000bc 	.word	0x200000bc

08000bcc <NRF24_write_register>:


//5. Write single byte register
void NRF24_write_register(uint8_t reg, uint8_t value)
{
 8000bcc:	b580      	push	{r7, lr}
 8000bce:	b084      	sub	sp, #16
 8000bd0:	af00      	add	r7, sp, #0
 8000bd2:	4603      	mov	r3, r0
 8000bd4:	460a      	mov	r2, r1
 8000bd6:	71fb      	strb	r3, [r7, #7]
 8000bd8:	4613      	mov	r3, r2
 8000bda:	71bb      	strb	r3, [r7, #6]
	uint8_t spiBuf[3];
	//Put CSN low
	NRF24_csn(0);
 8000bdc:	2000      	movs	r0, #0
 8000bde:	f7ff ff75 	bl	8000acc <NRF24_csn>
	//Transmit register address and data
	spiBuf[0] = reg|0x20;
 8000be2:	79fb      	ldrb	r3, [r7, #7]
 8000be4:	f043 0320 	orr.w	r3, r3, #32
 8000be8:	b2db      	uxtb	r3, r3
 8000bea:	733b      	strb	r3, [r7, #12]
	spiBuf[1] = value;
 8000bec:	79bb      	ldrb	r3, [r7, #6]
 8000bee:	737b      	strb	r3, [r7, #13]
	HAL_SPI_Transmit(&nrf24_hspi, spiBuf, 2, 100);
 8000bf0:	f107 010c 	add.w	r1, r7, #12
 8000bf4:	2364      	movs	r3, #100	; 0x64
 8000bf6:	2202      	movs	r2, #2
 8000bf8:	4804      	ldr	r0, [pc, #16]	; (8000c0c <NRF24_write_register+0x40>)
 8000bfa:	f002 fbaa 	bl	8003352 <HAL_SPI_Transmit>
	//Bring CSN high
	NRF24_csn(1);
 8000bfe:	2001      	movs	r0, #1
 8000c00:	f7ff ff64 	bl	8000acc <NRF24_csn>
}
 8000c04:	bf00      	nop
 8000c06:	3710      	adds	r7, #16
 8000c08:	46bd      	mov	sp, r7
 8000c0a:	bd80      	pop	{r7, pc}
 8000c0c:	200000bc 	.word	0x200000bc

08000c10 <NRF24_write_registerN>:


//6. Write multipl bytes register
void NRF24_write_registerN(uint8_t reg, const uint8_t* buf, uint8_t len)
{
 8000c10:	b580      	push	{r7, lr}
 8000c12:	b084      	sub	sp, #16
 8000c14:	af00      	add	r7, sp, #0
 8000c16:	4603      	mov	r3, r0
 8000c18:	6039      	str	r1, [r7, #0]
 8000c1a:	71fb      	strb	r3, [r7, #7]
 8000c1c:	4613      	mov	r3, r2
 8000c1e:	71bb      	strb	r3, [r7, #6]
	uint8_t spiBuf[3];
	//Put CSN low
	NRF24_csn(0);
 8000c20:	2000      	movs	r0, #0
 8000c22:	f7ff ff53 	bl	8000acc <NRF24_csn>
	//Transmit register address and data
	spiBuf[0] = reg|0x20;
 8000c26:	79fb      	ldrb	r3, [r7, #7]
 8000c28:	f043 0320 	orr.w	r3, r3, #32
 8000c2c:	b2db      	uxtb	r3, r3
 8000c2e:	733b      	strb	r3, [r7, #12]
	HAL_SPI_Transmit(&nrf24_hspi, spiBuf, 1, 100);
 8000c30:	f107 010c 	add.w	r1, r7, #12
 8000c34:	2364      	movs	r3, #100	; 0x64
 8000c36:	2201      	movs	r2, #1
 8000c38:	4808      	ldr	r0, [pc, #32]	; (8000c5c <NRF24_write_registerN+0x4c>)
 8000c3a:	f002 fb8a 	bl	8003352 <HAL_SPI_Transmit>
	HAL_SPI_Transmit(&nrf24_hspi, (uint8_t*)buf, len, 100);
 8000c3e:	79bb      	ldrb	r3, [r7, #6]
 8000c40:	b29a      	uxth	r2, r3
 8000c42:	2364      	movs	r3, #100	; 0x64
 8000c44:	6839      	ldr	r1, [r7, #0]
 8000c46:	4805      	ldr	r0, [pc, #20]	; (8000c5c <NRF24_write_registerN+0x4c>)
 8000c48:	f002 fb83 	bl	8003352 <HAL_SPI_Transmit>
	//Bring CSN high
	NRF24_csn(1);
 8000c4c:	2001      	movs	r0, #1
 8000c4e:	f7ff ff3d 	bl	8000acc <NRF24_csn>
}
 8000c52:	bf00      	nop
 8000c54:	3710      	adds	r7, #16
 8000c56:	46bd      	mov	sp, r7
 8000c58:	bd80      	pop	{r7, pc}
 8000c5a:	bf00      	nop
 8000c5c:	200000bc 	.word	0x200000bc

08000c60 <NRF24_write_payload>:


//7. Write transmit payload
void NRF24_write_payload(const void* buf, uint8_t len)
{
 8000c60:	b580      	push	{r7, lr}
 8000c62:	b084      	sub	sp, #16
 8000c64:	af00      	add	r7, sp, #0
 8000c66:	6078      	str	r0, [r7, #4]
 8000c68:	460b      	mov	r3, r1
 8000c6a:	70fb      	strb	r3, [r7, #3]
	uint8_t wrPayloadCmd;
	//Bring CSN low
	NRF24_csn(0);
 8000c6c:	2000      	movs	r0, #0
 8000c6e:	f7ff ff2d 	bl	8000acc <NRF24_csn>
	//Send Write Tx payload command followed by pbuf data
	wrPayloadCmd = CMD_W_TX_PAYLOAD;
 8000c72:	23a0      	movs	r3, #160	; 0xa0
 8000c74:	73fb      	strb	r3, [r7, #15]
	HAL_SPI_Transmit(&nrf24_hspi, &wrPayloadCmd, 1, 100);
 8000c76:	f107 010f 	add.w	r1, r7, #15
 8000c7a:	2364      	movs	r3, #100	; 0x64
 8000c7c:	2201      	movs	r2, #1
 8000c7e:	4808      	ldr	r0, [pc, #32]	; (8000ca0 <NRF24_write_payload+0x40>)
 8000c80:	f002 fb67 	bl	8003352 <HAL_SPI_Transmit>
	HAL_SPI_Transmit(&nrf24_hspi, (uint8_t *)buf, len, 100);
 8000c84:	78fb      	ldrb	r3, [r7, #3]
 8000c86:	b29a      	uxth	r2, r3
 8000c88:	2364      	movs	r3, #100	; 0x64
 8000c8a:	6879      	ldr	r1, [r7, #4]
 8000c8c:	4804      	ldr	r0, [pc, #16]	; (8000ca0 <NRF24_write_payload+0x40>)
 8000c8e:	f002 fb60 	bl	8003352 <HAL_SPI_Transmit>
	//Bring CSN high
	NRF24_csn(1);
 8000c92:	2001      	movs	r0, #1
 8000c94:	f7ff ff1a 	bl	8000acc <NRF24_csn>
}
 8000c98:	bf00      	nop
 8000c9a:	3710      	adds	r7, #16
 8000c9c:	46bd      	mov	sp, r7
 8000c9e:	bd80      	pop	{r7, pc}
 8000ca0:	200000bc 	.word	0x200000bc

08000ca4 <NRF24_flush_tx>:
}


//9. Flush Tx buffer
void NRF24_flush_tx(void)
{
 8000ca4:	b580      	push	{r7, lr}
 8000ca6:	af00      	add	r7, sp, #0
	NRF24_write_register(CMD_FLUSH_TX, 0xFF);
 8000ca8:	21ff      	movs	r1, #255	; 0xff
 8000caa:	20e1      	movs	r0, #225	; 0xe1
 8000cac:	f7ff ff8e 	bl	8000bcc <NRF24_write_register>
}
 8000cb0:	bf00      	nop
 8000cb2:	bd80      	pop	{r7, pc}

08000cb4 <NRF24_flush_rx>:
//10. Flush Rx buffer
void NRF24_flush_rx(void)
{
 8000cb4:	b580      	push	{r7, lr}
 8000cb6:	af00      	add	r7, sp, #0
	NRF24_write_register(CMD_FLUSH_RX, 0xFF);
 8000cb8:	21ff      	movs	r1, #255	; 0xff
 8000cba:	20e2      	movs	r0, #226	; 0xe2
 8000cbc:	f7ff ff86 	bl	8000bcc <NRF24_write_register>
}
 8000cc0:	bf00      	nop
 8000cc2:	bd80      	pop	{r7, pc}

08000cc4 <NRF24_get_status>:
//11. Get status register value
uint8_t NRF24_get_status(void)
{
 8000cc4:	b580      	push	{r7, lr}
 8000cc6:	b082      	sub	sp, #8
 8000cc8:	af00      	add	r7, sp, #0
	uint8_t statReg;
	statReg = NRF24_read_register(REG_STATUS);
 8000cca:	2007      	movs	r0, #7
 8000ccc:	f7ff ff2e 	bl	8000b2c <NRF24_read_register>
 8000cd0:	4603      	mov	r3, r0
 8000cd2:	71fb      	strb	r3, [r7, #7]
	return statReg;
 8000cd4:	79fb      	ldrb	r3, [r7, #7]
}
 8000cd6:	4618      	mov	r0, r3
 8000cd8:	3708      	adds	r7, #8
 8000cda:	46bd      	mov	sp, r7
 8000cdc:	bd80      	pop	{r7, pc}

08000cde <NRF24_begin>:


//12. Begin function
void NRF24_begin(void)
{
 8000cde:	b580      	push	{r7, lr}
 8000ce0:	b082      	sub	sp, #8
 8000ce2:	af00      	add	r7, sp, #0
	NRF24_Hardware_Init();
 8000ce4:	f7ff fdb6 	bl	8000854 <NRF24_Hardware_Init>

	//Put pins to idle state
	NRF24_csn(1);
 8000ce8:	2001      	movs	r0, #1
 8000cea:	f7ff feef 	bl	8000acc <NRF24_csn>
	NRF24_ce(0);
 8000cee:	2000      	movs	r0, #0
 8000cf0:	f7ff ff04 	bl	8000afc <NRF24_ce>
	//5 ms initial delay
	HAL_Delay(5);
 8000cf4:	2005      	movs	r0, #5
 8000cf6:	f001 fa49 	bl	800218c <HAL_Delay>

	//**** Soft Reset Registers default values ****//
	NRF24_write_register(0x00, 0x08);
 8000cfa:	2108      	movs	r1, #8
 8000cfc:	2000      	movs	r0, #0
 8000cfe:	f7ff ff65 	bl	8000bcc <NRF24_write_register>
	NRF24_write_register(0x01, 0x3f);
 8000d02:	213f      	movs	r1, #63	; 0x3f
 8000d04:	2001      	movs	r0, #1
 8000d06:	f7ff ff61 	bl	8000bcc <NRF24_write_register>
	NRF24_write_register(0x02, 0x03);
 8000d0a:	2103      	movs	r1, #3
 8000d0c:	2002      	movs	r0, #2
 8000d0e:	f7ff ff5d 	bl	8000bcc <NRF24_write_register>
	NRF24_write_register(0x03, 0x03);
 8000d12:	2103      	movs	r1, #3
 8000d14:	2003      	movs	r0, #3
 8000d16:	f7ff ff59 	bl	8000bcc <NRF24_write_register>
	NRF24_write_register(0x04, 0x03);
 8000d1a:	2103      	movs	r1, #3
 8000d1c:	2004      	movs	r0, #4
 8000d1e:	f7ff ff55 	bl	8000bcc <NRF24_write_register>
	NRF24_write_register(0x05, 0x02);
 8000d22:	2102      	movs	r1, #2
 8000d24:	2005      	movs	r0, #5
 8000d26:	f7ff ff51 	bl	8000bcc <NRF24_write_register>
	NRF24_write_register(0x06, 0x0f);
 8000d2a:	210f      	movs	r1, #15
 8000d2c:	2006      	movs	r0, #6
 8000d2e:	f7ff ff4d 	bl	8000bcc <NRF24_write_register>
	NRF24_write_register(0x07, 0x0e);
 8000d32:	210e      	movs	r1, #14
 8000d34:	2007      	movs	r0, #7
 8000d36:	f7ff ff49 	bl	8000bcc <NRF24_write_register>
	NRF24_write_register(0x08, 0x00);
 8000d3a:	2100      	movs	r1, #0
 8000d3c:	2008      	movs	r0, #8
 8000d3e:	f7ff ff45 	bl	8000bcc <NRF24_write_register>
	NRF24_write_register(0x09, 0x00);
 8000d42:	2100      	movs	r1, #0
 8000d44:	2009      	movs	r0, #9
 8000d46:	f7ff ff41 	bl	8000bcc <NRF24_write_register>
	uint8_t pipeAddrVar[6];
	pipeAddrVar[4]=0xE7; pipeAddrVar[3]=0xE7; pipeAddrVar[2]=0xE7; pipeAddrVar[1]=0xE7; pipeAddrVar[0]=0xE7;
 8000d4a:	23e7      	movs	r3, #231	; 0xe7
 8000d4c:	713b      	strb	r3, [r7, #4]
 8000d4e:	23e7      	movs	r3, #231	; 0xe7
 8000d50:	70fb      	strb	r3, [r7, #3]
 8000d52:	23e7      	movs	r3, #231	; 0xe7
 8000d54:	70bb      	strb	r3, [r7, #2]
 8000d56:	23e7      	movs	r3, #231	; 0xe7
 8000d58:	707b      	strb	r3, [r7, #1]
 8000d5a:	23e7      	movs	r3, #231	; 0xe7
 8000d5c:	703b      	strb	r3, [r7, #0]
	NRF24_write_registerN(0x0A, pipeAddrVar, 5);
 8000d5e:	463b      	mov	r3, r7
 8000d60:	2205      	movs	r2, #5
 8000d62:	4619      	mov	r1, r3
 8000d64:	200a      	movs	r0, #10
 8000d66:	f7ff ff53 	bl	8000c10 <NRF24_write_registerN>
	pipeAddrVar[4]=0xC2; pipeAddrVar[3]=0xC2; pipeAddrVar[2]=0xC2; pipeAddrVar[1]=0xC2; pipeAddrVar[0]=0xC2;
 8000d6a:	23c2      	movs	r3, #194	; 0xc2
 8000d6c:	713b      	strb	r3, [r7, #4]
 8000d6e:	23c2      	movs	r3, #194	; 0xc2
 8000d70:	70fb      	strb	r3, [r7, #3]
 8000d72:	23c2      	movs	r3, #194	; 0xc2
 8000d74:	70bb      	strb	r3, [r7, #2]
 8000d76:	23c2      	movs	r3, #194	; 0xc2
 8000d78:	707b      	strb	r3, [r7, #1]
 8000d7a:	23c2      	movs	r3, #194	; 0xc2
 8000d7c:	703b      	strb	r3, [r7, #0]
	NRF24_write_registerN(0x0B, pipeAddrVar, 5);
 8000d7e:	463b      	mov	r3, r7
 8000d80:	2205      	movs	r2, #5
 8000d82:	4619      	mov	r1, r3
 8000d84:	200b      	movs	r0, #11
 8000d86:	f7ff ff43 	bl	8000c10 <NRF24_write_registerN>
	NRF24_write_register(0x0C, 0xC3);
 8000d8a:	21c3      	movs	r1, #195	; 0xc3
 8000d8c:	200c      	movs	r0, #12
 8000d8e:	f7ff ff1d 	bl	8000bcc <NRF24_write_register>
	NRF24_write_register(0x0D, 0xC4);
 8000d92:	21c4      	movs	r1, #196	; 0xc4
 8000d94:	200d      	movs	r0, #13
 8000d96:	f7ff ff19 	bl	8000bcc <NRF24_write_register>
	NRF24_write_register(0x0E, 0xC5);
 8000d9a:	21c5      	movs	r1, #197	; 0xc5
 8000d9c:	200e      	movs	r0, #14
 8000d9e:	f7ff ff15 	bl	8000bcc <NRF24_write_register>
	NRF24_write_register(0x0F, 0xC6);
 8000da2:	21c6      	movs	r1, #198	; 0xc6
 8000da4:	200f      	movs	r0, #15
 8000da6:	f7ff ff11 	bl	8000bcc <NRF24_write_register>
	pipeAddrVar[4]=0xE7; pipeAddrVar[3]=0xE7; pipeAddrVar[2]=0xE7; pipeAddrVar[1]=0xE7; pipeAddrVar[0]=0xE7;
 8000daa:	23e7      	movs	r3, #231	; 0xe7
 8000dac:	713b      	strb	r3, [r7, #4]
 8000dae:	23e7      	movs	r3, #231	; 0xe7
 8000db0:	70fb      	strb	r3, [r7, #3]
 8000db2:	23e7      	movs	r3, #231	; 0xe7
 8000db4:	70bb      	strb	r3, [r7, #2]
 8000db6:	23e7      	movs	r3, #231	; 0xe7
 8000db8:	707b      	strb	r3, [r7, #1]
 8000dba:	23e7      	movs	r3, #231	; 0xe7
 8000dbc:	703b      	strb	r3, [r7, #0]
	NRF24_write_registerN(0x10, pipeAddrVar, 5);
 8000dbe:	463b      	mov	r3, r7
 8000dc0:	2205      	movs	r2, #5
 8000dc2:	4619      	mov	r1, r3
 8000dc4:	2010      	movs	r0, #16
 8000dc6:	f7ff ff23 	bl	8000c10 <NRF24_write_registerN>
	NRF24_write_register(0x11, 0);
 8000dca:	2100      	movs	r1, #0
 8000dcc:	2011      	movs	r0, #17
 8000dce:	f7ff fefd 	bl	8000bcc <NRF24_write_register>
	NRF24_write_register(0x12, 0);
 8000dd2:	2100      	movs	r1, #0
 8000dd4:	2012      	movs	r0, #18
 8000dd6:	f7ff fef9 	bl	8000bcc <NRF24_write_register>
	NRF24_write_register(0x13, 0);
 8000dda:	2100      	movs	r1, #0
 8000ddc:	2013      	movs	r0, #19
 8000dde:	f7ff fef5 	bl	8000bcc <NRF24_write_register>
	NRF24_write_register(0x14, 0);
 8000de2:	2100      	movs	r1, #0
 8000de4:	2014      	movs	r0, #20
 8000de6:	f7ff fef1 	bl	8000bcc <NRF24_write_register>
	NRF24_write_register(0x15, 0);
 8000dea:	2100      	movs	r1, #0
 8000dec:	2015      	movs	r0, #21
 8000dee:	f7ff feed 	bl	8000bcc <NRF24_write_register>
	NRF24_write_register(0x16, 0);
 8000df2:	2100      	movs	r1, #0
 8000df4:	2016      	movs	r0, #22
 8000df6:	f7ff fee9 	bl	8000bcc <NRF24_write_register>

	NRF24_ACTIVATE_cmd();
 8000dfa:	f000 fadb 	bl	80013b4 <NRF24_ACTIVATE_cmd>
	NRF24_write_register(0x1c, 0);
 8000dfe:	2100      	movs	r1, #0
 8000e00:	201c      	movs	r0, #28
 8000e02:	f7ff fee3 	bl	8000bcc <NRF24_write_register>
	NRF24_write_register(0x1d, 0);
 8000e06:	2100      	movs	r1, #0
 8000e08:	201d      	movs	r0, #29
 8000e0a:	f7ff fedf 	bl	8000bcc <NRF24_write_register>
	printRadioSettings();
 8000e0e:	f000 faeb 	bl	80013e8 <printRadioSettings>
	//Initialise retries 15 and delay 1250 usec
	NRF24_setRetries(15, 15);
 8000e12:	210f      	movs	r1, #15
 8000e14:	200f      	movs	r0, #15
 8000e16:	f000 f8a1 	bl	8000f5c <NRF24_setRetries>
	//Initialise PA level to max (0dB)
	NRF24_setPALevel(RF24_PA_0dB);
 8000e1a:	2003      	movs	r0, #3
 8000e1c:	f000 f979 	bl	8001112 <NRF24_setPALevel>
	//Initialise data rate to 1Mbps
	NRF24_setDataRate(RF24_2MBPS);
 8000e20:	2001      	movs	r0, #1
 8000e22:	f000 f9af 	bl	8001184 <NRF24_setDataRate>
	//Initalise CRC length to 16-bit (2 bytes)
	NRF24_setCRCLength(RF24_CRC_16);
 8000e26:	2002      	movs	r0, #2
 8000e28:	f000 f9f2 	bl	8001210 <NRF24_setCRCLength>
	//Disable dynamic payload
	NRF24_disableDynamicPayloads();
 8000e2c:	f000 f944 	bl	80010b8 <NRF24_disableDynamicPayloads>
	//Set payload size
	NRF24_setPayloadSize(32);
 8000e30:	2020      	movs	r0, #32
 8000e32:	f000 f8c3 	bl	8000fbc <NRF24_setPayloadSize>

	//Reset status register
	NRF24_resetStatus();
 8000e36:	f000 fab4 	bl	80013a2 <NRF24_resetStatus>
	//Initialise channel to 76
	NRF24_setChannel(76);
 8000e3a:	204c      	movs	r0, #76	; 0x4c
 8000e3c:	f000 f8a9 	bl	8000f92 <NRF24_setChannel>
	//Flush buffers
	NRF24_flush_tx();
 8000e40:	f7ff ff30 	bl	8000ca4 <NRF24_flush_tx>
	NRF24_flush_rx();
 8000e44:	f7ff ff36 	bl	8000cb4 <NRF24_flush_rx>

	NRF24_powerDown();
 8000e48:	f000 fa0a 	bl	8001260 <NRF24_powerDown>

}
 8000e4c:	bf00      	nop
 8000e4e:	3708      	adds	r7, #8
 8000e50:	46bd      	mov	sp, r7
 8000e52:	bd80      	pop	{r7, pc}

08000e54 <NRF24_stopListening>:
	//Wait for 130 uSec for the radio to come on
	NRF24_DelayMicroSeconds(150);
}
//14. Stop listening (essential before any write operation)
void NRF24_stopListening(void)
{
 8000e54:	b580      	push	{r7, lr}
 8000e56:	af00      	add	r7, sp, #0
	NRF24_ce(0);
 8000e58:	2000      	movs	r0, #0
 8000e5a:	f7ff fe4f 	bl	8000afc <NRF24_ce>
	NRF24_flush_tx();
 8000e5e:	f7ff ff21 	bl	8000ca4 <NRF24_flush_tx>
	NRF24_flush_rx();
 8000e62:	f7ff ff27 	bl	8000cb4 <NRF24_flush_rx>
}
 8000e66:	bf00      	nop
 8000e68:	bd80      	pop	{r7, pc}
	...

08000e6c <NRF24_write>:
//15. Write(Transmit data), returns true if successfully sent
bool NRF24_write( const void* buf, uint8_t len )
{
 8000e6c:	b580      	push	{r7, lr}
 8000e6e:	b086      	sub	sp, #24
 8000e70:	af00      	add	r7, sp, #0
 8000e72:	6078      	str	r0, [r7, #4]
 8000e74:	460b      	mov	r3, r1
 8000e76:	70fb      	strb	r3, [r7, #3]
	bool retStatus;
	//Start writing
	NRF24_resetStatus();
 8000e78:	f000 fa93 	bl	80013a2 <NRF24_resetStatus>
	NRF24_startWrite(buf,len);
 8000e7c:	78fb      	ldrb	r3, [r7, #3]
 8000e7e:	4619      	mov	r1, r3
 8000e80:	6878      	ldr	r0, [r7, #4]
 8000e82:	f000 fa2c 	bl	80012de <NRF24_startWrite>
	//Data monitor
  uint8_t observe_tx;
  uint8_t status;
  uint32_t sent_at = HAL_GetTick();
 8000e86:	f001 f977 	bl	8002178 <HAL_GetTick>
 8000e8a:	6178      	str	r0, [r7, #20]
	const uint32_t timeout = 10; //ms to wait for timeout
 8000e8c:	230a      	movs	r3, #10
 8000e8e:	613b      	str	r3, [r7, #16]
	do
  {
    NRF24_read_registerN(REG_OBSERVE_TX,&observe_tx,1);
 8000e90:	f107 030d 	add.w	r3, r7, #13
 8000e94:	2201      	movs	r2, #1
 8000e96:	4619      	mov	r1, r3
 8000e98:	2008      	movs	r0, #8
 8000e9a:	f7ff fe6f 	bl	8000b7c <NRF24_read_registerN>
		//Get status register
		status = NRF24_get_status();
 8000e9e:	f7ff ff11 	bl	8000cc4 <NRF24_get_status>
 8000ea2:	4603      	mov	r3, r0
 8000ea4:	73fb      	strb	r3, [r7, #15]
  }
  while( ! ( status & ( _BV(BIT_TX_DS) | _BV(BIT_MAX_RT) ) ) && ( HAL_GetTick() - sent_at < timeout ) );
 8000ea6:	7bfb      	ldrb	r3, [r7, #15]
 8000ea8:	f003 0330 	and.w	r3, r3, #48	; 0x30
 8000eac:	2b00      	cmp	r3, #0
 8000eae:	d107      	bne.n	8000ec0 <NRF24_write+0x54>
 8000eb0:	f001 f962 	bl	8002178 <HAL_GetTick>
 8000eb4:	4602      	mov	r2, r0
 8000eb6:	697b      	ldr	r3, [r7, #20]
 8000eb8:	1ad3      	subs	r3, r2, r3
 8000eba:	693a      	ldr	r2, [r7, #16]
 8000ebc:	429a      	cmp	r2, r3
 8000ebe:	d8e7      	bhi.n	8000e90 <NRF24_write+0x24>

//	printConfigReg();
//	printStatusReg();

	bool tx_ok, tx_fail;
  NRF24_whatHappened(&tx_ok,&tx_fail, &ack_payload_available);
 8000ec0:	f107 010b 	add.w	r1, r7, #11
 8000ec4:	f107 030c 	add.w	r3, r7, #12
 8000ec8:	4a0c      	ldr	r2, [pc, #48]	; (8000efc <NRF24_write+0x90>)
 8000eca:	4618      	mov	r0, r3
 8000ecc:	f000 fa36 	bl	800133c <NRF24_whatHappened>
	retStatus = tx_ok;
 8000ed0:	7b3b      	ldrb	r3, [r7, #12]
 8000ed2:	73bb      	strb	r3, [r7, #14]
	if ( ack_payload_available )
 8000ed4:	4b09      	ldr	r3, [pc, #36]	; (8000efc <NRF24_write+0x90>)
 8000ed6:	781b      	ldrb	r3, [r3, #0]
 8000ed8:	2b00      	cmp	r3, #0
 8000eda:	d005      	beq.n	8000ee8 <NRF24_write+0x7c>
  {
    ack_payload_length = NRF24_getDynamicPayloadSize();
 8000edc:	f000 f884 	bl	8000fe8 <NRF24_getDynamicPayloadSize>
 8000ee0:	4603      	mov	r3, r0
 8000ee2:	461a      	mov	r2, r3
 8000ee4:	4b06      	ldr	r3, [pc, #24]	; (8000f00 <NRF24_write+0x94>)
 8000ee6:	701a      	strb	r2, [r3, #0]
	}

	//Power down
	NRF24_available();
 8000ee8:	f000 f80c 	bl	8000f04 <NRF24_available>
	NRF24_flush_tx();
 8000eec:	f7ff feda 	bl	8000ca4 <NRF24_flush_tx>
	return retStatus;
 8000ef0:	7bbb      	ldrb	r3, [r7, #14]
}
 8000ef2:	4618      	mov	r0, r3
 8000ef4:	3718      	adds	r7, #24
 8000ef6:	46bd      	mov	sp, r7
 8000ef8:	bd80      	pop	{r7, pc}
 8000efa:	bf00      	nop
 8000efc:	20000094 	.word	0x20000094
 8000f00:	20000095 	.word	0x20000095

08000f04 <NRF24_available>:



//16. Check for available data to read
bool NRF24_available(void)
{
 8000f04:	b580      	push	{r7, lr}
 8000f06:	af00      	add	r7, sp, #0
	return NRF24_availablePipe(NULL);
 8000f08:	2000      	movs	r0, #0
 8000f0a:	f000 f9b8 	bl	800127e <NRF24_availablePipe>
 8000f0e:	4603      	mov	r3, r0
}
 8000f10:	4618      	mov	r0, r3
 8000f12:	bd80      	pop	{r7, pc}

08000f14 <NRF24_openWritingPipe>:
	NRF24_getDynamicPayloadSize();
	return rxStatus;
}
//18. Open Tx pipe for writing (Cannot perform this while Listenning, has to call NRF24_stopListening)
void NRF24_openWritingPipe(uint64_t address)
{
 8000f14:	b580      	push	{r7, lr}
 8000f16:	b084      	sub	sp, #16
 8000f18:	af00      	add	r7, sp, #0
 8000f1a:	e9c7 0100 	strd	r0, r1, [r7]
	NRF24_write_registerN(REG_RX_ADDR_P0, (uint8_t *)(&address), 5);
 8000f1e:	463b      	mov	r3, r7
 8000f20:	2205      	movs	r2, #5
 8000f22:	4619      	mov	r1, r3
 8000f24:	200a      	movs	r0, #10
 8000f26:	f7ff fe73 	bl	8000c10 <NRF24_write_registerN>
  NRF24_write_registerN(REG_TX_ADDR, (uint8_t *)(&address), 5);
 8000f2a:	463b      	mov	r3, r7
 8000f2c:	2205      	movs	r2, #5
 8000f2e:	4619      	mov	r1, r3
 8000f30:	2010      	movs	r0, #16
 8000f32:	f7ff fe6d 	bl	8000c10 <NRF24_write_registerN>

	const uint8_t max_payload_size = 32;
 8000f36:	2320      	movs	r3, #32
 8000f38:	73fb      	strb	r3, [r7, #15]
  NRF24_write_register(REG_RX_PW_P0,MIN(payload_size,max_payload_size));
 8000f3a:	4b07      	ldr	r3, [pc, #28]	; (8000f58 <NRF24_openWritingPipe+0x44>)
 8000f3c:	781b      	ldrb	r3, [r3, #0]
 8000f3e:	7bfa      	ldrb	r2, [r7, #15]
 8000f40:	4293      	cmp	r3, r2
 8000f42:	bf28      	it	cs
 8000f44:	4613      	movcs	r3, r2
 8000f46:	b2db      	uxtb	r3, r3
 8000f48:	4619      	mov	r1, r3
 8000f4a:	2011      	movs	r0, #17
 8000f4c:	f7ff fe3e 	bl	8000bcc <NRF24_write_register>
}
 8000f50:	bf00      	nop
 8000f52:	3710      	adds	r7, #16
 8000f54:	46bd      	mov	sp, r7
 8000f56:	bd80      	pop	{r7, pc}
 8000f58:	20000096 	.word	0x20000096

08000f5c <NRF24_setRetries>:
}


//20 set transmit retries (rf24_Retries_e) and delay
void NRF24_setRetries(uint8_t delay, uint8_t count)
{
 8000f5c:	b580      	push	{r7, lr}
 8000f5e:	b082      	sub	sp, #8
 8000f60:	af00      	add	r7, sp, #0
 8000f62:	4603      	mov	r3, r0
 8000f64:	460a      	mov	r2, r1
 8000f66:	71fb      	strb	r3, [r7, #7]
 8000f68:	4613      	mov	r3, r2
 8000f6a:	71bb      	strb	r3, [r7, #6]
	NRF24_write_register(REG_SETUP_RETR,(delay&0xf)<<BIT_ARD | (count&0xf)<<BIT_ARC);
 8000f6c:	79fb      	ldrb	r3, [r7, #7]
 8000f6e:	011b      	lsls	r3, r3, #4
 8000f70:	b25a      	sxtb	r2, r3
 8000f72:	f997 3006 	ldrsb.w	r3, [r7, #6]
 8000f76:	f003 030f 	and.w	r3, r3, #15
 8000f7a:	b25b      	sxtb	r3, r3
 8000f7c:	4313      	orrs	r3, r2
 8000f7e:	b25b      	sxtb	r3, r3
 8000f80:	b2db      	uxtb	r3, r3
 8000f82:	4619      	mov	r1, r3
 8000f84:	2004      	movs	r0, #4
 8000f86:	f7ff fe21 	bl	8000bcc <NRF24_write_register>
}
 8000f8a:	bf00      	nop
 8000f8c:	3708      	adds	r7, #8
 8000f8e:	46bd      	mov	sp, r7
 8000f90:	bd80      	pop	{r7, pc}

08000f92 <NRF24_setChannel>:

//21. Set RF channel frequency
void NRF24_setChannel(uint8_t channel)
{
 8000f92:	b580      	push	{r7, lr}
 8000f94:	b084      	sub	sp, #16
 8000f96:	af00      	add	r7, sp, #0
 8000f98:	4603      	mov	r3, r0
 8000f9a:	71fb      	strb	r3, [r7, #7]
	const uint8_t max_channel = 127;
 8000f9c:	237f      	movs	r3, #127	; 0x7f
 8000f9e:	73fb      	strb	r3, [r7, #15]
	NRF24_write_register(REG_RF_CH,MIN(channel,max_channel));
 8000fa0:	7bfa      	ldrb	r2, [r7, #15]
 8000fa2:	79fb      	ldrb	r3, [r7, #7]
 8000fa4:	4293      	cmp	r3, r2
 8000fa6:	bf28      	it	cs
 8000fa8:	4613      	movcs	r3, r2
 8000faa:	b2db      	uxtb	r3, r3
 8000fac:	4619      	mov	r1, r3
 8000fae:	2005      	movs	r0, #5
 8000fb0:	f7ff fe0c 	bl	8000bcc <NRF24_write_register>
}
 8000fb4:	bf00      	nop
 8000fb6:	3710      	adds	r7, #16
 8000fb8:	46bd      	mov	sp, r7
 8000fba:	bd80      	pop	{r7, pc}

08000fbc <NRF24_setPayloadSize>:
//22. Set payload size
void NRF24_setPayloadSize(uint8_t size)
{
 8000fbc:	b480      	push	{r7}
 8000fbe:	b085      	sub	sp, #20
 8000fc0:	af00      	add	r7, sp, #0
 8000fc2:	4603      	mov	r3, r0
 8000fc4:	71fb      	strb	r3, [r7, #7]
	const uint8_t max_payload_size = 32;
 8000fc6:	2320      	movs	r3, #32
 8000fc8:	73fb      	strb	r3, [r7, #15]
  payload_size = MIN(size,max_payload_size);
 8000fca:	7bfa      	ldrb	r2, [r7, #15]
 8000fcc:	79fb      	ldrb	r3, [r7, #7]
 8000fce:	4293      	cmp	r3, r2
 8000fd0:	bf28      	it	cs
 8000fd2:	4613      	movcs	r3, r2
 8000fd4:	b2da      	uxtb	r2, r3
 8000fd6:	4b03      	ldr	r3, [pc, #12]	; (8000fe4 <NRF24_setPayloadSize+0x28>)
 8000fd8:	701a      	strb	r2, [r3, #0]
}
 8000fda:	bf00      	nop
 8000fdc:	3714      	adds	r7, #20
 8000fde:	46bd      	mov	sp, r7
 8000fe0:	bc80      	pop	{r7}
 8000fe2:	4770      	bx	lr
 8000fe4:	20000096 	.word	0x20000096

08000fe8 <NRF24_getDynamicPayloadSize>:
{
	return payload_size;
}
//24. Get dynamic payload size, of latest packet received
uint8_t NRF24_getDynamicPayloadSize(void)
{
 8000fe8:	b580      	push	{r7, lr}
 8000fea:	af00      	add	r7, sp, #0
	return NRF24_read_register(CMD_R_RX_PL_WID);
 8000fec:	2060      	movs	r0, #96	; 0x60
 8000fee:	f7ff fd9d 	bl	8000b2c <NRF24_read_register>
 8000ff2:	4603      	mov	r3, r0
}
 8000ff4:	4618      	mov	r0, r3
 8000ff6:	bd80      	pop	{r7, pc}

08000ff8 <NRF24_enableAckPayload>:
//25. Enable payload on Ackknowledge packet
void NRF24_enableAckPayload(void)
{
 8000ff8:	b580      	push	{r7, lr}
 8000ffa:	af00      	add	r7, sp, #0
	//Need to enable dynamic payload and Ack payload together
	 NRF24_write_register(REG_FEATURE,NRF24_read_register(REG_FEATURE) | _BV(BIT_EN_ACK_PAY) | _BV(BIT_EN_DPL) );
 8000ffc:	201d      	movs	r0, #29
 8000ffe:	f7ff fd95 	bl	8000b2c <NRF24_read_register>
 8001002:	4603      	mov	r3, r0
 8001004:	f043 0306 	orr.w	r3, r3, #6
 8001008:	b2db      	uxtb	r3, r3
 800100a:	4619      	mov	r1, r3
 800100c:	201d      	movs	r0, #29
 800100e:	f7ff fddd 	bl	8000bcc <NRF24_write_register>
	if(!NRF24_read_register(REG_FEATURE))
 8001012:	201d      	movs	r0, #29
 8001014:	f7ff fd8a 	bl	8000b2c <NRF24_read_register>
 8001018:	4603      	mov	r3, r0
 800101a:	2b00      	cmp	r3, #0
 800101c:	d10c      	bne.n	8001038 <NRF24_enableAckPayload+0x40>
	{
		NRF24_ACTIVATE_cmd();
 800101e:	f000 f9c9 	bl	80013b4 <NRF24_ACTIVATE_cmd>
		NRF24_write_register(REG_FEATURE,NRF24_read_register(REG_FEATURE) | _BV(BIT_EN_ACK_PAY) | _BV(BIT_EN_DPL) );
 8001022:	201d      	movs	r0, #29
 8001024:	f7ff fd82 	bl	8000b2c <NRF24_read_register>
 8001028:	4603      	mov	r3, r0
 800102a:	f043 0306 	orr.w	r3, r3, #6
 800102e:	b2db      	uxtb	r3, r3
 8001030:	4619      	mov	r1, r3
 8001032:	201d      	movs	r0, #29
 8001034:	f7ff fdca 	bl	8000bcc <NRF24_write_register>
	}
	// Enable dynamic payload on pipes 0 & 1
	NRF24_write_register(REG_DYNPD,NRF24_read_register(REG_DYNPD) | _BV(BIT_DPL_P1) | _BV(BIT_DPL_P0));
 8001038:	201c      	movs	r0, #28
 800103a:	f7ff fd77 	bl	8000b2c <NRF24_read_register>
 800103e:	4603      	mov	r3, r0
 8001040:	f043 0303 	orr.w	r3, r3, #3
 8001044:	b2db      	uxtb	r3, r3
 8001046:	4619      	mov	r1, r3
 8001048:	201c      	movs	r0, #28
 800104a:	f7ff fdbf 	bl	8000bcc <NRF24_write_register>
}
 800104e:	bf00      	nop
 8001050:	bd80      	pop	{r7, pc}
	...

08001054 <NRF24_enableDynamicPayloads>:
//26. Enable dynamic payloads
void NRF24_enableDynamicPayloads(void)
{
 8001054:	b580      	push	{r7, lr}
 8001056:	af00      	add	r7, sp, #0
	//Enable dynamic payload through FEATURE register
	NRF24_write_register(REG_FEATURE,NRF24_read_register(REG_FEATURE) |  _BV(BIT_EN_DPL) );
 8001058:	201d      	movs	r0, #29
 800105a:	f7ff fd67 	bl	8000b2c <NRF24_read_register>
 800105e:	4603      	mov	r3, r0
 8001060:	f043 0304 	orr.w	r3, r3, #4
 8001064:	b2db      	uxtb	r3, r3
 8001066:	4619      	mov	r1, r3
 8001068:	201d      	movs	r0, #29
 800106a:	f7ff fdaf 	bl	8000bcc <NRF24_write_register>
	if(!NRF24_read_register(REG_FEATURE))
 800106e:	201d      	movs	r0, #29
 8001070:	f7ff fd5c 	bl	8000b2c <NRF24_read_register>
 8001074:	4603      	mov	r3, r0
 8001076:	2b00      	cmp	r3, #0
 8001078:	d10c      	bne.n	8001094 <NRF24_enableDynamicPayloads+0x40>
	{
		NRF24_ACTIVATE_cmd();
 800107a:	f000 f99b 	bl	80013b4 <NRF24_ACTIVATE_cmd>
		NRF24_write_register(REG_FEATURE,NRF24_read_register(REG_FEATURE) |  _BV(BIT_EN_DPL) );
 800107e:	201d      	movs	r0, #29
 8001080:	f7ff fd54 	bl	8000b2c <NRF24_read_register>
 8001084:	4603      	mov	r3, r0
 8001086:	f043 0304 	orr.w	r3, r3, #4
 800108a:	b2db      	uxtb	r3, r3
 800108c:	4619      	mov	r1, r3
 800108e:	201d      	movs	r0, #29
 8001090:	f7ff fd9c 	bl	8000bcc <NRF24_write_register>
	}
	//Enable Dynamic payload on all pipes
	NRF24_write_register(REG_DYNPD,NRF24_read_register(REG_DYNPD) | _BV(BIT_DPL_P5) | _BV(BIT_DPL_P4) | _BV(BIT_DPL_P3) | _BV(BIT_DPL_P2) | _BV(BIT_DPL_P1) | _BV(BIT_DPL_P0));
 8001094:	201c      	movs	r0, #28
 8001096:	f7ff fd49 	bl	8000b2c <NRF24_read_register>
 800109a:	4603      	mov	r3, r0
 800109c:	f043 033f 	orr.w	r3, r3, #63	; 0x3f
 80010a0:	b2db      	uxtb	r3, r3
 80010a2:	4619      	mov	r1, r3
 80010a4:	201c      	movs	r0, #28
 80010a6:	f7ff fd91 	bl	8000bcc <NRF24_write_register>
  dynamic_payloads_enabled = true;
 80010aa:	4b02      	ldr	r3, [pc, #8]	; (80010b4 <NRF24_enableDynamicPayloads+0x60>)
 80010ac:	2201      	movs	r2, #1
 80010ae:	701a      	strb	r2, [r3, #0]

}
 80010b0:	bf00      	nop
 80010b2:	bd80      	pop	{r7, pc}
 80010b4:	20000097 	.word	0x20000097

080010b8 <NRF24_disableDynamicPayloads>:
void NRF24_disableDynamicPayloads(void)
{
 80010b8:	b580      	push	{r7, lr}
 80010ba:	af00      	add	r7, sp, #0
	NRF24_write_register(REG_FEATURE,NRF24_read_register(REG_FEATURE) &  ~(_BV(BIT_EN_DPL)) );
 80010bc:	201d      	movs	r0, #29
 80010be:	f7ff fd35 	bl	8000b2c <NRF24_read_register>
 80010c2:	4603      	mov	r3, r0
 80010c4:	f023 0304 	bic.w	r3, r3, #4
 80010c8:	b2db      	uxtb	r3, r3
 80010ca:	4619      	mov	r1, r3
 80010cc:	201d      	movs	r0, #29
 80010ce:	f7ff fd7d 	bl	8000bcc <NRF24_write_register>
	//Disable for all pipes
	NRF24_write_register(REG_DYNPD,0);
 80010d2:	2100      	movs	r1, #0
 80010d4:	201c      	movs	r0, #28
 80010d6:	f7ff fd79 	bl	8000bcc <NRF24_write_register>
	dynamic_payloads_enabled = false;
 80010da:	4b02      	ldr	r3, [pc, #8]	; (80010e4 <NRF24_disableDynamicPayloads+0x2c>)
 80010dc:	2200      	movs	r2, #0
 80010de:	701a      	strb	r2, [r3, #0]
}
 80010e0:	bf00      	nop
 80010e2:	bd80      	pop	{r7, pc}
 80010e4:	20000097 	.word	0x20000097

080010e8 <NRF24_setAutoAck>:
{
	return p_variant;
}
//28. Set Auto Ack for all
void NRF24_setAutoAck(bool enable)
{
 80010e8:	b580      	push	{r7, lr}
 80010ea:	b082      	sub	sp, #8
 80010ec:	af00      	add	r7, sp, #0
 80010ee:	4603      	mov	r3, r0
 80010f0:	71fb      	strb	r3, [r7, #7]
	if ( enable )
 80010f2:	79fb      	ldrb	r3, [r7, #7]
 80010f4:	2b00      	cmp	r3, #0
 80010f6:	d004      	beq.n	8001102 <NRF24_setAutoAck+0x1a>
    NRF24_write_register(REG_EN_AA, 0x3F);
 80010f8:	213f      	movs	r1, #63	; 0x3f
 80010fa:	2001      	movs	r0, #1
 80010fc:	f7ff fd66 	bl	8000bcc <NRF24_write_register>
  else
    NRF24_write_register(REG_EN_AA, 0x00);
}
 8001100:	e003      	b.n	800110a <NRF24_setAutoAck+0x22>
    NRF24_write_register(REG_EN_AA, 0x00);
 8001102:	2100      	movs	r1, #0
 8001104:	2001      	movs	r0, #1
 8001106:	f7ff fd61 	bl	8000bcc <NRF24_write_register>
}
 800110a:	bf00      	nop
 800110c:	3708      	adds	r7, #8
 800110e:	46bd      	mov	sp, r7
 8001110:	bd80      	pop	{r7, pc}

08001112 <NRF24_setPALevel>:
    NRF24_write_register( REG_EN_AA, en_aa ) ;
  }
}
//30. Set transmit power level
void NRF24_setPALevel( rf24_pa_dbm_e level )
{
 8001112:	b580      	push	{r7, lr}
 8001114:	b084      	sub	sp, #16
 8001116:	af00      	add	r7, sp, #0
 8001118:	4603      	mov	r3, r0
 800111a:	71fb      	strb	r3, [r7, #7]
	uint8_t setup = NRF24_read_register(REG_RF_SETUP) ;
 800111c:	2006      	movs	r0, #6
 800111e:	f7ff fd05 	bl	8000b2c <NRF24_read_register>
 8001122:	4603      	mov	r3, r0
 8001124:	73fb      	strb	r3, [r7, #15]
  setup &= ~(_BV(RF_PWR_LOW) | _BV(RF_PWR_HIGH)) ;
 8001126:	7bfb      	ldrb	r3, [r7, #15]
 8001128:	f023 0306 	bic.w	r3, r3, #6
 800112c:	73fb      	strb	r3, [r7, #15]

  // switch uses RAM (evil!)
  if ( level == RF24_PA_0dB)
 800112e:	79fb      	ldrb	r3, [r7, #7]
 8001130:	2b03      	cmp	r3, #3
 8001132:	d104      	bne.n	800113e <NRF24_setPALevel+0x2c>
  {
    setup |= (_BV(RF_PWR_LOW) | _BV(RF_PWR_HIGH)) ;
 8001134:	7bfb      	ldrb	r3, [r7, #15]
 8001136:	f043 0306 	orr.w	r3, r3, #6
 800113a:	73fb      	strb	r3, [r7, #15]
 800113c:	e019      	b.n	8001172 <NRF24_setPALevel+0x60>
  }
  else if ( level == RF24_PA_m6dB )
 800113e:	79fb      	ldrb	r3, [r7, #7]
 8001140:	2b02      	cmp	r3, #2
 8001142:	d104      	bne.n	800114e <NRF24_setPALevel+0x3c>
  {
    setup |= _BV(RF_PWR_HIGH) ;
 8001144:	7bfb      	ldrb	r3, [r7, #15]
 8001146:	f043 0304 	orr.w	r3, r3, #4
 800114a:	73fb      	strb	r3, [r7, #15]
 800114c:	e011      	b.n	8001172 <NRF24_setPALevel+0x60>
  }
  else if ( level == RF24_PA_m12dB )
 800114e:	79fb      	ldrb	r3, [r7, #7]
 8001150:	2b01      	cmp	r3, #1
 8001152:	d104      	bne.n	800115e <NRF24_setPALevel+0x4c>
  {
    setup |= _BV(RF_PWR_LOW);
 8001154:	7bfb      	ldrb	r3, [r7, #15]
 8001156:	f043 0302 	orr.w	r3, r3, #2
 800115a:	73fb      	strb	r3, [r7, #15]
 800115c:	e009      	b.n	8001172 <NRF24_setPALevel+0x60>
  }
  else if ( level == RF24_PA_m18dB )
 800115e:	79fb      	ldrb	r3, [r7, #7]
 8001160:	2b00      	cmp	r3, #0
 8001162:	d006      	beq.n	8001172 <NRF24_setPALevel+0x60>
  {
    // nothing
  }
  else if ( level == RF24_PA_ERROR )
 8001164:	79fb      	ldrb	r3, [r7, #7]
 8001166:	2b04      	cmp	r3, #4
 8001168:	d103      	bne.n	8001172 <NRF24_setPALevel+0x60>
  {
    // On error, go to maximum PA
    setup |= (_BV(RF_PWR_LOW) | _BV(RF_PWR_HIGH)) ;
 800116a:	7bfb      	ldrb	r3, [r7, #15]
 800116c:	f043 0306 	orr.w	r3, r3, #6
 8001170:	73fb      	strb	r3, [r7, #15]
  }

  NRF24_write_register( REG_RF_SETUP, setup ) ;
 8001172:	7bfb      	ldrb	r3, [r7, #15]
 8001174:	4619      	mov	r1, r3
 8001176:	2006      	movs	r0, #6
 8001178:	f7ff fd28 	bl	8000bcc <NRF24_write_register>
}
 800117c:	bf00      	nop
 800117e:	3710      	adds	r7, #16
 8001180:	46bd      	mov	sp, r7
 8001182:	bd80      	pop	{r7, pc}

08001184 <NRF24_setDataRate>:

  return result ;
}
//32. Set data rate (250 Kbps, 1Mbps, 2Mbps)
bool NRF24_setDataRate(rf24_datarate_e speed)
{
 8001184:	b580      	push	{r7, lr}
 8001186:	b084      	sub	sp, #16
 8001188:	af00      	add	r7, sp, #0
 800118a:	4603      	mov	r3, r0
 800118c:	71fb      	strb	r3, [r7, #7]
	bool result = false;
 800118e:	2300      	movs	r3, #0
 8001190:	73fb      	strb	r3, [r7, #15]
  uint8_t setup = NRF24_read_register(REG_RF_SETUP) ;
 8001192:	2006      	movs	r0, #6
 8001194:	f7ff fcca 	bl	8000b2c <NRF24_read_register>
 8001198:	4603      	mov	r3, r0
 800119a:	73bb      	strb	r3, [r7, #14]

  // HIGH and LOW '00' is 1Mbs - our default
  wide_band = false ;
 800119c:	4b1b      	ldr	r3, [pc, #108]	; (800120c <NRF24_setDataRate+0x88>)
 800119e:	2200      	movs	r2, #0
 80011a0:	701a      	strb	r2, [r3, #0]
  setup &= ~(_BV(RF_DR_LOW) | _BV(RF_DR_HIGH)) ;
 80011a2:	7bbb      	ldrb	r3, [r7, #14]
 80011a4:	f023 0328 	bic.w	r3, r3, #40	; 0x28
 80011a8:	73bb      	strb	r3, [r7, #14]
  if( speed == RF24_250KBPS )
 80011aa:	79fb      	ldrb	r3, [r7, #7]
 80011ac:	2b02      	cmp	r3, #2
 80011ae:	d107      	bne.n	80011c0 <NRF24_setDataRate+0x3c>
  {
    // Must set the RF_DR_LOW to 1; RF_DR_HIGH (used to be RF_DR) is already 0
    // Making it '10'.
    wide_band = false ;
 80011b0:	4b16      	ldr	r3, [pc, #88]	; (800120c <NRF24_setDataRate+0x88>)
 80011b2:	2200      	movs	r2, #0
 80011b4:	701a      	strb	r2, [r3, #0]
    setup |= _BV( RF_DR_LOW ) ;
 80011b6:	7bbb      	ldrb	r3, [r7, #14]
 80011b8:	f043 0320 	orr.w	r3, r3, #32
 80011bc:	73bb      	strb	r3, [r7, #14]
 80011be:	e00d      	b.n	80011dc <NRF24_setDataRate+0x58>
  }
  else
  {
    // Set 2Mbs, RF_DR (RF_DR_HIGH) is set 1
    // Making it '01'
    if ( speed == RF24_2MBPS )
 80011c0:	79fb      	ldrb	r3, [r7, #7]
 80011c2:	2b01      	cmp	r3, #1
 80011c4:	d107      	bne.n	80011d6 <NRF24_setDataRate+0x52>
    {
      wide_band = true ;
 80011c6:	4b11      	ldr	r3, [pc, #68]	; (800120c <NRF24_setDataRate+0x88>)
 80011c8:	2201      	movs	r2, #1
 80011ca:	701a      	strb	r2, [r3, #0]
      setup |= _BV(RF_DR_HIGH);
 80011cc:	7bbb      	ldrb	r3, [r7, #14]
 80011ce:	f043 0308 	orr.w	r3, r3, #8
 80011d2:	73bb      	strb	r3, [r7, #14]
 80011d4:	e002      	b.n	80011dc <NRF24_setDataRate+0x58>
    }
    else
    {
      // 1Mbs
      wide_band = false ;
 80011d6:	4b0d      	ldr	r3, [pc, #52]	; (800120c <NRF24_setDataRate+0x88>)
 80011d8:	2200      	movs	r2, #0
 80011da:	701a      	strb	r2, [r3, #0]
    }
  }
  NRF24_write_register(REG_RF_SETUP,setup);
 80011dc:	7bbb      	ldrb	r3, [r7, #14]
 80011de:	4619      	mov	r1, r3
 80011e0:	2006      	movs	r0, #6
 80011e2:	f7ff fcf3 	bl	8000bcc <NRF24_write_register>

  // Verify our result
  if ( NRF24_read_register(REG_RF_SETUP) == setup )
 80011e6:	2006      	movs	r0, #6
 80011e8:	f7ff fca0 	bl	8000b2c <NRF24_read_register>
 80011ec:	4603      	mov	r3, r0
 80011ee:	461a      	mov	r2, r3
 80011f0:	7bbb      	ldrb	r3, [r7, #14]
 80011f2:	4293      	cmp	r3, r2
 80011f4:	d102      	bne.n	80011fc <NRF24_setDataRate+0x78>
  {
    result = true;
 80011f6:	2301      	movs	r3, #1
 80011f8:	73fb      	strb	r3, [r7, #15]
 80011fa:	e002      	b.n	8001202 <NRF24_setDataRate+0x7e>
  }
  else
  {
    wide_band = false;
 80011fc:	4b03      	ldr	r3, [pc, #12]	; (800120c <NRF24_setDataRate+0x88>)
 80011fe:	2200      	movs	r2, #0
 8001200:	701a      	strb	r2, [r3, #0]
  }

  return result;
 8001202:	7bfb      	ldrb	r3, [r7, #15]
}
 8001204:	4618      	mov	r0, r3
 8001206:	3710      	adds	r7, #16
 8001208:	46bd      	mov	sp, r7
 800120a:	bd80      	pop	{r7, pc}
 800120c:	20000098 	.word	0x20000098

08001210 <NRF24_setCRCLength>:
  }
  return result ;
}
//34. Set crc length (disable, 8-bits or 16-bits)
void NRF24_setCRCLength(rf24_crclength_e length)
{
 8001210:	b580      	push	{r7, lr}
 8001212:	b084      	sub	sp, #16
 8001214:	af00      	add	r7, sp, #0
 8001216:	4603      	mov	r3, r0
 8001218:	71fb      	strb	r3, [r7, #7]
	uint8_t config = NRF24_read_register(REG_CONFIG) & ~( _BV(BIT_CRCO) | _BV(BIT_EN_CRC)) ;
 800121a:	2000      	movs	r0, #0
 800121c:	f7ff fc86 	bl	8000b2c <NRF24_read_register>
 8001220:	4603      	mov	r3, r0
 8001222:	f023 030c 	bic.w	r3, r3, #12
 8001226:	73fb      	strb	r3, [r7, #15]

  // switch uses RAM
  if ( length == RF24_CRC_DISABLED )
 8001228:	79fb      	ldrb	r3, [r7, #7]
 800122a:	2b00      	cmp	r3, #0
 800122c:	d00f      	beq.n	800124e <NRF24_setCRCLength+0x3e>
  {
    // Do nothing, we turned it off above.
  }
  else if ( length == RF24_CRC_8 )
 800122e:	79fb      	ldrb	r3, [r7, #7]
 8001230:	2b01      	cmp	r3, #1
 8001232:	d104      	bne.n	800123e <NRF24_setCRCLength+0x2e>
  {
    config |= _BV(BIT_EN_CRC);
 8001234:	7bfb      	ldrb	r3, [r7, #15]
 8001236:	f043 0308 	orr.w	r3, r3, #8
 800123a:	73fb      	strb	r3, [r7, #15]
 800123c:	e007      	b.n	800124e <NRF24_setCRCLength+0x3e>
  }
  else
  {
    config |= _BV(BIT_EN_CRC);
 800123e:	7bfb      	ldrb	r3, [r7, #15]
 8001240:	f043 0308 	orr.w	r3, r3, #8
 8001244:	73fb      	strb	r3, [r7, #15]
    config |= _BV( BIT_CRCO );
 8001246:	7bfb      	ldrb	r3, [r7, #15]
 8001248:	f043 0304 	orr.w	r3, r3, #4
 800124c:	73fb      	strb	r3, [r7, #15]
  }
  NRF24_write_register( REG_CONFIG, config );
 800124e:	7bfb      	ldrb	r3, [r7, #15]
 8001250:	4619      	mov	r1, r3
 8001252:	2000      	movs	r0, #0
 8001254:	f7ff fcba 	bl	8000bcc <NRF24_write_register>
}
 8001258:	bf00      	nop
 800125a:	3710      	adds	r7, #16
 800125c:	46bd      	mov	sp, r7
 800125e:	bd80      	pop	{r7, pc}

08001260 <NRF24_powerDown>:
{
	NRF24_write_register(REG_CONFIG,NRF24_read_register(REG_CONFIG) | _BV(BIT_PWR_UP));
}
//38. power down
void NRF24_powerDown(void)
{
 8001260:	b580      	push	{r7, lr}
 8001262:	af00      	add	r7, sp, #0
	NRF24_write_register(REG_CONFIG,NRF24_read_register(REG_CONFIG) & ~_BV(BIT_PWR_UP));
 8001264:	2000      	movs	r0, #0
 8001266:	f7ff fc61 	bl	8000b2c <NRF24_read_register>
 800126a:	4603      	mov	r3, r0
 800126c:	f023 0302 	bic.w	r3, r3, #2
 8001270:	b2db      	uxtb	r3, r3
 8001272:	4619      	mov	r1, r3
 8001274:	2000      	movs	r0, #0
 8001276:	f7ff fca9 	bl	8000bcc <NRF24_write_register>
}
 800127a:	bf00      	nop
 800127c:	bd80      	pop	{r7, pc}

0800127e <NRF24_availablePipe>:
//39. Check if data are available and on which pipe (Use this for multiple rx pipes)
bool NRF24_availablePipe(uint8_t* pipe_num)
{
 800127e:	b580      	push	{r7, lr}
 8001280:	b084      	sub	sp, #16
 8001282:	af00      	add	r7, sp, #0
 8001284:	6078      	str	r0, [r7, #4]
	uint8_t status = NRF24_get_status();
 8001286:	f7ff fd1d 	bl	8000cc4 <NRF24_get_status>
 800128a:	4603      	mov	r3, r0
 800128c:	73fb      	strb	r3, [r7, #15]

  bool result = ( status & _BV(BIT_RX_DR) );
 800128e:	7bfb      	ldrb	r3, [r7, #15]
 8001290:	f003 0340 	and.w	r3, r3, #64	; 0x40
 8001294:	2b00      	cmp	r3, #0
 8001296:	bf14      	ite	ne
 8001298:	2301      	movne	r3, #1
 800129a:	2300      	moveq	r3, #0
 800129c:	73bb      	strb	r3, [r7, #14]

  if (result)
 800129e:	7bbb      	ldrb	r3, [r7, #14]
 80012a0:	2b00      	cmp	r3, #0
 80012a2:	d017      	beq.n	80012d4 <NRF24_availablePipe+0x56>
  {
    // If the caller wants the pipe number, include that
    if ( pipe_num )
 80012a4:	687b      	ldr	r3, [r7, #4]
 80012a6:	2b00      	cmp	r3, #0
 80012a8:	d007      	beq.n	80012ba <NRF24_availablePipe+0x3c>
      *pipe_num = ( status >> BIT_RX_P_NO ) & 0x7;
 80012aa:	7bfb      	ldrb	r3, [r7, #15]
 80012ac:	085b      	lsrs	r3, r3, #1
 80012ae:	b2db      	uxtb	r3, r3
 80012b0:	f003 0307 	and.w	r3, r3, #7
 80012b4:	b2da      	uxtb	r2, r3
 80012b6:	687b      	ldr	r3, [r7, #4]
 80012b8:	701a      	strb	r2, [r3, #0]

    // Clear the status bit
    NRF24_write_register(REG_STATUS,_BV(BIT_RX_DR) );
 80012ba:	2140      	movs	r1, #64	; 0x40
 80012bc:	2007      	movs	r0, #7
 80012be:	f7ff fc85 	bl	8000bcc <NRF24_write_register>

    // Handle ack payload receipt
    if ( status & _BV(BIT_TX_DS) )
 80012c2:	7bfb      	ldrb	r3, [r7, #15]
 80012c4:	f003 0320 	and.w	r3, r3, #32
 80012c8:	2b00      	cmp	r3, #0
 80012ca:	d003      	beq.n	80012d4 <NRF24_availablePipe+0x56>
    {
      NRF24_write_register(REG_STATUS,_BV(BIT_TX_DS));
 80012cc:	2120      	movs	r1, #32
 80012ce:	2007      	movs	r0, #7
 80012d0:	f7ff fc7c 	bl	8000bcc <NRF24_write_register>
    }
  }
  return result;
 80012d4:	7bbb      	ldrb	r3, [r7, #14]
}
 80012d6:	4618      	mov	r0, r3
 80012d8:	3710      	adds	r7, #16
 80012da:	46bd      	mov	sp, r7
 80012dc:	bd80      	pop	{r7, pc}

080012de <NRF24_startWrite>:
//40. Start write (for IRQ mode)
void NRF24_startWrite( const void* buf, uint8_t len )
{
 80012de:	b580      	push	{r7, lr}
 80012e0:	b082      	sub	sp, #8
 80012e2:	af00      	add	r7, sp, #0
 80012e4:	6078      	str	r0, [r7, #4]
 80012e6:	460b      	mov	r3, r1
 80012e8:	70fb      	strb	r3, [r7, #3]
  // Transmitter power-up
  NRF24_ce(0);
 80012ea:	2000      	movs	r0, #0
 80012ec:	f7ff fc06 	bl	8000afc <NRF24_ce>
  NRF24_write_register(REG_CONFIG, ( NRF24_read_register(REG_CONFIG) | _BV(BIT_PWR_UP) ) & ~_BV(BIT_PRIM_RX) );
 80012f0:	2000      	movs	r0, #0
 80012f2:	f7ff fc1b 	bl	8000b2c <NRF24_read_register>
 80012f6:	4603      	mov	r3, r0
 80012f8:	f043 0302 	orr.w	r3, r3, #2
 80012fc:	b2db      	uxtb	r3, r3
 80012fe:	f023 0301 	bic.w	r3, r3, #1
 8001302:	b2db      	uxtb	r3, r3
 8001304:	4619      	mov	r1, r3
 8001306:	2000      	movs	r0, #0
 8001308:	f7ff fc60 	bl	8000bcc <NRF24_write_register>
  NRF24_ce(1);
 800130c:	2001      	movs	r0, #1
 800130e:	f7ff fbf5 	bl	8000afc <NRF24_ce>
  NRF24_DelayMicroSeconds(150);
 8001312:	2096      	movs	r0, #150	; 0x96
 8001314:	f7ff fbba 	bl	8000a8c <NRF24_DelayMicroSeconds>

  // Send the payload
  NRF24_write_payload( buf, len );
 8001318:	78fb      	ldrb	r3, [r7, #3]
 800131a:	4619      	mov	r1, r3
 800131c:	6878      	ldr	r0, [r7, #4]
 800131e:	f7ff fc9f 	bl	8000c60 <NRF24_write_payload>

  // Enable Tx for 15usec
  NRF24_ce(1);
 8001322:	2001      	movs	r0, #1
 8001324:	f7ff fbea 	bl	8000afc <NRF24_ce>
  NRF24_DelayMicroSeconds(15);
 8001328:	200f      	movs	r0, #15
 800132a:	f7ff fbaf 	bl	8000a8c <NRF24_DelayMicroSeconds>
  NRF24_ce(0);
 800132e:	2000      	movs	r0, #0
 8001330:	f7ff fbe4 	bl	8000afc <NRF24_ce>
}
 8001334:	bf00      	nop
 8001336:	3708      	adds	r7, #8
 8001338:	46bd      	mov	sp, r7
 800133a:	bd80      	pop	{r7, pc}

0800133c <NRF24_whatHappened>:
  ack_payload_available = false;
  return result;
}
//43. Check interrupt flags
void NRF24_whatHappened(bool *tx_ok,bool *tx_fail,bool *rx_ready)
{
 800133c:	b580      	push	{r7, lr}
 800133e:	b086      	sub	sp, #24
 8001340:	af00      	add	r7, sp, #0
 8001342:	60f8      	str	r0, [r7, #12]
 8001344:	60b9      	str	r1, [r7, #8]
 8001346:	607a      	str	r2, [r7, #4]
	uint8_t status = NRF24_get_status();
 8001348:	f7ff fcbc 	bl	8000cc4 <NRF24_get_status>
 800134c:	4603      	mov	r3, r0
 800134e:	75fb      	strb	r3, [r7, #23]
	*tx_ok = 0;
 8001350:	68fb      	ldr	r3, [r7, #12]
 8001352:	2200      	movs	r2, #0
 8001354:	701a      	strb	r2, [r3, #0]
	NRF24_write_register(REG_STATUS,_BV(BIT_RX_DR) | _BV(BIT_TX_DS) | _BV(BIT_MAX_RT) );
 8001356:	2170      	movs	r1, #112	; 0x70
 8001358:	2007      	movs	r0, #7
 800135a:	f7ff fc37 	bl	8000bcc <NRF24_write_register>
  // Report to the user what happened
  *tx_ok = status & _BV(BIT_TX_DS);
 800135e:	7dfb      	ldrb	r3, [r7, #23]
 8001360:	f003 0320 	and.w	r3, r3, #32
 8001364:	2b00      	cmp	r3, #0
 8001366:	bf14      	ite	ne
 8001368:	2301      	movne	r3, #1
 800136a:	2300      	moveq	r3, #0
 800136c:	b2da      	uxtb	r2, r3
 800136e:	68fb      	ldr	r3, [r7, #12]
 8001370:	701a      	strb	r2, [r3, #0]
  *tx_fail = status & _BV(BIT_MAX_RT);
 8001372:	7dfb      	ldrb	r3, [r7, #23]
 8001374:	f003 0310 	and.w	r3, r3, #16
 8001378:	2b00      	cmp	r3, #0
 800137a:	bf14      	ite	ne
 800137c:	2301      	movne	r3, #1
 800137e:	2300      	moveq	r3, #0
 8001380:	b2da      	uxtb	r2, r3
 8001382:	68bb      	ldr	r3, [r7, #8]
 8001384:	701a      	strb	r2, [r3, #0]
  *rx_ready = status & _BV(BIT_RX_DR);
 8001386:	7dfb      	ldrb	r3, [r7, #23]
 8001388:	f003 0340 	and.w	r3, r3, #64	; 0x40
 800138c:	2b00      	cmp	r3, #0
 800138e:	bf14      	ite	ne
 8001390:	2301      	movne	r3, #1
 8001392:	2300      	moveq	r3, #0
 8001394:	b2da      	uxtb	r2, r3
 8001396:	687b      	ldr	r3, [r7, #4]
 8001398:	701a      	strb	r2, [r3, #0]
}
 800139a:	bf00      	nop
 800139c:	3718      	adds	r7, #24
 800139e:	46bd      	mov	sp, r7
 80013a0:	bd80      	pop	{r7, pc}

080013a2 <NRF24_resetStatus>:
	return NRF24_read_register(REG_RPD) & 1;
}

//46. Reset Status
void NRF24_resetStatus(void)
{
 80013a2:	b580      	push	{r7, lr}
 80013a4:	af00      	add	r7, sp, #0
	NRF24_write_register(REG_STATUS,_BV(BIT_RX_DR) | _BV(BIT_TX_DS) | _BV(BIT_MAX_RT) );
 80013a6:	2170      	movs	r1, #112	; 0x70
 80013a8:	2007      	movs	r0, #7
 80013aa:	f7ff fc0f 	bl	8000bcc <NRF24_write_register>
}
 80013ae:	bf00      	nop
 80013b0:	bd80      	pop	{r7, pc}
	...

080013b4 <NRF24_ACTIVATE_cmd>:

//47. ACTIVATE cmd
void NRF24_ACTIVATE_cmd(void)
{
 80013b4:	b580      	push	{r7, lr}
 80013b6:	b082      	sub	sp, #8
 80013b8:	af00      	add	r7, sp, #0
	uint8_t cmdRxBuf[2];
	//Read data from Rx payload buffer
	NRF24_csn(0);
 80013ba:	2000      	movs	r0, #0
 80013bc:	f7ff fb86 	bl	8000acc <NRF24_csn>
	cmdRxBuf[0] = CMD_ACTIVATE;
 80013c0:	2350      	movs	r3, #80	; 0x50
 80013c2:	713b      	strb	r3, [r7, #4]
	cmdRxBuf[1] = 0x73;
 80013c4:	2373      	movs	r3, #115	; 0x73
 80013c6:	717b      	strb	r3, [r7, #5]
	HAL_SPI_Transmit(&nrf24_hspi, cmdRxBuf, 2, 100);
 80013c8:	1d39      	adds	r1, r7, #4
 80013ca:	2364      	movs	r3, #100	; 0x64
 80013cc:	2202      	movs	r2, #2
 80013ce:	4805      	ldr	r0, [pc, #20]	; (80013e4 <NRF24_ACTIVATE_cmd+0x30>)
 80013d0:	f001 ffbf 	bl	8003352 <HAL_SPI_Transmit>
	NRF24_csn(1);
 80013d4:	2001      	movs	r0, #1
 80013d6:	f7ff fb79 	bl	8000acc <NRF24_csn>
}
 80013da:	bf00      	nop
 80013dc:	3708      	adds	r7, #8
 80013de:	46bd      	mov	sp, r7
 80013e0:	bd80      	pop	{r7, pc}
 80013e2:	bf00      	nop
 80013e4:	200000bc 	.word	0x200000bc

080013e8 <printRadioSettings>:
{
	return ack_payload_length;
}

void printRadioSettings(void)
{
 80013e8:	b5f0      	push	{r4, r5, r6, r7, lr}
 80013ea:	b0a1      	sub	sp, #132	; 0x84
 80013ec:	af04      	add	r7, sp, #16
	uint8_t reg8Val;
	char uartTxBuf[100];
	sprintf(uartTxBuf, "\r\n**********************************************\r\n");
 80013ee:	f107 0308 	add.w	r3, r7, #8
 80013f2:	49c3      	ldr	r1, [pc, #780]	; (8001700 <printRadioSettings+0x318>)
 80013f4:	4618      	mov	r0, r3
 80013f6:	f002 ff4b 	bl	8004290 <siprintf>
	HAL_UART_Transmit(&nrf24_huart, (uint8_t *)uartTxBuf, strlen(uartTxBuf), 10);
 80013fa:	f107 0308 	add.w	r3, r7, #8
 80013fe:	4618      	mov	r0, r3
 8001400:	f7fe febc 	bl	800017c <strlen>
 8001404:	4603      	mov	r3, r0
 8001406:	b29a      	uxth	r2, r3
 8001408:	f107 0108 	add.w	r1, r7, #8
 800140c:	230a      	movs	r3, #10
 800140e:	48bd      	ldr	r0, [pc, #756]	; (8001704 <printRadioSettings+0x31c>)
 8001410:	f002 fd0b 	bl	8003e2a <HAL_UART_Transmit>
	//a) Get CRC settings - Config Register
	reg8Val = NRF24_read_register(0x00);
 8001414:	2000      	movs	r0, #0
 8001416:	f7ff fb89 	bl	8000b2c <NRF24_read_register>
 800141a:	4603      	mov	r3, r0
 800141c:	f887 306f 	strb.w	r3, [r7, #111]	; 0x6f
	if(reg8Val & (1 << 3))
 8001420:	f897 306f 	ldrb.w	r3, [r7, #111]	; 0x6f
 8001424:	f003 0308 	and.w	r3, r3, #8
 8001428:	2b00      	cmp	r3, #0
 800142a:	d013      	beq.n	8001454 <printRadioSettings+0x6c>
	{
		if(reg8Val & (1 << 2)) sprintf(uartTxBuf, "CRC:\r\n		Enabled, 2 Bytes \r\n");
 800142c:	f897 306f 	ldrb.w	r3, [r7, #111]	; 0x6f
 8001430:	f003 0304 	and.w	r3, r3, #4
 8001434:	2b00      	cmp	r3, #0
 8001436:	d006      	beq.n	8001446 <printRadioSettings+0x5e>
 8001438:	f107 0308 	add.w	r3, r7, #8
 800143c:	49b2      	ldr	r1, [pc, #712]	; (8001708 <printRadioSettings+0x320>)
 800143e:	4618      	mov	r0, r3
 8001440:	f002 ff26 	bl	8004290 <siprintf>
 8001444:	e00c      	b.n	8001460 <printRadioSettings+0x78>
		else sprintf(uartTxBuf, "CRC:\r\n		Enabled, 1 Byte \r\n");
 8001446:	f107 0308 	add.w	r3, r7, #8
 800144a:	49b0      	ldr	r1, [pc, #704]	; (800170c <printRadioSettings+0x324>)
 800144c:	4618      	mov	r0, r3
 800144e:	f002 ff1f 	bl	8004290 <siprintf>
 8001452:	e005      	b.n	8001460 <printRadioSettings+0x78>
	}
	else
	{
		sprintf(uartTxBuf, "CRC:\r\n		Disabled \r\n");
 8001454:	f107 0308 	add.w	r3, r7, #8
 8001458:	49ad      	ldr	r1, [pc, #692]	; (8001710 <printRadioSettings+0x328>)
 800145a:	4618      	mov	r0, r3
 800145c:	f002 ff18 	bl	8004290 <siprintf>
	}
	HAL_UART_Transmit(&nrf24_huart, (uint8_t *)uartTxBuf, strlen(uartTxBuf), 10);
 8001460:	f107 0308 	add.w	r3, r7, #8
 8001464:	4618      	mov	r0, r3
 8001466:	f7fe fe89 	bl	800017c <strlen>
 800146a:	4603      	mov	r3, r0
 800146c:	b29a      	uxth	r2, r3
 800146e:	f107 0108 	add.w	r1, r7, #8
 8001472:	230a      	movs	r3, #10
 8001474:	48a3      	ldr	r0, [pc, #652]	; (8001704 <printRadioSettings+0x31c>)
 8001476:	f002 fcd8 	bl	8003e2a <HAL_UART_Transmit>
	//b) AutoAck on pipes
	reg8Val = NRF24_read_register(0x01);
 800147a:	2001      	movs	r0, #1
 800147c:	f7ff fb56 	bl	8000b2c <NRF24_read_register>
 8001480:	4603      	mov	r3, r0
 8001482:	f887 306f 	strb.w	r3, [r7, #111]	; 0x6f
	sprintf(uartTxBuf, "ENAA:\r\n		P0:	%d\r\n		P1:	%d\r\n		P2:	%d\r\n		P3:	%d\r\n		P4:	%d\r\n		P5:	%d\r\n",
	_BOOL(reg8Val&(1<<0)), _BOOL(reg8Val&(1<<1)), _BOOL(reg8Val&(1<<2)), _BOOL(reg8Val&(1<<3)), _BOOL(reg8Val&(1<<4)), _BOOL(reg8Val&(1<<5)));
 8001486:	f897 306f 	ldrb.w	r3, [r7, #111]	; 0x6f
 800148a:	f003 0301 	and.w	r3, r3, #1
	sprintf(uartTxBuf, "ENAA:\r\n		P0:	%d\r\n		P1:	%d\r\n		P2:	%d\r\n		P3:	%d\r\n		P4:	%d\r\n		P5:	%d\r\n",
 800148e:	2b00      	cmp	r3, #0
 8001490:	bfcc      	ite	gt
 8001492:	2301      	movgt	r3, #1
 8001494:	2300      	movle	r3, #0
 8001496:	b2db      	uxtb	r3, r3
 8001498:	461d      	mov	r5, r3
	_BOOL(reg8Val&(1<<0)), _BOOL(reg8Val&(1<<1)), _BOOL(reg8Val&(1<<2)), _BOOL(reg8Val&(1<<3)), _BOOL(reg8Val&(1<<4)), _BOOL(reg8Val&(1<<5)));
 800149a:	f897 306f 	ldrb.w	r3, [r7, #111]	; 0x6f
 800149e:	f003 0302 	and.w	r3, r3, #2
	sprintf(uartTxBuf, "ENAA:\r\n		P0:	%d\r\n		P1:	%d\r\n		P2:	%d\r\n		P3:	%d\r\n		P4:	%d\r\n		P5:	%d\r\n",
 80014a2:	2b00      	cmp	r3, #0
 80014a4:	bfcc      	ite	gt
 80014a6:	2301      	movgt	r3, #1
 80014a8:	2300      	movle	r3, #0
 80014aa:	b2db      	uxtb	r3, r3
 80014ac:	461e      	mov	r6, r3
	_BOOL(reg8Val&(1<<0)), _BOOL(reg8Val&(1<<1)), _BOOL(reg8Val&(1<<2)), _BOOL(reg8Val&(1<<3)), _BOOL(reg8Val&(1<<4)), _BOOL(reg8Val&(1<<5)));
 80014ae:	f897 306f 	ldrb.w	r3, [r7, #111]	; 0x6f
 80014b2:	f003 0304 	and.w	r3, r3, #4
	sprintf(uartTxBuf, "ENAA:\r\n		P0:	%d\r\n		P1:	%d\r\n		P2:	%d\r\n		P3:	%d\r\n		P4:	%d\r\n		P5:	%d\r\n",
 80014b6:	2b00      	cmp	r3, #0
 80014b8:	bfcc      	ite	gt
 80014ba:	2301      	movgt	r3, #1
 80014bc:	2300      	movle	r3, #0
 80014be:	b2db      	uxtb	r3, r3
 80014c0:	461a      	mov	r2, r3
	_BOOL(reg8Val&(1<<0)), _BOOL(reg8Val&(1<<1)), _BOOL(reg8Val&(1<<2)), _BOOL(reg8Val&(1<<3)), _BOOL(reg8Val&(1<<4)), _BOOL(reg8Val&(1<<5)));
 80014c2:	f897 306f 	ldrb.w	r3, [r7, #111]	; 0x6f
 80014c6:	f003 0308 	and.w	r3, r3, #8
	sprintf(uartTxBuf, "ENAA:\r\n		P0:	%d\r\n		P1:	%d\r\n		P2:	%d\r\n		P3:	%d\r\n		P4:	%d\r\n		P5:	%d\r\n",
 80014ca:	2b00      	cmp	r3, #0
 80014cc:	bfcc      	ite	gt
 80014ce:	2301      	movgt	r3, #1
 80014d0:	2300      	movle	r3, #0
 80014d2:	b2db      	uxtb	r3, r3
 80014d4:	4619      	mov	r1, r3
	_BOOL(reg8Val&(1<<0)), _BOOL(reg8Val&(1<<1)), _BOOL(reg8Val&(1<<2)), _BOOL(reg8Val&(1<<3)), _BOOL(reg8Val&(1<<4)), _BOOL(reg8Val&(1<<5)));
 80014d6:	f897 306f 	ldrb.w	r3, [r7, #111]	; 0x6f
 80014da:	f003 0310 	and.w	r3, r3, #16
	sprintf(uartTxBuf, "ENAA:\r\n		P0:	%d\r\n		P1:	%d\r\n		P2:	%d\r\n		P3:	%d\r\n		P4:	%d\r\n		P5:	%d\r\n",
 80014de:	2b00      	cmp	r3, #0
 80014e0:	bfcc      	ite	gt
 80014e2:	2301      	movgt	r3, #1
 80014e4:	2300      	movle	r3, #0
 80014e6:	b2db      	uxtb	r3, r3
 80014e8:	461c      	mov	r4, r3
	_BOOL(reg8Val&(1<<0)), _BOOL(reg8Val&(1<<1)), _BOOL(reg8Val&(1<<2)), _BOOL(reg8Val&(1<<3)), _BOOL(reg8Val&(1<<4)), _BOOL(reg8Val&(1<<5)));
 80014ea:	f897 306f 	ldrb.w	r3, [r7, #111]	; 0x6f
 80014ee:	f003 0320 	and.w	r3, r3, #32
	sprintf(uartTxBuf, "ENAA:\r\n		P0:	%d\r\n		P1:	%d\r\n		P2:	%d\r\n		P3:	%d\r\n		P4:	%d\r\n		P5:	%d\r\n",
 80014f2:	2b00      	cmp	r3, #0
 80014f4:	bfcc      	ite	gt
 80014f6:	2301      	movgt	r3, #1
 80014f8:	2300      	movle	r3, #0
 80014fa:	b2db      	uxtb	r3, r3
 80014fc:	f107 0008 	add.w	r0, r7, #8
 8001500:	9303      	str	r3, [sp, #12]
 8001502:	9402      	str	r4, [sp, #8]
 8001504:	9101      	str	r1, [sp, #4]
 8001506:	9200      	str	r2, [sp, #0]
 8001508:	4633      	mov	r3, r6
 800150a:	462a      	mov	r2, r5
 800150c:	4981      	ldr	r1, [pc, #516]	; (8001714 <printRadioSettings+0x32c>)
 800150e:	f002 febf 	bl	8004290 <siprintf>
	HAL_UART_Transmit(&nrf24_huart, (uint8_t *)uartTxBuf, strlen(uartTxBuf), 10);
 8001512:	f107 0308 	add.w	r3, r7, #8
 8001516:	4618      	mov	r0, r3
 8001518:	f7fe fe30 	bl	800017c <strlen>
 800151c:	4603      	mov	r3, r0
 800151e:	b29a      	uxth	r2, r3
 8001520:	f107 0108 	add.w	r1, r7, #8
 8001524:	230a      	movs	r3, #10
 8001526:	4877      	ldr	r0, [pc, #476]	; (8001704 <printRadioSettings+0x31c>)
 8001528:	f002 fc7f 	bl	8003e2a <HAL_UART_Transmit>
	//c) Enabled Rx addresses
	reg8Val = NRF24_read_register(0x02);
 800152c:	2002      	movs	r0, #2
 800152e:	f7ff fafd 	bl	8000b2c <NRF24_read_register>
 8001532:	4603      	mov	r3, r0
 8001534:	f887 306f 	strb.w	r3, [r7, #111]	; 0x6f
	sprintf(uartTxBuf, "EN_RXADDR:\r\n		P0:	%d\r\n		P1:	%d\r\n		P2:	%d\r\n		P3:	%d\r\n		P4:	%d\r\n		P5:	%d\r\n",
	_BOOL(reg8Val&(1<<0)), _BOOL(reg8Val&(1<<1)), _BOOL(reg8Val&(1<<2)), _BOOL(reg8Val&(1<<3)), _BOOL(reg8Val&(1<<4)), _BOOL(reg8Val&(1<<5)));
 8001538:	f897 306f 	ldrb.w	r3, [r7, #111]	; 0x6f
 800153c:	f003 0301 	and.w	r3, r3, #1
	sprintf(uartTxBuf, "EN_RXADDR:\r\n		P0:	%d\r\n		P1:	%d\r\n		P2:	%d\r\n		P3:	%d\r\n		P4:	%d\r\n		P5:	%d\r\n",
 8001540:	2b00      	cmp	r3, #0
 8001542:	bfcc      	ite	gt
 8001544:	2301      	movgt	r3, #1
 8001546:	2300      	movle	r3, #0
 8001548:	b2db      	uxtb	r3, r3
 800154a:	461d      	mov	r5, r3
	_BOOL(reg8Val&(1<<0)), _BOOL(reg8Val&(1<<1)), _BOOL(reg8Val&(1<<2)), _BOOL(reg8Val&(1<<3)), _BOOL(reg8Val&(1<<4)), _BOOL(reg8Val&(1<<5)));
 800154c:	f897 306f 	ldrb.w	r3, [r7, #111]	; 0x6f
 8001550:	f003 0302 	and.w	r3, r3, #2
	sprintf(uartTxBuf, "EN_RXADDR:\r\n		P0:	%d\r\n		P1:	%d\r\n		P2:	%d\r\n		P3:	%d\r\n		P4:	%d\r\n		P5:	%d\r\n",
 8001554:	2b00      	cmp	r3, #0
 8001556:	bfcc      	ite	gt
 8001558:	2301      	movgt	r3, #1
 800155a:	2300      	movle	r3, #0
 800155c:	b2db      	uxtb	r3, r3
 800155e:	461e      	mov	r6, r3
	_BOOL(reg8Val&(1<<0)), _BOOL(reg8Val&(1<<1)), _BOOL(reg8Val&(1<<2)), _BOOL(reg8Val&(1<<3)), _BOOL(reg8Val&(1<<4)), _BOOL(reg8Val&(1<<5)));
 8001560:	f897 306f 	ldrb.w	r3, [r7, #111]	; 0x6f
 8001564:	f003 0304 	and.w	r3, r3, #4
	sprintf(uartTxBuf, "EN_RXADDR:\r\n		P0:	%d\r\n		P1:	%d\r\n		P2:	%d\r\n		P3:	%d\r\n		P4:	%d\r\n		P5:	%d\r\n",
 8001568:	2b00      	cmp	r3, #0
 800156a:	bfcc      	ite	gt
 800156c:	2301      	movgt	r3, #1
 800156e:	2300      	movle	r3, #0
 8001570:	b2db      	uxtb	r3, r3
 8001572:	461a      	mov	r2, r3
	_BOOL(reg8Val&(1<<0)), _BOOL(reg8Val&(1<<1)), _BOOL(reg8Val&(1<<2)), _BOOL(reg8Val&(1<<3)), _BOOL(reg8Val&(1<<4)), _BOOL(reg8Val&(1<<5)));
 8001574:	f897 306f 	ldrb.w	r3, [r7, #111]	; 0x6f
 8001578:	f003 0308 	and.w	r3, r3, #8
	sprintf(uartTxBuf, "EN_RXADDR:\r\n		P0:	%d\r\n		P1:	%d\r\n		P2:	%d\r\n		P3:	%d\r\n		P4:	%d\r\n		P5:	%d\r\n",
 800157c:	2b00      	cmp	r3, #0
 800157e:	bfcc      	ite	gt
 8001580:	2301      	movgt	r3, #1
 8001582:	2300      	movle	r3, #0
 8001584:	b2db      	uxtb	r3, r3
 8001586:	4619      	mov	r1, r3
	_BOOL(reg8Val&(1<<0)), _BOOL(reg8Val&(1<<1)), _BOOL(reg8Val&(1<<2)), _BOOL(reg8Val&(1<<3)), _BOOL(reg8Val&(1<<4)), _BOOL(reg8Val&(1<<5)));
 8001588:	f897 306f 	ldrb.w	r3, [r7, #111]	; 0x6f
 800158c:	f003 0310 	and.w	r3, r3, #16
	sprintf(uartTxBuf, "EN_RXADDR:\r\n		P0:	%d\r\n		P1:	%d\r\n		P2:	%d\r\n		P3:	%d\r\n		P4:	%d\r\n		P5:	%d\r\n",
 8001590:	2b00      	cmp	r3, #0
 8001592:	bfcc      	ite	gt
 8001594:	2301      	movgt	r3, #1
 8001596:	2300      	movle	r3, #0
 8001598:	b2db      	uxtb	r3, r3
 800159a:	461c      	mov	r4, r3
	_BOOL(reg8Val&(1<<0)), _BOOL(reg8Val&(1<<1)), _BOOL(reg8Val&(1<<2)), _BOOL(reg8Val&(1<<3)), _BOOL(reg8Val&(1<<4)), _BOOL(reg8Val&(1<<5)));
 800159c:	f897 306f 	ldrb.w	r3, [r7, #111]	; 0x6f
 80015a0:	f003 0320 	and.w	r3, r3, #32
	sprintf(uartTxBuf, "EN_RXADDR:\r\n		P0:	%d\r\n		P1:	%d\r\n		P2:	%d\r\n		P3:	%d\r\n		P4:	%d\r\n		P5:	%d\r\n",
 80015a4:	2b00      	cmp	r3, #0
 80015a6:	bfcc      	ite	gt
 80015a8:	2301      	movgt	r3, #1
 80015aa:	2300      	movle	r3, #0
 80015ac:	b2db      	uxtb	r3, r3
 80015ae:	f107 0008 	add.w	r0, r7, #8
 80015b2:	9303      	str	r3, [sp, #12]
 80015b4:	9402      	str	r4, [sp, #8]
 80015b6:	9101      	str	r1, [sp, #4]
 80015b8:	9200      	str	r2, [sp, #0]
 80015ba:	4633      	mov	r3, r6
 80015bc:	462a      	mov	r2, r5
 80015be:	4956      	ldr	r1, [pc, #344]	; (8001718 <printRadioSettings+0x330>)
 80015c0:	f002 fe66 	bl	8004290 <siprintf>
	HAL_UART_Transmit(&nrf24_huart, (uint8_t *)uartTxBuf, strlen(uartTxBuf), 10);
 80015c4:	f107 0308 	add.w	r3, r7, #8
 80015c8:	4618      	mov	r0, r3
 80015ca:	f7fe fdd7 	bl	800017c <strlen>
 80015ce:	4603      	mov	r3, r0
 80015d0:	b29a      	uxth	r2, r3
 80015d2:	f107 0108 	add.w	r1, r7, #8
 80015d6:	230a      	movs	r3, #10
 80015d8:	484a      	ldr	r0, [pc, #296]	; (8001704 <printRadioSettings+0x31c>)
 80015da:	f002 fc26 	bl	8003e2a <HAL_UART_Transmit>
	//d) Address width
	reg8Val = NRF24_read_register(0x03)&0x03;
 80015de:	2003      	movs	r0, #3
 80015e0:	f7ff faa4 	bl	8000b2c <NRF24_read_register>
 80015e4:	4603      	mov	r3, r0
 80015e6:	f003 0303 	and.w	r3, r3, #3
 80015ea:	f887 306f 	strb.w	r3, [r7, #111]	; 0x6f
	reg8Val +=2;
 80015ee:	f897 306f 	ldrb.w	r3, [r7, #111]	; 0x6f
 80015f2:	3302      	adds	r3, #2
 80015f4:	f887 306f 	strb.w	r3, [r7, #111]	; 0x6f
	sprintf(uartTxBuf, "SETUP_AW:\r\n		%d bytes \r\n", reg8Val);
 80015f8:	f897 206f 	ldrb.w	r2, [r7, #111]	; 0x6f
 80015fc:	f107 0308 	add.w	r3, r7, #8
 8001600:	4946      	ldr	r1, [pc, #280]	; (800171c <printRadioSettings+0x334>)
 8001602:	4618      	mov	r0, r3
 8001604:	f002 fe44 	bl	8004290 <siprintf>
	HAL_UART_Transmit(&nrf24_huart, (uint8_t *)uartTxBuf, strlen(uartTxBuf), 10);
 8001608:	f107 0308 	add.w	r3, r7, #8
 800160c:	4618      	mov	r0, r3
 800160e:	f7fe fdb5 	bl	800017c <strlen>
 8001612:	4603      	mov	r3, r0
 8001614:	b29a      	uxth	r2, r3
 8001616:	f107 0108 	add.w	r1, r7, #8
 800161a:	230a      	movs	r3, #10
 800161c:	4839      	ldr	r0, [pc, #228]	; (8001704 <printRadioSettings+0x31c>)
 800161e:	f002 fc04 	bl	8003e2a <HAL_UART_Transmit>
	//e) RF channel
	reg8Val = NRF24_read_register(0x05);
 8001622:	2005      	movs	r0, #5
 8001624:	f7ff fa82 	bl	8000b2c <NRF24_read_register>
 8001628:	4603      	mov	r3, r0
 800162a:	f887 306f 	strb.w	r3, [r7, #111]	; 0x6f
	sprintf(uartTxBuf, "RF_CH:\r\n		%d CH \r\n", reg8Val&0x7F);
 800162e:	f897 306f 	ldrb.w	r3, [r7, #111]	; 0x6f
 8001632:	f003 027f 	and.w	r2, r3, #127	; 0x7f
 8001636:	f107 0308 	add.w	r3, r7, #8
 800163a:	4939      	ldr	r1, [pc, #228]	; (8001720 <printRadioSettings+0x338>)
 800163c:	4618      	mov	r0, r3
 800163e:	f002 fe27 	bl	8004290 <siprintf>
	HAL_UART_Transmit(&nrf24_huart, (uint8_t *)uartTxBuf, strlen(uartTxBuf), 10);
 8001642:	f107 0308 	add.w	r3, r7, #8
 8001646:	4618      	mov	r0, r3
 8001648:	f7fe fd98 	bl	800017c <strlen>
 800164c:	4603      	mov	r3, r0
 800164e:	b29a      	uxth	r2, r3
 8001650:	f107 0108 	add.w	r1, r7, #8
 8001654:	230a      	movs	r3, #10
 8001656:	482b      	ldr	r0, [pc, #172]	; (8001704 <printRadioSettings+0x31c>)
 8001658:	f002 fbe7 	bl	8003e2a <HAL_UART_Transmit>
	//f) Data rate & RF_PWR
	reg8Val = NRF24_read_register(0x06);
 800165c:	2006      	movs	r0, #6
 800165e:	f7ff fa65 	bl	8000b2c <NRF24_read_register>
 8001662:	4603      	mov	r3, r0
 8001664:	f887 306f 	strb.w	r3, [r7, #111]	; 0x6f
	if(reg8Val & (1 << 3)) sprintf(uartTxBuf, "Data Rate:\r\n		2Mbps \r\n");
 8001668:	f897 306f 	ldrb.w	r3, [r7, #111]	; 0x6f
 800166c:	f003 0308 	and.w	r3, r3, #8
 8001670:	2b00      	cmp	r3, #0
 8001672:	d006      	beq.n	8001682 <printRadioSettings+0x29a>
 8001674:	f107 0308 	add.w	r3, r7, #8
 8001678:	492a      	ldr	r1, [pc, #168]	; (8001724 <printRadioSettings+0x33c>)
 800167a:	4618      	mov	r0, r3
 800167c:	f002 fe08 	bl	8004290 <siprintf>
 8001680:	e005      	b.n	800168e <printRadioSettings+0x2a6>
	else sprintf(uartTxBuf, "Data Rate:\r\n		1Mbps \r\n");
 8001682:	f107 0308 	add.w	r3, r7, #8
 8001686:	4928      	ldr	r1, [pc, #160]	; (8001728 <printRadioSettings+0x340>)
 8001688:	4618      	mov	r0, r3
 800168a:	f002 fe01 	bl	8004290 <siprintf>
	HAL_UART_Transmit(&nrf24_huart, (uint8_t *)uartTxBuf, strlen(uartTxBuf), 10);
 800168e:	f107 0308 	add.w	r3, r7, #8
 8001692:	4618      	mov	r0, r3
 8001694:	f7fe fd72 	bl	800017c <strlen>
 8001698:	4603      	mov	r3, r0
 800169a:	b29a      	uxth	r2, r3
 800169c:	f107 0108 	add.w	r1, r7, #8
 80016a0:	230a      	movs	r3, #10
 80016a2:	4818      	ldr	r0, [pc, #96]	; (8001704 <printRadioSettings+0x31c>)
 80016a4:	f002 fbc1 	bl	8003e2a <HAL_UART_Transmit>
	reg8Val &= (3 << 1);
 80016a8:	f897 306f 	ldrb.w	r3, [r7, #111]	; 0x6f
 80016ac:	f003 0306 	and.w	r3, r3, #6
 80016b0:	f887 306f 	strb.w	r3, [r7, #111]	; 0x6f
	reg8Val = (reg8Val>>1);
 80016b4:	f897 306f 	ldrb.w	r3, [r7, #111]	; 0x6f
 80016b8:	085b      	lsrs	r3, r3, #1
 80016ba:	f887 306f 	strb.w	r3, [r7, #111]	; 0x6f
	if(reg8Val == 0) sprintf(uartTxBuf, "RF_PWR:\r\n		-18dB \r\n");
 80016be:	f897 306f 	ldrb.w	r3, [r7, #111]	; 0x6f
 80016c2:	2b00      	cmp	r3, #0
 80016c4:	d106      	bne.n	80016d4 <printRadioSettings+0x2ec>
 80016c6:	f107 0308 	add.w	r3, r7, #8
 80016ca:	4918      	ldr	r1, [pc, #96]	; (800172c <printRadioSettings+0x344>)
 80016cc:	4618      	mov	r0, r3
 80016ce:	f002 fddf 	bl	8004290 <siprintf>
 80016d2:	e03b      	b.n	800174c <printRadioSettings+0x364>
	else if(reg8Val == 1) sprintf(uartTxBuf, "RF_PWR:\r\n		-12dB \r\n");
 80016d4:	f897 306f 	ldrb.w	r3, [r7, #111]	; 0x6f
 80016d8:	2b01      	cmp	r3, #1
 80016da:	d106      	bne.n	80016ea <printRadioSettings+0x302>
 80016dc:	f107 0308 	add.w	r3, r7, #8
 80016e0:	4913      	ldr	r1, [pc, #76]	; (8001730 <printRadioSettings+0x348>)
 80016e2:	4618      	mov	r0, r3
 80016e4:	f002 fdd4 	bl	8004290 <siprintf>
 80016e8:	e030      	b.n	800174c <printRadioSettings+0x364>
	else if(reg8Val == 2) sprintf(uartTxBuf, "RF_PWR:\r\n		-6dB \r\n");
 80016ea:	f897 306f 	ldrb.w	r3, [r7, #111]	; 0x6f
 80016ee:	2b02      	cmp	r3, #2
 80016f0:	d122      	bne.n	8001738 <printRadioSettings+0x350>
 80016f2:	f107 0308 	add.w	r3, r7, #8
 80016f6:	490f      	ldr	r1, [pc, #60]	; (8001734 <printRadioSettings+0x34c>)
 80016f8:	4618      	mov	r0, r3
 80016fa:	f002 fdc9 	bl	8004290 <siprintf>
 80016fe:	e025      	b.n	800174c <printRadioSettings+0x364>
 8001700:	08005600 	.word	0x08005600
 8001704:	20000114 	.word	0x20000114
 8001708:	08005634 	.word	0x08005634
 800170c:	08005650 	.word	0x08005650
 8001710:	0800566c 	.word	0x0800566c
 8001714:	08005680 	.word	0x08005680
 8001718:	080056c4 	.word	0x080056c4
 800171c:	08005710 	.word	0x08005710
 8001720:	0800572c 	.word	0x0800572c
 8001724:	08005740 	.word	0x08005740
 8001728:	08005758 	.word	0x08005758
 800172c:	08005770 	.word	0x08005770
 8001730:	08005784 	.word	0x08005784
 8001734:	08005798 	.word	0x08005798
	else if(reg8Val == 3) sprintf(uartTxBuf, "RF_PWR:\r\n		0dB \r\n");
 8001738:	f897 306f 	ldrb.w	r3, [r7, #111]	; 0x6f
 800173c:	2b03      	cmp	r3, #3
 800173e:	d105      	bne.n	800174c <printRadioSettings+0x364>
 8001740:	f107 0308 	add.w	r3, r7, #8
 8001744:	49d7      	ldr	r1, [pc, #860]	; (8001aa4 <printRadioSettings+0x6bc>)
 8001746:	4618      	mov	r0, r3
 8001748:	f002 fda2 	bl	8004290 <siprintf>
	HAL_UART_Transmit(&nrf24_huart, (uint8_t *)uartTxBuf, strlen(uartTxBuf), 10);
 800174c:	f107 0308 	add.w	r3, r7, #8
 8001750:	4618      	mov	r0, r3
 8001752:	f7fe fd13 	bl	800017c <strlen>
 8001756:	4603      	mov	r3, r0
 8001758:	b29a      	uxth	r2, r3
 800175a:	f107 0108 	add.w	r1, r7, #8
 800175e:	230a      	movs	r3, #10
 8001760:	48d1      	ldr	r0, [pc, #836]	; (8001aa8 <printRadioSettings+0x6c0>)
 8001762:	f002 fb62 	bl	8003e2a <HAL_UART_Transmit>
	//g) RX pipes addresses
	uint8_t pipeAddrs[6];
	NRF24_read_registerN(0x0A, pipeAddrs, 5);
 8001766:	463b      	mov	r3, r7
 8001768:	2205      	movs	r2, #5
 800176a:	4619      	mov	r1, r3
 800176c:	200a      	movs	r0, #10
 800176e:	f7ff fa05 	bl	8000b7c <NRF24_read_registerN>
	sprintf(uartTxBuf, "RX_Pipe0 Addrs:\r\n		%02X,%02X,%02X,%02X,%02X  \r\n", pipeAddrs[4], pipeAddrs[3], pipeAddrs[2],pipeAddrs[1],pipeAddrs[0]);
 8001772:	793b      	ldrb	r3, [r7, #4]
 8001774:	461c      	mov	r4, r3
 8001776:	78fb      	ldrb	r3, [r7, #3]
 8001778:	461d      	mov	r5, r3
 800177a:	78bb      	ldrb	r3, [r7, #2]
 800177c:	787a      	ldrb	r2, [r7, #1]
 800177e:	7839      	ldrb	r1, [r7, #0]
 8001780:	f107 0008 	add.w	r0, r7, #8
 8001784:	9102      	str	r1, [sp, #8]
 8001786:	9201      	str	r2, [sp, #4]
 8001788:	9300      	str	r3, [sp, #0]
 800178a:	462b      	mov	r3, r5
 800178c:	4622      	mov	r2, r4
 800178e:	49c7      	ldr	r1, [pc, #796]	; (8001aac <printRadioSettings+0x6c4>)
 8001790:	f002 fd7e 	bl	8004290 <siprintf>
	HAL_UART_Transmit(&nrf24_huart, (uint8_t *)uartTxBuf, strlen(uartTxBuf), 10);
 8001794:	f107 0308 	add.w	r3, r7, #8
 8001798:	4618      	mov	r0, r3
 800179a:	f7fe fcef 	bl	800017c <strlen>
 800179e:	4603      	mov	r3, r0
 80017a0:	b29a      	uxth	r2, r3
 80017a2:	f107 0108 	add.w	r1, r7, #8
 80017a6:	230a      	movs	r3, #10
 80017a8:	48bf      	ldr	r0, [pc, #764]	; (8001aa8 <printRadioSettings+0x6c0>)
 80017aa:	f002 fb3e 	bl	8003e2a <HAL_UART_Transmit>

	NRF24_read_registerN(0x0A+1, pipeAddrs, 5);
 80017ae:	463b      	mov	r3, r7
 80017b0:	2205      	movs	r2, #5
 80017b2:	4619      	mov	r1, r3
 80017b4:	200b      	movs	r0, #11
 80017b6:	f7ff f9e1 	bl	8000b7c <NRF24_read_registerN>
	sprintf(uartTxBuf, "RX_Pipe1 Addrs:\r\n		%02X,%02X,%02X,%02X,%02X  \r\n", pipeAddrs[4], pipeAddrs[3], pipeAddrs[2],pipeAddrs[1],pipeAddrs[0]);
 80017ba:	793b      	ldrb	r3, [r7, #4]
 80017bc:	461c      	mov	r4, r3
 80017be:	78fb      	ldrb	r3, [r7, #3]
 80017c0:	461d      	mov	r5, r3
 80017c2:	78bb      	ldrb	r3, [r7, #2]
 80017c4:	787a      	ldrb	r2, [r7, #1]
 80017c6:	7839      	ldrb	r1, [r7, #0]
 80017c8:	f107 0008 	add.w	r0, r7, #8
 80017cc:	9102      	str	r1, [sp, #8]
 80017ce:	9201      	str	r2, [sp, #4]
 80017d0:	9300      	str	r3, [sp, #0]
 80017d2:	462b      	mov	r3, r5
 80017d4:	4622      	mov	r2, r4
 80017d6:	49b6      	ldr	r1, [pc, #728]	; (8001ab0 <printRadioSettings+0x6c8>)
 80017d8:	f002 fd5a 	bl	8004290 <siprintf>
	HAL_UART_Transmit(&nrf24_huart, (uint8_t *)uartTxBuf, strlen(uartTxBuf), 10);
 80017dc:	f107 0308 	add.w	r3, r7, #8
 80017e0:	4618      	mov	r0, r3
 80017e2:	f7fe fccb 	bl	800017c <strlen>
 80017e6:	4603      	mov	r3, r0
 80017e8:	b29a      	uxth	r2, r3
 80017ea:	f107 0108 	add.w	r1, r7, #8
 80017ee:	230a      	movs	r3, #10
 80017f0:	48ad      	ldr	r0, [pc, #692]	; (8001aa8 <printRadioSettings+0x6c0>)
 80017f2:	f002 fb1a 	bl	8003e2a <HAL_UART_Transmit>

	NRF24_read_registerN(0x0A+2, pipeAddrs, 1);
 80017f6:	463b      	mov	r3, r7
 80017f8:	2201      	movs	r2, #1
 80017fa:	4619      	mov	r1, r3
 80017fc:	200c      	movs	r0, #12
 80017fe:	f7ff f9bd 	bl	8000b7c <NRF24_read_registerN>
	sprintf(uartTxBuf, "RX_Pipe2 Addrs:\r\n		xx,xx,xx,xx,%02X  \r\n", pipeAddrs[0]);
 8001802:	783b      	ldrb	r3, [r7, #0]
 8001804:	461a      	mov	r2, r3
 8001806:	f107 0308 	add.w	r3, r7, #8
 800180a:	49aa      	ldr	r1, [pc, #680]	; (8001ab4 <printRadioSettings+0x6cc>)
 800180c:	4618      	mov	r0, r3
 800180e:	f002 fd3f 	bl	8004290 <siprintf>
	HAL_UART_Transmit(&nrf24_huart, (uint8_t *)uartTxBuf, strlen(uartTxBuf), 10);
 8001812:	f107 0308 	add.w	r3, r7, #8
 8001816:	4618      	mov	r0, r3
 8001818:	f7fe fcb0 	bl	800017c <strlen>
 800181c:	4603      	mov	r3, r0
 800181e:	b29a      	uxth	r2, r3
 8001820:	f107 0108 	add.w	r1, r7, #8
 8001824:	230a      	movs	r3, #10
 8001826:	48a0      	ldr	r0, [pc, #640]	; (8001aa8 <printRadioSettings+0x6c0>)
 8001828:	f002 faff 	bl	8003e2a <HAL_UART_Transmit>

	NRF24_read_registerN(0x0A+3, pipeAddrs, 1);
 800182c:	463b      	mov	r3, r7
 800182e:	2201      	movs	r2, #1
 8001830:	4619      	mov	r1, r3
 8001832:	200d      	movs	r0, #13
 8001834:	f7ff f9a2 	bl	8000b7c <NRF24_read_registerN>
	sprintf(uartTxBuf, "RX_Pipe3 Addrs:\r\n		xx,xx,xx,xx,%02X  \r\n", pipeAddrs[0]);
 8001838:	783b      	ldrb	r3, [r7, #0]
 800183a:	461a      	mov	r2, r3
 800183c:	f107 0308 	add.w	r3, r7, #8
 8001840:	499d      	ldr	r1, [pc, #628]	; (8001ab8 <printRadioSettings+0x6d0>)
 8001842:	4618      	mov	r0, r3
 8001844:	f002 fd24 	bl	8004290 <siprintf>
	HAL_UART_Transmit(&nrf24_huart, (uint8_t *)uartTxBuf, strlen(uartTxBuf), 10);
 8001848:	f107 0308 	add.w	r3, r7, #8
 800184c:	4618      	mov	r0, r3
 800184e:	f7fe fc95 	bl	800017c <strlen>
 8001852:	4603      	mov	r3, r0
 8001854:	b29a      	uxth	r2, r3
 8001856:	f107 0108 	add.w	r1, r7, #8
 800185a:	230a      	movs	r3, #10
 800185c:	4892      	ldr	r0, [pc, #584]	; (8001aa8 <printRadioSettings+0x6c0>)
 800185e:	f002 fae4 	bl	8003e2a <HAL_UART_Transmit>

	NRF24_read_registerN(0x0A+4, pipeAddrs, 1);
 8001862:	463b      	mov	r3, r7
 8001864:	2201      	movs	r2, #1
 8001866:	4619      	mov	r1, r3
 8001868:	200e      	movs	r0, #14
 800186a:	f7ff f987 	bl	8000b7c <NRF24_read_registerN>
	sprintf(uartTxBuf, "RX_Pipe4 Addrs:\r\n		xx,xx,xx,xx,%02X  \r\n", pipeAddrs[0]);
 800186e:	783b      	ldrb	r3, [r7, #0]
 8001870:	461a      	mov	r2, r3
 8001872:	f107 0308 	add.w	r3, r7, #8
 8001876:	4991      	ldr	r1, [pc, #580]	; (8001abc <printRadioSettings+0x6d4>)
 8001878:	4618      	mov	r0, r3
 800187a:	f002 fd09 	bl	8004290 <siprintf>
	HAL_UART_Transmit(&nrf24_huart, (uint8_t *)uartTxBuf, strlen(uartTxBuf), 10);
 800187e:	f107 0308 	add.w	r3, r7, #8
 8001882:	4618      	mov	r0, r3
 8001884:	f7fe fc7a 	bl	800017c <strlen>
 8001888:	4603      	mov	r3, r0
 800188a:	b29a      	uxth	r2, r3
 800188c:	f107 0108 	add.w	r1, r7, #8
 8001890:	230a      	movs	r3, #10
 8001892:	4885      	ldr	r0, [pc, #532]	; (8001aa8 <printRadioSettings+0x6c0>)
 8001894:	f002 fac9 	bl	8003e2a <HAL_UART_Transmit>

	NRF24_read_registerN(0x0A+5, pipeAddrs, 1);
 8001898:	463b      	mov	r3, r7
 800189a:	2201      	movs	r2, #1
 800189c:	4619      	mov	r1, r3
 800189e:	200f      	movs	r0, #15
 80018a0:	f7ff f96c 	bl	8000b7c <NRF24_read_registerN>
	sprintf(uartTxBuf, "RX_Pipe5 Addrs:\r\n		xx,xx,xx,xx,%02X  \r\n", pipeAddrs[0]);
 80018a4:	783b      	ldrb	r3, [r7, #0]
 80018a6:	461a      	mov	r2, r3
 80018a8:	f107 0308 	add.w	r3, r7, #8
 80018ac:	4984      	ldr	r1, [pc, #528]	; (8001ac0 <printRadioSettings+0x6d8>)
 80018ae:	4618      	mov	r0, r3
 80018b0:	f002 fcee 	bl	8004290 <siprintf>
	HAL_UART_Transmit(&nrf24_huart, (uint8_t *)uartTxBuf, strlen(uartTxBuf), 10);
 80018b4:	f107 0308 	add.w	r3, r7, #8
 80018b8:	4618      	mov	r0, r3
 80018ba:	f7fe fc5f 	bl	800017c <strlen>
 80018be:	4603      	mov	r3, r0
 80018c0:	b29a      	uxth	r2, r3
 80018c2:	f107 0108 	add.w	r1, r7, #8
 80018c6:	230a      	movs	r3, #10
 80018c8:	4877      	ldr	r0, [pc, #476]	; (8001aa8 <printRadioSettings+0x6c0>)
 80018ca:	f002 faae 	bl	8003e2a <HAL_UART_Transmit>

	NRF24_read_registerN(0x0A+6, pipeAddrs, 5);
 80018ce:	463b      	mov	r3, r7
 80018d0:	2205      	movs	r2, #5
 80018d2:	4619      	mov	r1, r3
 80018d4:	2010      	movs	r0, #16
 80018d6:	f7ff f951 	bl	8000b7c <NRF24_read_registerN>
	sprintf(uartTxBuf, "TX Addrs:\r\n		%02X,%02X,%02X,%02X,%02X  \r\n", pipeAddrs[4], pipeAddrs[3], pipeAddrs[2],pipeAddrs[1],pipeAddrs[0]);
 80018da:	793b      	ldrb	r3, [r7, #4]
 80018dc:	461c      	mov	r4, r3
 80018de:	78fb      	ldrb	r3, [r7, #3]
 80018e0:	461d      	mov	r5, r3
 80018e2:	78bb      	ldrb	r3, [r7, #2]
 80018e4:	787a      	ldrb	r2, [r7, #1]
 80018e6:	7839      	ldrb	r1, [r7, #0]
 80018e8:	f107 0008 	add.w	r0, r7, #8
 80018ec:	9102      	str	r1, [sp, #8]
 80018ee:	9201      	str	r2, [sp, #4]
 80018f0:	9300      	str	r3, [sp, #0]
 80018f2:	462b      	mov	r3, r5
 80018f4:	4622      	mov	r2, r4
 80018f6:	4973      	ldr	r1, [pc, #460]	; (8001ac4 <printRadioSettings+0x6dc>)
 80018f8:	f002 fcca 	bl	8004290 <siprintf>
	HAL_UART_Transmit(&nrf24_huart, (uint8_t *)uartTxBuf, strlen(uartTxBuf), 10);
 80018fc:	f107 0308 	add.w	r3, r7, #8
 8001900:	4618      	mov	r0, r3
 8001902:	f7fe fc3b 	bl	800017c <strlen>
 8001906:	4603      	mov	r3, r0
 8001908:	b29a      	uxth	r2, r3
 800190a:	f107 0108 	add.w	r1, r7, #8
 800190e:	230a      	movs	r3, #10
 8001910:	4865      	ldr	r0, [pc, #404]	; (8001aa8 <printRadioSettings+0x6c0>)
 8001912:	f002 fa8a 	bl	8003e2a <HAL_UART_Transmit>

	//h) RX PW (Payload Width 0 - 32)
	reg8Val = NRF24_read_register(0x11);
 8001916:	2011      	movs	r0, #17
 8001918:	f7ff f908 	bl	8000b2c <NRF24_read_register>
 800191c:	4603      	mov	r3, r0
 800191e:	f887 306f 	strb.w	r3, [r7, #111]	; 0x6f
	sprintf(uartTxBuf, "RX_PW_P0:\r\n		%d bytes \r\n", reg8Val&0x3F);
 8001922:	f897 306f 	ldrb.w	r3, [r7, #111]	; 0x6f
 8001926:	f003 023f 	and.w	r2, r3, #63	; 0x3f
 800192a:	f107 0308 	add.w	r3, r7, #8
 800192e:	4966      	ldr	r1, [pc, #408]	; (8001ac8 <printRadioSettings+0x6e0>)
 8001930:	4618      	mov	r0, r3
 8001932:	f002 fcad 	bl	8004290 <siprintf>
	HAL_UART_Transmit(&nrf24_huart, (uint8_t *)uartTxBuf, strlen(uartTxBuf), 10);
 8001936:	f107 0308 	add.w	r3, r7, #8
 800193a:	4618      	mov	r0, r3
 800193c:	f7fe fc1e 	bl	800017c <strlen>
 8001940:	4603      	mov	r3, r0
 8001942:	b29a      	uxth	r2, r3
 8001944:	f107 0108 	add.w	r1, r7, #8
 8001948:	230a      	movs	r3, #10
 800194a:	4857      	ldr	r0, [pc, #348]	; (8001aa8 <printRadioSettings+0x6c0>)
 800194c:	f002 fa6d 	bl	8003e2a <HAL_UART_Transmit>

	reg8Val = NRF24_read_register(0x11+1);
 8001950:	2012      	movs	r0, #18
 8001952:	f7ff f8eb 	bl	8000b2c <NRF24_read_register>
 8001956:	4603      	mov	r3, r0
 8001958:	f887 306f 	strb.w	r3, [r7, #111]	; 0x6f
	sprintf(uartTxBuf, "RX_PW_P1:\r\n		%d bytes \r\n", reg8Val&0x3F);
 800195c:	f897 306f 	ldrb.w	r3, [r7, #111]	; 0x6f
 8001960:	f003 023f 	and.w	r2, r3, #63	; 0x3f
 8001964:	f107 0308 	add.w	r3, r7, #8
 8001968:	4958      	ldr	r1, [pc, #352]	; (8001acc <printRadioSettings+0x6e4>)
 800196a:	4618      	mov	r0, r3
 800196c:	f002 fc90 	bl	8004290 <siprintf>
	HAL_UART_Transmit(&nrf24_huart, (uint8_t *)uartTxBuf, strlen(uartTxBuf), 10);
 8001970:	f107 0308 	add.w	r3, r7, #8
 8001974:	4618      	mov	r0, r3
 8001976:	f7fe fc01 	bl	800017c <strlen>
 800197a:	4603      	mov	r3, r0
 800197c:	b29a      	uxth	r2, r3
 800197e:	f107 0108 	add.w	r1, r7, #8
 8001982:	230a      	movs	r3, #10
 8001984:	4848      	ldr	r0, [pc, #288]	; (8001aa8 <printRadioSettings+0x6c0>)
 8001986:	f002 fa50 	bl	8003e2a <HAL_UART_Transmit>

	reg8Val = NRF24_read_register(0x11+2);
 800198a:	2013      	movs	r0, #19
 800198c:	f7ff f8ce 	bl	8000b2c <NRF24_read_register>
 8001990:	4603      	mov	r3, r0
 8001992:	f887 306f 	strb.w	r3, [r7, #111]	; 0x6f
	sprintf(uartTxBuf, "RX_PW_P2:\r\n		%d bytes \r\n", reg8Val&0x3F);
 8001996:	f897 306f 	ldrb.w	r3, [r7, #111]	; 0x6f
 800199a:	f003 023f 	and.w	r2, r3, #63	; 0x3f
 800199e:	f107 0308 	add.w	r3, r7, #8
 80019a2:	494b      	ldr	r1, [pc, #300]	; (8001ad0 <printRadioSettings+0x6e8>)
 80019a4:	4618      	mov	r0, r3
 80019a6:	f002 fc73 	bl	8004290 <siprintf>
	HAL_UART_Transmit(&nrf24_huart, (uint8_t *)uartTxBuf, strlen(uartTxBuf), 10);
 80019aa:	f107 0308 	add.w	r3, r7, #8
 80019ae:	4618      	mov	r0, r3
 80019b0:	f7fe fbe4 	bl	800017c <strlen>
 80019b4:	4603      	mov	r3, r0
 80019b6:	b29a      	uxth	r2, r3
 80019b8:	f107 0108 	add.w	r1, r7, #8
 80019bc:	230a      	movs	r3, #10
 80019be:	483a      	ldr	r0, [pc, #232]	; (8001aa8 <printRadioSettings+0x6c0>)
 80019c0:	f002 fa33 	bl	8003e2a <HAL_UART_Transmit>

	reg8Val = NRF24_read_register(0x11+3);
 80019c4:	2014      	movs	r0, #20
 80019c6:	f7ff f8b1 	bl	8000b2c <NRF24_read_register>
 80019ca:	4603      	mov	r3, r0
 80019cc:	f887 306f 	strb.w	r3, [r7, #111]	; 0x6f
	sprintf(uartTxBuf, "RX_PW_P3:\r\n		%d bytes \r\n", reg8Val&0x3F);
 80019d0:	f897 306f 	ldrb.w	r3, [r7, #111]	; 0x6f
 80019d4:	f003 023f 	and.w	r2, r3, #63	; 0x3f
 80019d8:	f107 0308 	add.w	r3, r7, #8
 80019dc:	493d      	ldr	r1, [pc, #244]	; (8001ad4 <printRadioSettings+0x6ec>)
 80019de:	4618      	mov	r0, r3
 80019e0:	f002 fc56 	bl	8004290 <siprintf>
	HAL_UART_Transmit(&nrf24_huart, (uint8_t *)uartTxBuf, strlen(uartTxBuf), 10);
 80019e4:	f107 0308 	add.w	r3, r7, #8
 80019e8:	4618      	mov	r0, r3
 80019ea:	f7fe fbc7 	bl	800017c <strlen>
 80019ee:	4603      	mov	r3, r0
 80019f0:	b29a      	uxth	r2, r3
 80019f2:	f107 0108 	add.w	r1, r7, #8
 80019f6:	230a      	movs	r3, #10
 80019f8:	482b      	ldr	r0, [pc, #172]	; (8001aa8 <printRadioSettings+0x6c0>)
 80019fa:	f002 fa16 	bl	8003e2a <HAL_UART_Transmit>

	reg8Val = NRF24_read_register(0x11+4);
 80019fe:	2015      	movs	r0, #21
 8001a00:	f7ff f894 	bl	8000b2c <NRF24_read_register>
 8001a04:	4603      	mov	r3, r0
 8001a06:	f887 306f 	strb.w	r3, [r7, #111]	; 0x6f
	sprintf(uartTxBuf, "RX_PW_P4:\r\n		%d bytes \r\n", reg8Val&0x3F);
 8001a0a:	f897 306f 	ldrb.w	r3, [r7, #111]	; 0x6f
 8001a0e:	f003 023f 	and.w	r2, r3, #63	; 0x3f
 8001a12:	f107 0308 	add.w	r3, r7, #8
 8001a16:	4930      	ldr	r1, [pc, #192]	; (8001ad8 <printRadioSettings+0x6f0>)
 8001a18:	4618      	mov	r0, r3
 8001a1a:	f002 fc39 	bl	8004290 <siprintf>
	HAL_UART_Transmit(&nrf24_huart, (uint8_t *)uartTxBuf, strlen(uartTxBuf), 10);
 8001a1e:	f107 0308 	add.w	r3, r7, #8
 8001a22:	4618      	mov	r0, r3
 8001a24:	f7fe fbaa 	bl	800017c <strlen>
 8001a28:	4603      	mov	r3, r0
 8001a2a:	b29a      	uxth	r2, r3
 8001a2c:	f107 0108 	add.w	r1, r7, #8
 8001a30:	230a      	movs	r3, #10
 8001a32:	481d      	ldr	r0, [pc, #116]	; (8001aa8 <printRadioSettings+0x6c0>)
 8001a34:	f002 f9f9 	bl	8003e2a <HAL_UART_Transmit>

	reg8Val = NRF24_read_register(0x11+5);
 8001a38:	2016      	movs	r0, #22
 8001a3a:	f7ff f877 	bl	8000b2c <NRF24_read_register>
 8001a3e:	4603      	mov	r3, r0
 8001a40:	f887 306f 	strb.w	r3, [r7, #111]	; 0x6f
	sprintf(uartTxBuf, "RX_PW_P5:\r\n		%d bytes \r\n", reg8Val&0x3F);
 8001a44:	f897 306f 	ldrb.w	r3, [r7, #111]	; 0x6f
 8001a48:	f003 023f 	and.w	r2, r3, #63	; 0x3f
 8001a4c:	f107 0308 	add.w	r3, r7, #8
 8001a50:	4922      	ldr	r1, [pc, #136]	; (8001adc <printRadioSettings+0x6f4>)
 8001a52:	4618      	mov	r0, r3
 8001a54:	f002 fc1c 	bl	8004290 <siprintf>
	HAL_UART_Transmit(&nrf24_huart, (uint8_t *)uartTxBuf, strlen(uartTxBuf), 10);
 8001a58:	f107 0308 	add.w	r3, r7, #8
 8001a5c:	4618      	mov	r0, r3
 8001a5e:	f7fe fb8d 	bl	800017c <strlen>
 8001a62:	4603      	mov	r3, r0
 8001a64:	b29a      	uxth	r2, r3
 8001a66:	f107 0108 	add.w	r1, r7, #8
 8001a6a:	230a      	movs	r3, #10
 8001a6c:	480e      	ldr	r0, [pc, #56]	; (8001aa8 <printRadioSettings+0x6c0>)
 8001a6e:	f002 f9dc 	bl	8003e2a <HAL_UART_Transmit>

	//i) Dynamic payload enable for each pipe
	reg8Val = NRF24_read_register(0x1c);
 8001a72:	201c      	movs	r0, #28
 8001a74:	f7ff f85a 	bl	8000b2c <NRF24_read_register>
 8001a78:	4603      	mov	r3, r0
 8001a7a:	f887 306f 	strb.w	r3, [r7, #111]	; 0x6f
	sprintf(uartTxBuf, "DYNPD_pipe:\r\n		P0:	%d\r\n		P1:	%d\r\n		P2:	%d\r\n		P3:	%d\r\n		P4:	%d\r\n		P5:	%d\r\n",
	_BOOL(reg8Val&(1<<0)), _BOOL(reg8Val&(1<<1)), _BOOL(reg8Val&(1<<2)), _BOOL(reg8Val&(1<<3)), _BOOL(reg8Val&(1<<4)), _BOOL(reg8Val&(1<<5)));
 8001a7e:	f897 306f 	ldrb.w	r3, [r7, #111]	; 0x6f
 8001a82:	f003 0301 	and.w	r3, r3, #1
	sprintf(uartTxBuf, "DYNPD_pipe:\r\n		P0:	%d\r\n		P1:	%d\r\n		P2:	%d\r\n		P3:	%d\r\n		P4:	%d\r\n		P5:	%d\r\n",
 8001a86:	2b00      	cmp	r3, #0
 8001a88:	bfcc      	ite	gt
 8001a8a:	2301      	movgt	r3, #1
 8001a8c:	2300      	movle	r3, #0
 8001a8e:	b2db      	uxtb	r3, r3
 8001a90:	461d      	mov	r5, r3
	_BOOL(reg8Val&(1<<0)), _BOOL(reg8Val&(1<<1)), _BOOL(reg8Val&(1<<2)), _BOOL(reg8Val&(1<<3)), _BOOL(reg8Val&(1<<4)), _BOOL(reg8Val&(1<<5)));
 8001a92:	f897 306f 	ldrb.w	r3, [r7, #111]	; 0x6f
 8001a96:	f003 0302 	and.w	r3, r3, #2
	sprintf(uartTxBuf, "DYNPD_pipe:\r\n		P0:	%d\r\n		P1:	%d\r\n		P2:	%d\r\n		P3:	%d\r\n		P4:	%d\r\n		P5:	%d\r\n",
 8001a9a:	2b00      	cmp	r3, #0
 8001a9c:	bfcc      	ite	gt
 8001a9e:	2301      	movgt	r3, #1
 8001aa0:	2300      	movle	r3, #0
 8001aa2:	e01d      	b.n	8001ae0 <printRadioSettings+0x6f8>
 8001aa4:	080057ac 	.word	0x080057ac
 8001aa8:	20000114 	.word	0x20000114
 8001aac:	080057c0 	.word	0x080057c0
 8001ab0:	080057f0 	.word	0x080057f0
 8001ab4:	08005820 	.word	0x08005820
 8001ab8:	08005848 	.word	0x08005848
 8001abc:	08005870 	.word	0x08005870
 8001ac0:	08005898 	.word	0x08005898
 8001ac4:	080058c0 	.word	0x080058c0
 8001ac8:	080058ec 	.word	0x080058ec
 8001acc:	08005908 	.word	0x08005908
 8001ad0:	08005924 	.word	0x08005924
 8001ad4:	08005940 	.word	0x08005940
 8001ad8:	0800595c 	.word	0x0800595c
 8001adc:	08005978 	.word	0x08005978
 8001ae0:	b2db      	uxtb	r3, r3
 8001ae2:	461e      	mov	r6, r3
	_BOOL(reg8Val&(1<<0)), _BOOL(reg8Val&(1<<1)), _BOOL(reg8Val&(1<<2)), _BOOL(reg8Val&(1<<3)), _BOOL(reg8Val&(1<<4)), _BOOL(reg8Val&(1<<5)));
 8001ae4:	f897 306f 	ldrb.w	r3, [r7, #111]	; 0x6f
 8001ae8:	f003 0304 	and.w	r3, r3, #4
	sprintf(uartTxBuf, "DYNPD_pipe:\r\n		P0:	%d\r\n		P1:	%d\r\n		P2:	%d\r\n		P3:	%d\r\n		P4:	%d\r\n		P5:	%d\r\n",
 8001aec:	2b00      	cmp	r3, #0
 8001aee:	bfcc      	ite	gt
 8001af0:	2301      	movgt	r3, #1
 8001af2:	2300      	movle	r3, #0
 8001af4:	b2db      	uxtb	r3, r3
 8001af6:	461a      	mov	r2, r3
	_BOOL(reg8Val&(1<<0)), _BOOL(reg8Val&(1<<1)), _BOOL(reg8Val&(1<<2)), _BOOL(reg8Val&(1<<3)), _BOOL(reg8Val&(1<<4)), _BOOL(reg8Val&(1<<5)));
 8001af8:	f897 306f 	ldrb.w	r3, [r7, #111]	; 0x6f
 8001afc:	f003 0308 	and.w	r3, r3, #8
	sprintf(uartTxBuf, "DYNPD_pipe:\r\n		P0:	%d\r\n		P1:	%d\r\n		P2:	%d\r\n		P3:	%d\r\n		P4:	%d\r\n		P5:	%d\r\n",
 8001b00:	2b00      	cmp	r3, #0
 8001b02:	bfcc      	ite	gt
 8001b04:	2301      	movgt	r3, #1
 8001b06:	2300      	movle	r3, #0
 8001b08:	b2db      	uxtb	r3, r3
 8001b0a:	4619      	mov	r1, r3
	_BOOL(reg8Val&(1<<0)), _BOOL(reg8Val&(1<<1)), _BOOL(reg8Val&(1<<2)), _BOOL(reg8Val&(1<<3)), _BOOL(reg8Val&(1<<4)), _BOOL(reg8Val&(1<<5)));
 8001b0c:	f897 306f 	ldrb.w	r3, [r7, #111]	; 0x6f
 8001b10:	f003 0310 	and.w	r3, r3, #16
	sprintf(uartTxBuf, "DYNPD_pipe:\r\n		P0:	%d\r\n		P1:	%d\r\n		P2:	%d\r\n		P3:	%d\r\n		P4:	%d\r\n		P5:	%d\r\n",
 8001b14:	2b00      	cmp	r3, #0
 8001b16:	bfcc      	ite	gt
 8001b18:	2301      	movgt	r3, #1
 8001b1a:	2300      	movle	r3, #0
 8001b1c:	b2db      	uxtb	r3, r3
 8001b1e:	461c      	mov	r4, r3
	_BOOL(reg8Val&(1<<0)), _BOOL(reg8Val&(1<<1)), _BOOL(reg8Val&(1<<2)), _BOOL(reg8Val&(1<<3)), _BOOL(reg8Val&(1<<4)), _BOOL(reg8Val&(1<<5)));
 8001b20:	f897 306f 	ldrb.w	r3, [r7, #111]	; 0x6f
 8001b24:	f003 0320 	and.w	r3, r3, #32
	sprintf(uartTxBuf, "DYNPD_pipe:\r\n		P0:	%d\r\n		P1:	%d\r\n		P2:	%d\r\n		P3:	%d\r\n		P4:	%d\r\n		P5:	%d\r\n",
 8001b28:	2b00      	cmp	r3, #0
 8001b2a:	bfcc      	ite	gt
 8001b2c:	2301      	movgt	r3, #1
 8001b2e:	2300      	movle	r3, #0
 8001b30:	b2db      	uxtb	r3, r3
 8001b32:	f107 0008 	add.w	r0, r7, #8
 8001b36:	9303      	str	r3, [sp, #12]
 8001b38:	9402      	str	r4, [sp, #8]
 8001b3a:	9101      	str	r1, [sp, #4]
 8001b3c:	9200      	str	r2, [sp, #0]
 8001b3e:	4633      	mov	r3, r6
 8001b40:	462a      	mov	r2, r5
 8001b42:	4936      	ldr	r1, [pc, #216]	; (8001c1c <printRadioSettings+0x834>)
 8001b44:	f002 fba4 	bl	8004290 <siprintf>
	HAL_UART_Transmit(&nrf24_huart, (uint8_t *)uartTxBuf, strlen(uartTxBuf), 10);
 8001b48:	f107 0308 	add.w	r3, r7, #8
 8001b4c:	4618      	mov	r0, r3
 8001b4e:	f7fe fb15 	bl	800017c <strlen>
 8001b52:	4603      	mov	r3, r0
 8001b54:	b29a      	uxth	r2, r3
 8001b56:	f107 0108 	add.w	r1, r7, #8
 8001b5a:	230a      	movs	r3, #10
 8001b5c:	4830      	ldr	r0, [pc, #192]	; (8001c20 <printRadioSettings+0x838>)
 8001b5e:	f002 f964 	bl	8003e2a <HAL_UART_Transmit>

	//j) EN_DPL (is Dynamic payload feature enabled ?)
	reg8Val = NRF24_read_register(0x1d);
 8001b62:	201d      	movs	r0, #29
 8001b64:	f7fe ffe2 	bl	8000b2c <NRF24_read_register>
 8001b68:	4603      	mov	r3, r0
 8001b6a:	f887 306f 	strb.w	r3, [r7, #111]	; 0x6f
	if(reg8Val&(1<<2)) sprintf(uartTxBuf, "EN_DPL:\r\n		Enabled \r\n");
 8001b6e:	f897 306f 	ldrb.w	r3, [r7, #111]	; 0x6f
 8001b72:	f003 0304 	and.w	r3, r3, #4
 8001b76:	2b00      	cmp	r3, #0
 8001b78:	d006      	beq.n	8001b88 <printRadioSettings+0x7a0>
 8001b7a:	f107 0308 	add.w	r3, r7, #8
 8001b7e:	4929      	ldr	r1, [pc, #164]	; (8001c24 <printRadioSettings+0x83c>)
 8001b80:	4618      	mov	r0, r3
 8001b82:	f002 fb85 	bl	8004290 <siprintf>
 8001b86:	e005      	b.n	8001b94 <printRadioSettings+0x7ac>
	else sprintf(uartTxBuf, "EN_DPL:\r\n		Disabled \r\n");
 8001b88:	f107 0308 	add.w	r3, r7, #8
 8001b8c:	4926      	ldr	r1, [pc, #152]	; (8001c28 <printRadioSettings+0x840>)
 8001b8e:	4618      	mov	r0, r3
 8001b90:	f002 fb7e 	bl	8004290 <siprintf>
	HAL_UART_Transmit(&nrf24_huart, (uint8_t *)uartTxBuf, strlen(uartTxBuf), 10);
 8001b94:	f107 0308 	add.w	r3, r7, #8
 8001b98:	4618      	mov	r0, r3
 8001b9a:	f7fe faef 	bl	800017c <strlen>
 8001b9e:	4603      	mov	r3, r0
 8001ba0:	b29a      	uxth	r2, r3
 8001ba2:	f107 0108 	add.w	r1, r7, #8
 8001ba6:	230a      	movs	r3, #10
 8001ba8:	481d      	ldr	r0, [pc, #116]	; (8001c20 <printRadioSettings+0x838>)
 8001baa:	f002 f93e 	bl	8003e2a <HAL_UART_Transmit>

	//k) EN_ACK_PAY
	if(reg8Val&(1<<1)) sprintf(uartTxBuf, "EN_ACK_PAY:\r\n		Enabled \r\n");
 8001bae:	f897 306f 	ldrb.w	r3, [r7, #111]	; 0x6f
 8001bb2:	f003 0302 	and.w	r3, r3, #2
 8001bb6:	2b00      	cmp	r3, #0
 8001bb8:	d006      	beq.n	8001bc8 <printRadioSettings+0x7e0>
 8001bba:	f107 0308 	add.w	r3, r7, #8
 8001bbe:	491b      	ldr	r1, [pc, #108]	; (8001c2c <printRadioSettings+0x844>)
 8001bc0:	4618      	mov	r0, r3
 8001bc2:	f002 fb65 	bl	8004290 <siprintf>
 8001bc6:	e005      	b.n	8001bd4 <printRadioSettings+0x7ec>
	else sprintf(uartTxBuf, "EN_ACK_PAY:\r\n		Disabled \r\n");
 8001bc8:	f107 0308 	add.w	r3, r7, #8
 8001bcc:	4918      	ldr	r1, [pc, #96]	; (8001c30 <printRadioSettings+0x848>)
 8001bce:	4618      	mov	r0, r3
 8001bd0:	f002 fb5e 	bl	8004290 <siprintf>
	HAL_UART_Transmit(&nrf24_huart, (uint8_t *)uartTxBuf, strlen(uartTxBuf), 10);
 8001bd4:	f107 0308 	add.w	r3, r7, #8
 8001bd8:	4618      	mov	r0, r3
 8001bda:	f7fe facf 	bl	800017c <strlen>
 8001bde:	4603      	mov	r3, r0
 8001be0:	b29a      	uxth	r2, r3
 8001be2:	f107 0108 	add.w	r1, r7, #8
 8001be6:	230a      	movs	r3, #10
 8001be8:	480d      	ldr	r0, [pc, #52]	; (8001c20 <printRadioSettings+0x838>)
 8001bea:	f002 f91e 	bl	8003e2a <HAL_UART_Transmit>


	sprintf(uartTxBuf, "\r\n**********************************************\r\n");
 8001bee:	f107 0308 	add.w	r3, r7, #8
 8001bf2:	4910      	ldr	r1, [pc, #64]	; (8001c34 <printRadioSettings+0x84c>)
 8001bf4:	4618      	mov	r0, r3
 8001bf6:	f002 fb4b 	bl	8004290 <siprintf>
	HAL_UART_Transmit(&nrf24_huart, (uint8_t *)uartTxBuf, strlen(uartTxBuf), 10);
 8001bfa:	f107 0308 	add.w	r3, r7, #8
 8001bfe:	4618      	mov	r0, r3
 8001c00:	f7fe fabc 	bl	800017c <strlen>
 8001c04:	4603      	mov	r3, r0
 8001c06:	b29a      	uxth	r2, r3
 8001c08:	f107 0108 	add.w	r1, r7, #8
 8001c0c:	230a      	movs	r3, #10
 8001c0e:	4804      	ldr	r0, [pc, #16]	; (8001c20 <printRadioSettings+0x838>)
 8001c10:	f002 f90b 	bl	8003e2a <HAL_UART_Transmit>
}
 8001c14:	bf00      	nop
 8001c16:	3774      	adds	r7, #116	; 0x74
 8001c18:	46bd      	mov	sp, r7
 8001c1a:	bdf0      	pop	{r4, r5, r6, r7, pc}
 8001c1c:	08005994 	.word	0x08005994
 8001c20:	20000114 	.word	0x20000114
 8001c24:	080059e0 	.word	0x080059e0
 8001c28:	080059f8 	.word	0x080059f8
 8001c2c:	08005a10 	.word	0x08005a10
 8001c30:	08005a2c 	.word	0x08005a2c
 8001c34:	08005600 	.word	0x08005600

08001c38 <nrf24_DebugUART_Init>:
	HAL_UART_Transmit(&nrf24_huart, (uint8_t *)uartTxBuf, strlen(uartTxBuf), 10);
}

//4. Init Variables
void nrf24_DebugUART_Init(void)
{
 8001c38:	b580      	push	{r7, lr}
 8001c3a:	af00      	add	r7, sp, #0
	//memcpy(&nrf24_huart, &nrf24Uart, sizeof(nrf24Uart));
	NRF24_UART_Init();
 8001c3c:	f7fe fec4 	bl	80009c8 <NRF24_UART_Init>
}
 8001c40:	bf00      	nop
 8001c42:	bd80      	pop	{r7, pc}

08001c44 <main>:
/**
  * @brief  The application entry point.
  * @retval int
  */
int main(void)
{
 8001c44:	b580      	push	{r7, lr}
 8001c46:	af00      	add	r7, sp, #0
  /* USER CODE END 1 */

  /* MCU Configuration--------------------------------------------------------*/

  /* Reset of all peripherals, Initializes the Flash interface and the Systick. */
  HAL_Init();
 8001c48:	f000 fa31 	bl	80020ae <HAL_Init>
  /* USER CODE BEGIN Init */

  /* USER CODE END Init */

  /* Configure the system clock */
  SystemClock_Config();
 8001c4c:	f000 f810 	bl	8001c70 <SystemClock_Config>
  /* USER CODE END SysInit */

  /* Initialize all configured peripherals */

  /* USER CODE BEGIN 2 */
  Init_Logic();
 8001c50:	f7fe fd98 	bl	8000784 <Init_Logic>
  while (1)
  {
    /* USER CODE END WHILE */

    /* USER CODE BEGIN 3 */
	  	  Indicate_Led_MCU();
 8001c54:	f7fe fdd6 	bl	8000804 <Indicate_Led_MCU>
	 	  if(Get_Status_Trigger()==0)
 8001c58:	f7fe fdbe 	bl	80007d8 <Get_Status_Trigger>
 8001c5c:	4603      	mov	r3, r0
 8001c5e:	2b00      	cmp	r3, #0
 8001c60:	d004      	beq.n	8001c6c <main+0x28>
	 	  {
	 	  	 continue;
	 	  }
	 	  Reset_Trigger();
 8001c62:	f7fe fdc3 	bl	80007ec <Reset_Trigger>
	 	  Data_Get_Sync();
 8001c66:	f7fe fd2d 	bl	80006c4 <Data_Get_Sync>
 8001c6a:	e7f3      	b.n	8001c54 <main+0x10>
	 	  	 continue;
 8001c6c:	bf00      	nop
	  	  Indicate_Led_MCU();
 8001c6e:	e7f1      	b.n	8001c54 <main+0x10>

08001c70 <SystemClock_Config>:
/**
  * @brief System Clock Configuration
  * @retval None
  */
void SystemClock_Config(void)
{
 8001c70:	b580      	push	{r7, lr}
 8001c72:	b092      	sub	sp, #72	; 0x48
 8001c74:	af00      	add	r7, sp, #0
  RCC_OscInitTypeDef RCC_OscInitStruct = {0};
 8001c76:	f107 0314 	add.w	r3, r7, #20
 8001c7a:	2234      	movs	r2, #52	; 0x34
 8001c7c:	2100      	movs	r1, #0
 8001c7e:	4618      	mov	r0, r3
 8001c80:	f002 fabe 	bl	8004200 <memset>
  RCC_ClkInitTypeDef RCC_ClkInitStruct = {0};
 8001c84:	463b      	mov	r3, r7
 8001c86:	2200      	movs	r2, #0
 8001c88:	601a      	str	r2, [r3, #0]
 8001c8a:	605a      	str	r2, [r3, #4]
 8001c8c:	609a      	str	r2, [r3, #8]
 8001c8e:	60da      	str	r2, [r3, #12]
 8001c90:	611a      	str	r2, [r3, #16]

  /** Configure the main internal regulator output voltage
  */
  __HAL_PWR_VOLTAGESCALING_CONFIG(PWR_REGULATOR_VOLTAGE_SCALE1);
 8001c92:	4b1d      	ldr	r3, [pc, #116]	; (8001d08 <SystemClock_Config+0x98>)
 8001c94:	681b      	ldr	r3, [r3, #0]
 8001c96:	f423 53c0 	bic.w	r3, r3, #6144	; 0x1800
 8001c9a:	4a1b      	ldr	r2, [pc, #108]	; (8001d08 <SystemClock_Config+0x98>)
 8001c9c:	f443 6300 	orr.w	r3, r3, #2048	; 0x800
 8001ca0:	6013      	str	r3, [r2, #0]
  /** Initializes the RCC Oscillators according to the specified parameters
  * in the RCC_OscInitTypeDef structure.
  */
  RCC_OscInitStruct.OscillatorType = RCC_OSCILLATORTYPE_HSI;
 8001ca2:	2302      	movs	r3, #2
 8001ca4:	617b      	str	r3, [r7, #20]
  RCC_OscInitStruct.HSIState = RCC_HSI_ON;
 8001ca6:	2301      	movs	r3, #1
 8001ca8:	623b      	str	r3, [r7, #32]
  RCC_OscInitStruct.HSICalibrationValue = RCC_HSICALIBRATION_DEFAULT;
 8001caa:	2310      	movs	r3, #16
 8001cac:	627b      	str	r3, [r7, #36]	; 0x24
  RCC_OscInitStruct.PLL.PLLState = RCC_PLL_ON;
 8001cae:	2302      	movs	r3, #2
 8001cb0:	63bb      	str	r3, [r7, #56]	; 0x38
  RCC_OscInitStruct.PLL.PLLSource = RCC_PLLSOURCE_HSI;
 8001cb2:	2300      	movs	r3, #0
 8001cb4:	63fb      	str	r3, [r7, #60]	; 0x3c
  RCC_OscInitStruct.PLL.PLLMUL = RCC_PLL_MUL6;
 8001cb6:	f44f 2300 	mov.w	r3, #524288	; 0x80000
 8001cba:	643b      	str	r3, [r7, #64]	; 0x40
  RCC_OscInitStruct.PLL.PLLDIV = RCC_PLL_DIV3;
 8001cbc:	f44f 0300 	mov.w	r3, #8388608	; 0x800000
 8001cc0:	647b      	str	r3, [r7, #68]	; 0x44
  if (HAL_RCC_OscConfig(&RCC_OscInitStruct) != HAL_OK)
 8001cc2:	f107 0314 	add.w	r3, r7, #20
 8001cc6:	4618      	mov	r0, r3
 8001cc8:	f000 fcf6 	bl	80026b8 <HAL_RCC_OscConfig>
 8001ccc:	4603      	mov	r3, r0
 8001cce:	2b00      	cmp	r3, #0
 8001cd0:	d001      	beq.n	8001cd6 <SystemClock_Config+0x66>
  {
    Error_Handler();
 8001cd2:	f000 f81b 	bl	8001d0c <Error_Handler>
  }
  /** Initializes the CPU, AHB and APB buses clocks
  */
  RCC_ClkInitStruct.ClockType = RCC_CLOCKTYPE_HCLK|RCC_CLOCKTYPE_SYSCLK
 8001cd6:	230f      	movs	r3, #15
 8001cd8:	603b      	str	r3, [r7, #0]
                              |RCC_CLOCKTYPE_PCLK1|RCC_CLOCKTYPE_PCLK2;
  RCC_ClkInitStruct.SYSCLKSource = RCC_SYSCLKSOURCE_PLLCLK;
 8001cda:	2303      	movs	r3, #3
 8001cdc:	607b      	str	r3, [r7, #4]
  RCC_ClkInitStruct.AHBCLKDivider = RCC_SYSCLK_DIV1;
 8001cde:	2300      	movs	r3, #0
 8001ce0:	60bb      	str	r3, [r7, #8]
  RCC_ClkInitStruct.APB1CLKDivider = RCC_HCLK_DIV1;
 8001ce2:	2300      	movs	r3, #0
 8001ce4:	60fb      	str	r3, [r7, #12]
  RCC_ClkInitStruct.APB2CLKDivider = RCC_HCLK_DIV1;
 8001ce6:	2300      	movs	r3, #0
 8001ce8:	613b      	str	r3, [r7, #16]

  if (HAL_RCC_ClockConfig(&RCC_ClkInitStruct, FLASH_LATENCY_1) != HAL_OK)
 8001cea:	463b      	mov	r3, r7
 8001cec:	2101      	movs	r1, #1
 8001cee:	4618      	mov	r0, r3
 8001cf0:	f001 f812 	bl	8002d18 <HAL_RCC_ClockConfig>
 8001cf4:	4603      	mov	r3, r0
 8001cf6:	2b00      	cmp	r3, #0
 8001cf8:	d001      	beq.n	8001cfe <SystemClock_Config+0x8e>
  {
    Error_Handler();
 8001cfa:	f000 f807 	bl	8001d0c <Error_Handler>
  }
}
 8001cfe:	bf00      	nop
 8001d00:	3748      	adds	r7, #72	; 0x48
 8001d02:	46bd      	mov	sp, r7
 8001d04:	bd80      	pop	{r7, pc}
 8001d06:	bf00      	nop
 8001d08:	40007000 	.word	0x40007000

08001d0c <Error_Handler>:
/**
  * @brief  This function is executed in case of error occurrence.
  * @retval None
  */
void Error_Handler(void)
{
 8001d0c:	b480      	push	{r7}
 8001d0e:	af00      	add	r7, sp, #0
  \details Disables IRQ interrupts by setting the I-bit in the CPSR.
           Can only be executed in Privileged modes.
 */
__STATIC_FORCEINLINE void __disable_irq(void)
{
  __ASM volatile ("cpsid i" : : : "memory");
 8001d10:	b672      	cpsid	i
}
 8001d12:	bf00      	nop
  /* USER CODE BEGIN Error_Handler_Debug */
  /* User can add his own implementation to report the HAL error return state */
  __disable_irq();
  while (1)
 8001d14:	e7fe      	b.n	8001d14 <Error_Handler+0x8>
	...

08001d18 <HAL_SPI_MspInit>:
  /* USER CODE END SPI1_Init 2 */

}

void HAL_SPI_MspInit(SPI_HandleTypeDef* spiHandle)
{
 8001d18:	b580      	push	{r7, lr}
 8001d1a:	b08a      	sub	sp, #40	; 0x28
 8001d1c:	af00      	add	r7, sp, #0
 8001d1e:	6078      	str	r0, [r7, #4]

  GPIO_InitTypeDef GPIO_InitStruct = {0};
 8001d20:	f107 0314 	add.w	r3, r7, #20
 8001d24:	2200      	movs	r2, #0
 8001d26:	601a      	str	r2, [r3, #0]
 8001d28:	605a      	str	r2, [r3, #4]
 8001d2a:	609a      	str	r2, [r3, #8]
 8001d2c:	60da      	str	r2, [r3, #12]
 8001d2e:	611a      	str	r2, [r3, #16]
  if(spiHandle->Instance==SPI1)
 8001d30:	687b      	ldr	r3, [r7, #4]
 8001d32:	681b      	ldr	r3, [r3, #0]
 8001d34:	4a17      	ldr	r2, [pc, #92]	; (8001d94 <HAL_SPI_MspInit+0x7c>)
 8001d36:	4293      	cmp	r3, r2
 8001d38:	d127      	bne.n	8001d8a <HAL_SPI_MspInit+0x72>
  {
  /* USER CODE BEGIN SPI1_MspInit 0 */

  /* USER CODE END SPI1_MspInit 0 */
    /* SPI1 clock enable */
    __HAL_RCC_SPI1_CLK_ENABLE();
 8001d3a:	4b17      	ldr	r3, [pc, #92]	; (8001d98 <HAL_SPI_MspInit+0x80>)
 8001d3c:	6a1b      	ldr	r3, [r3, #32]
 8001d3e:	4a16      	ldr	r2, [pc, #88]	; (8001d98 <HAL_SPI_MspInit+0x80>)
 8001d40:	f443 5380 	orr.w	r3, r3, #4096	; 0x1000
 8001d44:	6213      	str	r3, [r2, #32]
 8001d46:	4b14      	ldr	r3, [pc, #80]	; (8001d98 <HAL_SPI_MspInit+0x80>)
 8001d48:	6a1b      	ldr	r3, [r3, #32]
 8001d4a:	f403 5380 	and.w	r3, r3, #4096	; 0x1000
 8001d4e:	613b      	str	r3, [r7, #16]
 8001d50:	693b      	ldr	r3, [r7, #16]

    __HAL_RCC_GPIOA_CLK_ENABLE();
 8001d52:	4b11      	ldr	r3, [pc, #68]	; (8001d98 <HAL_SPI_MspInit+0x80>)
 8001d54:	69db      	ldr	r3, [r3, #28]
 8001d56:	4a10      	ldr	r2, [pc, #64]	; (8001d98 <HAL_SPI_MspInit+0x80>)
 8001d58:	f043 0301 	orr.w	r3, r3, #1
 8001d5c:	61d3      	str	r3, [r2, #28]
 8001d5e:	4b0e      	ldr	r3, [pc, #56]	; (8001d98 <HAL_SPI_MspInit+0x80>)
 8001d60:	69db      	ldr	r3, [r3, #28]
 8001d62:	f003 0301 	and.w	r3, r3, #1
 8001d66:	60fb      	str	r3, [r7, #12]
 8001d68:	68fb      	ldr	r3, [r7, #12]
    /**SPI1 GPIO Configuration
    PA5     ------> SPI1_SCK
    PA6     ------> SPI1_MISO
    PA7     ------> SPI1_MOSI
    */
    GPIO_InitStruct.Pin = GPIO_PIN_5|GPIO_PIN_6|GPIO_PIN_7;
 8001d6a:	23e0      	movs	r3, #224	; 0xe0
 8001d6c:	617b      	str	r3, [r7, #20]
    GPIO_InitStruct.Mode = GPIO_MODE_AF_PP;
 8001d6e:	2302      	movs	r3, #2
 8001d70:	61bb      	str	r3, [r7, #24]
    GPIO_InitStruct.Pull = GPIO_NOPULL;
 8001d72:	2300      	movs	r3, #0
 8001d74:	61fb      	str	r3, [r7, #28]
    GPIO_InitStruct.Speed = GPIO_SPEED_FREQ_VERY_HIGH;
 8001d76:	2303      	movs	r3, #3
 8001d78:	623b      	str	r3, [r7, #32]
    GPIO_InitStruct.Alternate = GPIO_AF5_SPI1;
 8001d7a:	2305      	movs	r3, #5
 8001d7c:	627b      	str	r3, [r7, #36]	; 0x24
    HAL_GPIO_Init(GPIOA, &GPIO_InitStruct);
 8001d7e:	f107 0314 	add.w	r3, r7, #20
 8001d82:	4619      	mov	r1, r3
 8001d84:	4805      	ldr	r0, [pc, #20]	; (8001d9c <HAL_SPI_MspInit+0x84>)
 8001d86:	f000 fb07 	bl	8002398 <HAL_GPIO_Init>

  /* USER CODE BEGIN SPI1_MspInit 1 */

  /* USER CODE END SPI1_MspInit 1 */
  }
}
 8001d8a:	bf00      	nop
 8001d8c:	3728      	adds	r7, #40	; 0x28
 8001d8e:	46bd      	mov	sp, r7
 8001d90:	bd80      	pop	{r7, pc}
 8001d92:	bf00      	nop
 8001d94:	40013000 	.word	0x40013000
 8001d98:	40023800 	.word	0x40023800
 8001d9c:	40020000 	.word	0x40020000

08001da0 <HAL_MspInit>:
/* USER CODE END 0 */
/**
  * Initializes the Global MSP.
  */
void HAL_MspInit(void)
{
 8001da0:	b580      	push	{r7, lr}
 8001da2:	b084      	sub	sp, #16
 8001da4:	af00      	add	r7, sp, #0
  /* USER CODE BEGIN MspInit 0 */

  /* USER CODE END MspInit 0 */

  __HAL_RCC_COMP_CLK_ENABLE();
 8001da6:	4b15      	ldr	r3, [pc, #84]	; (8001dfc <HAL_MspInit+0x5c>)
 8001da8:	6a5b      	ldr	r3, [r3, #36]	; 0x24
 8001daa:	4a14      	ldr	r2, [pc, #80]	; (8001dfc <HAL_MspInit+0x5c>)
 8001dac:	f043 4300 	orr.w	r3, r3, #2147483648	; 0x80000000
 8001db0:	6253      	str	r3, [r2, #36]	; 0x24
 8001db2:	4b12      	ldr	r3, [pc, #72]	; (8001dfc <HAL_MspInit+0x5c>)
 8001db4:	6a5b      	ldr	r3, [r3, #36]	; 0x24
 8001db6:	f003 4300 	and.w	r3, r3, #2147483648	; 0x80000000
 8001dba:	60fb      	str	r3, [r7, #12]
 8001dbc:	68fb      	ldr	r3, [r7, #12]
  __HAL_RCC_SYSCFG_CLK_ENABLE();
 8001dbe:	4b0f      	ldr	r3, [pc, #60]	; (8001dfc <HAL_MspInit+0x5c>)
 8001dc0:	6a1b      	ldr	r3, [r3, #32]
 8001dc2:	4a0e      	ldr	r2, [pc, #56]	; (8001dfc <HAL_MspInit+0x5c>)
 8001dc4:	f043 0301 	orr.w	r3, r3, #1
 8001dc8:	6213      	str	r3, [r2, #32]
 8001dca:	4b0c      	ldr	r3, [pc, #48]	; (8001dfc <HAL_MspInit+0x5c>)
 8001dcc:	6a1b      	ldr	r3, [r3, #32]
 8001dce:	f003 0301 	and.w	r3, r3, #1
 8001dd2:	60bb      	str	r3, [r7, #8]
 8001dd4:	68bb      	ldr	r3, [r7, #8]
  __HAL_RCC_PWR_CLK_ENABLE();
 8001dd6:	4b09      	ldr	r3, [pc, #36]	; (8001dfc <HAL_MspInit+0x5c>)
 8001dd8:	6a5b      	ldr	r3, [r3, #36]	; 0x24
 8001dda:	4a08      	ldr	r2, [pc, #32]	; (8001dfc <HAL_MspInit+0x5c>)
 8001ddc:	f043 5380 	orr.w	r3, r3, #268435456	; 0x10000000
 8001de0:	6253      	str	r3, [r2, #36]	; 0x24
 8001de2:	4b06      	ldr	r3, [pc, #24]	; (8001dfc <HAL_MspInit+0x5c>)
 8001de4:	6a5b      	ldr	r3, [r3, #36]	; 0x24
 8001de6:	f003 5380 	and.w	r3, r3, #268435456	; 0x10000000
 8001dea:	607b      	str	r3, [r7, #4]
 8001dec:	687b      	ldr	r3, [r7, #4]

  HAL_NVIC_SetPriorityGrouping(NVIC_PRIORITYGROUP_0);
 8001dee:	2007      	movs	r0, #7
 8001df0:	f000 fa9e 	bl	8002330 <HAL_NVIC_SetPriorityGrouping>
  /* System interrupt init*/

  /* USER CODE BEGIN MspInit 1 */

  /* USER CODE END MspInit 1 */
}
 8001df4:	bf00      	nop
 8001df6:	3710      	adds	r7, #16
 8001df8:	46bd      	mov	sp, r7
 8001dfa:	bd80      	pop	{r7, pc}
 8001dfc:	40023800 	.word	0x40023800

08001e00 <NMI_Handler>:
/******************************************************************************/
/**
  * @brief This function handles Non maskable interrupt.
  */
void NMI_Handler(void)
{
 8001e00:	b480      	push	{r7}
 8001e02:	af00      	add	r7, sp, #0
  /* USER CODE BEGIN NonMaskableInt_IRQn 0 */

  /* USER CODE END NonMaskableInt_IRQn 0 */
  /* USER CODE BEGIN NonMaskableInt_IRQn 1 */
  while (1)
 8001e04:	e7fe      	b.n	8001e04 <NMI_Handler+0x4>

08001e06 <HardFault_Handler>:

/**
  * @brief This function handles Hard fault interrupt.
  */
void HardFault_Handler(void)
{
 8001e06:	b480      	push	{r7}
 8001e08:	af00      	add	r7, sp, #0
  /* USER CODE BEGIN HardFault_IRQn 0 */

  /* USER CODE END HardFault_IRQn 0 */
  while (1)
 8001e0a:	e7fe      	b.n	8001e0a <HardFault_Handler+0x4>

08001e0c <MemManage_Handler>:

/**
  * @brief This function handles Memory management fault.
  */
void MemManage_Handler(void)
{
 8001e0c:	b480      	push	{r7}
 8001e0e:	af00      	add	r7, sp, #0
  /* USER CODE BEGIN MemoryManagement_IRQn 0 */

  /* USER CODE END MemoryManagement_IRQn 0 */
  while (1)
 8001e10:	e7fe      	b.n	8001e10 <MemManage_Handler+0x4>

08001e12 <BusFault_Handler>:

/**
  * @brief This function handles Pre-fetch fault, memory access fault.
  */
void BusFault_Handler(void)
{
 8001e12:	b480      	push	{r7}
 8001e14:	af00      	add	r7, sp, #0
  /* USER CODE BEGIN BusFault_IRQn 0 */

  /* USER CODE END BusFault_IRQn 0 */
  while (1)
 8001e16:	e7fe      	b.n	8001e16 <BusFault_Handler+0x4>

08001e18 <UsageFault_Handler>:

/**
  * @brief This function handles Undefined instruction or illegal state.
  */
void UsageFault_Handler(void)
{
 8001e18:	b480      	push	{r7}
 8001e1a:	af00      	add	r7, sp, #0
  /* USER CODE BEGIN UsageFault_IRQn 0 */

  /* USER CODE END UsageFault_IRQn 0 */
  while (1)
 8001e1c:	e7fe      	b.n	8001e1c <UsageFault_Handler+0x4>

08001e1e <SVC_Handler>:

/**
  * @brief This function handles System service call via SWI instruction.
  */
void SVC_Handler(void)
{
 8001e1e:	b480      	push	{r7}
 8001e20:	af00      	add	r7, sp, #0

  /* USER CODE END SVC_IRQn 0 */
  /* USER CODE BEGIN SVC_IRQn 1 */

  /* USER CODE END SVC_IRQn 1 */
}
 8001e22:	bf00      	nop
 8001e24:	46bd      	mov	sp, r7
 8001e26:	bc80      	pop	{r7}
 8001e28:	4770      	bx	lr

08001e2a <DebugMon_Handler>:

/**
  * @brief This function handles Debug monitor.
  */
void DebugMon_Handler(void)
{
 8001e2a:	b480      	push	{r7}
 8001e2c:	af00      	add	r7, sp, #0

  /* USER CODE END DebugMonitor_IRQn 0 */
  /* USER CODE BEGIN DebugMonitor_IRQn 1 */

  /* USER CODE END DebugMonitor_IRQn 1 */
}
 8001e2e:	bf00      	nop
 8001e30:	46bd      	mov	sp, r7
 8001e32:	bc80      	pop	{r7}
 8001e34:	4770      	bx	lr

08001e36 <PendSV_Handler>:

/**
  * @brief This function handles Pendable request for system service.
  */
void PendSV_Handler(void)
{
 8001e36:	b480      	push	{r7}
 8001e38:	af00      	add	r7, sp, #0

  /* USER CODE END PendSV_IRQn 0 */
  /* USER CODE BEGIN PendSV_IRQn 1 */

  /* USER CODE END PendSV_IRQn 1 */
}
 8001e3a:	bf00      	nop
 8001e3c:	46bd      	mov	sp, r7
 8001e3e:	bc80      	pop	{r7}
 8001e40:	4770      	bx	lr

08001e42 <SysTick_Handler>:

/**
  * @brief This function handles System tick timer.
  */
void SysTick_Handler(void)
{
 8001e42:	b580      	push	{r7, lr}
 8001e44:	af00      	add	r7, sp, #0
  /* USER CODE BEGIN SysTick_IRQn 0 */

  /* USER CODE END SysTick_IRQn 0 */
  HAL_IncTick();
 8001e46:	f000 f985 	bl	8002154 <HAL_IncTick>
  /* USER CODE BEGIN SysTick_IRQn 1 */

  /* USER CODE END SysTick_IRQn 1 */
}
 8001e4a:	bf00      	nop
 8001e4c:	bd80      	pop	{r7, pc}

08001e4e <_getpid>:
void initialise_monitor_handles()
{
}

int _getpid(void)
{
 8001e4e:	b480      	push	{r7}
 8001e50:	af00      	add	r7, sp, #0
	return 1;
 8001e52:	2301      	movs	r3, #1
}
 8001e54:	4618      	mov	r0, r3
 8001e56:	46bd      	mov	sp, r7
 8001e58:	bc80      	pop	{r7}
 8001e5a:	4770      	bx	lr

08001e5c <_kill>:

int _kill(int pid, int sig)
{
 8001e5c:	b580      	push	{r7, lr}
 8001e5e:	b082      	sub	sp, #8
 8001e60:	af00      	add	r7, sp, #0
 8001e62:	6078      	str	r0, [r7, #4]
 8001e64:	6039      	str	r1, [r7, #0]
	errno = EINVAL;
 8001e66:	f002 f9a1 	bl	80041ac <__errno>
 8001e6a:	4603      	mov	r3, r0
 8001e6c:	2216      	movs	r2, #22
 8001e6e:	601a      	str	r2, [r3, #0]
	return -1;
 8001e70:	f04f 33ff 	mov.w	r3, #4294967295
}
 8001e74:	4618      	mov	r0, r3
 8001e76:	3708      	adds	r7, #8
 8001e78:	46bd      	mov	sp, r7
 8001e7a:	bd80      	pop	{r7, pc}

08001e7c <_exit>:

void _exit (int status)
{
 8001e7c:	b580      	push	{r7, lr}
 8001e7e:	b082      	sub	sp, #8
 8001e80:	af00      	add	r7, sp, #0
 8001e82:	6078      	str	r0, [r7, #4]
	_kill(status, -1);
 8001e84:	f04f 31ff 	mov.w	r1, #4294967295
 8001e88:	6878      	ldr	r0, [r7, #4]
 8001e8a:	f7ff ffe7 	bl	8001e5c <_kill>
	while (1) {}		/* Make sure we hang here */
 8001e8e:	e7fe      	b.n	8001e8e <_exit+0x12>

08001e90 <_read>:
}

__attribute__((weak)) int _read(int file, char *ptr, int len)
{
 8001e90:	b580      	push	{r7, lr}
 8001e92:	b086      	sub	sp, #24
 8001e94:	af00      	add	r7, sp, #0
 8001e96:	60f8      	str	r0, [r7, #12]
 8001e98:	60b9      	str	r1, [r7, #8]
 8001e9a:	607a      	str	r2, [r7, #4]
	int DataIdx;

	for (DataIdx = 0; DataIdx < len; DataIdx++)
 8001e9c:	2300      	movs	r3, #0
 8001e9e:	617b      	str	r3, [r7, #20]
 8001ea0:	e00a      	b.n	8001eb8 <_read+0x28>
	{
		*ptr++ = __io_getchar();
 8001ea2:	f3af 8000 	nop.w
 8001ea6:	4601      	mov	r1, r0
 8001ea8:	68bb      	ldr	r3, [r7, #8]
 8001eaa:	1c5a      	adds	r2, r3, #1
 8001eac:	60ba      	str	r2, [r7, #8]
 8001eae:	b2ca      	uxtb	r2, r1
 8001eb0:	701a      	strb	r2, [r3, #0]
	for (DataIdx = 0; DataIdx < len; DataIdx++)
 8001eb2:	697b      	ldr	r3, [r7, #20]
 8001eb4:	3301      	adds	r3, #1
 8001eb6:	617b      	str	r3, [r7, #20]
 8001eb8:	697a      	ldr	r2, [r7, #20]
 8001eba:	687b      	ldr	r3, [r7, #4]
 8001ebc:	429a      	cmp	r2, r3
 8001ebe:	dbf0      	blt.n	8001ea2 <_read+0x12>
	}

return len;
 8001ec0:	687b      	ldr	r3, [r7, #4]
}
 8001ec2:	4618      	mov	r0, r3
 8001ec4:	3718      	adds	r7, #24
 8001ec6:	46bd      	mov	sp, r7
 8001ec8:	bd80      	pop	{r7, pc}

08001eca <_write>:

__attribute__((weak)) int _write(int file, char *ptr, int len)
{
 8001eca:	b580      	push	{r7, lr}
 8001ecc:	b086      	sub	sp, #24
 8001ece:	af00      	add	r7, sp, #0
 8001ed0:	60f8      	str	r0, [r7, #12]
 8001ed2:	60b9      	str	r1, [r7, #8]
 8001ed4:	607a      	str	r2, [r7, #4]
	int DataIdx;

	for (DataIdx = 0; DataIdx < len; DataIdx++)
 8001ed6:	2300      	movs	r3, #0
 8001ed8:	617b      	str	r3, [r7, #20]
 8001eda:	e009      	b.n	8001ef0 <_write+0x26>
	{
		__io_putchar(*ptr++);
 8001edc:	68bb      	ldr	r3, [r7, #8]
 8001ede:	1c5a      	adds	r2, r3, #1
 8001ee0:	60ba      	str	r2, [r7, #8]
 8001ee2:	781b      	ldrb	r3, [r3, #0]
 8001ee4:	4618      	mov	r0, r3
 8001ee6:	f3af 8000 	nop.w
	for (DataIdx = 0; DataIdx < len; DataIdx++)
 8001eea:	697b      	ldr	r3, [r7, #20]
 8001eec:	3301      	adds	r3, #1
 8001eee:	617b      	str	r3, [r7, #20]
 8001ef0:	697a      	ldr	r2, [r7, #20]
 8001ef2:	687b      	ldr	r3, [r7, #4]
 8001ef4:	429a      	cmp	r2, r3
 8001ef6:	dbf1      	blt.n	8001edc <_write+0x12>
	}
	return len;
 8001ef8:	687b      	ldr	r3, [r7, #4]
}
 8001efa:	4618      	mov	r0, r3
 8001efc:	3718      	adds	r7, #24
 8001efe:	46bd      	mov	sp, r7
 8001f00:	bd80      	pop	{r7, pc}

08001f02 <_close>:

int _close(int file)
{
 8001f02:	b480      	push	{r7}
 8001f04:	b083      	sub	sp, #12
 8001f06:	af00      	add	r7, sp, #0
 8001f08:	6078      	str	r0, [r7, #4]
	return -1;
 8001f0a:	f04f 33ff 	mov.w	r3, #4294967295
}
 8001f0e:	4618      	mov	r0, r3
 8001f10:	370c      	adds	r7, #12
 8001f12:	46bd      	mov	sp, r7
 8001f14:	bc80      	pop	{r7}
 8001f16:	4770      	bx	lr

08001f18 <_fstat>:


int _fstat(int file, struct stat *st)
{
 8001f18:	b480      	push	{r7}
 8001f1a:	b083      	sub	sp, #12
 8001f1c:	af00      	add	r7, sp, #0
 8001f1e:	6078      	str	r0, [r7, #4]
 8001f20:	6039      	str	r1, [r7, #0]
	st->st_mode = S_IFCHR;
 8001f22:	683b      	ldr	r3, [r7, #0]
 8001f24:	f44f 5200 	mov.w	r2, #8192	; 0x2000
 8001f28:	605a      	str	r2, [r3, #4]
	return 0;
 8001f2a:	2300      	movs	r3, #0
}
 8001f2c:	4618      	mov	r0, r3
 8001f2e:	370c      	adds	r7, #12
 8001f30:	46bd      	mov	sp, r7
 8001f32:	bc80      	pop	{r7}
 8001f34:	4770      	bx	lr

08001f36 <_isatty>:

int _isatty(int file)
{
 8001f36:	b480      	push	{r7}
 8001f38:	b083      	sub	sp, #12
 8001f3a:	af00      	add	r7, sp, #0
 8001f3c:	6078      	str	r0, [r7, #4]
	return 1;
 8001f3e:	2301      	movs	r3, #1
}
 8001f40:	4618      	mov	r0, r3
 8001f42:	370c      	adds	r7, #12
 8001f44:	46bd      	mov	sp, r7
 8001f46:	bc80      	pop	{r7}
 8001f48:	4770      	bx	lr

08001f4a <_lseek>:

int _lseek(int file, int ptr, int dir)
{
 8001f4a:	b480      	push	{r7}
 8001f4c:	b085      	sub	sp, #20
 8001f4e:	af00      	add	r7, sp, #0
 8001f50:	60f8      	str	r0, [r7, #12]
 8001f52:	60b9      	str	r1, [r7, #8]
 8001f54:	607a      	str	r2, [r7, #4]
	return 0;
 8001f56:	2300      	movs	r3, #0
}
 8001f58:	4618      	mov	r0, r3
 8001f5a:	3714      	adds	r7, #20
 8001f5c:	46bd      	mov	sp, r7
 8001f5e:	bc80      	pop	{r7}
 8001f60:	4770      	bx	lr
	...

08001f64 <_sbrk>:
 *
 * @param incr Memory size
 * @return Pointer to allocated memory
 */
void *_sbrk(ptrdiff_t incr)
{
 8001f64:	b580      	push	{r7, lr}
 8001f66:	b086      	sub	sp, #24
 8001f68:	af00      	add	r7, sp, #0
 8001f6a:	6078      	str	r0, [r7, #4]
  extern uint8_t _end; /* Symbol defined in the linker script */
  extern uint8_t _estack; /* Symbol defined in the linker script */
  extern uint32_t _Min_Stack_Size; /* Symbol defined in the linker script */
  const uint32_t stack_limit = (uint32_t)&_estack - (uint32_t)&_Min_Stack_Size;
 8001f6c:	4a14      	ldr	r2, [pc, #80]	; (8001fc0 <_sbrk+0x5c>)
 8001f6e:	4b15      	ldr	r3, [pc, #84]	; (8001fc4 <_sbrk+0x60>)
 8001f70:	1ad3      	subs	r3, r2, r3
 8001f72:	617b      	str	r3, [r7, #20]
  const uint8_t *max_heap = (uint8_t *)stack_limit;
 8001f74:	697b      	ldr	r3, [r7, #20]
 8001f76:	613b      	str	r3, [r7, #16]
  uint8_t *prev_heap_end;

  /* Initialize heap end at first call */
  if (NULL == __sbrk_heap_end)
 8001f78:	4b13      	ldr	r3, [pc, #76]	; (8001fc8 <_sbrk+0x64>)
 8001f7a:	681b      	ldr	r3, [r3, #0]
 8001f7c:	2b00      	cmp	r3, #0
 8001f7e:	d102      	bne.n	8001f86 <_sbrk+0x22>
  {
    __sbrk_heap_end = &_end;
 8001f80:	4b11      	ldr	r3, [pc, #68]	; (8001fc8 <_sbrk+0x64>)
 8001f82:	4a12      	ldr	r2, [pc, #72]	; (8001fcc <_sbrk+0x68>)
 8001f84:	601a      	str	r2, [r3, #0]
  }

  /* Protect heap from growing into the reserved MSP stack */
  if (__sbrk_heap_end + incr > max_heap)
 8001f86:	4b10      	ldr	r3, [pc, #64]	; (8001fc8 <_sbrk+0x64>)
 8001f88:	681a      	ldr	r2, [r3, #0]
 8001f8a:	687b      	ldr	r3, [r7, #4]
 8001f8c:	4413      	add	r3, r2
 8001f8e:	693a      	ldr	r2, [r7, #16]
 8001f90:	429a      	cmp	r2, r3
 8001f92:	d207      	bcs.n	8001fa4 <_sbrk+0x40>
  {
    errno = ENOMEM;
 8001f94:	f002 f90a 	bl	80041ac <__errno>
 8001f98:	4603      	mov	r3, r0
 8001f9a:	220c      	movs	r2, #12
 8001f9c:	601a      	str	r2, [r3, #0]
    return (void *)-1;
 8001f9e:	f04f 33ff 	mov.w	r3, #4294967295
 8001fa2:	e009      	b.n	8001fb8 <_sbrk+0x54>
  }

  prev_heap_end = __sbrk_heap_end;
 8001fa4:	4b08      	ldr	r3, [pc, #32]	; (8001fc8 <_sbrk+0x64>)
 8001fa6:	681b      	ldr	r3, [r3, #0]
 8001fa8:	60fb      	str	r3, [r7, #12]
  __sbrk_heap_end += incr;
 8001faa:	4b07      	ldr	r3, [pc, #28]	; (8001fc8 <_sbrk+0x64>)
 8001fac:	681a      	ldr	r2, [r3, #0]
 8001fae:	687b      	ldr	r3, [r7, #4]
 8001fb0:	4413      	add	r3, r2
 8001fb2:	4a05      	ldr	r2, [pc, #20]	; (8001fc8 <_sbrk+0x64>)
 8001fb4:	6013      	str	r3, [r2, #0]

  return (void *)prev_heap_end;
 8001fb6:	68fb      	ldr	r3, [r7, #12]
}
 8001fb8:	4618      	mov	r0, r3
 8001fba:	3718      	adds	r7, #24
 8001fbc:	46bd      	mov	sp, r7
 8001fbe:	bd80      	pop	{r7, pc}
 8001fc0:	20004000 	.word	0x20004000
 8001fc4:	00000400 	.word	0x00000400
 8001fc8:	2000009c 	.word	0x2000009c
 8001fcc:	20000170 	.word	0x20000170

08001fd0 <SystemInit>:
  *         SystemCoreClock variable.
  * @param  None
  * @retval None
  */
void SystemInit (void)
{
 8001fd0:	b480      	push	{r7}
 8001fd2:	af00      	add	r7, sp, #0
    
  /* Configure the Vector Table location -------------------------------------*/
#if defined(USER_VECT_TAB_ADDRESS)
  SCB->VTOR = VECT_TAB_BASE_ADDRESS | VECT_TAB_OFFSET; /* Vector Table Relocation in Internal SRAM. */
#endif /* USER_VECT_TAB_ADDRESS */
}
 8001fd4:	bf00      	nop
 8001fd6:	46bd      	mov	sp, r7
 8001fd8:	bc80      	pop	{r7}
 8001fda:	4770      	bx	lr

08001fdc <HAL_UART_MspInit>:
  /* USER CODE END USART1_Init 2 */

}

void HAL_UART_MspInit(UART_HandleTypeDef* uartHandle)
{
 8001fdc:	b580      	push	{r7, lr}
 8001fde:	b08a      	sub	sp, #40	; 0x28
 8001fe0:	af00      	add	r7, sp, #0
 8001fe2:	6078      	str	r0, [r7, #4]

  GPIO_InitTypeDef GPIO_InitStruct = {0};
 8001fe4:	f107 0314 	add.w	r3, r7, #20
 8001fe8:	2200      	movs	r2, #0
 8001fea:	601a      	str	r2, [r3, #0]
 8001fec:	605a      	str	r2, [r3, #4]
 8001fee:	609a      	str	r2, [r3, #8]
 8001ff0:	60da      	str	r2, [r3, #12]
 8001ff2:	611a      	str	r2, [r3, #16]
  if(uartHandle->Instance==USART1)
 8001ff4:	687b      	ldr	r3, [r7, #4]
 8001ff6:	681b      	ldr	r3, [r3, #0]
 8001ff8:	4a17      	ldr	r2, [pc, #92]	; (8002058 <HAL_UART_MspInit+0x7c>)
 8001ffa:	4293      	cmp	r3, r2
 8001ffc:	d128      	bne.n	8002050 <HAL_UART_MspInit+0x74>
  {
  /* USER CODE BEGIN USART1_MspInit 0 */

  /* USER CODE END USART1_MspInit 0 */
    /* USART1 clock enable */
    __HAL_RCC_USART1_CLK_ENABLE();
 8001ffe:	4b17      	ldr	r3, [pc, #92]	; (800205c <HAL_UART_MspInit+0x80>)
 8002000:	6a1b      	ldr	r3, [r3, #32]
 8002002:	4a16      	ldr	r2, [pc, #88]	; (800205c <HAL_UART_MspInit+0x80>)
 8002004:	f443 4380 	orr.w	r3, r3, #16384	; 0x4000
 8002008:	6213      	str	r3, [r2, #32]
 800200a:	4b14      	ldr	r3, [pc, #80]	; (800205c <HAL_UART_MspInit+0x80>)
 800200c:	6a1b      	ldr	r3, [r3, #32]
 800200e:	f403 4380 	and.w	r3, r3, #16384	; 0x4000
 8002012:	613b      	str	r3, [r7, #16]
 8002014:	693b      	ldr	r3, [r7, #16]

    __HAL_RCC_GPIOA_CLK_ENABLE();
 8002016:	4b11      	ldr	r3, [pc, #68]	; (800205c <HAL_UART_MspInit+0x80>)
 8002018:	69db      	ldr	r3, [r3, #28]
 800201a:	4a10      	ldr	r2, [pc, #64]	; (800205c <HAL_UART_MspInit+0x80>)
 800201c:	f043 0301 	orr.w	r3, r3, #1
 8002020:	61d3      	str	r3, [r2, #28]
 8002022:	4b0e      	ldr	r3, [pc, #56]	; (800205c <HAL_UART_MspInit+0x80>)
 8002024:	69db      	ldr	r3, [r3, #28]
 8002026:	f003 0301 	and.w	r3, r3, #1
 800202a:	60fb      	str	r3, [r7, #12]
 800202c:	68fb      	ldr	r3, [r7, #12]
    /**USART1 GPIO Configuration
    PA9     ------> USART1_TX
    PA10     ------> USART1_RX
    */
    GPIO_InitStruct.Pin = GPIO_PIN_9|GPIO_PIN_10;
 800202e:	f44f 63c0 	mov.w	r3, #1536	; 0x600
 8002032:	617b      	str	r3, [r7, #20]
    GPIO_InitStruct.Mode = GPIO_MODE_AF_PP;
 8002034:	2302      	movs	r3, #2
 8002036:	61bb      	str	r3, [r7, #24]
    GPIO_InitStruct.Pull = GPIO_NOPULL;
 8002038:	2300      	movs	r3, #0
 800203a:	61fb      	str	r3, [r7, #28]
    GPIO_InitStruct.Speed = GPIO_SPEED_FREQ_VERY_HIGH;
 800203c:	2303      	movs	r3, #3
 800203e:	623b      	str	r3, [r7, #32]
    GPIO_InitStruct.Alternate = GPIO_AF7_USART1;
 8002040:	2307      	movs	r3, #7
 8002042:	627b      	str	r3, [r7, #36]	; 0x24
    HAL_GPIO_Init(GPIOA, &GPIO_InitStruct);
 8002044:	f107 0314 	add.w	r3, r7, #20
 8002048:	4619      	mov	r1, r3
 800204a:	4805      	ldr	r0, [pc, #20]	; (8002060 <HAL_UART_MspInit+0x84>)
 800204c:	f000 f9a4 	bl	8002398 <HAL_GPIO_Init>

  /* USER CODE BEGIN USART1_MspInit 1 */

  /* USER CODE END USART1_MspInit 1 */
  }
}
 8002050:	bf00      	nop
 8002052:	3728      	adds	r7, #40	; 0x28
 8002054:	46bd      	mov	sp, r7
 8002056:	bd80      	pop	{r7, pc}
 8002058:	40013800 	.word	0x40013800
 800205c:	40023800 	.word	0x40023800
 8002060:	40020000 	.word	0x40020000

08002064 <Reset_Handler>:
  .weak Reset_Handler
  .type Reset_Handler, %function
Reset_Handler:

/* Copy the data segment initializers from flash to SRAM */
  ldr r0, =_sdata
 8002064:	480c      	ldr	r0, [pc, #48]	; (8002098 <LoopFillZerobss+0x12>)
  ldr r1, =_edata
 8002066:	490d      	ldr	r1, [pc, #52]	; (800209c <LoopFillZerobss+0x16>)
  ldr r2, =_sidata
 8002068:	4a0d      	ldr	r2, [pc, #52]	; (80020a0 <LoopFillZerobss+0x1a>)
  movs r3, #0
 800206a:	2300      	movs	r3, #0
  b LoopCopyDataInit
 800206c:	e002      	b.n	8002074 <LoopCopyDataInit>

0800206e <CopyDataInit>:

CopyDataInit:
  ldr r4, [r2, r3]
 800206e:	58d4      	ldr	r4, [r2, r3]
  str r4, [r0, r3]
 8002070:	50c4      	str	r4, [r0, r3]
  adds r3, r3, #4
 8002072:	3304      	adds	r3, #4

08002074 <LoopCopyDataInit>:

LoopCopyDataInit:
  adds r4, r0, r3
 8002074:	18c4      	adds	r4, r0, r3
  cmp r4, r1
 8002076:	428c      	cmp	r4, r1
  bcc CopyDataInit
 8002078:	d3f9      	bcc.n	800206e <CopyDataInit>
  
/* Zero fill the bss segment. */
  ldr r2, =_sbss
 800207a:	4a0a      	ldr	r2, [pc, #40]	; (80020a4 <LoopFillZerobss+0x1e>)
  ldr r4, =_ebss
 800207c:	4c0a      	ldr	r4, [pc, #40]	; (80020a8 <LoopFillZerobss+0x22>)
  movs r3, #0
 800207e:	2300      	movs	r3, #0
  b LoopFillZerobss
 8002080:	e001      	b.n	8002086 <LoopFillZerobss>

08002082 <FillZerobss>:

FillZerobss:
  str  r3, [r2]
 8002082:	6013      	str	r3, [r2, #0]
  adds r2, r2, #4
 8002084:	3204      	adds	r2, #4

08002086 <LoopFillZerobss>:

LoopFillZerobss:
  cmp r2, r4
 8002086:	42a2      	cmp	r2, r4
  bcc FillZerobss
 8002088:	d3fb      	bcc.n	8002082 <FillZerobss>

/* Call the clock system intitialization function.*/
    bl  SystemInit
 800208a:	f7ff ffa1 	bl	8001fd0 <SystemInit>
/* Call static constructors */
    bl __libc_init_array
 800208e:	f002 f893 	bl	80041b8 <__libc_init_array>
/* Call the application's entry point.*/
  bl main
 8002092:	f7ff fdd7 	bl	8001c44 <main>
  bx lr
 8002096:	4770      	bx	lr
  ldr r0, =_sdata
 8002098:	20000000 	.word	0x20000000
  ldr r1, =_edata
 800209c:	20000078 	.word	0x20000078
  ldr r2, =_sidata
 80020a0:	08005cc4 	.word	0x08005cc4
  ldr r2, =_sbss
 80020a4:	20000078 	.word	0x20000078
  ldr r4, =_ebss
 80020a8:	2000016c 	.word	0x2000016c

080020ac <ADC1_IRQHandler>:
 * @retval : None
*/
    .section .text.Default_Handler,"ax",%progbits
Default_Handler:
Infinite_Loop:
  b Infinite_Loop
 80020ac:	e7fe      	b.n	80020ac <ADC1_IRQHandler>

080020ae <HAL_Init>:
  *        In the default implementation,Systick is used as source of time base.
  *        the tick variable is incremented each 1ms in its ISR.
  * @retval HAL status
  */
HAL_StatusTypeDef HAL_Init(void)
{
 80020ae:	b580      	push	{r7, lr}
 80020b0:	b082      	sub	sp, #8
 80020b2:	af00      	add	r7, sp, #0
  HAL_StatusTypeDef  status = HAL_OK;
 80020b4:	2300      	movs	r3, #0
 80020b6:	71fb      	strb	r3, [r7, #7]
#if (PREFETCH_ENABLE != 0)
  __HAL_FLASH_PREFETCH_BUFFER_ENABLE();
#endif /* PREFETCH_ENABLE */

  /* Set Interrupt Group Priority */
  HAL_NVIC_SetPriorityGrouping(NVIC_PRIORITYGROUP_4);
 80020b8:	2003      	movs	r0, #3
 80020ba:	f000 f939 	bl	8002330 <HAL_NVIC_SetPriorityGrouping>

  /* Use systick as time base source and configure 1ms tick (default clock after Reset is MSI) */
  if (HAL_InitTick(TICK_INT_PRIORITY) != HAL_OK)
 80020be:	2000      	movs	r0, #0
 80020c0:	f000 f80e 	bl	80020e0 <HAL_InitTick>
 80020c4:	4603      	mov	r3, r0
 80020c6:	2b00      	cmp	r3, #0
 80020c8:	d002      	beq.n	80020d0 <HAL_Init+0x22>
  {
    status = HAL_ERROR;
 80020ca:	2301      	movs	r3, #1
 80020cc:	71fb      	strb	r3, [r7, #7]
 80020ce:	e001      	b.n	80020d4 <HAL_Init+0x26>
  }
  else
  {
    /* Init the low level hardware */
    HAL_MspInit();
 80020d0:	f7ff fe66 	bl	8001da0 <HAL_MspInit>
  }

  /* Return function status */
  return status;
 80020d4:	79fb      	ldrb	r3, [r7, #7]
}
 80020d6:	4618      	mov	r0, r3
 80020d8:	3708      	adds	r7, #8
 80020da:	46bd      	mov	sp, r7
 80020dc:	bd80      	pop	{r7, pc}
	...

080020e0 <HAL_InitTick>:
  *       implementation  in user file.
  * @param TickPriority Tick interrupt priority.
  * @retval HAL status
  */
__weak HAL_StatusTypeDef HAL_InitTick(uint32_t TickPriority)
{
 80020e0:	b580      	push	{r7, lr}
 80020e2:	b084      	sub	sp, #16
 80020e4:	af00      	add	r7, sp, #0
 80020e6:	6078      	str	r0, [r7, #4]
  HAL_StatusTypeDef  status = HAL_OK;
 80020e8:	2300      	movs	r3, #0
 80020ea:	73fb      	strb	r3, [r7, #15]

  if (uwTickFreq != 0U)
 80020ec:	4b16      	ldr	r3, [pc, #88]	; (8002148 <HAL_InitTick+0x68>)
 80020ee:	681b      	ldr	r3, [r3, #0]
 80020f0:	2b00      	cmp	r3, #0
 80020f2:	d022      	beq.n	800213a <HAL_InitTick+0x5a>
  {
    /*Configure the SysTick to have interrupt in 1ms time basis*/
    if (HAL_SYSTICK_Config(SystemCoreClock / (1000U / uwTickFreq)) == 0U)
 80020f4:	4b15      	ldr	r3, [pc, #84]	; (800214c <HAL_InitTick+0x6c>)
 80020f6:	681a      	ldr	r2, [r3, #0]
 80020f8:	4b13      	ldr	r3, [pc, #76]	; (8002148 <HAL_InitTick+0x68>)
 80020fa:	681b      	ldr	r3, [r3, #0]
 80020fc:	f44f 717a 	mov.w	r1, #1000	; 0x3e8
 8002100:	fbb1 f3f3 	udiv	r3, r1, r3
 8002104:	fbb2 f3f3 	udiv	r3, r2, r3
 8002108:	4618      	mov	r0, r3
 800210a:	f000 f938 	bl	800237e <HAL_SYSTICK_Config>
 800210e:	4603      	mov	r3, r0
 8002110:	2b00      	cmp	r3, #0
 8002112:	d10f      	bne.n	8002134 <HAL_InitTick+0x54>
    {
      /* Configure the SysTick IRQ priority */
      if (TickPriority < (1UL << __NVIC_PRIO_BITS))
 8002114:	687b      	ldr	r3, [r7, #4]
 8002116:	2b0f      	cmp	r3, #15
 8002118:	d809      	bhi.n	800212e <HAL_InitTick+0x4e>
      {
        HAL_NVIC_SetPriority(SysTick_IRQn, TickPriority, 0U);
 800211a:	2200      	movs	r2, #0
 800211c:	6879      	ldr	r1, [r7, #4]
 800211e:	f04f 30ff 	mov.w	r0, #4294967295
 8002122:	f000 f910 	bl	8002346 <HAL_NVIC_SetPriority>
        uwTickPrio = TickPriority;
 8002126:	4a0a      	ldr	r2, [pc, #40]	; (8002150 <HAL_InitTick+0x70>)
 8002128:	687b      	ldr	r3, [r7, #4]
 800212a:	6013      	str	r3, [r2, #0]
 800212c:	e007      	b.n	800213e <HAL_InitTick+0x5e>
      }
      else
      {
        status = HAL_ERROR;
 800212e:	2301      	movs	r3, #1
 8002130:	73fb      	strb	r3, [r7, #15]
 8002132:	e004      	b.n	800213e <HAL_InitTick+0x5e>
      }
    }
    else
    {
      status = HAL_ERROR;
 8002134:	2301      	movs	r3, #1
 8002136:	73fb      	strb	r3, [r7, #15]
 8002138:	e001      	b.n	800213e <HAL_InitTick+0x5e>
    }
  }
  else
  {
    status = HAL_ERROR;
 800213a:	2301      	movs	r3, #1
 800213c:	73fb      	strb	r3, [r7, #15]
  }

  /* Return function status */
  return status;
 800213e:	7bfb      	ldrb	r3, [r7, #15]
}
 8002140:	4618      	mov	r0, r3
 8002142:	3710      	adds	r7, #16
 8002144:	46bd      	mov	sp, r7
 8002146:	bd80      	pop	{r7, pc}
 8002148:	20000010 	.word	0x20000010
 800214c:	20000008 	.word	0x20000008
 8002150:	2000000c 	.word	0x2000000c

08002154 <HAL_IncTick>:
 * @note This function is declared as __weak to be overwritten in case of other
  *      implementations in user file.
  * @retval None
  */
__weak void HAL_IncTick(void)
{
 8002154:	b480      	push	{r7}
 8002156:	af00      	add	r7, sp, #0
  uwTick += uwTickFreq;
 8002158:	4b05      	ldr	r3, [pc, #20]	; (8002170 <HAL_IncTick+0x1c>)
 800215a:	681a      	ldr	r2, [r3, #0]
 800215c:	4b05      	ldr	r3, [pc, #20]	; (8002174 <HAL_IncTick+0x20>)
 800215e:	681b      	ldr	r3, [r3, #0]
 8002160:	4413      	add	r3, r2
 8002162:	4a03      	ldr	r2, [pc, #12]	; (8002170 <HAL_IncTick+0x1c>)
 8002164:	6013      	str	r3, [r2, #0]
}
 8002166:	bf00      	nop
 8002168:	46bd      	mov	sp, r7
 800216a:	bc80      	pop	{r7}
 800216c:	4770      	bx	lr
 800216e:	bf00      	nop
 8002170:	20000158 	.word	0x20000158
 8002174:	20000010 	.word	0x20000010

08002178 <HAL_GetTick>:
  * @note This function is declared as __weak to be overwritten in case of other
  *       implementations in user file.
  * @retval tick value
  */
__weak uint32_t HAL_GetTick(void)
{
 8002178:	b480      	push	{r7}
 800217a:	af00      	add	r7, sp, #0
  return uwTick;
 800217c:	4b02      	ldr	r3, [pc, #8]	; (8002188 <HAL_GetTick+0x10>)
 800217e:	681b      	ldr	r3, [r3, #0]
}
 8002180:	4618      	mov	r0, r3
 8002182:	46bd      	mov	sp, r7
 8002184:	bc80      	pop	{r7}
 8002186:	4770      	bx	lr
 8002188:	20000158 	.word	0x20000158

0800218c <HAL_Delay>:
  *       implementations in user file.
  * @param Delay specifies the delay time length, in milliseconds.
  * @retval None
  */
__weak void HAL_Delay(uint32_t Delay)
{
 800218c:	b580      	push	{r7, lr}
 800218e:	b084      	sub	sp, #16
 8002190:	af00      	add	r7, sp, #0
 8002192:	6078      	str	r0, [r7, #4]
  uint32_t tickstart = HAL_GetTick();
 8002194:	f7ff fff0 	bl	8002178 <HAL_GetTick>
 8002198:	60b8      	str	r0, [r7, #8]
  uint32_t wait = Delay;
 800219a:	687b      	ldr	r3, [r7, #4]
 800219c:	60fb      	str	r3, [r7, #12]

  /* Add a period to guaranty minimum wait */
  if (wait < HAL_MAX_DELAY)
 800219e:	68fb      	ldr	r3, [r7, #12]
 80021a0:	f1b3 3fff 	cmp.w	r3, #4294967295
 80021a4:	d004      	beq.n	80021b0 <HAL_Delay+0x24>
  {
    wait += (uint32_t)(uwTickFreq);
 80021a6:	4b09      	ldr	r3, [pc, #36]	; (80021cc <HAL_Delay+0x40>)
 80021a8:	681b      	ldr	r3, [r3, #0]
 80021aa:	68fa      	ldr	r2, [r7, #12]
 80021ac:	4413      	add	r3, r2
 80021ae:	60fb      	str	r3, [r7, #12]
  }

  while((HAL_GetTick() - tickstart) < wait)
 80021b0:	bf00      	nop
 80021b2:	f7ff ffe1 	bl	8002178 <HAL_GetTick>
 80021b6:	4602      	mov	r2, r0
 80021b8:	68bb      	ldr	r3, [r7, #8]
 80021ba:	1ad3      	subs	r3, r2, r3
 80021bc:	68fa      	ldr	r2, [r7, #12]
 80021be:	429a      	cmp	r2, r3
 80021c0:	d8f7      	bhi.n	80021b2 <HAL_Delay+0x26>
  {
  }
}
 80021c2:	bf00      	nop
 80021c4:	bf00      	nop
 80021c6:	3710      	adds	r7, #16
 80021c8:	46bd      	mov	sp, r7
 80021ca:	bd80      	pop	{r7, pc}
 80021cc:	20000010 	.word	0x20000010

080021d0 <__NVIC_SetPriorityGrouping>:
{
 80021d0:	b480      	push	{r7}
 80021d2:	b085      	sub	sp, #20
 80021d4:	af00      	add	r7, sp, #0
 80021d6:	6078      	str	r0, [r7, #4]
  uint32_t PriorityGroupTmp = (PriorityGroup & (uint32_t)0x07UL);             /* only values 0..7 are used          */
 80021d8:	687b      	ldr	r3, [r7, #4]
 80021da:	f003 0307 	and.w	r3, r3, #7
 80021de:	60fb      	str	r3, [r7, #12]
  reg_value  =  SCB->AIRCR;                                                   /* read old register configuration    */
 80021e0:	4b0c      	ldr	r3, [pc, #48]	; (8002214 <__NVIC_SetPriorityGrouping+0x44>)
 80021e2:	68db      	ldr	r3, [r3, #12]
 80021e4:	60bb      	str	r3, [r7, #8]
  reg_value &= ~((uint32_t)(SCB_AIRCR_VECTKEY_Msk | SCB_AIRCR_PRIGROUP_Msk)); /* clear bits to change               */
 80021e6:	68ba      	ldr	r2, [r7, #8]
 80021e8:	f64f 03ff 	movw	r3, #63743	; 0xf8ff
 80021ec:	4013      	ands	r3, r2
 80021ee:	60bb      	str	r3, [r7, #8]
                (PriorityGroupTmp << SCB_AIRCR_PRIGROUP_Pos) );               /* Insert write key and priority group */
 80021f0:	68fb      	ldr	r3, [r7, #12]
 80021f2:	021a      	lsls	r2, r3, #8
                ((uint32_t)0x5FAUL << SCB_AIRCR_VECTKEY_Pos) |
 80021f4:	68bb      	ldr	r3, [r7, #8]
 80021f6:	4313      	orrs	r3, r2
  reg_value  =  (reg_value                                   |
 80021f8:	f043 63bf 	orr.w	r3, r3, #100139008	; 0x5f80000
 80021fc:	f443 3300 	orr.w	r3, r3, #131072	; 0x20000
 8002200:	60bb      	str	r3, [r7, #8]
  SCB->AIRCR =  reg_value;
 8002202:	4a04      	ldr	r2, [pc, #16]	; (8002214 <__NVIC_SetPriorityGrouping+0x44>)
 8002204:	68bb      	ldr	r3, [r7, #8]
 8002206:	60d3      	str	r3, [r2, #12]
}
 8002208:	bf00      	nop
 800220a:	3714      	adds	r7, #20
 800220c:	46bd      	mov	sp, r7
 800220e:	bc80      	pop	{r7}
 8002210:	4770      	bx	lr
 8002212:	bf00      	nop
 8002214:	e000ed00 	.word	0xe000ed00

08002218 <__NVIC_GetPriorityGrouping>:
{
 8002218:	b480      	push	{r7}
 800221a:	af00      	add	r7, sp, #0
  return ((uint32_t)((SCB->AIRCR & SCB_AIRCR_PRIGROUP_Msk) >> SCB_AIRCR_PRIGROUP_Pos));
 800221c:	4b04      	ldr	r3, [pc, #16]	; (8002230 <__NVIC_GetPriorityGrouping+0x18>)
 800221e:	68db      	ldr	r3, [r3, #12]
 8002220:	0a1b      	lsrs	r3, r3, #8
 8002222:	f003 0307 	and.w	r3, r3, #7
}
 8002226:	4618      	mov	r0, r3
 8002228:	46bd      	mov	sp, r7
 800222a:	bc80      	pop	{r7}
 800222c:	4770      	bx	lr
 800222e:	bf00      	nop
 8002230:	e000ed00 	.word	0xe000ed00

08002234 <__NVIC_SetPriority>:
  \param [in]      IRQn  Interrupt number.
  \param [in]  priority  Priority to set.
  \note    The priority cannot be set for every processor exception.
 */
__STATIC_INLINE void __NVIC_SetPriority(IRQn_Type IRQn, uint32_t priority)
{
 8002234:	b480      	push	{r7}
 8002236:	b083      	sub	sp, #12
 8002238:	af00      	add	r7, sp, #0
 800223a:	4603      	mov	r3, r0
 800223c:	6039      	str	r1, [r7, #0]
 800223e:	71fb      	strb	r3, [r7, #7]
  if ((int32_t)(IRQn) >= 0)
 8002240:	f997 3007 	ldrsb.w	r3, [r7, #7]
 8002244:	2b00      	cmp	r3, #0
 8002246:	db0a      	blt.n	800225e <__NVIC_SetPriority+0x2a>
  {
    NVIC->IP[((uint32_t)IRQn)]               = (uint8_t)((priority << (8U - __NVIC_PRIO_BITS)) & (uint32_t)0xFFUL);
 8002248:	683b      	ldr	r3, [r7, #0]
 800224a:	b2da      	uxtb	r2, r3
 800224c:	490c      	ldr	r1, [pc, #48]	; (8002280 <__NVIC_SetPriority+0x4c>)
 800224e:	f997 3007 	ldrsb.w	r3, [r7, #7]
 8002252:	0112      	lsls	r2, r2, #4
 8002254:	b2d2      	uxtb	r2, r2
 8002256:	440b      	add	r3, r1
 8002258:	f883 2300 	strb.w	r2, [r3, #768]	; 0x300
  }
  else
  {
    SCB->SHP[(((uint32_t)IRQn) & 0xFUL)-4UL] = (uint8_t)((priority << (8U - __NVIC_PRIO_BITS)) & (uint32_t)0xFFUL);
  }
}
 800225c:	e00a      	b.n	8002274 <__NVIC_SetPriority+0x40>
    SCB->SHP[(((uint32_t)IRQn) & 0xFUL)-4UL] = (uint8_t)((priority << (8U - __NVIC_PRIO_BITS)) & (uint32_t)0xFFUL);
 800225e:	683b      	ldr	r3, [r7, #0]
 8002260:	b2da      	uxtb	r2, r3
 8002262:	4908      	ldr	r1, [pc, #32]	; (8002284 <__NVIC_SetPriority+0x50>)
 8002264:	79fb      	ldrb	r3, [r7, #7]
 8002266:	f003 030f 	and.w	r3, r3, #15
 800226a:	3b04      	subs	r3, #4
 800226c:	0112      	lsls	r2, r2, #4
 800226e:	b2d2      	uxtb	r2, r2
 8002270:	440b      	add	r3, r1
 8002272:	761a      	strb	r2, [r3, #24]
}
 8002274:	bf00      	nop
 8002276:	370c      	adds	r7, #12
 8002278:	46bd      	mov	sp, r7
 800227a:	bc80      	pop	{r7}
 800227c:	4770      	bx	lr
 800227e:	bf00      	nop
 8002280:	e000e100 	.word	0xe000e100
 8002284:	e000ed00 	.word	0xe000ed00

08002288 <NVIC_EncodePriority>:
  \param [in]   PreemptPriority  Preemptive priority value (starting from 0).
  \param [in]       SubPriority  Subpriority value (starting from 0).
  \return                        Encoded priority. Value can be used in the function \ref NVIC_SetPriority().
 */
__STATIC_INLINE uint32_t NVIC_EncodePriority (uint32_t PriorityGroup, uint32_t PreemptPriority, uint32_t SubPriority)
{
 8002288:	b480      	push	{r7}
 800228a:	b089      	sub	sp, #36	; 0x24
 800228c:	af00      	add	r7, sp, #0
 800228e:	60f8      	str	r0, [r7, #12]
 8002290:	60b9      	str	r1, [r7, #8]
 8002292:	607a      	str	r2, [r7, #4]
  uint32_t PriorityGroupTmp = (PriorityGroup & (uint32_t)0x07UL);   /* only values 0..7 are used          */
 8002294:	68fb      	ldr	r3, [r7, #12]
 8002296:	f003 0307 	and.w	r3, r3, #7
 800229a:	61fb      	str	r3, [r7, #28]
  uint32_t PreemptPriorityBits;
  uint32_t SubPriorityBits;

  PreemptPriorityBits = ((7UL - PriorityGroupTmp) > (uint32_t)(__NVIC_PRIO_BITS)) ? (uint32_t)(__NVIC_PRIO_BITS) : (uint32_t)(7UL - PriorityGroupTmp);
 800229c:	69fb      	ldr	r3, [r7, #28]
 800229e:	f1c3 0307 	rsb	r3, r3, #7
 80022a2:	2b04      	cmp	r3, #4
 80022a4:	bf28      	it	cs
 80022a6:	2304      	movcs	r3, #4
 80022a8:	61bb      	str	r3, [r7, #24]
  SubPriorityBits     = ((PriorityGroupTmp + (uint32_t)(__NVIC_PRIO_BITS)) < (uint32_t)7UL) ? (uint32_t)0UL : (uint32_t)((PriorityGroupTmp - 7UL) + (uint32_t)(__NVIC_PRIO_BITS));
 80022aa:	69fb      	ldr	r3, [r7, #28]
 80022ac:	3304      	adds	r3, #4
 80022ae:	2b06      	cmp	r3, #6
 80022b0:	d902      	bls.n	80022b8 <NVIC_EncodePriority+0x30>
 80022b2:	69fb      	ldr	r3, [r7, #28]
 80022b4:	3b03      	subs	r3, #3
 80022b6:	e000      	b.n	80022ba <NVIC_EncodePriority+0x32>
 80022b8:	2300      	movs	r3, #0
 80022ba:	617b      	str	r3, [r7, #20]

  return (
           ((PreemptPriority & (uint32_t)((1UL << (PreemptPriorityBits)) - 1UL)) << SubPriorityBits) |
 80022bc:	f04f 32ff 	mov.w	r2, #4294967295
 80022c0:	69bb      	ldr	r3, [r7, #24]
 80022c2:	fa02 f303 	lsl.w	r3, r2, r3
 80022c6:	43da      	mvns	r2, r3
 80022c8:	68bb      	ldr	r3, [r7, #8]
 80022ca:	401a      	ands	r2, r3
 80022cc:	697b      	ldr	r3, [r7, #20]
 80022ce:	409a      	lsls	r2, r3
           ((SubPriority     & (uint32_t)((1UL << (SubPriorityBits    )) - 1UL)))
 80022d0:	f04f 31ff 	mov.w	r1, #4294967295
 80022d4:	697b      	ldr	r3, [r7, #20]
 80022d6:	fa01 f303 	lsl.w	r3, r1, r3
 80022da:	43d9      	mvns	r1, r3
 80022dc:	687b      	ldr	r3, [r7, #4]
 80022de:	400b      	ands	r3, r1
           ((PreemptPriority & (uint32_t)((1UL << (PreemptPriorityBits)) - 1UL)) << SubPriorityBits) |
 80022e0:	4313      	orrs	r3, r2
         );
}
 80022e2:	4618      	mov	r0, r3
 80022e4:	3724      	adds	r7, #36	; 0x24
 80022e6:	46bd      	mov	sp, r7
 80022e8:	bc80      	pop	{r7}
 80022ea:	4770      	bx	lr

080022ec <SysTick_Config>:
  \note    When the variable <b>__Vendor_SysTickConfig</b> is set to 1, then the
           function <b>SysTick_Config</b> is not included. In this case, the file <b><i>device</i>.h</b>
           must contain a vendor-specific implementation of this function.
 */
__STATIC_INLINE uint32_t SysTick_Config(uint32_t ticks)
{
 80022ec:	b580      	push	{r7, lr}
 80022ee:	b082      	sub	sp, #8
 80022f0:	af00      	add	r7, sp, #0
 80022f2:	6078      	str	r0, [r7, #4]
  if ((ticks - 1UL) > SysTick_LOAD_RELOAD_Msk)
 80022f4:	687b      	ldr	r3, [r7, #4]
 80022f6:	3b01      	subs	r3, #1
 80022f8:	f1b3 7f80 	cmp.w	r3, #16777216	; 0x1000000
 80022fc:	d301      	bcc.n	8002302 <SysTick_Config+0x16>
  {
    return (1UL);                                                   /* Reload value impossible */
 80022fe:	2301      	movs	r3, #1
 8002300:	e00f      	b.n	8002322 <SysTick_Config+0x36>
  }

  SysTick->LOAD  = (uint32_t)(ticks - 1UL);                         /* set reload register */
 8002302:	4a0a      	ldr	r2, [pc, #40]	; (800232c <SysTick_Config+0x40>)
 8002304:	687b      	ldr	r3, [r7, #4]
 8002306:	3b01      	subs	r3, #1
 8002308:	6053      	str	r3, [r2, #4]
  NVIC_SetPriority (SysTick_IRQn, (1UL << __NVIC_PRIO_BITS) - 1UL); /* set Priority for Systick Interrupt */
 800230a:	210f      	movs	r1, #15
 800230c:	f04f 30ff 	mov.w	r0, #4294967295
 8002310:	f7ff ff90 	bl	8002234 <__NVIC_SetPriority>
  SysTick->VAL   = 0UL;                                             /* Load the SysTick Counter Value */
 8002314:	4b05      	ldr	r3, [pc, #20]	; (800232c <SysTick_Config+0x40>)
 8002316:	2200      	movs	r2, #0
 8002318:	609a      	str	r2, [r3, #8]
  SysTick->CTRL  = SysTick_CTRL_CLKSOURCE_Msk |
 800231a:	4b04      	ldr	r3, [pc, #16]	; (800232c <SysTick_Config+0x40>)
 800231c:	2207      	movs	r2, #7
 800231e:	601a      	str	r2, [r3, #0]
                   SysTick_CTRL_TICKINT_Msk   |
                   SysTick_CTRL_ENABLE_Msk;                         /* Enable SysTick IRQ and SysTick Timer */
  return (0UL);                                                     /* Function successful */
 8002320:	2300      	movs	r3, #0
}
 8002322:	4618      	mov	r0, r3
 8002324:	3708      	adds	r7, #8
 8002326:	46bd      	mov	sp, r7
 8002328:	bd80      	pop	{r7, pc}
 800232a:	bf00      	nop
 800232c:	e000e010 	.word	0xe000e010

08002330 <HAL_NVIC_SetPriorityGrouping>:
  * @note   When the NVIC_PriorityGroup_0 is selected, IRQ pre-emption is no more possible. 
  *         The pending IRQ priority will be managed only by the subpriority. 
  * @retval None
  */
void HAL_NVIC_SetPriorityGrouping(uint32_t PriorityGroup)
{
 8002330:	b580      	push	{r7, lr}
 8002332:	b082      	sub	sp, #8
 8002334:	af00      	add	r7, sp, #0
 8002336:	6078      	str	r0, [r7, #4]
  /* Check the parameters */
  assert_param(IS_NVIC_PRIORITY_GROUP(PriorityGroup));
  
  /* Set the PRIGROUP[10:8] bits according to the PriorityGroup parameter value */
  NVIC_SetPriorityGrouping(PriorityGroup);
 8002338:	6878      	ldr	r0, [r7, #4]
 800233a:	f7ff ff49 	bl	80021d0 <__NVIC_SetPriorityGrouping>
}
 800233e:	bf00      	nop
 8002340:	3708      	adds	r7, #8
 8002342:	46bd      	mov	sp, r7
 8002344:	bd80      	pop	{r7, pc}

08002346 <HAL_NVIC_SetPriority>:
  *         This parameter can be a value between 0 and 15
  *         A lower priority value indicates a higher priority.          
  * @retval None
  */
void HAL_NVIC_SetPriority(IRQn_Type IRQn, uint32_t PreemptPriority, uint32_t SubPriority)
{
 8002346:	b580      	push	{r7, lr}
 8002348:	b086      	sub	sp, #24
 800234a:	af00      	add	r7, sp, #0
 800234c:	4603      	mov	r3, r0
 800234e:	60b9      	str	r1, [r7, #8]
 8002350:	607a      	str	r2, [r7, #4]
 8002352:	73fb      	strb	r3, [r7, #15]
  uint32_t prioritygroup = 0x00;
 8002354:	2300      	movs	r3, #0
 8002356:	617b      	str	r3, [r7, #20]
  
  /* Check the parameters */
  assert_param(IS_NVIC_SUB_PRIORITY(SubPriority));
  assert_param(IS_NVIC_PREEMPTION_PRIORITY(PreemptPriority));
  
  prioritygroup = NVIC_GetPriorityGrouping();
 8002358:	f7ff ff5e 	bl	8002218 <__NVIC_GetPriorityGrouping>
 800235c:	6178      	str	r0, [r7, #20]
  
  NVIC_SetPriority(IRQn, NVIC_EncodePriority(prioritygroup, PreemptPriority, SubPriority));
 800235e:	687a      	ldr	r2, [r7, #4]
 8002360:	68b9      	ldr	r1, [r7, #8]
 8002362:	6978      	ldr	r0, [r7, #20]
 8002364:	f7ff ff90 	bl	8002288 <NVIC_EncodePriority>
 8002368:	4602      	mov	r2, r0
 800236a:	f997 300f 	ldrsb.w	r3, [r7, #15]
 800236e:	4611      	mov	r1, r2
 8002370:	4618      	mov	r0, r3
 8002372:	f7ff ff5f 	bl	8002234 <__NVIC_SetPriority>
}
 8002376:	bf00      	nop
 8002378:	3718      	adds	r7, #24
 800237a:	46bd      	mov	sp, r7
 800237c:	bd80      	pop	{r7, pc}

0800237e <HAL_SYSTICK_Config>:
  * @param  TicksNumb Specifies the ticks Number of ticks between two interrupts.
  * @retval status:  - 0  Function succeeded.
  *                  - 1  Function failed.
  */
uint32_t HAL_SYSTICK_Config(uint32_t TicksNumb)
{
 800237e:	b580      	push	{r7, lr}
 8002380:	b082      	sub	sp, #8
 8002382:	af00      	add	r7, sp, #0
 8002384:	6078      	str	r0, [r7, #4]
   return SysTick_Config(TicksNumb);
 8002386:	6878      	ldr	r0, [r7, #4]
 8002388:	f7ff ffb0 	bl	80022ec <SysTick_Config>
 800238c:	4603      	mov	r3, r0
}
 800238e:	4618      	mov	r0, r3
 8002390:	3708      	adds	r7, #8
 8002392:	46bd      	mov	sp, r7
 8002394:	bd80      	pop	{r7, pc}
	...

08002398 <HAL_GPIO_Init>:
  * @param  GPIO_Init pointer to a GPIO_InitTypeDef structure that contains
  *         the configuration information for the specified GPIO peripheral.
  * @retval None
  */
void HAL_GPIO_Init(GPIO_TypeDef  *GPIOx, GPIO_InitTypeDef *GPIO_Init)
{
 8002398:	b480      	push	{r7}
 800239a:	b087      	sub	sp, #28
 800239c:	af00      	add	r7, sp, #0
 800239e:	6078      	str	r0, [r7, #4]
 80023a0:	6039      	str	r1, [r7, #0]
  uint32_t position = 0x00;
 80023a2:	2300      	movs	r3, #0
 80023a4:	617b      	str	r3, [r7, #20]
  uint32_t iocurrent = 0x00;
 80023a6:	2300      	movs	r3, #0
 80023a8:	60fb      	str	r3, [r7, #12]
  uint32_t temp = 0x00;
 80023aa:	2300      	movs	r3, #0
 80023ac:	613b      	str	r3, [r7, #16]
  assert_param(IS_GPIO_ALL_INSTANCE(GPIOx));
  assert_param(IS_GPIO_PIN(GPIO_Init->Pin));
  assert_param(IS_GPIO_MODE(GPIO_Init->Mode));

  /* Configure the port pins */
  while (((GPIO_Init->Pin) >> position) != 0)
 80023ae:	e14e      	b.n	800264e <HAL_GPIO_Init+0x2b6>
  {
    /* Get current io position */
    iocurrent = (GPIO_Init->Pin) & (1U << position);
 80023b0:	683b      	ldr	r3, [r7, #0]
 80023b2:	681a      	ldr	r2, [r3, #0]
 80023b4:	2101      	movs	r1, #1
 80023b6:	697b      	ldr	r3, [r7, #20]
 80023b8:	fa01 f303 	lsl.w	r3, r1, r3
 80023bc:	4013      	ands	r3, r2
 80023be:	60fb      	str	r3, [r7, #12]

    if (iocurrent)
 80023c0:	68fb      	ldr	r3, [r7, #12]
 80023c2:	2b00      	cmp	r3, #0
 80023c4:	f000 8140 	beq.w	8002648 <HAL_GPIO_Init+0x2b0>
    {
      /*--------------------- GPIO Mode Configuration ------------------------*/
      /* In case of Output or Alternate function mode selection */
      if (((GPIO_Init->Mode & GPIO_MODE) == MODE_OUTPUT) ||
 80023c8:	683b      	ldr	r3, [r7, #0]
 80023ca:	685b      	ldr	r3, [r3, #4]
 80023cc:	f003 0303 	and.w	r3, r3, #3
 80023d0:	2b01      	cmp	r3, #1
 80023d2:	d005      	beq.n	80023e0 <HAL_GPIO_Init+0x48>
          ((GPIO_Init->Mode & GPIO_MODE) == MODE_AF))
 80023d4:	683b      	ldr	r3, [r7, #0]
 80023d6:	685b      	ldr	r3, [r3, #4]
 80023d8:	f003 0303 	and.w	r3, r3, #3
      if (((GPIO_Init->Mode & GPIO_MODE) == MODE_OUTPUT) ||
 80023dc:	2b02      	cmp	r3, #2
 80023de:	d130      	bne.n	8002442 <HAL_GPIO_Init+0xaa>
      {
